{
	"contracts/examples/CallContractExample.sol": {
		"ContractFour": {
			"abi": [
				{
					"inputs": [
						{
							"internalType": "address",
							"name": "_contract",
							"type": "address"
						}
					],
					"name": "depositToContractOne",
					"outputs": [],
					"stateMutability": "nonpayable",
					"type": "function"
				},
				{
					"stateMutability": "payable",
					"type": "receive"
				}
			],
			"devdoc": {
				"kind": "dev",
				"methods": {},
				"version": 1
			},
			"evm": {
				"assembly": "    /* \"contracts/examples/CallContractExample.sol\":746:1122  contract ContractFour {... */\n  mstore(0x40, 0x80)\n  callvalue\n  dup1\n  iszero\n  tag_1\n  jumpi\n  0x00\n  dup1\n  revert\ntag_1:\n  pop\n  dataSize(sub_0)\n  dup1\n  dataOffset(sub_0)\n  0x00\n  codecopy\n  0x00\n  return\nstop\n\nsub_0: assembly {\n        /* \"contracts/examples/CallContractExample.sol\":746:1122  contract ContractFour {... */\n      mstore(0x40, 0x80)\n      jumpi(tag_1, lt(calldatasize, 0x04))\n      shr(0xe0, calldataload(0x00))\n      dup1\n      0x9962d69d\n      eq\n      tag_3\n      jumpi\n      jump(tag_2)\n    tag_1:\n      jumpi(tag_2, calldatasize)\n      stop\n    tag_2:\n      0x00\n      dup1\n      revert\n        /* \"contracts/examples/CallContractExample.sol\":812:1119  function depositToContractOne(address _contract) public {... */\n    tag_3:\n      callvalue\n      dup1\n      iszero\n      tag_6\n      jumpi\n      0x00\n      dup1\n      revert\n    tag_6:\n      pop\n      tag_7\n      0x04\n      dup1\n      calldatasize\n      sub\n      dup2\n      add\n      swap1\n      tag_8\n      swap2\n      swap1\n      tag_9\n      jump\t// in\n    tag_8:\n      tag_10\n      jump\t// in\n    tag_7:\n      stop\n    tag_10:\n        /* \"contracts/examples/CallContractExample.sol\":879:899  bytes memory payload */\n      0x00\n        /* \"contracts/examples/CallContractExample.sol\":902:938  abi.encodeWithSignature(\"deposit()\") */\n      add(0x24, mload(0x40))\n      mload(0x40)\n      0x20\n      dup2\n      dup4\n      sub\n      sub\n      dup2\n      mstore\n      swap1\n      0x40\n      mstore\n      and(not(0xffffffffffffffffffffffffffffffffffffffffffffffffffffffff), 0xd0e30db000000000000000000000000000000000000000000000000000000000)\n      0x20\n      dup3\n      add\n      dup1\n      mload\n      0xffffffffffffffffffffffffffffffffffffffffffffffffffffffff\n      dup4\n      dup2\n      dup4\n      and\n      or\n      dup4\n      mstore\n      pop\n      pop\n      pop\n      pop\n        /* \"contracts/examples/CallContractExample.sol\":879:938  bytes memory payload = abi.encodeWithSignature(\"deposit()\") */\n      swap1\n      pop\n        /* \"contracts/examples/CallContractExample.sol\":1019:1031  bool success */\n      0x00\n        /* \"contracts/examples/CallContractExample.sol\":1037:1046  _contract */\n      dup3\n        /* \"contracts/examples/CallContractExample.sol\":1037:1051  _contract.call */\n      0xffffffffffffffffffffffffffffffffffffffff\n      and\n        /* \"contracts/examples/CallContractExample.sol\":1059:1061  10 */\n      0x0a\n        /* \"contracts/examples/CallContractExample.sol\":1068:1074  100000 */\n      0x0186a0\n        /* \"contracts/examples/CallContractExample.sol\":1037:1084  _contract.call{value: 10, gas: 100000}(payload) */\n      swap1\n        /* \"contracts/examples/CallContractExample.sol\":1076:1083  payload */\n      dup5\n        /* \"contracts/examples/CallContractExample.sol\":1037:1084  _contract.call{value: 10, gas: 100000}(payload) */\n      mload(0x40)\n      tag_12\n      swap2\n      swap1\n      tag_13\n      jump\t// in\n    tag_12:\n      0x00\n      mload(0x40)\n      dup1\n      dup4\n      sub\n      dup2\n      dup6\n      dup9\n      dup9\n      call\n      swap4\n      pop\n      pop\n      pop\n      pop\n      returndatasize\n      dup1\n      0x00\n      dup2\n      eq\n      tag_16\n      jumpi\n      mload(0x40)\n      swap2\n      pop\n      and(add(returndatasize, 0x3f), not(0x1f))\n      dup3\n      add\n      0x40\n      mstore\n      returndatasize\n      dup3\n      mstore\n      returndatasize\n      0x00\n      0x20\n      dup5\n      add\n      returndatacopy\n      jump(tag_15)\n    tag_16:\n      0x60\n      swap2\n      pop\n    tag_15:\n      pop\n        /* \"contracts/examples/CallContractExample.sol\":1018:1084  (bool success, ) = _contract.call{value: 10, gas: 100000}(payload) */\n      pop\n      swap1\n      pop\n        /* \"contracts/examples/CallContractExample.sol\":1103:1110  success */\n      dup1\n        /* \"contracts/examples/CallContractExample.sol\":1095:1111  require(success) */\n      tag_17\n      jumpi\n      0x00\n      dup1\n      revert\n    tag_17:\n        /* \"contracts/examples/CallContractExample.sol\":868:1119  {... */\n      pop\n      pop\n        /* \"contracts/examples/CallContractExample.sol\":812:1119  function depositToContractOne(address _contract) public {... */\n      pop\n      jump\t// out\n        /* \"#utility.yul\":88:205   */\n    tag_19:\n        /* \"#utility.yul\":197:198   */\n      0x00\n        /* \"#utility.yul\":194:195   */\n      dup1\n        /* \"#utility.yul\":187:199   */\n      revert\n        /* \"#utility.yul\":334:460   */\n    tag_21:\n        /* \"#utility.yul\":371:378   */\n      0x00\n        /* \"#utility.yul\":411:453   */\n      0xffffffffffffffffffffffffffffffffffffffff\n        /* \"#utility.yul\":404:409   */\n      dup3\n        /* \"#utility.yul\":400:454   */\n      and\n        /* \"#utility.yul\":389:454   */\n      swap1\n      pop\n        /* \"#utility.yul\":334:460   */\n      swap2\n      swap1\n      pop\n      jump\t// out\n        /* \"#utility.yul\":466:562   */\n    tag_22:\n        /* \"#utility.yul\":503:510   */\n      0x00\n        /* \"#utility.yul\":532:556   */\n      tag_35\n        /* \"#utility.yul\":550:555   */\n      dup3\n        /* \"#utility.yul\":532:556   */\n      tag_21\n      jump\t// in\n    tag_35:\n        /* \"#utility.yul\":521:556   */\n      swap1\n      pop\n        /* \"#utility.yul\":466:562   */\n      swap2\n      swap1\n      pop\n      jump\t// out\n        /* \"#utility.yul\":568:690   */\n    tag_23:\n        /* \"#utility.yul\":641:665   */\n      tag_37\n        /* \"#utility.yul\":659:664   */\n      dup2\n        /* \"#utility.yul\":641:665   */\n      tag_22\n      jump\t// in\n    tag_37:\n        /* \"#utility.yul\":634:639   */\n      dup2\n        /* \"#utility.yul\":631:666   */\n      eq\n        /* \"#utility.yul\":621:684   */\n      tag_38\n      jumpi\n        /* \"#utility.yul\":680:681   */\n      0x00\n        /* \"#utility.yul\":677:678   */\n      dup1\n        /* \"#utility.yul\":670:682   */\n      revert\n        /* \"#utility.yul\":621:684   */\n    tag_38:\n        /* \"#utility.yul\":568:690   */\n      pop\n      jump\t// out\n        /* \"#utility.yul\":696:835   */\n    tag_24:\n        /* \"#utility.yul\":742:747   */\n      0x00\n        /* \"#utility.yul\":780:786   */\n      dup2\n        /* \"#utility.yul\":767:787   */\n      calldataload\n        /* \"#utility.yul\":758:787   */\n      swap1\n      pop\n        /* \"#utility.yul\":796:829   */\n      tag_40\n        /* \"#utility.yul\":823:828   */\n      dup2\n        /* \"#utility.yul\":796:829   */\n      tag_23\n      jump\t// in\n    tag_40:\n        /* \"#utility.yul\":696:835   */\n      swap3\n      swap2\n      pop\n      pop\n      jump\t// out\n        /* \"#utility.yul\":841:1170   */\n    tag_9:\n        /* \"#utility.yul\":900:906   */\n      0x00\n        /* \"#utility.yul\":949:951   */\n      0x20\n        /* \"#utility.yul\":937:946   */\n      dup3\n        /* \"#utility.yul\":928:935   */\n      dup5\n        /* \"#utility.yul\":924:947   */\n      sub\n        /* \"#utility.yul\":920:952   */\n      slt\n        /* \"#utility.yul\":917:1036   */\n      iszero\n      tag_42\n      jumpi\n        /* \"#utility.yul\":955:1034   */\n      tag_43\n      tag_19\n      jump\t// in\n    tag_43:\n        /* \"#utility.yul\":917:1036   */\n    tag_42:\n        /* \"#utility.yul\":1075:1076   */\n      0x00\n        /* \"#utility.yul\":1100:1153   */\n      tag_44\n        /* \"#utility.yul\":1145:1152   */\n      dup5\n        /* \"#utility.yul\":1136:1142   */\n      dup3\n        /* \"#utility.yul\":1125:1134   */\n      dup6\n        /* \"#utility.yul\":1121:1143   */\n      add\n        /* \"#utility.yul\":1100:1153   */\n      tag_24\n      jump\t// in\n    tag_44:\n        /* \"#utility.yul\":1090:1153   */\n      swap2\n      pop\n        /* \"#utility.yul\":1046:1163   */\n      pop\n        /* \"#utility.yul\":841:1170   */\n      swap3\n      swap2\n      pop\n      pop\n      jump\t// out\n        /* \"#utility.yul\":1176:1274   */\n    tag_25:\n        /* \"#utility.yul\":1227:1233   */\n      0x00\n        /* \"#utility.yul\":1261:1266   */\n      dup2\n        /* \"#utility.yul\":1255:1267   */\n      mload\n        /* \"#utility.yul\":1245:1267   */\n      swap1\n      pop\n        /* \"#utility.yul\":1176:1274   */\n      swap2\n      swap1\n      pop\n      jump\t// out\n        /* \"#utility.yul\":1280:1427   */\n    tag_26:\n        /* \"#utility.yul\":1381:1392   */\n      0x00\n        /* \"#utility.yul\":1418:1421   */\n      dup2\n        /* \"#utility.yul\":1403:1421   */\n      swap1\n      pop\n        /* \"#utility.yul\":1280:1427   */\n      swap3\n      swap2\n      pop\n      pop\n      jump\t// out\n        /* \"#utility.yul\":1433:1679   */\n    tag_27:\n        /* \"#utility.yul\":1514:1515   */\n      0x00\n        /* \"#utility.yul\":1524:1637   */\n    tag_48:\n        /* \"#utility.yul\":1538:1544   */\n      dup4\n        /* \"#utility.yul\":1535:1536   */\n      dup2\n        /* \"#utility.yul\":1532:1545   */\n      lt\n        /* \"#utility.yul\":1524:1637   */\n      iszero\n      tag_50\n      jumpi\n        /* \"#utility.yul\":1623:1624   */\n      dup1\n        /* \"#utility.yul\":1618:1621   */\n      dup3\n        /* \"#utility.yul\":1614:1625   */\n      add\n        /* \"#utility.yul\":1608:1626   */\n      mload\n        /* \"#utility.yul\":1604:1605   */\n      dup2\n        /* \"#utility.yul\":1599:1602   */\n      dup5\n        /* \"#utility.yul\":1595:1606   */\n      add\n        /* \"#utility.yul\":1588:1627   */\n      mstore\n        /* \"#utility.yul\":1560:1562   */\n      0x20\n        /* \"#utility.yul\":1557:1558   */\n      dup2\n        /* \"#utility.yul\":1553:1563   */\n      add\n        /* \"#utility.yul\":1548:1563   */\n      swap1\n      pop\n        /* \"#utility.yul\":1524:1637   */\n      jump(tag_48)\n    tag_50:\n        /* \"#utility.yul\":1671:1672   */\n      0x00\n        /* \"#utility.yul\":1662:1668   */\n      dup5\n        /* \"#utility.yul\":1657:1660   */\n      dup5\n        /* \"#utility.yul\":1653:1669   */\n      add\n        /* \"#utility.yul\":1646:1673   */\n      mstore\n        /* \"#utility.yul\":1495:1679   */\n      pop\n        /* \"#utility.yul\":1433:1679   */\n      pop\n      pop\n      pop\n      jump\t// out\n        /* \"#utility.yul\":1685:2071   */\n    tag_28:\n        /* \"#utility.yul\":1789:1792   */\n      0x00\n        /* \"#utility.yul\":1817:1855   */\n      tag_52\n        /* \"#utility.yul\":1849:1854   */\n      dup3\n        /* \"#utility.yul\":1817:1855   */\n      tag_25\n      jump\t// in\n    tag_52:\n        /* \"#utility.yul\":1871:1959   */\n      tag_53\n        /* \"#utility.yul\":1952:1958   */\n      dup2\n        /* \"#utility.yul\":1947:1950   */\n      dup6\n        /* \"#utility.yul\":1871:1959   */\n      tag_26\n      jump\t// in\n    tag_53:\n        /* \"#utility.yul\":1864:1959   */\n      swap4\n      pop\n        /* \"#utility.yul\":1968:2033   */\n      tag_54\n        /* \"#utility.yul\":2026:2032   */\n      dup2\n        /* \"#utility.yul\":2021:2024   */\n      dup6\n        /* \"#utility.yul\":2014:2018   */\n      0x20\n        /* \"#utility.yul\":2007:2012   */\n      dup7\n        /* \"#utility.yul\":2003:2019   */\n      add\n        /* \"#utility.yul\":1968:2033   */\n      tag_27\n      jump\t// in\n    tag_54:\n        /* \"#utility.yul\":2058:2064   */\n      dup1\n        /* \"#utility.yul\":2053:2056   */\n      dup5\n        /* \"#utility.yul\":2049:2065   */\n      add\n        /* \"#utility.yul\":2042:2065   */\n      swap2\n      pop\n        /* \"#utility.yul\":1793:2071   */\n      pop\n        /* \"#utility.yul\":1685:2071   */\n      swap3\n      swap2\n      pop\n      pop\n      jump\t// out\n        /* \"#utility.yul\":2077:2348   */\n    tag_13:\n        /* \"#utility.yul\":2207:2210   */\n      0x00\n        /* \"#utility.yul\":2229:2322   */\n      tag_56\n        /* \"#utility.yul\":2318:2321   */\n      dup3\n        /* \"#utility.yul\":2309:2315   */\n      dup5\n        /* \"#utility.yul\":2229:2322   */\n      tag_28\n      jump\t// in\n    tag_56:\n        /* \"#utility.yul\":2222:2322   */\n      swap2\n      pop\n        /* \"#utility.yul\":2339:2342   */\n      dup2\n        /* \"#utility.yul\":2332:2342   */\n      swap1\n      pop\n        /* \"#utility.yul\":2077:2348   */\n      swap3\n      swap2\n      pop\n      pop\n      jump\t// out\n\n    auxdata: 0xa2646970667358221220f92fb9d2fa3eb8d91c088a63a6f2d017091ec0091555ad21c9bccd0bc6e17ac364736f6c63430008110033\n}\n",
				"bytecode": {
					"linkReferences": {},
					"object": "608060405234801561001057600080fd5b506102b0806100206000396000f3fe6080604052600436106100225760003560e01c80639962d69d1461002e57610029565b3661002957005b600080fd5b34801561003a57600080fd5b50610055600480360381019061005091906101c5565b610057565b005b60006040516024016040516020818303038152906040527fd0e30db0000000000000000000000000000000000000000000000000000000007bffffffffffffffffffffffffffffffffffffffffffffffffffffffff19166020820180517bffffffffffffffffffffffffffffffffffffffffffffffffffffffff8381831617835250505050905060008273ffffffffffffffffffffffffffffffffffffffff16600a620186a0908460405161010c9190610263565b600060405180830381858888f193505050503d806000811461014a576040519150601f19603f3d011682016040523d82523d6000602084013e61014f565b606091505b505090508061015d57600080fd5b505050565b600080fd5b600073ffffffffffffffffffffffffffffffffffffffff82169050919050565b600061019282610167565b9050919050565b6101a281610187565b81146101ad57600080fd5b50565b6000813590506101bf81610199565b92915050565b6000602082840312156101db576101da610162565b5b60006101e9848285016101b0565b91505092915050565b600081519050919050565b600081905092915050565b60005b8381101561022657808201518184015260208101905061020b565b60008484015250505050565b600061023d826101f2565b61024781856101fd565b9350610257818560208601610208565b80840191505092915050565b600061026f8284610232565b91508190509291505056fea2646970667358221220f92fb9d2fa3eb8d91c088a63a6f2d017091ec0091555ad21c9bccd0bc6e17ac364736f6c63430008110033",
					"opcodes": "PUSH1 0x80 PUSH1 0x40 MSTORE CALLVALUE DUP1 ISZERO PUSH2 0x10 JUMPI PUSH1 0x0 DUP1 REVERT JUMPDEST POP PUSH2 0x2B0 DUP1 PUSH2 0x20 PUSH1 0x0 CODECOPY PUSH1 0x0 RETURN INVALID PUSH1 0x80 PUSH1 0x40 MSTORE PUSH1 0x4 CALLDATASIZE LT PUSH2 0x22 JUMPI PUSH1 0x0 CALLDATALOAD PUSH1 0xE0 SHR DUP1 PUSH4 0x9962D69D EQ PUSH2 0x2E JUMPI PUSH2 0x29 JUMP JUMPDEST CALLDATASIZE PUSH2 0x29 JUMPI STOP JUMPDEST PUSH1 0x0 DUP1 REVERT JUMPDEST CALLVALUE DUP1 ISZERO PUSH2 0x3A JUMPI PUSH1 0x0 DUP1 REVERT JUMPDEST POP PUSH2 0x55 PUSH1 0x4 DUP1 CALLDATASIZE SUB DUP2 ADD SWAP1 PUSH2 0x50 SWAP2 SWAP1 PUSH2 0x1C5 JUMP JUMPDEST PUSH2 0x57 JUMP JUMPDEST STOP JUMPDEST PUSH1 0x0 PUSH1 0x40 MLOAD PUSH1 0x24 ADD PUSH1 0x40 MLOAD PUSH1 0x20 DUP2 DUP4 SUB SUB DUP2 MSTORE SWAP1 PUSH1 0x40 MSTORE PUSH32 0xD0E30DB000000000000000000000000000000000000000000000000000000000 PUSH28 0xFFFFFFFFFFFFFFFFFFFFFFFFFFFFFFFFFFFFFFFFFFFFFFFFFFFFFFFF NOT AND PUSH1 0x20 DUP3 ADD DUP1 MLOAD PUSH28 0xFFFFFFFFFFFFFFFFFFFFFFFFFFFFFFFFFFFFFFFFFFFFFFFFFFFFFFFF DUP4 DUP2 DUP4 AND OR DUP4 MSTORE POP POP POP POP SWAP1 POP PUSH1 0x0 DUP3 PUSH20 0xFFFFFFFFFFFFFFFFFFFFFFFFFFFFFFFFFFFFFFFF AND PUSH1 0xA PUSH3 0x186A0 SWAP1 DUP5 PUSH1 0x40 MLOAD PUSH2 0x10C SWAP2 SWAP1 PUSH2 0x263 JUMP JUMPDEST PUSH1 0x0 PUSH1 0x40 MLOAD DUP1 DUP4 SUB DUP2 DUP6 DUP9 DUP9 CALL SWAP4 POP POP POP POP RETURNDATASIZE DUP1 PUSH1 0x0 DUP2 EQ PUSH2 0x14A JUMPI PUSH1 0x40 MLOAD SWAP2 POP PUSH1 0x1F NOT PUSH1 0x3F RETURNDATASIZE ADD AND DUP3 ADD PUSH1 0x40 MSTORE RETURNDATASIZE DUP3 MSTORE RETURNDATASIZE PUSH1 0x0 PUSH1 0x20 DUP5 ADD RETURNDATACOPY PUSH2 0x14F JUMP JUMPDEST PUSH1 0x60 SWAP2 POP JUMPDEST POP POP SWAP1 POP DUP1 PUSH2 0x15D JUMPI PUSH1 0x0 DUP1 REVERT JUMPDEST POP POP POP JUMP JUMPDEST PUSH1 0x0 DUP1 REVERT JUMPDEST PUSH1 0x0 PUSH20 0xFFFFFFFFFFFFFFFFFFFFFFFFFFFFFFFFFFFFFFFF DUP3 AND SWAP1 POP SWAP2 SWAP1 POP JUMP JUMPDEST PUSH1 0x0 PUSH2 0x192 DUP3 PUSH2 0x167 JUMP JUMPDEST SWAP1 POP SWAP2 SWAP1 POP JUMP JUMPDEST PUSH2 0x1A2 DUP2 PUSH2 0x187 JUMP JUMPDEST DUP2 EQ PUSH2 0x1AD JUMPI PUSH1 0x0 DUP1 REVERT JUMPDEST POP JUMP JUMPDEST PUSH1 0x0 DUP2 CALLDATALOAD SWAP1 POP PUSH2 0x1BF DUP2 PUSH2 0x199 JUMP JUMPDEST SWAP3 SWAP2 POP POP JUMP JUMPDEST PUSH1 0x0 PUSH1 0x20 DUP3 DUP5 SUB SLT ISZERO PUSH2 0x1DB JUMPI PUSH2 0x1DA PUSH2 0x162 JUMP JUMPDEST JUMPDEST PUSH1 0x0 PUSH2 0x1E9 DUP5 DUP3 DUP6 ADD PUSH2 0x1B0 JUMP JUMPDEST SWAP2 POP POP SWAP3 SWAP2 POP POP JUMP JUMPDEST PUSH1 0x0 DUP2 MLOAD SWAP1 POP SWAP2 SWAP1 POP JUMP JUMPDEST PUSH1 0x0 DUP2 SWAP1 POP SWAP3 SWAP2 POP POP JUMP JUMPDEST PUSH1 0x0 JUMPDEST DUP4 DUP2 LT ISZERO PUSH2 0x226 JUMPI DUP1 DUP3 ADD MLOAD DUP2 DUP5 ADD MSTORE PUSH1 0x20 DUP2 ADD SWAP1 POP PUSH2 0x20B JUMP JUMPDEST PUSH1 0x0 DUP5 DUP5 ADD MSTORE POP POP POP POP JUMP JUMPDEST PUSH1 0x0 PUSH2 0x23D DUP3 PUSH2 0x1F2 JUMP JUMPDEST PUSH2 0x247 DUP2 DUP6 PUSH2 0x1FD JUMP JUMPDEST SWAP4 POP PUSH2 0x257 DUP2 DUP6 PUSH1 0x20 DUP7 ADD PUSH2 0x208 JUMP JUMPDEST DUP1 DUP5 ADD SWAP2 POP POP SWAP3 SWAP2 POP POP JUMP JUMPDEST PUSH1 0x0 PUSH2 0x26F DUP3 DUP5 PUSH2 0x232 JUMP JUMPDEST SWAP2 POP DUP2 SWAP1 POP SWAP3 SWAP2 POP POP JUMP INVALID LOG2 PUSH5 0x6970667358 0x22 SLT KECCAK256 0xF9 0x2F 0xB9 0xD2 STATICCALL RETURNDATACOPY 0xB8 0xD9 SHR ADDMOD DUP11 PUSH4 0xA6F2D017 MULMOD 0x1E 0xC0 MULMOD ISZERO SSTORE 0xAD 0x21 0xC9 0xBC 0xCD SIGNEXTEND 0xC6 0xE1 PUSH27 0xC364736F6C63430008110033000000000000000000000000000000 "
				},
				"gasEstimates": {
					"creation": {
						"codeDepositCost": "137600",
						"executionCost": "183",
						"totalCost": "137783"
					},
					"external": {
						"depositToContractOne(address)": "infinite"
					}
				},
				"methodIdentifiers": {
					"depositToContractOne(address)": "9962d69d"
				}
			},
			"storageLayout": {
				"storage": [],
				"types": null
			},
			"userdoc": {
				"kind": "user",
				"methods": {},
				"version": 1
			}
		}
	}
}