{
	"contracts/examples/MappingStructExample.sol": {
		"MappingStructExample": {
			"abi": [
				{
					"inputs": [],
					"name": "depositMone",
					"outputs": [],
					"stateMutability": "payable",
					"type": "function"
				},
				{
					"inputs": [
						{
							"internalType": "address payable",
							"name": "_to",
							"type": "address"
						},
						{
							"internalType": "uint256",
							"name": "_amount",
							"type": "uint256"
						}
					],
					"name": "withdrawMoney",
					"outputs": [],
					"stateMutability": "nonpayable",
					"type": "function"
				}
			],
			"devdoc": {
				"kind": "dev",
				"methods": {},
				"version": 1
			},
			"evm": {
				"assembly": "    /* \"contracts/examples/MappingStructExample.sol\":61:1017  contract MappingStructExample {... */\n  mstore(0x40, 0x80)\n  callvalue\n  dup1\n  iszero\n  tag_1\n  jumpi\n  0x00\n  dup1\n  revert\ntag_1:\n  pop\n  dataSize(sub_0)\n  dup1\n  dataOffset(sub_0)\n  0x00\n  codecopy\n  0x00\n  return\nstop\n\nsub_0: assembly {\n        /* \"contracts/examples/MappingStructExample.sol\":61:1017  contract MappingStructExample {... */\n      mstore(0x40, 0x80)\n      jumpi(tag_1, lt(calldatasize, 0x04))\n      shr(0xe0, calldataload(0x00))\n      dup1\n      0x84f2e96e\n      eq\n      tag_2\n      jumpi\n      dup1\n      0xf274c897\n      eq\n      tag_3\n      jumpi\n    tag_1:\n      0x00\n      dup1\n      revert\n        /* \"contracts/examples/MappingStructExample.sol\":440:753  function depositMone() public payable {... */\n    tag_2:\n      tag_4\n      tag_5\n      jump\t// in\n    tag_4:\n      stop\n        /* \"contracts/examples/MappingStructExample.sol\":761:1014  function withdrawMoney(address payable _to, uint _amount) public {... */\n    tag_3:\n      callvalue\n      dup1\n      iszero\n      tag_6\n      jumpi\n      0x00\n      dup1\n      revert\n    tag_6:\n      pop\n      tag_7\n      0x04\n      dup1\n      calldatasize\n      sub\n      dup2\n      add\n      swap1\n      tag_8\n      swap2\n      swap1\n      tag_9\n      jump\t// in\n    tag_8:\n      tag_10\n      jump\t// in\n    tag_7:\n      stop\n        /* \"contracts/examples/MappingStructExample.sol\":440:753  function depositMone() public payable {... */\n    tag_5:\n        /* \"contracts/examples/MappingStructExample.sol\":526:535  msg.value */\n      callvalue\n        /* \"contracts/examples/MappingStructExample.sol\":489:497  balances */\n      0x00\n        /* \"contracts/examples/MappingStructExample.sol\":489:509  balances[msg.sender] */\n      dup1\n        /* \"contracts/examples/MappingStructExample.sol\":498:508  msg.sender */\n      caller\n        /* \"contracts/examples/MappingStructExample.sol\":489:509  balances[msg.sender] */\n      0xffffffffffffffffffffffffffffffffffffffff\n      and\n      0xffffffffffffffffffffffffffffffffffffffff\n      and\n      dup2\n      mstore\n      0x20\n      add\n      swap1\n      dup2\n      mstore\n      0x20\n      add\n      0x00\n      keccak256\n        /* \"contracts/examples/MappingStructExample.sol\":489:522  balances[msg.sender].totalBalance */\n      0x00\n      add\n      0x00\n        /* \"contracts/examples/MappingStructExample.sol\":489:535  balances[msg.sender].totalBalance += msg.value */\n      dup3\n      dup3\n      sload\n      tag_12\n      swap2\n      swap1\n      tag_13\n      jump\t// in\n    tag_12:\n      swap3\n      pop\n      pop\n      dup2\n      swap1\n      sstore\n      pop\n        /* \"contracts/examples/MappingStructExample.sol\":548:574  Transaction memory deposit */\n      0x00\n        /* \"contracts/examples/MappingStructExample.sol\":577:616  Transaction(msg.value, block.timestamp) */\n      mload(0x40)\n      dup1\n      0x40\n      add\n      0x40\n      mstore\n      dup1\n        /* \"contracts/examples/MappingStructExample.sol\":589:598  msg.value */\n      callvalue\n        /* \"contracts/examples/MappingStructExample.sol\":577:616  Transaction(msg.value, block.timestamp) */\n      dup2\n      mstore\n      0x20\n      add\n        /* \"contracts/examples/MappingStructExample.sol\":600:615  block.timestamp */\n      timestamp\n        /* \"contracts/examples/MappingStructExample.sol\":577:616  Transaction(msg.value, block.timestamp) */\n      dup2\n      mstore\n      pop\n        /* \"contracts/examples/MappingStructExample.sol\":548:616  Transaction memory deposit = Transaction(msg.value, block.timestamp) */\n      swap1\n      pop\n        /* \"contracts/examples/MappingStructExample.sol\":693:700  deposit */\n      dup1\n        /* \"contracts/examples/MappingStructExample.sol\":627:635  balances */\n      0x00\n        /* \"contracts/examples/MappingStructExample.sol\":627:647  balances[msg.sender] */\n      dup1\n        /* \"contracts/examples/MappingStructExample.sol\":636:646  msg.sender */\n      caller\n        /* \"contracts/examples/MappingStructExample.sol\":627:647  balances[msg.sender] */\n      0xffffffffffffffffffffffffffffffffffffffff\n      and\n      0xffffffffffffffffffffffffffffffffffffffff\n      and\n      dup2\n      mstore\n      0x20\n      add\n      swap1\n      dup2\n      mstore\n      0x20\n      add\n      0x00\n      keccak256\n        /* \"contracts/examples/MappingStructExample.sol\":627:656  balances[msg.sender].deposits */\n      0x02\n      add\n        /* \"contracts/examples/MappingStructExample.sol\":627:690  balances[msg.sender].deposits[balances[msg.sender].numDeposits] */\n      0x00\n        /* \"contracts/examples/MappingStructExample.sol\":657:665  balances */\n      dup1\n        /* \"contracts/examples/MappingStructExample.sol\":657:677  balances[msg.sender] */\n      0x00\n        /* \"contracts/examples/MappingStructExample.sol\":666:676  msg.sender */\n      caller\n        /* \"contracts/examples/MappingStructExample.sol\":657:677  balances[msg.sender] */\n      0xffffffffffffffffffffffffffffffffffffffff\n      and\n      0xffffffffffffffffffffffffffffffffffffffff\n      and\n      dup2\n      mstore\n      0x20\n      add\n      swap1\n      dup2\n      mstore\n      0x20\n      add\n      0x00\n      keccak256\n        /* \"contracts/examples/MappingStructExample.sol\":657:689  balances[msg.sender].numDeposits */\n      0x01\n      add\n      sload\n        /* \"contracts/examples/MappingStructExample.sol\":627:690  balances[msg.sender].deposits[balances[msg.sender].numDeposits] */\n      dup2\n      mstore\n      0x20\n      add\n      swap1\n      dup2\n      mstore\n      0x20\n      add\n      0x00\n      keccak256\n        /* \"contracts/examples/MappingStructExample.sol\":627:700  balances[msg.sender].deposits[balances[msg.sender].numDeposits] = deposit */\n      0x00\n      dup3\n      add\n      mload\n      dup2\n      0x00\n      add\n      sstore\n      0x20\n      dup3\n      add\n      mload\n      dup2\n      0x01\n      add\n      sstore\n      swap1\n      pop\n      pop\n        /* \"contracts/examples/MappingStructExample.sol\":711:719  balances */\n      0x00\n        /* \"contracts/examples/MappingStructExample.sol\":711:731  balances[msg.sender] */\n      dup1\n        /* \"contracts/examples/MappingStructExample.sol\":720:730  msg.sender */\n      caller\n        /* \"contracts/examples/MappingStructExample.sol\":711:731  balances[msg.sender] */\n      0xffffffffffffffffffffffffffffffffffffffff\n      and\n      0xffffffffffffffffffffffffffffffffffffffff\n      and\n      dup2\n      mstore\n      0x20\n      add\n      swap1\n      dup2\n      mstore\n      0x20\n      add\n      0x00\n      keccak256\n        /* \"contracts/examples/MappingStructExample.sol\":711:743  balances[msg.sender].numDeposits */\n      0x01\n      add\n      0x00\n        /* \"contracts/examples/MappingStructExample.sol\":711:745  balances[msg.sender].numDeposits++ */\n      dup2\n      sload\n      dup1\n      swap3\n      swap2\n      swap1\n      tag_14\n      swap1\n      tag_15\n      jump\t// in\n    tag_14:\n      swap2\n      swap1\n      pop\n      sstore\n      pop\n        /* \"contracts/examples/MappingStructExample.sol\":478:753  {... */\n      pop\n        /* \"contracts/examples/MappingStructExample.sol\":440:753  function depositMone() public payable {... */\n      jump\t// out\n        /* \"contracts/examples/MappingStructExample.sol\":761:1014  function withdrawMoney(address payable _to, uint _amount) public {... */\n    tag_10:\n        /* \"contracts/examples/MappingStructExample.sol\":874:881  _amount */\n      dup1\n        /* \"contracts/examples/MappingStructExample.sol\":837:845  balances */\n      0x00\n        /* \"contracts/examples/MappingStructExample.sol\":837:857  balances[msg.sender] */\n      dup1\n        /* \"contracts/examples/MappingStructExample.sol\":846:856  msg.sender */\n      caller\n        /* \"contracts/examples/MappingStructExample.sol\":837:857  balances[msg.sender] */\n      0xffffffffffffffffffffffffffffffffffffffff\n      and\n      0xffffffffffffffffffffffffffffffffffffffff\n      and\n      dup2\n      mstore\n      0x20\n      add\n      swap1\n      dup2\n      mstore\n      0x20\n      add\n      0x00\n      keccak256\n        /* \"contracts/examples/MappingStructExample.sol\":837:870  balances[msg.sender].totalBalance */\n      0x00\n      add\n      0x00\n        /* \"contracts/examples/MappingStructExample.sol\":837:881  balances[msg.sender].totalBalance -= _amount */\n      dup3\n      dup3\n      sload\n      tag_17\n      swap2\n      swap1\n      tag_18\n      jump\t// in\n    tag_17:\n      swap3\n      pop\n      pop\n      dup2\n      swap1\n      sstore\n      pop\n        /* \"contracts/examples/MappingStructExample.sol\":894:922  Transaction memory withdrawl */\n      0x00\n        /* \"contracts/examples/MappingStructExample.sol\":925:962  Transaction(_amount, block.timestamp) */\n      mload(0x40)\n      dup1\n      0x40\n      add\n      0x40\n      mstore\n      dup1\n        /* \"contracts/examples/MappingStructExample.sol\":937:944  _amount */\n      dup4\n        /* \"contracts/examples/MappingStructExample.sol\":925:962  Transaction(_amount, block.timestamp) */\n      dup2\n      mstore\n      0x20\n      add\n        /* \"contracts/examples/MappingStructExample.sol\":946:961  block.timestamp */\n      timestamp\n        /* \"contracts/examples/MappingStructExample.sol\":925:962  Transaction(_amount, block.timestamp) */\n      dup2\n      mstore\n      pop\n        /* \"contracts/examples/MappingStructExample.sol\":894:962  Transaction memory withdrawl = Transaction(_amount, block.timestamp) */\n      swap1\n      pop\n        /* \"contracts/examples/MappingStructExample.sol\":985:988  _to */\n      dup3\n        /* \"contracts/examples/MappingStructExample.sol\":985:997  _to.transfer */\n      0xffffffffffffffffffffffffffffffffffffffff\n      and\n        /* \"contracts/examples/MappingStructExample.sol\":985:1006  _to.transfer(_amount) */\n      0x08fc\n        /* \"contracts/examples/MappingStructExample.sol\":998:1005  _amount */\n      dup4\n        /* \"contracts/examples/MappingStructExample.sol\":985:1006  _to.transfer(_amount) */\n      swap1\n      dup2\n      iszero\n      mul\n      swap1\n      mload(0x40)\n      0x00\n      mload(0x40)\n      dup1\n      dup4\n      sub\n      dup2\n      dup6\n      dup9\n      dup9\n      call\n      swap4\n      pop\n      pop\n      pop\n      pop\n      iszero\n      dup1\n      iszero\n      tag_20\n      jumpi\n      returndatasize\n      0x00\n      dup1\n      returndatacopy\n      revert(0x00, returndatasize)\n    tag_20:\n      pop\n        /* \"contracts/examples/MappingStructExample.sol\":826:1014  {... */\n      pop\n        /* \"contracts/examples/MappingStructExample.sol\":761:1014  function withdrawMoney(address payable _to, uint _amount) public {... */\n      pop\n      pop\n      jump\t// out\n        /* \"#utility.yul\":88:205   */\n    tag_22:\n        /* \"#utility.yul\":197:198   */\n      0x00\n        /* \"#utility.yul\":194:195   */\n      dup1\n        /* \"#utility.yul\":187:199   */\n      revert\n        /* \"#utility.yul\":334:460   */\n    tag_24:\n        /* \"#utility.yul\":371:378   */\n      0x00\n        /* \"#utility.yul\":411:453   */\n      0xffffffffffffffffffffffffffffffffffffffff\n        /* \"#utility.yul\":404:409   */\n      dup3\n        /* \"#utility.yul\":400:454   */\n      and\n        /* \"#utility.yul\":389:454   */\n      swap1\n      pop\n        /* \"#utility.yul\":334:460   */\n      swap2\n      swap1\n      pop\n      jump\t// out\n        /* \"#utility.yul\":466:570   */\n    tag_25:\n        /* \"#utility.yul\":511:518   */\n      0x00\n        /* \"#utility.yul\":540:564   */\n      tag_38\n        /* \"#utility.yul\":558:563   */\n      dup3\n        /* \"#utility.yul\":540:564   */\n      tag_24\n      jump\t// in\n    tag_38:\n        /* \"#utility.yul\":529:564   */\n      swap1\n      pop\n        /* \"#utility.yul\":466:570   */\n      swap2\n      swap1\n      pop\n      jump\t// out\n        /* \"#utility.yul\":576:714   */\n    tag_26:\n        /* \"#utility.yul\":657:689   */\n      tag_40\n        /* \"#utility.yul\":683:688   */\n      dup2\n        /* \"#utility.yul\":657:689   */\n      tag_25\n      jump\t// in\n    tag_40:\n        /* \"#utility.yul\":650:655   */\n      dup2\n        /* \"#utility.yul\":647:690   */\n      eq\n        /* \"#utility.yul\":637:708   */\n      tag_41\n      jumpi\n        /* \"#utility.yul\":704:705   */\n      0x00\n        /* \"#utility.yul\":701:702   */\n      dup1\n        /* \"#utility.yul\":694:706   */\n      revert\n        /* \"#utility.yul\":637:708   */\n    tag_41:\n        /* \"#utility.yul\":576:714   */\n      pop\n      jump\t// out\n        /* \"#utility.yul\":720:875   */\n    tag_27:\n        /* \"#utility.yul\":774:779   */\n      0x00\n        /* \"#utility.yul\":812:818   */\n      dup2\n        /* \"#utility.yul\":799:819   */\n      calldataload\n        /* \"#utility.yul\":790:819   */\n      swap1\n      pop\n        /* \"#utility.yul\":828:869   */\n      tag_43\n        /* \"#utility.yul\":863:868   */\n      dup2\n        /* \"#utility.yul\":828:869   */\n      tag_26\n      jump\t// in\n    tag_43:\n        /* \"#utility.yul\":720:875   */\n      swap3\n      swap2\n      pop\n      pop\n      jump\t// out\n        /* \"#utility.yul\":881:958   */\n    tag_28:\n        /* \"#utility.yul\":918:925   */\n      0x00\n        /* \"#utility.yul\":947:952   */\n      dup2\n        /* \"#utility.yul\":936:952   */\n      swap1\n      pop\n        /* \"#utility.yul\":881:958   */\n      swap2\n      swap1\n      pop\n      jump\t// out\n        /* \"#utility.yul\":964:1086   */\n    tag_29:\n        /* \"#utility.yul\":1037:1061   */\n      tag_46\n        /* \"#utility.yul\":1055:1060   */\n      dup2\n        /* \"#utility.yul\":1037:1061   */\n      tag_28\n      jump\t// in\n    tag_46:\n        /* \"#utility.yul\":1030:1035   */\n      dup2\n        /* \"#utility.yul\":1027:1062   */\n      eq\n        /* \"#utility.yul\":1017:1080   */\n      tag_47\n      jumpi\n        /* \"#utility.yul\":1076:1077   */\n      0x00\n        /* \"#utility.yul\":1073:1074   */\n      dup1\n        /* \"#utility.yul\":1066:1078   */\n      revert\n        /* \"#utility.yul\":1017:1080   */\n    tag_47:\n        /* \"#utility.yul\":964:1086   */\n      pop\n      jump\t// out\n        /* \"#utility.yul\":1092:1231   */\n    tag_30:\n        /* \"#utility.yul\":1138:1143   */\n      0x00\n        /* \"#utility.yul\":1176:1182   */\n      dup2\n        /* \"#utility.yul\":1163:1183   */\n      calldataload\n        /* \"#utility.yul\":1154:1183   */\n      swap1\n      pop\n        /* \"#utility.yul\":1192:1225   */\n      tag_49\n        /* \"#utility.yul\":1219:1224   */\n      dup2\n        /* \"#utility.yul\":1192:1225   */\n      tag_29\n      jump\t// in\n    tag_49:\n        /* \"#utility.yul\":1092:1231   */\n      swap3\n      swap2\n      pop\n      pop\n      jump\t// out\n        /* \"#utility.yul\":1237:1727   */\n    tag_9:\n        /* \"#utility.yul\":1313:1319   */\n      0x00\n        /* \"#utility.yul\":1321:1327   */\n      dup1\n        /* \"#utility.yul\":1370:1372   */\n      0x40\n        /* \"#utility.yul\":1358:1367   */\n      dup4\n        /* \"#utility.yul\":1349:1356   */\n      dup6\n        /* \"#utility.yul\":1345:1368   */\n      sub\n        /* \"#utility.yul\":1341:1373   */\n      slt\n        /* \"#utility.yul\":1338:1457   */\n      iszero\n      tag_51\n      jumpi\n        /* \"#utility.yul\":1376:1455   */\n      tag_52\n      tag_22\n      jump\t// in\n    tag_52:\n        /* \"#utility.yul\":1338:1457   */\n    tag_51:\n        /* \"#utility.yul\":1496:1497   */\n      0x00\n        /* \"#utility.yul\":1521:1582   */\n      tag_53\n        /* \"#utility.yul\":1574:1581   */\n      dup6\n        /* \"#utility.yul\":1565:1571   */\n      dup3\n        /* \"#utility.yul\":1554:1563   */\n      dup7\n        /* \"#utility.yul\":1550:1572   */\n      add\n        /* \"#utility.yul\":1521:1582   */\n      tag_27\n      jump\t// in\n    tag_53:\n        /* \"#utility.yul\":1511:1582   */\n      swap3\n      pop\n        /* \"#utility.yul\":1467:1592   */\n      pop\n        /* \"#utility.yul\":1631:1633   */\n      0x20\n        /* \"#utility.yul\":1657:1710   */\n      tag_54\n        /* \"#utility.yul\":1702:1709   */\n      dup6\n        /* \"#utility.yul\":1693:1699   */\n      dup3\n        /* \"#utility.yul\":1682:1691   */\n      dup7\n        /* \"#utility.yul\":1678:1700   */\n      add\n        /* \"#utility.yul\":1657:1710   */\n      tag_30\n      jump\t// in\n    tag_54:\n        /* \"#utility.yul\":1647:1710   */\n      swap2\n      pop\n        /* \"#utility.yul\":1602:1720   */\n      pop\n        /* \"#utility.yul\":1237:1727   */\n      swap3\n      pop\n      swap3\n      swap1\n      pop\n      jump\t// out\n        /* \"#utility.yul\":1733:1913   */\n    tag_31:\n        /* \"#utility.yul\":1781:1858   */\n      0x4e487b7100000000000000000000000000000000000000000000000000000000\n        /* \"#utility.yul\":1778:1779   */\n      0x00\n        /* \"#utility.yul\":1771:1859   */\n      mstore\n        /* \"#utility.yul\":1878:1882   */\n      0x11\n        /* \"#utility.yul\":1875:1876   */\n      0x04\n        /* \"#utility.yul\":1868:1883   */\n      mstore\n        /* \"#utility.yul\":1902:1906   */\n      0x24\n        /* \"#utility.yul\":1899:1900   */\n      0x00\n        /* \"#utility.yul\":1892:1907   */\n      revert\n        /* \"#utility.yul\":1919:2110   */\n    tag_13:\n        /* \"#utility.yul\":1959:1962   */\n      0x00\n        /* \"#utility.yul\":1978:1998   */\n      tag_57\n        /* \"#utility.yul\":1996:1997   */\n      dup3\n        /* \"#utility.yul\":1978:1998   */\n      tag_28\n      jump\t// in\n    tag_57:\n        /* \"#utility.yul\":1973:1998   */\n      swap2\n      pop\n        /* \"#utility.yul\":2012:2032   */\n      tag_58\n        /* \"#utility.yul\":2030:2031   */\n      dup4\n        /* \"#utility.yul\":2012:2032   */\n      tag_28\n      jump\t// in\n    tag_58:\n        /* \"#utility.yul\":2007:2032   */\n      swap3\n      pop\n        /* \"#utility.yul\":2055:2056   */\n      dup3\n        /* \"#utility.yul\":2052:2053   */\n      dup3\n        /* \"#utility.yul\":2048:2057   */\n      add\n        /* \"#utility.yul\":2041:2057   */\n      swap1\n      pop\n        /* \"#utility.yul\":2076:2079   */\n      dup1\n        /* \"#utility.yul\":2073:2074   */\n      dup3\n        /* \"#utility.yul\":2070:2080   */\n      gt\n        /* \"#utility.yul\":2067:2103   */\n      iszero\n      tag_59\n      jumpi\n        /* \"#utility.yul\":2083:2101   */\n      tag_60\n      tag_31\n      jump\t// in\n    tag_60:\n        /* \"#utility.yul\":2067:2103   */\n    tag_59:\n        /* \"#utility.yul\":1919:2110   */\n      swap3\n      swap2\n      pop\n      pop\n      jump\t// out\n        /* \"#utility.yul\":2116:2349   */\n    tag_15:\n        /* \"#utility.yul\":2155:2158   */\n      0x00\n        /* \"#utility.yul\":2178:2202   */\n      tag_62\n        /* \"#utility.yul\":2196:2201   */\n      dup3\n        /* \"#utility.yul\":2178:2202   */\n      tag_28\n      jump\t// in\n    tag_62:\n        /* \"#utility.yul\":2169:2202   */\n      swap2\n      pop\n        /* \"#utility.yul\":2224:2290   */\n      0xffffffffffffffffffffffffffffffffffffffffffffffffffffffffffffffff\n        /* \"#utility.yul\":2217:2222   */\n      dup3\n        /* \"#utility.yul\":2214:2291   */\n      sub\n        /* \"#utility.yul\":2211:2314   */\n      tag_63\n      jumpi\n        /* \"#utility.yul\":2294:2312   */\n      tag_64\n      tag_31\n      jump\t// in\n    tag_64:\n        /* \"#utility.yul\":2211:2314   */\n    tag_63:\n        /* \"#utility.yul\":2341:2342   */\n      0x01\n        /* \"#utility.yul\":2334:2339   */\n      dup3\n        /* \"#utility.yul\":2330:2343   */\n      add\n        /* \"#utility.yul\":2323:2343   */\n      swap1\n      pop\n        /* \"#utility.yul\":2116:2349   */\n      swap2\n      swap1\n      pop\n      jump\t// out\n        /* \"#utility.yul\":2355:2549   */\n    tag_18:\n        /* \"#utility.yul\":2395:2399   */\n      0x00\n        /* \"#utility.yul\":2415:2435   */\n      tag_66\n        /* \"#utility.yul\":2433:2434   */\n      dup3\n        /* \"#utility.yul\":2415:2435   */\n      tag_28\n      jump\t// in\n    tag_66:\n        /* \"#utility.yul\":2410:2435   */\n      swap2\n      pop\n        /* \"#utility.yul\":2449:2469   */\n      tag_67\n        /* \"#utility.yul\":2467:2468   */\n      dup4\n        /* \"#utility.yul\":2449:2469   */\n      tag_28\n      jump\t// in\n    tag_67:\n        /* \"#utility.yul\":2444:2469   */\n      swap3\n      pop\n        /* \"#utility.yul\":2493:2494   */\n      dup3\n        /* \"#utility.yul\":2490:2491   */\n      dup3\n        /* \"#utility.yul\":2486:2495   */\n      sub\n        /* \"#utility.yul\":2478:2495   */\n      swap1\n      pop\n        /* \"#utility.yul\":2517:2518   */\n      dup2\n        /* \"#utility.yul\":2511:2515   */\n      dup2\n        /* \"#utility.yul\":2508:2519   */\n      gt\n        /* \"#utility.yul\":2505:2542   */\n      iszero\n      tag_68\n      jumpi\n        /* \"#utility.yul\":2522:2540   */\n      tag_69\n      tag_31\n      jump\t// in\n    tag_69:\n        /* \"#utility.yul\":2505:2542   */\n    tag_68:\n        /* \"#utility.yul\":2355:2549   */\n      swap3\n      swap2\n      pop\n      pop\n      jump\t// out\n\n    auxdata: 0xa2646970667358221220d33115755dbf8c48ce43566429aee05300dcbdc5d9dfd5a9cc375857cb27750c64736f6c63430008110033\n}\n",
				"bytecode": {
					"linkReferences": {},
					"object": "608060405234801561001057600080fd5b50610482806100206000396000f3fe6080604052600436106100295760003560e01c806384f2e96e1461002e578063f274c89714610038575b600080fd5b610036610061565b005b34801561004457600080fd5b5061005f600480360381019061005a919061032d565b6101d7565b005b346000803373ffffffffffffffffffffffffffffffffffffffff1673ffffffffffffffffffffffffffffffffffffffff16815260200190815260200160002060000160008282546100b2919061039c565b9250508190555060006040518060400160405280348152602001428152509050806000803373ffffffffffffffffffffffffffffffffffffffff1673ffffffffffffffffffffffffffffffffffffffff16815260200190815260200160002060020160008060003373ffffffffffffffffffffffffffffffffffffffff1673ffffffffffffffffffffffffffffffffffffffff16815260200190815260200160002060010154815260200190815260200160002060008201518160000155602082015181600101559050506000803373ffffffffffffffffffffffffffffffffffffffff1673ffffffffffffffffffffffffffffffffffffffff16815260200190815260200160002060010160008154809291906101cf906103d0565b919050555050565b806000803373ffffffffffffffffffffffffffffffffffffffff1673ffffffffffffffffffffffffffffffffffffffff16815260200190815260200160002060000160008282546102289190610418565b92505081905550600060405180604001604052808381526020014281525090508273ffffffffffffffffffffffffffffffffffffffff166108fc839081150290604051600060405180830381858888f1935050505015801561028e573d6000803e3d6000fd5b50505050565b600080fd5b600073ffffffffffffffffffffffffffffffffffffffff82169050919050565b60006102c482610299565b9050919050565b6102d4816102b9565b81146102df57600080fd5b50565b6000813590506102f1816102cb565b92915050565b6000819050919050565b61030a816102f7565b811461031557600080fd5b50565b60008135905061032781610301565b92915050565b6000806040838503121561034457610343610294565b5b6000610352858286016102e2565b925050602061036385828601610318565b9150509250929050565b7f4e487b7100000000000000000000000000000000000000000000000000000000600052601160045260246000fd5b60006103a7826102f7565b91506103b2836102f7565b92508282019050808211156103ca576103c961036d565b5b92915050565b60006103db826102f7565b91507fffffffffffffffffffffffffffffffffffffffffffffffffffffffffffffffff820361040d5761040c61036d565b5b600182019050919050565b6000610423826102f7565b915061042e836102f7565b92508282039050818111156104465761044561036d565b5b9291505056fea2646970667358221220d33115755dbf8c48ce43566429aee05300dcbdc5d9dfd5a9cc375857cb27750c64736f6c63430008110033",
					"opcodes": "PUSH1 0x80 PUSH1 0x40 MSTORE CALLVALUE DUP1 ISZERO PUSH2 0x10 JUMPI PUSH1 0x0 DUP1 REVERT JUMPDEST POP PUSH2 0x482 DUP1 PUSH2 0x20 PUSH1 0x0 CODECOPY PUSH1 0x0 RETURN INVALID PUSH1 0x80 PUSH1 0x40 MSTORE PUSH1 0x4 CALLDATASIZE LT PUSH2 0x29 JUMPI PUSH1 0x0 CALLDATALOAD PUSH1 0xE0 SHR DUP1 PUSH4 0x84F2E96E EQ PUSH2 0x2E JUMPI DUP1 PUSH4 0xF274C897 EQ PUSH2 0x38 JUMPI JUMPDEST PUSH1 0x0 DUP1 REVERT JUMPDEST PUSH2 0x36 PUSH2 0x61 JUMP JUMPDEST STOP JUMPDEST CALLVALUE DUP1 ISZERO PUSH2 0x44 JUMPI PUSH1 0x0 DUP1 REVERT JUMPDEST POP PUSH2 0x5F PUSH1 0x4 DUP1 CALLDATASIZE SUB DUP2 ADD SWAP1 PUSH2 0x5A SWAP2 SWAP1 PUSH2 0x32D JUMP JUMPDEST PUSH2 0x1D7 JUMP JUMPDEST STOP JUMPDEST CALLVALUE PUSH1 0x0 DUP1 CALLER PUSH20 0xFFFFFFFFFFFFFFFFFFFFFFFFFFFFFFFFFFFFFFFF AND PUSH20 0xFFFFFFFFFFFFFFFFFFFFFFFFFFFFFFFFFFFFFFFF AND DUP2 MSTORE PUSH1 0x20 ADD SWAP1 DUP2 MSTORE PUSH1 0x20 ADD PUSH1 0x0 KECCAK256 PUSH1 0x0 ADD PUSH1 0x0 DUP3 DUP3 SLOAD PUSH2 0xB2 SWAP2 SWAP1 PUSH2 0x39C JUMP JUMPDEST SWAP3 POP POP DUP2 SWAP1 SSTORE POP PUSH1 0x0 PUSH1 0x40 MLOAD DUP1 PUSH1 0x40 ADD PUSH1 0x40 MSTORE DUP1 CALLVALUE DUP2 MSTORE PUSH1 0x20 ADD TIMESTAMP DUP2 MSTORE POP SWAP1 POP DUP1 PUSH1 0x0 DUP1 CALLER PUSH20 0xFFFFFFFFFFFFFFFFFFFFFFFFFFFFFFFFFFFFFFFF AND PUSH20 0xFFFFFFFFFFFFFFFFFFFFFFFFFFFFFFFFFFFFFFFF AND DUP2 MSTORE PUSH1 0x20 ADD SWAP1 DUP2 MSTORE PUSH1 0x20 ADD PUSH1 0x0 KECCAK256 PUSH1 0x2 ADD PUSH1 0x0 DUP1 PUSH1 0x0 CALLER PUSH20 0xFFFFFFFFFFFFFFFFFFFFFFFFFFFFFFFFFFFFFFFF AND PUSH20 0xFFFFFFFFFFFFFFFFFFFFFFFFFFFFFFFFFFFFFFFF AND DUP2 MSTORE PUSH1 0x20 ADD SWAP1 DUP2 MSTORE PUSH1 0x20 ADD PUSH1 0x0 KECCAK256 PUSH1 0x1 ADD SLOAD DUP2 MSTORE PUSH1 0x20 ADD SWAP1 DUP2 MSTORE PUSH1 0x20 ADD PUSH1 0x0 KECCAK256 PUSH1 0x0 DUP3 ADD MLOAD DUP2 PUSH1 0x0 ADD SSTORE PUSH1 0x20 DUP3 ADD MLOAD DUP2 PUSH1 0x1 ADD SSTORE SWAP1 POP POP PUSH1 0x0 DUP1 CALLER PUSH20 0xFFFFFFFFFFFFFFFFFFFFFFFFFFFFFFFFFFFFFFFF AND PUSH20 0xFFFFFFFFFFFFFFFFFFFFFFFFFFFFFFFFFFFFFFFF AND DUP2 MSTORE PUSH1 0x20 ADD SWAP1 DUP2 MSTORE PUSH1 0x20 ADD PUSH1 0x0 KECCAK256 PUSH1 0x1 ADD PUSH1 0x0 DUP2 SLOAD DUP1 SWAP3 SWAP2 SWAP1 PUSH2 0x1CF SWAP1 PUSH2 0x3D0 JUMP JUMPDEST SWAP2 SWAP1 POP SSTORE POP POP JUMP JUMPDEST DUP1 PUSH1 0x0 DUP1 CALLER PUSH20 0xFFFFFFFFFFFFFFFFFFFFFFFFFFFFFFFFFFFFFFFF AND PUSH20 0xFFFFFFFFFFFFFFFFFFFFFFFFFFFFFFFFFFFFFFFF AND DUP2 MSTORE PUSH1 0x20 ADD SWAP1 DUP2 MSTORE PUSH1 0x20 ADD PUSH1 0x0 KECCAK256 PUSH1 0x0 ADD PUSH1 0x0 DUP3 DUP3 SLOAD PUSH2 0x228 SWAP2 SWAP1 PUSH2 0x418 JUMP JUMPDEST SWAP3 POP POP DUP2 SWAP1 SSTORE POP PUSH1 0x0 PUSH1 0x40 MLOAD DUP1 PUSH1 0x40 ADD PUSH1 0x40 MSTORE DUP1 DUP4 DUP2 MSTORE PUSH1 0x20 ADD TIMESTAMP DUP2 MSTORE POP SWAP1 POP DUP3 PUSH20 0xFFFFFFFFFFFFFFFFFFFFFFFFFFFFFFFFFFFFFFFF AND PUSH2 0x8FC DUP4 SWAP1 DUP2 ISZERO MUL SWAP1 PUSH1 0x40 MLOAD PUSH1 0x0 PUSH1 0x40 MLOAD DUP1 DUP4 SUB DUP2 DUP6 DUP9 DUP9 CALL SWAP4 POP POP POP POP ISZERO DUP1 ISZERO PUSH2 0x28E JUMPI RETURNDATASIZE PUSH1 0x0 DUP1 RETURNDATACOPY RETURNDATASIZE PUSH1 0x0 REVERT JUMPDEST POP POP POP POP JUMP JUMPDEST PUSH1 0x0 DUP1 REVERT JUMPDEST PUSH1 0x0 PUSH20 0xFFFFFFFFFFFFFFFFFFFFFFFFFFFFFFFFFFFFFFFF DUP3 AND SWAP1 POP SWAP2 SWAP1 POP JUMP JUMPDEST PUSH1 0x0 PUSH2 0x2C4 DUP3 PUSH2 0x299 JUMP JUMPDEST SWAP1 POP SWAP2 SWAP1 POP JUMP JUMPDEST PUSH2 0x2D4 DUP2 PUSH2 0x2B9 JUMP JUMPDEST DUP2 EQ PUSH2 0x2DF JUMPI PUSH1 0x0 DUP1 REVERT JUMPDEST POP JUMP JUMPDEST PUSH1 0x0 DUP2 CALLDATALOAD SWAP1 POP PUSH2 0x2F1 DUP2 PUSH2 0x2CB JUMP JUMPDEST SWAP3 SWAP2 POP POP JUMP JUMPDEST PUSH1 0x0 DUP2 SWAP1 POP SWAP2 SWAP1 POP JUMP JUMPDEST PUSH2 0x30A DUP2 PUSH2 0x2F7 JUMP JUMPDEST DUP2 EQ PUSH2 0x315 JUMPI PUSH1 0x0 DUP1 REVERT JUMPDEST POP JUMP JUMPDEST PUSH1 0x0 DUP2 CALLDATALOAD SWAP1 POP PUSH2 0x327 DUP2 PUSH2 0x301 JUMP JUMPDEST SWAP3 SWAP2 POP POP JUMP JUMPDEST PUSH1 0x0 DUP1 PUSH1 0x40 DUP4 DUP6 SUB SLT ISZERO PUSH2 0x344 JUMPI PUSH2 0x343 PUSH2 0x294 JUMP JUMPDEST JUMPDEST PUSH1 0x0 PUSH2 0x352 DUP6 DUP3 DUP7 ADD PUSH2 0x2E2 JUMP JUMPDEST SWAP3 POP POP PUSH1 0x20 PUSH2 0x363 DUP6 DUP3 DUP7 ADD PUSH2 0x318 JUMP JUMPDEST SWAP2 POP POP SWAP3 POP SWAP3 SWAP1 POP JUMP JUMPDEST PUSH32 0x4E487B7100000000000000000000000000000000000000000000000000000000 PUSH1 0x0 MSTORE PUSH1 0x11 PUSH1 0x4 MSTORE PUSH1 0x24 PUSH1 0x0 REVERT JUMPDEST PUSH1 0x0 PUSH2 0x3A7 DUP3 PUSH2 0x2F7 JUMP JUMPDEST SWAP2 POP PUSH2 0x3B2 DUP4 PUSH2 0x2F7 JUMP JUMPDEST SWAP3 POP DUP3 DUP3 ADD SWAP1 POP DUP1 DUP3 GT ISZERO PUSH2 0x3CA JUMPI PUSH2 0x3C9 PUSH2 0x36D JUMP JUMPDEST JUMPDEST SWAP3 SWAP2 POP POP JUMP JUMPDEST PUSH1 0x0 PUSH2 0x3DB DUP3 PUSH2 0x2F7 JUMP JUMPDEST SWAP2 POP PUSH32 0xFFFFFFFFFFFFFFFFFFFFFFFFFFFFFFFFFFFFFFFFFFFFFFFFFFFFFFFFFFFFFFFF DUP3 SUB PUSH2 0x40D JUMPI PUSH2 0x40C PUSH2 0x36D JUMP JUMPDEST JUMPDEST PUSH1 0x1 DUP3 ADD SWAP1 POP SWAP2 SWAP1 POP JUMP JUMPDEST PUSH1 0x0 PUSH2 0x423 DUP3 PUSH2 0x2F7 JUMP JUMPDEST SWAP2 POP PUSH2 0x42E DUP4 PUSH2 0x2F7 JUMP JUMPDEST SWAP3 POP DUP3 DUP3 SUB SWAP1 POP DUP2 DUP2 GT ISZERO PUSH2 0x446 JUMPI PUSH2 0x445 PUSH2 0x36D JUMP JUMPDEST JUMPDEST SWAP3 SWAP2 POP POP JUMP INVALID LOG2 PUSH5 0x6970667358 0x22 SLT KECCAK256 0xD3 BALANCE ISZERO PUSH22 0x5DBF8C48CE43566429AEE05300DCBDC5D9DFD5A9CC37 PC JUMPI 0xCB 0x27 PUSH22 0xC64736F6C6343000811003300000000000000000000 "
				},
				"gasEstimates": {
					"creation": {
						"codeDepositCost": "230800",
						"executionCost": "275",
						"totalCost": "231075"
					},
					"external": {
						"depositMone()": "infinite",
						"withdrawMoney(address,uint256)": "infinite"
					}
				},
				"methodIdentifiers": {
					"depositMone()": "84f2e96e",
					"withdrawMoney(address,uint256)": "f274c897"
				}
			},
			"storageLayout": {
				"storage": [
					{
						"astId": 28,
						"contract": "contracts/examples/MappingStructExample.sol:MappingStructExample",
						"label": "balances",
						"offset": 0,
						"slot": "0",
						"type": "t_mapping(t_address,t_struct(Balance)23_storage)"
					}
				],
				"types": {
					"t_address": {
						"encoding": "inplace",
						"label": "address",
						"numberOfBytes": "20"
					},
					"t_mapping(t_address,t_struct(Balance)23_storage)": {
						"encoding": "mapping",
						"key": "t_address",
						"label": "mapping(address => struct MappingStructExample.Balance)",
						"numberOfBytes": "32",
						"value": "t_struct(Balance)23_storage"
					},
					"t_mapping(t_uint256,t_struct(Transaction)6_storage)": {
						"encoding": "mapping",
						"key": "t_uint256",
						"label": "mapping(uint256 => struct MappingStructExample.Transaction)",
						"numberOfBytes": "32",
						"value": "t_struct(Transaction)6_storage"
					},
					"t_struct(Balance)23_storage": {
						"encoding": "inplace",
						"label": "struct MappingStructExample.Balance",
						"members": [
							{
								"astId": 8,
								"contract": "contracts/examples/MappingStructExample.sol:MappingStructExample",
								"label": "totalBalance",
								"offset": 0,
								"slot": "0",
								"type": "t_uint256"
							},
							{
								"astId": 10,
								"contract": "contracts/examples/MappingStructExample.sol:MappingStructExample",
								"label": "numDeposits",
								"offset": 0,
								"slot": "1",
								"type": "t_uint256"
							},
							{
								"astId": 15,
								"contract": "contracts/examples/MappingStructExample.sol:MappingStructExample",
								"label": "deposits",
								"offset": 0,
								"slot": "2",
								"type": "t_mapping(t_uint256,t_struct(Transaction)6_storage)"
							},
							{
								"astId": 17,
								"contract": "contracts/examples/MappingStructExample.sol:MappingStructExample",
								"label": "numWithdrawls",
								"offset": 0,
								"slot": "3",
								"type": "t_uint256"
							},
							{
								"astId": 22,
								"contract": "contracts/examples/MappingStructExample.sol:MappingStructExample",
								"label": "withdrawls",
								"offset": 0,
								"slot": "4",
								"type": "t_mapping(t_uint256,t_struct(Transaction)6_storage)"
							}
						],
						"numberOfBytes": "160"
					},
					"t_struct(Transaction)6_storage": {
						"encoding": "inplace",
						"label": "struct MappingStructExample.Transaction",
						"members": [
							{
								"astId": 3,
								"contract": "contracts/examples/MappingStructExample.sol:MappingStructExample",
								"label": "amount",
								"offset": 0,
								"slot": "0",
								"type": "t_uint256"
							},
							{
								"astId": 5,
								"contract": "contracts/examples/MappingStructExample.sol:MappingStructExample",
								"label": "timestamp",
								"offset": 0,
								"slot": "1",
								"type": "t_uint256"
							}
						],
						"numberOfBytes": "64"
					},
					"t_uint256": {
						"encoding": "inplace",
						"label": "uint256",
						"numberOfBytes": "32"
					}
				}
			},
			"userdoc": {
				"kind": "user",
				"methods": {},
				"version": 1
			}
		}
	}
}