{
	"contracts/examples/SendTransferExample.sol": {
		"ReceiverAction": {
			"abi": [
				{
					"inputs": [],
					"name": "balanceReceived",
					"outputs": [
						{
							"internalType": "uint256",
							"name": "",
							"type": "uint256"
						}
					],
					"stateMutability": "view",
					"type": "function"
				},
				{
					"stateMutability": "payable",
					"type": "receive"
				}
			],
			"devdoc": {
				"kind": "dev",
				"methods": {},
				"version": 1
			},
			"evm": {
				"assembly": "    /* \"contracts/examples/SendTransferExample.sol\":477:621  contract ReceiverAction {... */\n  mstore(0x40, 0x80)\n  callvalue\n  dup1\n  iszero\n  tag_1\n  jumpi\n  0x00\n  dup1\n  revert\ntag_1:\n  pop\n  dataSize(sub_0)\n  dup1\n  dataOffset(sub_0)\n  0x00\n  codecopy\n  0x00\n  return\nstop\n\nsub_0: assembly {\n        /* \"contracts/examples/SendTransferExample.sol\":477:621  contract ReceiverAction {... */\n      mstore(0x40, 0x80)\n      jumpi(tag_1, lt(calldatasize, 0x04))\n      shr(0xe0, calldataload(0x00))\n      dup1\n      0x52a90c42\n      eq\n      tag_3\n      jumpi\n      jump(tag_2)\n    tag_1:\n      jumpi(tag_2, calldatasize)\n        /* \"contracts/examples/SendTransferExample.sol\":601:610  msg.value */\n      callvalue\n        /* \"contracts/examples/SendTransferExample.sol\":582:597  balanceReceived */\n      0x00\n      dup1\n        /* \"contracts/examples/SendTransferExample.sol\":582:610  balanceReceived += msg.value */\n      dup3\n      dup3\n      sload\n      tag_6\n      swap2\n      swap1\n      tag_7\n      jump\t// in\n    tag_6:\n      swap3\n      pop\n      pop\n      dup2\n      swap1\n      sstore\n      stop\n        /* \"contracts/examples/SendTransferExample.sol\":477:621  contract ReceiverAction {... */\n    tag_2:\n      0x00\n      dup1\n      revert\n        /* \"contracts/examples/SendTransferExample.sol\":508:535  uint public balanceReceived */\n    tag_3:\n      callvalue\n      dup1\n      iszero\n      tag_8\n      jumpi\n      0x00\n      dup1\n      revert\n    tag_8:\n      pop\n      tag_9\n      tag_10\n      jump\t// in\n    tag_9:\n      mload(0x40)\n      tag_11\n      swap2\n      swap1\n      tag_12\n      jump\t// in\n    tag_11:\n      mload(0x40)\n      dup1\n      swap2\n      sub\n      swap1\n      return\n    tag_10:\n      sload(0x00)\n      dup2\n      jump\t// out\n        /* \"#utility.yul\":7:84   */\n    tag_13:\n        /* \"#utility.yul\":44:51   */\n      0x00\n        /* \"#utility.yul\":73:78   */\n      dup2\n        /* \"#utility.yul\":62:78   */\n      swap1\n      pop\n        /* \"#utility.yul\":7:84   */\n      swap2\n      swap1\n      pop\n      jump\t// out\n        /* \"#utility.yul\":90:270   */\n    tag_14:\n        /* \"#utility.yul\":138:215   */\n      0x4e487b7100000000000000000000000000000000000000000000000000000000\n        /* \"#utility.yul\":135:136   */\n      0x00\n        /* \"#utility.yul\":128:216   */\n      mstore\n        /* \"#utility.yul\":235:239   */\n      0x11\n        /* \"#utility.yul\":232:233   */\n      0x04\n        /* \"#utility.yul\":225:240   */\n      mstore\n        /* \"#utility.yul\":259:263   */\n      0x24\n        /* \"#utility.yul\":256:257   */\n      0x00\n        /* \"#utility.yul\":249:264   */\n      revert\n        /* \"#utility.yul\":276:467   */\n    tag_7:\n        /* \"#utility.yul\":316:319   */\n      0x00\n        /* \"#utility.yul\":335:355   */\n      tag_20\n        /* \"#utility.yul\":353:354   */\n      dup3\n        /* \"#utility.yul\":335:355   */\n      tag_13\n      jump\t// in\n    tag_20:\n        /* \"#utility.yul\":330:355   */\n      swap2\n      pop\n        /* \"#utility.yul\":369:389   */\n      tag_21\n        /* \"#utility.yul\":387:388   */\n      dup4\n        /* \"#utility.yul\":369:389   */\n      tag_13\n      jump\t// in\n    tag_21:\n        /* \"#utility.yul\":364:389   */\n      swap3\n      pop\n        /* \"#utility.yul\":412:413   */\n      dup3\n        /* \"#utility.yul\":409:410   */\n      dup3\n        /* \"#utility.yul\":405:414   */\n      add\n        /* \"#utility.yul\":398:414   */\n      swap1\n      pop\n        /* \"#utility.yul\":433:436   */\n      dup1\n        /* \"#utility.yul\":430:431   */\n      dup3\n        /* \"#utility.yul\":427:437   */\n      gt\n        /* \"#utility.yul\":424:460   */\n      iszero\n      tag_22\n      jumpi\n        /* \"#utility.yul\":440:458   */\n      tag_23\n      tag_14\n      jump\t// in\n    tag_23:\n        /* \"#utility.yul\":424:460   */\n    tag_22:\n        /* \"#utility.yul\":276:467   */\n      swap3\n      swap2\n      pop\n      pop\n      jump\t// out\n        /* \"#utility.yul\":473:591   */\n    tag_15:\n        /* \"#utility.yul\":560:584   */\n      tag_25\n        /* \"#utility.yul\":578:583   */\n      dup2\n        /* \"#utility.yul\":560:584   */\n      tag_13\n      jump\t// in\n    tag_25:\n        /* \"#utility.yul\":555:558   */\n      dup3\n        /* \"#utility.yul\":548:585   */\n      mstore\n        /* \"#utility.yul\":473:591   */\n      pop\n      pop\n      jump\t// out\n        /* \"#utility.yul\":597:819   */\n    tag_12:\n        /* \"#utility.yul\":690:694   */\n      0x00\n        /* \"#utility.yul\":728:730   */\n      0x20\n        /* \"#utility.yul\":717:726   */\n      dup3\n        /* \"#utility.yul\":713:731   */\n      add\n        /* \"#utility.yul\":705:731   */\n      swap1\n      pop\n        /* \"#utility.yul\":741:812   */\n      tag_27\n        /* \"#utility.yul\":809:810   */\n      0x00\n        /* \"#utility.yul\":798:807   */\n      dup4\n        /* \"#utility.yul\":794:811   */\n      add\n        /* \"#utility.yul\":785:791   */\n      dup5\n        /* \"#utility.yul\":741:812   */\n      tag_15\n      jump\t// in\n    tag_27:\n        /* \"#utility.yul\":597:819   */\n      swap3\n      swap2\n      pop\n      pop\n      jump\t// out\n\n    auxdata: 0xa2646970667358221220b9dde002aa99d633b701e9c12facc2d6cf6fbe0fc590a3632dffc12c56effab764736f6c63430008110033\n}\n",
				"bytecode": {
					"linkReferences": {},
					"object": "608060405234801561001057600080fd5b5061012d806100206000396000f3fe608060405260043610601f5760003560e01c806352a90c4214603f57603a565b36603a57346000808282546032919060a4565b925050819055005b600080fd5b348015604a57600080fd5b5060516065565b604051605c919060de565b60405180910390f35b60005481565b6000819050919050565b7f4e487b7100000000000000000000000000000000000000000000000000000000600052601160045260246000fd5b600060ad82606b565b915060b683606b565b925082820190508082111560cb5760ca6075565b5b92915050565b60d881606b565b82525050565b600060208201905060f1600083018460d1565b9291505056fea2646970667358221220b9dde002aa99d633b701e9c12facc2d6cf6fbe0fc590a3632dffc12c56effab764736f6c63430008110033",
					"opcodes": "PUSH1 0x80 PUSH1 0x40 MSTORE CALLVALUE DUP1 ISZERO PUSH2 0x10 JUMPI PUSH1 0x0 DUP1 REVERT JUMPDEST POP PUSH2 0x12D DUP1 PUSH2 0x20 PUSH1 0x0 CODECOPY PUSH1 0x0 RETURN INVALID PUSH1 0x80 PUSH1 0x40 MSTORE PUSH1 0x4 CALLDATASIZE LT PUSH1 0x1F JUMPI PUSH1 0x0 CALLDATALOAD PUSH1 0xE0 SHR DUP1 PUSH4 0x52A90C42 EQ PUSH1 0x3F JUMPI PUSH1 0x3A JUMP JUMPDEST CALLDATASIZE PUSH1 0x3A JUMPI CALLVALUE PUSH1 0x0 DUP1 DUP3 DUP3 SLOAD PUSH1 0x32 SWAP2 SWAP1 PUSH1 0xA4 JUMP JUMPDEST SWAP3 POP POP DUP2 SWAP1 SSTORE STOP JUMPDEST PUSH1 0x0 DUP1 REVERT JUMPDEST CALLVALUE DUP1 ISZERO PUSH1 0x4A JUMPI PUSH1 0x0 DUP1 REVERT JUMPDEST POP PUSH1 0x51 PUSH1 0x65 JUMP JUMPDEST PUSH1 0x40 MLOAD PUSH1 0x5C SWAP2 SWAP1 PUSH1 0xDE JUMP JUMPDEST PUSH1 0x40 MLOAD DUP1 SWAP2 SUB SWAP1 RETURN JUMPDEST PUSH1 0x0 SLOAD DUP2 JUMP JUMPDEST PUSH1 0x0 DUP2 SWAP1 POP SWAP2 SWAP1 POP JUMP JUMPDEST PUSH32 0x4E487B7100000000000000000000000000000000000000000000000000000000 PUSH1 0x0 MSTORE PUSH1 0x11 PUSH1 0x4 MSTORE PUSH1 0x24 PUSH1 0x0 REVERT JUMPDEST PUSH1 0x0 PUSH1 0xAD DUP3 PUSH1 0x6B JUMP JUMPDEST SWAP2 POP PUSH1 0xB6 DUP4 PUSH1 0x6B JUMP JUMPDEST SWAP3 POP DUP3 DUP3 ADD SWAP1 POP DUP1 DUP3 GT ISZERO PUSH1 0xCB JUMPI PUSH1 0xCA PUSH1 0x75 JUMP JUMPDEST JUMPDEST SWAP3 SWAP2 POP POP JUMP JUMPDEST PUSH1 0xD8 DUP2 PUSH1 0x6B JUMP JUMPDEST DUP3 MSTORE POP POP JUMP JUMPDEST PUSH1 0x0 PUSH1 0x20 DUP3 ADD SWAP1 POP PUSH1 0xF1 PUSH1 0x0 DUP4 ADD DUP5 PUSH1 0xD1 JUMP JUMPDEST SWAP3 SWAP2 POP POP JUMP INVALID LOG2 PUSH5 0x6970667358 0x22 SLT KECCAK256 0xB9 0xDD 0xE0 MUL 0xAA SWAP10 0xD6 CALLER 0xB7 ADD 0xE9 0xC1 0x2F 0xAC 0xC2 0xD6 0xCF PUSH16 0xBE0FC590A3632DFFC12C56EFFAB76473 PUSH16 0x6C634300081100330000000000000000 "
				},
				"gasEstimates": {
					"creation": {
						"codeDepositCost": "60200",
						"executionCost": "111",
						"totalCost": "60311"
					},
					"external": {
						"balanceReceived()": "2407"
					}
				},
				"methodIdentifiers": {
					"balanceReceived()": "52a90c42"
				}
			},
			"storageLayout": {
				"storage": [
					{
						"astId": 49,
						"contract": "contracts/examples/SendTransferExample.sol:ReceiverAction",
						"label": "balanceReceived",
						"offset": 0,
						"slot": "0",
						"type": "t_uint256"
					}
				],
				"types": {
					"t_uint256": {
						"encoding": "inplace",
						"label": "uint256",
						"numberOfBytes": "32"
					}
				}
			},
			"userdoc": {
				"kind": "user",
				"methods": {},
				"version": 1
			}
		}
	}
}