{
	"contracts/SmartContractWallet.sol": {
		"SmartContractWallet": {
			"abi": [
				{
					"inputs": [],
					"stateMutability": "nonpayable",
					"type": "constructor"
				},
				{
					"inputs": [
						{
							"internalType": "address",
							"name": "",
							"type": "address"
						}
					],
					"name": "allowance",
					"outputs": [
						{
							"internalType": "uint256",
							"name": "",
							"type": "uint256"
						}
					],
					"stateMutability": "view",
					"type": "function"
				},
				{
					"inputs": [
						{
							"internalType": "address",
							"name": "",
							"type": "address"
						}
					],
					"name": "isAllowedToSend",
					"outputs": [
						{
							"internalType": "bool",
							"name": "",
							"type": "bool"
						}
					],
					"stateMutability": "view",
					"type": "function"
				},
				{
					"inputs": [
						{
							"internalType": "address payable",
							"name": "_to",
							"type": "address"
						},
						{
							"internalType": "uint256",
							"name": "_amount",
							"type": "uint256"
						},
						{
							"internalType": "bytes",
							"name": "_payload",
							"type": "bytes"
						}
					],
					"name": "transfer",
					"outputs": [
						{
							"internalType": "bytes",
							"name": "",
							"type": "bytes"
						}
					],
					"stateMutability": "nonpayable",
					"type": "function"
				},
				{
					"stateMutability": "payable",
					"type": "receive"
				}
			],
			"devdoc": {
				"kind": "dev",
				"methods": {},
				"version": 1
			},
			"evm": {
				"assembly": "    /* \"contracts/SmartContractWallet.sol\":109:987  contract SmartContractWallet {... */\n  mstore(0x40, 0x80)\n    /* \"contracts/SmartContractWallet.sol\":279:339  constructor() {... */\n  callvalue\n  dup1\n  iszero\n  tag_1\n  jumpi\n  0x00\n  dup1\n  revert\ntag_1:\n  pop\n    /* \"contracts/SmartContractWallet.sol\":320:330  msg.sender */\n  caller\n    /* \"contracts/SmartContractWallet.sol\":304:309  owner */\n  0x00\n  dup1\n    /* \"contracts/SmartContractWallet.sol\":304:331  owner = payable(msg.sender) */\n  0x0100\n  exp\n  dup2\n  sload\n  dup2\n  0xffffffffffffffffffffffffffffffffffffffff\n  mul\n  not\n  and\n  swap1\n  dup4\n  0xffffffffffffffffffffffffffffffffffffffff\n  and\n  mul\n  or\n  swap1\n  sstore\n  pop\n    /* \"contracts/SmartContractWallet.sol\":109:987  contract SmartContractWallet {... */\n  dataSize(sub_0)\n  dup1\n  dataOffset(sub_0)\n  0x00\n  codecopy\n  0x00\n  return\nstop\n\nsub_0: assembly {\n        /* \"contracts/SmartContractWallet.sol\":109:987  contract SmartContractWallet {... */\n      mstore(0x40, 0x80)\n      jumpi(tag_1, lt(calldatasize, 0x04))\n      shr(0xe0, calldataload(0x00))\n      dup1\n      0x0bc605ad\n      eq\n      tag_3\n      jumpi\n      dup1\n      0x3e5beab9\n      eq\n      tag_4\n      jumpi\n      dup1\n      0xbe45fd62\n      eq\n      tag_5\n      jumpi\n      jump(tag_2)\n    tag_1:\n      jumpi(tag_2, calldatasize)\n      stop\n    tag_2:\n      0x00\n      dup1\n      revert\n        /* \"contracts/SmartContractWallet.sol\":223:270  mapping(address => bool) public isAllowedToSend */\n    tag_3:\n      callvalue\n      dup1\n      iszero\n      tag_8\n      jumpi\n      0x00\n      dup1\n      revert\n    tag_8:\n      pop\n      tag_9\n      0x04\n      dup1\n      calldatasize\n      sub\n      dup2\n      add\n      swap1\n      tag_10\n      swap2\n      swap1\n      tag_11\n      jump\t// in\n    tag_10:\n      tag_12\n      jump\t// in\n    tag_9:\n      mload(0x40)\n      tag_13\n      swap2\n      swap1\n      tag_14\n      jump\t// in\n    tag_13:\n      mload(0x40)\n      dup1\n      swap2\n      sub\n      swap1\n      return\n        /* \"contracts/SmartContractWallet.sol\":175:216  mapping(address => uint) public allowance */\n    tag_4:\n      callvalue\n      dup1\n      iszero\n      tag_15\n      jumpi\n      0x00\n      dup1\n      revert\n    tag_15:\n      pop\n      tag_16\n      0x04\n      dup1\n      calldatasize\n      sub\n      dup2\n      add\n      swap1\n      tag_17\n      swap2\n      swap1\n      tag_11\n      jump\t// in\n    tag_17:\n      tag_18\n      jump\t// in\n    tag_16:\n      mload(0x40)\n      tag_19\n      swap2\n      swap1\n      tag_20\n      jump\t// in\n    tag_19:\n      mload(0x40)\n      dup1\n      swap2\n      sub\n      swap1\n      return\n        /* \"contracts/SmartContractWallet.sol\":347:947  function transfer(address payable _to, uint _amount, bytes memory _payload) public returns(bytes memory) {... */\n    tag_5:\n      callvalue\n      dup1\n      iszero\n      tag_21\n      jumpi\n      0x00\n      dup1\n      revert\n    tag_21:\n      pop\n      tag_22\n      0x04\n      dup1\n      calldatasize\n      sub\n      dup2\n      add\n      swap1\n      tag_23\n      swap2\n      swap1\n      tag_24\n      jump\t// in\n    tag_23:\n      tag_25\n      jump\t// in\n    tag_22:\n      mload(0x40)\n      tag_26\n      swap2\n      swap1\n      tag_27\n      jump\t// in\n    tag_26:\n      mload(0x40)\n      dup1\n      swap2\n      sub\n      swap1\n      return\n        /* \"contracts/SmartContractWallet.sol\":223:270  mapping(address => bool) public isAllowedToSend */\n    tag_12:\n      mstore(0x20, 0x02)\n      dup1\n      0x00\n      mstore\n      keccak256(0x00, 0x40)\n      0x00\n      swap2\n      pop\n      sload\n      swap1\n      0x0100\n      exp\n      swap1\n      div\n      0xff\n      and\n      dup2\n      jump\t// out\n        /* \"contracts/SmartContractWallet.sol\":175:216  mapping(address => uint) public allowance */\n    tag_18:\n      mstore(0x20, 0x01)\n      dup1\n      0x00\n      mstore\n      keccak256(0x00, 0x40)\n      0x00\n      swap2\n      pop\n      swap1\n      pop\n      sload\n      dup2\n      jump\t// out\n        /* \"contracts/SmartContractWallet.sol\":347:947  function transfer(address payable _to, uint _amount, bytes memory _payload) public returns(bytes memory) {... */\n    tag_25:\n        /* \"contracts/SmartContractWallet.sol\":438:450  bytes memory */\n      0x60\n        /* \"contracts/SmartContractWallet.sol\":481:486  owner */\n      0x00\n      dup1\n      sload\n      swap1\n      0x0100\n      exp\n      swap1\n      div\n      0xffffffffffffffffffffffffffffffffffffffff\n      and\n        /* \"contracts/SmartContractWallet.sol\":467:486  msg.sender != owner */\n      0xffffffffffffffffffffffffffffffffffffffff\n      and\n        /* \"contracts/SmartContractWallet.sol\":467:477  msg.sender */\n      caller\n        /* \"contracts/SmartContractWallet.sol\":467:486  msg.sender != owner */\n      0xffffffffffffffffffffffffffffffffffffffff\n      and\n      eq\n        /* \"contracts/SmartContractWallet.sol\":463:758  if (msg.sender != owner) {... */\n      tag_29\n      jumpi\n        /* \"contracts/SmartContractWallet.sol\":511:526  isAllowedToSend */\n      0x02\n        /* \"contracts/SmartContractWallet.sol\":511:538  isAllowedToSend[msg.sender] */\n      0x00\n        /* \"contracts/SmartContractWallet.sol\":527:537  msg.sender */\n      caller\n        /* \"contracts/SmartContractWallet.sol\":511:538  isAllowedToSend[msg.sender] */\n      0xffffffffffffffffffffffffffffffffffffffff\n      and\n      0xffffffffffffffffffffffffffffffffffffffff\n      and\n      dup2\n      mstore\n      0x20\n      add\n      swap1\n      dup2\n      mstore\n      0x20\n      add\n      0x00\n      keccak256\n      0x00\n      swap1\n      sload\n      swap1\n      0x0100\n      exp\n      swap1\n      div\n      0xff\n      and\n        /* \"contracts/SmartContractWallet.sol\":503:608  require(isAllowedToSend[msg.sender], \"You are not permitted to process transactions from this contract.\") */\n      tag_30\n      jumpi\n      mload(0x40)\n      0x08c379a000000000000000000000000000000000000000000000000000000000\n      dup2\n      mstore\n      0x04\n      add\n      tag_31\n      swap1\n      tag_32\n      jump\t// in\n    tag_31:\n      mload(0x40)\n      dup1\n      swap2\n      sub\n      swap1\n      revert\n    tag_30:\n        /* \"contracts/SmartContractWallet.sol\":656:663  _amount */\n      dup3\n        /* \"contracts/SmartContractWallet.sol\":631:640  allowance */\n      0x01\n        /* \"contracts/SmartContractWallet.sol\":631:652  allowance[msg.sender] */\n      0x00\n        /* \"contracts/SmartContractWallet.sol\":641:651  msg.sender */\n      caller\n        /* \"contracts/SmartContractWallet.sol\":631:652  allowance[msg.sender] */\n      0xffffffffffffffffffffffffffffffffffffffff\n      and\n      0xffffffffffffffffffffffffffffffffffffffff\n      and\n      dup2\n      mstore\n      0x20\n      add\n      swap1\n      dup2\n      mstore\n      0x20\n      add\n      0x00\n      keccak256\n      sload\n        /* \"contracts/SmartContractWallet.sol\":631:663  allowance[msg.sender] >= _amount */\n      lt\n      iszero\n        /* \"contracts/SmartContractWallet.sol\":623:730  require(allowance[msg.sender] >= _amount, \"You are tyring to send more than you are allowed to, aborting.\") */\n      tag_33\n      jumpi\n      mload(0x40)\n      0x08c379a000000000000000000000000000000000000000000000000000000000\n      dup2\n      mstore\n      0x04\n      add\n      tag_34\n      swap1\n      tag_35\n      jump\t// in\n    tag_34:\n      mload(0x40)\n      dup1\n      swap2\n      sub\n      swap1\n      revert\n    tag_33:\n        /* \"contracts/SmartContractWallet.sol\":463:758  if (msg.sender != owner) {... */\n    tag_29:\n        /* \"contracts/SmartContractWallet.sol\":770:782  bool success */\n      0x00\n        /* \"contracts/SmartContractWallet.sol\":784:807  bytes memory returnData */\n      dup1\n        /* \"contracts/SmartContractWallet.sol\":811:814  _to */\n      dup6\n        /* \"contracts/SmartContractWallet.sol\":811:819  _to.call */\n      0xffffffffffffffffffffffffffffffffffffffff\n      and\n        /* \"contracts/SmartContractWallet.sol\":827:834  _amount */\n      dup6\n        /* \"contracts/SmartContractWallet.sol\":836:844  _payload */\n      dup6\n        /* \"contracts/SmartContractWallet.sol\":811:845  _to.call{value: _amount}(_payload) */\n      mload(0x40)\n      tag_36\n      swap2\n      swap1\n      tag_37\n      jump\t// in\n    tag_36:\n      0x00\n      mload(0x40)\n      dup1\n      dup4\n      sub\n      dup2\n      dup6\n      dup8\n      gas\n      call\n      swap3\n      pop\n      pop\n      pop\n      returndatasize\n      dup1\n      0x00\n      dup2\n      eq\n      tag_40\n      jumpi\n      mload(0x40)\n      swap2\n      pop\n      and(add(returndatasize, 0x3f), not(0x1f))\n      dup3\n      add\n      0x40\n      mstore\n      returndatasize\n      dup3\n      mstore\n      returndatasize\n      0x00\n      0x20\n      dup5\n      add\n      returndatacopy\n      jump(tag_39)\n    tag_40:\n      0x60\n      swap2\n      pop\n    tag_39:\n      pop\n        /* \"contracts/SmartContractWallet.sol\":769:845  (bool success, bytes memory returnData) = _to.call{value: _amount}(_payload) */\n      swap2\n      pop\n      swap2\n      pop\n        /* \"contracts/SmartContractWallet.sol\":865:872  success */\n      dup2\n        /* \"contracts/SmartContractWallet.sol\":857:910  require(success, \"Aborting call was not successful.\") */\n      tag_41\n      jumpi\n      mload(0x40)\n      0x08c379a000000000000000000000000000000000000000000000000000000000\n      dup2\n      mstore\n      0x04\n      add\n      tag_42\n      swap1\n      tag_43\n      jump\t// in\n    tag_42:\n      mload(0x40)\n      dup1\n      swap2\n      sub\n      swap1\n      revert\n    tag_41:\n        /* \"contracts/SmartContractWallet.sol\":929:939  returnData */\n      dup1\n        /* \"contracts/SmartContractWallet.sol\":922:939  return returnData */\n      swap3\n      pop\n      pop\n      pop\n        /* \"contracts/SmartContractWallet.sol\":347:947  function transfer(address payable _to, uint _amount, bytes memory _payload) public returns(bytes memory) {... */\n      swap4\n      swap3\n      pop\n      pop\n      pop\n      jump\t// out\n        /* \"#utility.yul\":7:82   */\n    tag_44:\n        /* \"#utility.yul\":40:46   */\n      0x00\n        /* \"#utility.yul\":73:75   */\n      0x40\n        /* \"#utility.yul\":67:76   */\n      mload\n        /* \"#utility.yul\":57:76   */\n      swap1\n      pop\n        /* \"#utility.yul\":7:82   */\n      swap1\n      jump\t// out\n        /* \"#utility.yul\":88:205   */\n    tag_45:\n        /* \"#utility.yul\":197:198   */\n      0x00\n        /* \"#utility.yul\":194:195   */\n      dup1\n        /* \"#utility.yul\":187:199   */\n      revert\n        /* \"#utility.yul\":211:328   */\n    tag_46:\n        /* \"#utility.yul\":320:321   */\n      0x00\n        /* \"#utility.yul\":317:318   */\n      dup1\n        /* \"#utility.yul\":310:322   */\n      revert\n        /* \"#utility.yul\":334:460   */\n    tag_47:\n        /* \"#utility.yul\":371:378   */\n      0x00\n        /* \"#utility.yul\":411:453   */\n      0xffffffffffffffffffffffffffffffffffffffff\n        /* \"#utility.yul\":404:409   */\n      dup3\n        /* \"#utility.yul\":400:454   */\n      and\n        /* \"#utility.yul\":389:454   */\n      swap1\n      pop\n        /* \"#utility.yul\":334:460   */\n      swap2\n      swap1\n      pop\n      jump\t// out\n        /* \"#utility.yul\":466:562   */\n    tag_48:\n        /* \"#utility.yul\":503:510   */\n      0x00\n        /* \"#utility.yul\":532:556   */\n      tag_89\n        /* \"#utility.yul\":550:555   */\n      dup3\n        /* \"#utility.yul\":532:556   */\n      tag_47\n      jump\t// in\n    tag_89:\n        /* \"#utility.yul\":521:556   */\n      swap1\n      pop\n        /* \"#utility.yul\":466:562   */\n      swap2\n      swap1\n      pop\n      jump\t// out\n        /* \"#utility.yul\":568:690   */\n    tag_49:\n        /* \"#utility.yul\":641:665   */\n      tag_91\n        /* \"#utility.yul\":659:664   */\n      dup2\n        /* \"#utility.yul\":641:665   */\n      tag_48\n      jump\t// in\n    tag_91:\n        /* \"#utility.yul\":634:639   */\n      dup2\n        /* \"#utility.yul\":631:666   */\n      eq\n        /* \"#utility.yul\":621:684   */\n      tag_92\n      jumpi\n        /* \"#utility.yul\":680:681   */\n      0x00\n        /* \"#utility.yul\":677:678   */\n      dup1\n        /* \"#utility.yul\":670:682   */\n      revert\n        /* \"#utility.yul\":621:684   */\n    tag_92:\n        /* \"#utility.yul\":568:690   */\n      pop\n      jump\t// out\n        /* \"#utility.yul\":696:835   */\n    tag_50:\n        /* \"#utility.yul\":742:747   */\n      0x00\n        /* \"#utility.yul\":780:786   */\n      dup2\n        /* \"#utility.yul\":767:787   */\n      calldataload\n        /* \"#utility.yul\":758:787   */\n      swap1\n      pop\n        /* \"#utility.yul\":796:829   */\n      tag_94\n        /* \"#utility.yul\":823:828   */\n      dup2\n        /* \"#utility.yul\":796:829   */\n      tag_49\n      jump\t// in\n    tag_94:\n        /* \"#utility.yul\":696:835   */\n      swap3\n      swap2\n      pop\n      pop\n      jump\t// out\n        /* \"#utility.yul\":841:1170   */\n    tag_11:\n        /* \"#utility.yul\":900:906   */\n      0x00\n        /* \"#utility.yul\":949:951   */\n      0x20\n        /* \"#utility.yul\":937:946   */\n      dup3\n        /* \"#utility.yul\":928:935   */\n      dup5\n        /* \"#utility.yul\":924:947   */\n      sub\n        /* \"#utility.yul\":920:952   */\n      slt\n        /* \"#utility.yul\":917:1036   */\n      iszero\n      tag_96\n      jumpi\n        /* \"#utility.yul\":955:1034   */\n      tag_97\n      tag_45\n      jump\t// in\n    tag_97:\n        /* \"#utility.yul\":917:1036   */\n    tag_96:\n        /* \"#utility.yul\":1075:1076   */\n      0x00\n        /* \"#utility.yul\":1100:1153   */\n      tag_98\n        /* \"#utility.yul\":1145:1152   */\n      dup5\n        /* \"#utility.yul\":1136:1142   */\n      dup3\n        /* \"#utility.yul\":1125:1134   */\n      dup6\n        /* \"#utility.yul\":1121:1143   */\n      add\n        /* \"#utility.yul\":1100:1153   */\n      tag_50\n      jump\t// in\n    tag_98:\n        /* \"#utility.yul\":1090:1153   */\n      swap2\n      pop\n        /* \"#utility.yul\":1046:1163   */\n      pop\n        /* \"#utility.yul\":841:1170   */\n      swap3\n      swap2\n      pop\n      pop\n      jump\t// out\n        /* \"#utility.yul\":1176:1266   */\n    tag_51:\n        /* \"#utility.yul\":1210:1217   */\n      0x00\n        /* \"#utility.yul\":1253:1258   */\n      dup2\n        /* \"#utility.yul\":1246:1259   */\n      iszero\n        /* \"#utility.yul\":1239:1260   */\n      iszero\n        /* \"#utility.yul\":1228:1260   */\n      swap1\n      pop\n        /* \"#utility.yul\":1176:1266   */\n      swap2\n      swap1\n      pop\n      jump\t// out\n        /* \"#utility.yul\":1272:1381   */\n    tag_52:\n        /* \"#utility.yul\":1353:1374   */\n      tag_101\n        /* \"#utility.yul\":1368:1373   */\n      dup2\n        /* \"#utility.yul\":1353:1374   */\n      tag_51\n      jump\t// in\n    tag_101:\n        /* \"#utility.yul\":1348:1351   */\n      dup3\n        /* \"#utility.yul\":1341:1375   */\n      mstore\n        /* \"#utility.yul\":1272:1381   */\n      pop\n      pop\n      jump\t// out\n        /* \"#utility.yul\":1387:1597   */\n    tag_14:\n        /* \"#utility.yul\":1474:1478   */\n      0x00\n        /* \"#utility.yul\":1512:1514   */\n      0x20\n        /* \"#utility.yul\":1501:1510   */\n      dup3\n        /* \"#utility.yul\":1497:1515   */\n      add\n        /* \"#utility.yul\":1489:1515   */\n      swap1\n      pop\n        /* \"#utility.yul\":1525:1590   */\n      tag_103\n        /* \"#utility.yul\":1587:1588   */\n      0x00\n        /* \"#utility.yul\":1576:1585   */\n      dup4\n        /* \"#utility.yul\":1572:1589   */\n      add\n        /* \"#utility.yul\":1563:1569   */\n      dup5\n        /* \"#utility.yul\":1525:1590   */\n      tag_52\n      jump\t// in\n    tag_103:\n        /* \"#utility.yul\":1387:1597   */\n      swap3\n      swap2\n      pop\n      pop\n      jump\t// out\n        /* \"#utility.yul\":1603:1680   */\n    tag_53:\n        /* \"#utility.yul\":1640:1647   */\n      0x00\n        /* \"#utility.yul\":1669:1674   */\n      dup2\n        /* \"#utility.yul\":1658:1674   */\n      swap1\n      pop\n        /* \"#utility.yul\":1603:1680   */\n      swap2\n      swap1\n      pop\n      jump\t// out\n        /* \"#utility.yul\":1686:1804   */\n    tag_54:\n        /* \"#utility.yul\":1773:1797   */\n      tag_106\n        /* \"#utility.yul\":1791:1796   */\n      dup2\n        /* \"#utility.yul\":1773:1797   */\n      tag_53\n      jump\t// in\n    tag_106:\n        /* \"#utility.yul\":1768:1771   */\n      dup3\n        /* \"#utility.yul\":1761:1798   */\n      mstore\n        /* \"#utility.yul\":1686:1804   */\n      pop\n      pop\n      jump\t// out\n        /* \"#utility.yul\":1810:2032   */\n    tag_20:\n        /* \"#utility.yul\":1903:1907   */\n      0x00\n        /* \"#utility.yul\":1941:1943   */\n      0x20\n        /* \"#utility.yul\":1930:1939   */\n      dup3\n        /* \"#utility.yul\":1926:1944   */\n      add\n        /* \"#utility.yul\":1918:1944   */\n      swap1\n      pop\n        /* \"#utility.yul\":1954:2025   */\n      tag_108\n        /* \"#utility.yul\":2022:2023   */\n      0x00\n        /* \"#utility.yul\":2011:2020   */\n      dup4\n        /* \"#utility.yul\":2007:2024   */\n      add\n        /* \"#utility.yul\":1998:2004   */\n      dup5\n        /* \"#utility.yul\":1954:2025   */\n      tag_54\n      jump\t// in\n    tag_108:\n        /* \"#utility.yul\":1810:2032   */\n      swap3\n      swap2\n      pop\n      pop\n      jump\t// out\n        /* \"#utility.yul\":2038:2142   */\n    tag_55:\n        /* \"#utility.yul\":2083:2090   */\n      0x00\n        /* \"#utility.yul\":2112:2136   */\n      tag_110\n        /* \"#utility.yul\":2130:2135   */\n      dup3\n        /* \"#utility.yul\":2112:2136   */\n      tag_47\n      jump\t// in\n    tag_110:\n        /* \"#utility.yul\":2101:2136   */\n      swap1\n      pop\n        /* \"#utility.yul\":2038:2142   */\n      swap2\n      swap1\n      pop\n      jump\t// out\n        /* \"#utility.yul\":2148:2286   */\n    tag_56:\n        /* \"#utility.yul\":2229:2261   */\n      tag_112\n        /* \"#utility.yul\":2255:2260   */\n      dup2\n        /* \"#utility.yul\":2229:2261   */\n      tag_55\n      jump\t// in\n    tag_112:\n        /* \"#utility.yul\":2222:2227   */\n      dup2\n        /* \"#utility.yul\":2219:2262   */\n      eq\n        /* \"#utility.yul\":2209:2280   */\n      tag_113\n      jumpi\n        /* \"#utility.yul\":2276:2277   */\n      0x00\n        /* \"#utility.yul\":2273:2274   */\n      dup1\n        /* \"#utility.yul\":2266:2278   */\n      revert\n        /* \"#utility.yul\":2209:2280   */\n    tag_113:\n        /* \"#utility.yul\":2148:2286   */\n      pop\n      jump\t// out\n        /* \"#utility.yul\":2292:2447   */\n    tag_57:\n        /* \"#utility.yul\":2346:2351   */\n      0x00\n        /* \"#utility.yul\":2384:2390   */\n      dup2\n        /* \"#utility.yul\":2371:2391   */\n      calldataload\n        /* \"#utility.yul\":2362:2391   */\n      swap1\n      pop\n        /* \"#utility.yul\":2400:2441   */\n      tag_115\n        /* \"#utility.yul\":2435:2440   */\n      dup2\n        /* \"#utility.yul\":2400:2441   */\n      tag_56\n      jump\t// in\n    tag_115:\n        /* \"#utility.yul\":2292:2447   */\n      swap3\n      swap2\n      pop\n      pop\n      jump\t// out\n        /* \"#utility.yul\":2453:2575   */\n    tag_58:\n        /* \"#utility.yul\":2526:2550   */\n      tag_117\n        /* \"#utility.yul\":2544:2549   */\n      dup2\n        /* \"#utility.yul\":2526:2550   */\n      tag_53\n      jump\t// in\n    tag_117:\n        /* \"#utility.yul\":2519:2524   */\n      dup2\n        /* \"#utility.yul\":2516:2551   */\n      eq\n        /* \"#utility.yul\":2506:2569   */\n      tag_118\n      jumpi\n        /* \"#utility.yul\":2565:2566   */\n      0x00\n        /* \"#utility.yul\":2562:2563   */\n      dup1\n        /* \"#utility.yul\":2555:2567   */\n      revert\n        /* \"#utility.yul\":2506:2569   */\n    tag_118:\n        /* \"#utility.yul\":2453:2575   */\n      pop\n      jump\t// out\n        /* \"#utility.yul\":2581:2720   */\n    tag_59:\n        /* \"#utility.yul\":2627:2632   */\n      0x00\n        /* \"#utility.yul\":2665:2671   */\n      dup2\n        /* \"#utility.yul\":2652:2672   */\n      calldataload\n        /* \"#utility.yul\":2643:2672   */\n      swap1\n      pop\n        /* \"#utility.yul\":2681:2714   */\n      tag_120\n        /* \"#utility.yul\":2708:2713   */\n      dup2\n        /* \"#utility.yul\":2681:2714   */\n      tag_58\n      jump\t// in\n    tag_120:\n        /* \"#utility.yul\":2581:2720   */\n      swap3\n      swap2\n      pop\n      pop\n      jump\t// out\n        /* \"#utility.yul\":2726:2843   */\n    tag_60:\n        /* \"#utility.yul\":2835:2836   */\n      0x00\n        /* \"#utility.yul\":2832:2833   */\n      dup1\n        /* \"#utility.yul\":2825:2837   */\n      revert\n        /* \"#utility.yul\":2849:2966   */\n    tag_61:\n        /* \"#utility.yul\":2958:2959   */\n      0x00\n        /* \"#utility.yul\":2955:2956   */\n      dup1\n        /* \"#utility.yul\":2948:2960   */\n      revert\n        /* \"#utility.yul\":2972:3074   */\n    tag_62:\n        /* \"#utility.yul\":3013:3019   */\n      0x00\n        /* \"#utility.yul\":3064:3066   */\n      0x1f\n        /* \"#utility.yul\":3060:3067   */\n      not\n        /* \"#utility.yul\":3055:3057   */\n      0x1f\n        /* \"#utility.yul\":3048:3053   */\n      dup4\n        /* \"#utility.yul\":3044:3058   */\n      add\n        /* \"#utility.yul\":3040:3068   */\n      and\n        /* \"#utility.yul\":3030:3068   */\n      swap1\n      pop\n        /* \"#utility.yul\":2972:3074   */\n      swap2\n      swap1\n      pop\n      jump\t// out\n        /* \"#utility.yul\":3080:3260   */\n    tag_63:\n        /* \"#utility.yul\":3128:3205   */\n      0x4e487b7100000000000000000000000000000000000000000000000000000000\n        /* \"#utility.yul\":3125:3126   */\n      0x00\n        /* \"#utility.yul\":3118:3206   */\n      mstore\n        /* \"#utility.yul\":3225:3229   */\n      0x41\n        /* \"#utility.yul\":3222:3223   */\n      0x04\n        /* \"#utility.yul\":3215:3230   */\n      mstore\n        /* \"#utility.yul\":3249:3253   */\n      0x24\n        /* \"#utility.yul\":3246:3247   */\n      0x00\n        /* \"#utility.yul\":3239:3254   */\n      revert\n        /* \"#utility.yul\":3266:3547   */\n    tag_64:\n        /* \"#utility.yul\":3349:3376   */\n      tag_126\n        /* \"#utility.yul\":3371:3375   */\n      dup3\n        /* \"#utility.yul\":3349:3376   */\n      tag_62\n      jump\t// in\n    tag_126:\n        /* \"#utility.yul\":3341:3347   */\n      dup2\n        /* \"#utility.yul\":3337:3377   */\n      add\n        /* \"#utility.yul\":3479:3485   */\n      dup2\n        /* \"#utility.yul\":3467:3477   */\n      dup2\n        /* \"#utility.yul\":3464:3486   */\n      lt\n        /* \"#utility.yul\":3443:3461   */\n      0xffffffffffffffff\n        /* \"#utility.yul\":3431:3441   */\n      dup3\n        /* \"#utility.yul\":3428:3462   */\n      gt\n        /* \"#utility.yul\":3425:3487   */\n      or\n        /* \"#utility.yul\":3422:3510   */\n      iszero\n      tag_127\n      jumpi\n        /* \"#utility.yul\":3490:3508   */\n      tag_128\n      tag_63\n      jump\t// in\n    tag_128:\n        /* \"#utility.yul\":3422:3510   */\n    tag_127:\n        /* \"#utility.yul\":3530:3540   */\n      dup1\n        /* \"#utility.yul\":3526:3528   */\n      0x40\n        /* \"#utility.yul\":3519:3541   */\n      mstore\n        /* \"#utility.yul\":3309:3547   */\n      pop\n        /* \"#utility.yul\":3266:3547   */\n      pop\n      pop\n      jump\t// out\n        /* \"#utility.yul\":3553:3682   */\n    tag_65:\n        /* \"#utility.yul\":3587:3593   */\n      0x00\n        /* \"#utility.yul\":3614:3634   */\n      tag_130\n      tag_44\n      jump\t// in\n    tag_130:\n        /* \"#utility.yul\":3604:3634   */\n      swap1\n      pop\n        /* \"#utility.yul\":3643:3676   */\n      tag_131\n        /* \"#utility.yul\":3671:3675   */\n      dup3\n        /* \"#utility.yul\":3663:3669   */\n      dup3\n        /* \"#utility.yul\":3643:3676   */\n      tag_64\n      jump\t// in\n    tag_131:\n        /* \"#utility.yul\":3553:3682   */\n      swap2\n      swap1\n      pop\n      jump\t// out\n        /* \"#utility.yul\":3688:3995   */\n    tag_66:\n        /* \"#utility.yul\":3749:3753   */\n      0x00\n        /* \"#utility.yul\":3839:3857   */\n      0xffffffffffffffff\n        /* \"#utility.yul\":3831:3837   */\n      dup3\n        /* \"#utility.yul\":3828:3858   */\n      gt\n        /* \"#utility.yul\":3825:3881   */\n      iszero\n      tag_133\n      jumpi\n        /* \"#utility.yul\":3861:3879   */\n      tag_134\n      tag_63\n      jump\t// in\n    tag_134:\n        /* \"#utility.yul\":3825:3881   */\n    tag_133:\n        /* \"#utility.yul\":3899:3928   */\n      tag_135\n        /* \"#utility.yul\":3921:3927   */\n      dup3\n        /* \"#utility.yul\":3899:3928   */\n      tag_62\n      jump\t// in\n    tag_135:\n        /* \"#utility.yul\":3891:3928   */\n      swap1\n      pop\n        /* \"#utility.yul\":3983:3987   */\n      0x20\n        /* \"#utility.yul\":3977:3981   */\n      dup2\n        /* \"#utility.yul\":3973:3988   */\n      add\n        /* \"#utility.yul\":3965:3988   */\n      swap1\n      pop\n        /* \"#utility.yul\":3688:3995   */\n      swap2\n      swap1\n      pop\n      jump\t// out\n        /* \"#utility.yul\":4001:4147   */\n    tag_67:\n        /* \"#utility.yul\":4098:4104   */\n      dup3\n        /* \"#utility.yul\":4093:4096   */\n      dup2\n        /* \"#utility.yul\":4088:4091   */\n      dup4\n        /* \"#utility.yul\":4075:4105   */\n      calldatacopy\n        /* \"#utility.yul\":4139:4140   */\n      0x00\n        /* \"#utility.yul\":4130:4136   */\n      dup4\n        /* \"#utility.yul\":4125:4128   */\n      dup4\n        /* \"#utility.yul\":4121:4137   */\n      add\n        /* \"#utility.yul\":4114:4141   */\n      mstore\n        /* \"#utility.yul\":4001:4147   */\n      pop\n      pop\n      pop\n      jump\t// out\n        /* \"#utility.yul\":4153:4576   */\n    tag_68:\n        /* \"#utility.yul\":4230:4235   */\n      0x00\n        /* \"#utility.yul\":4255:4320   */\n      tag_138\n        /* \"#utility.yul\":4271:4319   */\n      tag_139\n        /* \"#utility.yul\":4312:4318   */\n      dup5\n        /* \"#utility.yul\":4271:4319   */\n      tag_66\n      jump\t// in\n    tag_139:\n        /* \"#utility.yul\":4255:4320   */\n      tag_65\n      jump\t// in\n    tag_138:\n        /* \"#utility.yul\":4246:4320   */\n      swap1\n      pop\n        /* \"#utility.yul\":4343:4349   */\n      dup3\n        /* \"#utility.yul\":4336:4341   */\n      dup2\n        /* \"#utility.yul\":4329:4350   */\n      mstore\n        /* \"#utility.yul\":4381:4385   */\n      0x20\n        /* \"#utility.yul\":4374:4379   */\n      dup2\n        /* \"#utility.yul\":4370:4386   */\n      add\n        /* \"#utility.yul\":4419:4422   */\n      dup5\n        /* \"#utility.yul\":4410:4416   */\n      dup5\n        /* \"#utility.yul\":4405:4408   */\n      dup5\n        /* \"#utility.yul\":4401:4417   */\n      add\n        /* \"#utility.yul\":4398:4423   */\n      gt\n        /* \"#utility.yul\":4395:4507   */\n      iszero\n      tag_140\n      jumpi\n        /* \"#utility.yul\":4426:4505   */\n      tag_141\n      tag_61\n      jump\t// in\n    tag_141:\n        /* \"#utility.yul\":4395:4507   */\n    tag_140:\n        /* \"#utility.yul\":4516:4570   */\n      tag_142\n        /* \"#utility.yul\":4563:4569   */\n      dup5\n        /* \"#utility.yul\":4558:4561   */\n      dup3\n        /* \"#utility.yul\":4553:4556   */\n      dup6\n        /* \"#utility.yul\":4516:4570   */\n      tag_67\n      jump\t// in\n    tag_142:\n        /* \"#utility.yul\":4236:4576   */\n      pop\n        /* \"#utility.yul\":4153:4576   */\n      swap4\n      swap3\n      pop\n      pop\n      pop\n      jump\t// out\n        /* \"#utility.yul\":4595:4933   */\n    tag_69:\n        /* \"#utility.yul\":4650:4655   */\n      0x00\n        /* \"#utility.yul\":4699:4702   */\n      dup3\n        /* \"#utility.yul\":4692:4696   */\n      0x1f\n        /* \"#utility.yul\":4684:4690   */\n      dup4\n        /* \"#utility.yul\":4680:4697   */\n      add\n        /* \"#utility.yul\":4676:4703   */\n      slt\n        /* \"#utility.yul\":4666:4788   */\n      tag_144\n      jumpi\n        /* \"#utility.yul\":4707:4786   */\n      tag_145\n      tag_60\n      jump\t// in\n    tag_145:\n        /* \"#utility.yul\":4666:4788   */\n    tag_144:\n        /* \"#utility.yul\":4824:4830   */\n      dup2\n        /* \"#utility.yul\":4811:4831   */\n      calldataload\n        /* \"#utility.yul\":4849:4927   */\n      tag_146\n        /* \"#utility.yul\":4923:4926   */\n      dup5\n        /* \"#utility.yul\":4915:4921   */\n      dup3\n        /* \"#utility.yul\":4908:4912   */\n      0x20\n        /* \"#utility.yul\":4900:4906   */\n      dup7\n        /* \"#utility.yul\":4896:4913   */\n      add\n        /* \"#utility.yul\":4849:4927   */\n      tag_68\n      jump\t// in\n    tag_146:\n        /* \"#utility.yul\":4840:4927   */\n      swap2\n      pop\n        /* \"#utility.yul\":4656:4933   */\n      pop\n        /* \"#utility.yul\":4595:4933   */\n      swap3\n      swap2\n      pop\n      pop\n      jump\t// out\n        /* \"#utility.yul\":4939:5752   */\n    tag_24:\n        /* \"#utility.yul\":5033:5039   */\n      0x00\n        /* \"#utility.yul\":5041:5047   */\n      dup1\n        /* \"#utility.yul\":5049:5055   */\n      0x00\n        /* \"#utility.yul\":5098:5100   */\n      0x60\n        /* \"#utility.yul\":5086:5095   */\n      dup5\n        /* \"#utility.yul\":5077:5084   */\n      dup7\n        /* \"#utility.yul\":5073:5096   */\n      sub\n        /* \"#utility.yul\":5069:5101   */\n      slt\n        /* \"#utility.yul\":5066:5185   */\n      iszero\n      tag_148\n      jumpi\n        /* \"#utility.yul\":5104:5183   */\n      tag_149\n      tag_45\n      jump\t// in\n    tag_149:\n        /* \"#utility.yul\":5066:5185   */\n    tag_148:\n        /* \"#utility.yul\":5224:5225   */\n      0x00\n        /* \"#utility.yul\":5249:5310   */\n      tag_150\n        /* \"#utility.yul\":5302:5309   */\n      dup7\n        /* \"#utility.yul\":5293:5299   */\n      dup3\n        /* \"#utility.yul\":5282:5291   */\n      dup8\n        /* \"#utility.yul\":5278:5300   */\n      add\n        /* \"#utility.yul\":5249:5310   */\n      tag_57\n      jump\t// in\n    tag_150:\n        /* \"#utility.yul\":5239:5310   */\n      swap4\n      pop\n        /* \"#utility.yul\":5195:5320   */\n      pop\n        /* \"#utility.yul\":5359:5361   */\n      0x20\n        /* \"#utility.yul\":5385:5438   */\n      tag_151\n        /* \"#utility.yul\":5430:5437   */\n      dup7\n        /* \"#utility.yul\":5421:5427   */\n      dup3\n        /* \"#utility.yul\":5410:5419   */\n      dup8\n        /* \"#utility.yul\":5406:5428   */\n      add\n        /* \"#utility.yul\":5385:5438   */\n      tag_59\n      jump\t// in\n    tag_151:\n        /* \"#utility.yul\":5375:5438   */\n      swap3\n      pop\n        /* \"#utility.yul\":5330:5448   */\n      pop\n        /* \"#utility.yul\":5515:5517   */\n      0x40\n        /* \"#utility.yul\":5504:5513   */\n      dup5\n        /* \"#utility.yul\":5500:5518   */\n      add\n        /* \"#utility.yul\":5487:5519   */\n      calldataload\n        /* \"#utility.yul\":5546:5564   */\n      0xffffffffffffffff\n        /* \"#utility.yul\":5538:5544   */\n      dup2\n        /* \"#utility.yul\":5535:5565   */\n      gt\n        /* \"#utility.yul\":5532:5649   */\n      iszero\n      tag_152\n      jumpi\n        /* \"#utility.yul\":5568:5647   */\n      tag_153\n      tag_46\n      jump\t// in\n    tag_153:\n        /* \"#utility.yul\":5532:5649   */\n    tag_152:\n        /* \"#utility.yul\":5673:5735   */\n      tag_154\n        /* \"#utility.yul\":5727:5734   */\n      dup7\n        /* \"#utility.yul\":5718:5724   */\n      dup3\n        /* \"#utility.yul\":5707:5716   */\n      dup8\n        /* \"#utility.yul\":5703:5725   */\n      add\n        /* \"#utility.yul\":5673:5735   */\n      tag_69\n      jump\t// in\n    tag_154:\n        /* \"#utility.yul\":5663:5735   */\n      swap2\n      pop\n        /* \"#utility.yul\":5458:5745   */\n      pop\n        /* \"#utility.yul\":4939:5752   */\n      swap3\n      pop\n      swap3\n      pop\n      swap3\n      jump\t// out\n        /* \"#utility.yul\":5758:5856   */\n    tag_70:\n        /* \"#utility.yul\":5809:5815   */\n      0x00\n        /* \"#utility.yul\":5843:5848   */\n      dup2\n        /* \"#utility.yul\":5837:5849   */\n      mload\n        /* \"#utility.yul\":5827:5849   */\n      swap1\n      pop\n        /* \"#utility.yul\":5758:5856   */\n      swap2\n      swap1\n      pop\n      jump\t// out\n        /* \"#utility.yul\":5862:6030   */\n    tag_71:\n        /* \"#utility.yul\":5945:5956   */\n      0x00\n        /* \"#utility.yul\":5979:5985   */\n      dup3\n        /* \"#utility.yul\":5974:5977   */\n      dup3\n        /* \"#utility.yul\":5967:5986   */\n      mstore\n        /* \"#utility.yul\":6019:6023   */\n      0x20\n        /* \"#utility.yul\":6014:6017   */\n      dup3\n        /* \"#utility.yul\":6010:6024   */\n      add\n        /* \"#utility.yul\":5995:6024   */\n      swap1\n      pop\n        /* \"#utility.yul\":5862:6030   */\n      swap3\n      swap2\n      pop\n      pop\n      jump\t// out\n        /* \"#utility.yul\":6036:6282   */\n    tag_72:\n        /* \"#utility.yul\":6117:6118   */\n      0x00\n        /* \"#utility.yul\":6127:6240   */\n    tag_158:\n        /* \"#utility.yul\":6141:6147   */\n      dup4\n        /* \"#utility.yul\":6138:6139   */\n      dup2\n        /* \"#utility.yul\":6135:6148   */\n      lt\n        /* \"#utility.yul\":6127:6240   */\n      iszero\n      tag_160\n      jumpi\n        /* \"#utility.yul\":6226:6227   */\n      dup1\n        /* \"#utility.yul\":6221:6224   */\n      dup3\n        /* \"#utility.yul\":6217:6228   */\n      add\n        /* \"#utility.yul\":6211:6229   */\n      mload\n        /* \"#utility.yul\":6207:6208   */\n      dup2\n        /* \"#utility.yul\":6202:6205   */\n      dup5\n        /* \"#utility.yul\":6198:6209   */\n      add\n        /* \"#utility.yul\":6191:6230   */\n      mstore\n        /* \"#utility.yul\":6163:6165   */\n      0x20\n        /* \"#utility.yul\":6160:6161   */\n      dup2\n        /* \"#utility.yul\":6156:6166   */\n      add\n        /* \"#utility.yul\":6151:6166   */\n      swap1\n      pop\n        /* \"#utility.yul\":6127:6240   */\n      jump(tag_158)\n    tag_160:\n        /* \"#utility.yul\":6274:6275   */\n      0x00\n        /* \"#utility.yul\":6265:6271   */\n      dup5\n        /* \"#utility.yul\":6260:6263   */\n      dup5\n        /* \"#utility.yul\":6256:6272   */\n      add\n        /* \"#utility.yul\":6249:6276   */\n      mstore\n        /* \"#utility.yul\":6098:6282   */\n      pop\n        /* \"#utility.yul\":6036:6282   */\n      pop\n      pop\n      pop\n      jump\t// out\n        /* \"#utility.yul\":6288:6661   */\n    tag_73:\n        /* \"#utility.yul\":6374:6377   */\n      0x00\n        /* \"#utility.yul\":6402:6440   */\n      tag_162\n        /* \"#utility.yul\":6434:6439   */\n      dup3\n        /* \"#utility.yul\":6402:6440   */\n      tag_70\n      jump\t// in\n    tag_162:\n        /* \"#utility.yul\":6456:6526   */\n      tag_163\n        /* \"#utility.yul\":6519:6525   */\n      dup2\n        /* \"#utility.yul\":6514:6517   */\n      dup6\n        /* \"#utility.yul\":6456:6526   */\n      tag_71\n      jump\t// in\n    tag_163:\n        /* \"#utility.yul\":6449:6526   */\n      swap4\n      pop\n        /* \"#utility.yul\":6535:6600   */\n      tag_164\n        /* \"#utility.yul\":6593:6599   */\n      dup2\n        /* \"#utility.yul\":6588:6591   */\n      dup6\n        /* \"#utility.yul\":6581:6585   */\n      0x20\n        /* \"#utility.yul\":6574:6579   */\n      dup7\n        /* \"#utility.yul\":6570:6586   */\n      add\n        /* \"#utility.yul\":6535:6600   */\n      tag_72\n      jump\t// in\n    tag_164:\n        /* \"#utility.yul\":6625:6654   */\n      tag_165\n        /* \"#utility.yul\":6647:6653   */\n      dup2\n        /* \"#utility.yul\":6625:6654   */\n      tag_62\n      jump\t// in\n    tag_165:\n        /* \"#utility.yul\":6620:6623   */\n      dup5\n        /* \"#utility.yul\":6616:6655   */\n      add\n        /* \"#utility.yul\":6609:6655   */\n      swap2\n      pop\n        /* \"#utility.yul\":6378:6661   */\n      pop\n        /* \"#utility.yul\":6288:6661   */\n      swap3\n      swap2\n      pop\n      pop\n      jump\t// out\n        /* \"#utility.yul\":6667:6976   */\n    tag_27:\n        /* \"#utility.yul\":6778:6782   */\n      0x00\n        /* \"#utility.yul\":6816:6818   */\n      0x20\n        /* \"#utility.yul\":6805:6814   */\n      dup3\n        /* \"#utility.yul\":6801:6819   */\n      add\n        /* \"#utility.yul\":6793:6819   */\n      swap1\n      pop\n        /* \"#utility.yul\":6865:6874   */\n      dup2\n        /* \"#utility.yul\":6859:6863   */\n      dup2\n        /* \"#utility.yul\":6855:6875   */\n      sub\n        /* \"#utility.yul\":6851:6852   */\n      0x00\n        /* \"#utility.yul\":6840:6849   */\n      dup4\n        /* \"#utility.yul\":6836:6853   */\n      add\n        /* \"#utility.yul\":6829:6876   */\n      mstore\n        /* \"#utility.yul\":6893:6969   */\n      tag_167\n        /* \"#utility.yul\":6964:6968   */\n      dup2\n        /* \"#utility.yul\":6955:6961   */\n      dup5\n        /* \"#utility.yul\":6893:6969   */\n      tag_73\n      jump\t// in\n    tag_167:\n        /* \"#utility.yul\":6885:6969   */\n      swap1\n      pop\n        /* \"#utility.yul\":6667:6976   */\n      swap3\n      swap2\n      pop\n      pop\n      jump\t// out\n        /* \"#utility.yul\":6982:7151   */\n    tag_74:\n        /* \"#utility.yul\":7066:7077   */\n      0x00\n        /* \"#utility.yul\":7100:7106   */\n      dup3\n        /* \"#utility.yul\":7095:7098   */\n      dup3\n        /* \"#utility.yul\":7088:7107   */\n      mstore\n        /* \"#utility.yul\":7140:7144   */\n      0x20\n        /* \"#utility.yul\":7135:7138   */\n      dup3\n        /* \"#utility.yul\":7131:7145   */\n      add\n        /* \"#utility.yul\":7116:7145   */\n      swap1\n      pop\n        /* \"#utility.yul\":6982:7151   */\n      swap3\n      swap2\n      pop\n      pop\n      jump\t// out\n        /* \"#utility.yul\":7157:7446   */\n    tag_75:\n        /* \"#utility.yul\":7297:7331   */\n      0x596f7520617265206e6f74207065726d697474656420746f2070726f63657373\n        /* \"#utility.yul\":7293:7294   */\n      0x00\n        /* \"#utility.yul\":7285:7291   */\n      dup3\n        /* \"#utility.yul\":7281:7295   */\n      add\n        /* \"#utility.yul\":7274:7332   */\n      mstore\n        /* \"#utility.yul\":7366:7400   */\n      0x207472616e73616374696f6e732066726f6d207468697320636f6e7472616374\n        /* \"#utility.yul\":7361:7363   */\n      0x20\n        /* \"#utility.yul\":7353:7359   */\n      dup3\n        /* \"#utility.yul\":7349:7364   */\n      add\n        /* \"#utility.yul\":7342:7401   */\n      mstore\n        /* \"#utility.yul\":7435:7438   */\n      0x2e00000000000000000000000000000000000000000000000000000000000000\n        /* \"#utility.yul\":7430:7432   */\n      0x40\n        /* \"#utility.yul\":7422:7428   */\n      dup3\n        /* \"#utility.yul\":7418:7433   */\n      add\n        /* \"#utility.yul\":7411:7439   */\n      mstore\n        /* \"#utility.yul\":7157:7446   */\n      pop\n      jump\t// out\n        /* \"#utility.yul\":7452:7818   */\n    tag_76:\n        /* \"#utility.yul\":7594:7597   */\n      0x00\n        /* \"#utility.yul\":7615:7682   */\n      tag_171\n        /* \"#utility.yul\":7679:7681   */\n      0x41\n        /* \"#utility.yul\":7674:7677   */\n      dup4\n        /* \"#utility.yul\":7615:7682   */\n      tag_74\n      jump\t// in\n    tag_171:\n        /* \"#utility.yul\":7608:7682   */\n      swap2\n      pop\n        /* \"#utility.yul\":7691:7784   */\n      tag_172\n        /* \"#utility.yul\":7780:7783   */\n      dup3\n        /* \"#utility.yul\":7691:7784   */\n      tag_75\n      jump\t// in\n    tag_172:\n        /* \"#utility.yul\":7809:7811   */\n      0x60\n        /* \"#utility.yul\":7804:7807   */\n      dup3\n        /* \"#utility.yul\":7800:7812   */\n      add\n        /* \"#utility.yul\":7793:7812   */\n      swap1\n      pop\n        /* \"#utility.yul\":7452:7818   */\n      swap2\n      swap1\n      pop\n      jump\t// out\n        /* \"#utility.yul\":7824:8243   */\n    tag_32:\n        /* \"#utility.yul\":7990:7994   */\n      0x00\n        /* \"#utility.yul\":8028:8030   */\n      0x20\n        /* \"#utility.yul\":8017:8026   */\n      dup3\n        /* \"#utility.yul\":8013:8031   */\n      add\n        /* \"#utility.yul\":8005:8031   */\n      swap1\n      pop\n        /* \"#utility.yul\":8077:8086   */\n      dup2\n        /* \"#utility.yul\":8071:8075   */\n      dup2\n        /* \"#utility.yul\":8067:8087   */\n      sub\n        /* \"#utility.yul\":8063:8064   */\n      0x00\n        /* \"#utility.yul\":8052:8061   */\n      dup4\n        /* \"#utility.yul\":8048:8065   */\n      add\n        /* \"#utility.yul\":8041:8088   */\n      mstore\n        /* \"#utility.yul\":8105:8236   */\n      tag_174\n        /* \"#utility.yul\":8231:8235   */\n      dup2\n        /* \"#utility.yul\":8105:8236   */\n      tag_76\n      jump\t// in\n    tag_174:\n        /* \"#utility.yul\":8097:8236   */\n      swap1\n      pop\n        /* \"#utility.yul\":7824:8243   */\n      swap2\n      swap1\n      pop\n      jump\t// out\n        /* \"#utility.yul\":8249:8498   */\n    tag_77:\n        /* \"#utility.yul\":8389:8423   */\n      0x596f752061726520747972696e6720746f2073656e64206d6f7265207468616e\n        /* \"#utility.yul\":8385:8386   */\n      0x00\n        /* \"#utility.yul\":8377:8383   */\n      dup3\n        /* \"#utility.yul\":8373:8387   */\n      add\n        /* \"#utility.yul\":8366:8424   */\n      mstore\n        /* \"#utility.yul\":8458:8490   */\n      0x20796f752061726520616c6c6f77656420746f2c2061626f7274696e672e0000\n        /* \"#utility.yul\":8453:8455   */\n      0x20\n        /* \"#utility.yul\":8445:8451   */\n      dup3\n        /* \"#utility.yul\":8441:8456   */\n      add\n        /* \"#utility.yul\":8434:8491   */\n      mstore\n        /* \"#utility.yul\":8249:8498   */\n      pop\n      jump\t// out\n        /* \"#utility.yul\":8504:8870   */\n    tag_78:\n        /* \"#utility.yul\":8646:8649   */\n      0x00\n        /* \"#utility.yul\":8667:8734   */\n      tag_177\n        /* \"#utility.yul\":8731:8733   */\n      0x3e\n        /* \"#utility.yul\":8726:8729   */\n      dup4\n        /* \"#utility.yul\":8667:8734   */\n      tag_74\n      jump\t// in\n    tag_177:\n        /* \"#utility.yul\":8660:8734   */\n      swap2\n      pop\n        /* \"#utility.yul\":8743:8836   */\n      tag_178\n        /* \"#utility.yul\":8832:8835   */\n      dup3\n        /* \"#utility.yul\":8743:8836   */\n      tag_77\n      jump\t// in\n    tag_178:\n        /* \"#utility.yul\":8861:8863   */\n      0x40\n        /* \"#utility.yul\":8856:8859   */\n      dup3\n        /* \"#utility.yul\":8852:8864   */\n      add\n        /* \"#utility.yul\":8845:8864   */\n      swap1\n      pop\n        /* \"#utility.yul\":8504:8870   */\n      swap2\n      swap1\n      pop\n      jump\t// out\n        /* \"#utility.yul\":8876:9295   */\n    tag_35:\n        /* \"#utility.yul\":9042:9046   */\n      0x00\n        /* \"#utility.yul\":9080:9082   */\n      0x20\n        /* \"#utility.yul\":9069:9078   */\n      dup3\n        /* \"#utility.yul\":9065:9083   */\n      add\n        /* \"#utility.yul\":9057:9083   */\n      swap1\n      pop\n        /* \"#utility.yul\":9129:9138   */\n      dup2\n        /* \"#utility.yul\":9123:9127   */\n      dup2\n        /* \"#utility.yul\":9119:9139   */\n      sub\n        /* \"#utility.yul\":9115:9116   */\n      0x00\n        /* \"#utility.yul\":9104:9113   */\n      dup4\n        /* \"#utility.yul\":9100:9117   */\n      add\n        /* \"#utility.yul\":9093:9140   */\n      mstore\n        /* \"#utility.yul\":9157:9288   */\n      tag_180\n        /* \"#utility.yul\":9283:9287   */\n      dup2\n        /* \"#utility.yul\":9157:9288   */\n      tag_78\n      jump\t// in\n    tag_180:\n        /* \"#utility.yul\":9149:9288   */\n      swap1\n      pop\n        /* \"#utility.yul\":8876:9295   */\n      swap2\n      swap1\n      pop\n      jump\t// out\n        /* \"#utility.yul\":9301:9448   */\n    tag_79:\n        /* \"#utility.yul\":9402:9413   */\n      0x00\n        /* \"#utility.yul\":9439:9442   */\n      dup2\n        /* \"#utility.yul\":9424:9442   */\n      swap1\n      pop\n        /* \"#utility.yul\":9301:9448   */\n      swap3\n      swap2\n      pop\n      pop\n      jump\t// out\n        /* \"#utility.yul\":9454:9840   */\n    tag_80:\n        /* \"#utility.yul\":9558:9561   */\n      0x00\n        /* \"#utility.yul\":9586:9624   */\n      tag_183\n        /* \"#utility.yul\":9618:9623   */\n      dup3\n        /* \"#utility.yul\":9586:9624   */\n      tag_70\n      jump\t// in\n    tag_183:\n        /* \"#utility.yul\":9640:9728   */\n      tag_184\n        /* \"#utility.yul\":9721:9727   */\n      dup2\n        /* \"#utility.yul\":9716:9719   */\n      dup6\n        /* \"#utility.yul\":9640:9728   */\n      tag_79\n      jump\t// in\n    tag_184:\n        /* \"#utility.yul\":9633:9728   */\n      swap4\n      pop\n        /* \"#utility.yul\":9737:9802   */\n      tag_185\n        /* \"#utility.yul\":9795:9801   */\n      dup2\n        /* \"#utility.yul\":9790:9793   */\n      dup6\n        /* \"#utility.yul\":9783:9787   */\n      0x20\n        /* \"#utility.yul\":9776:9781   */\n      dup7\n        /* \"#utility.yul\":9772:9788   */\n      add\n        /* \"#utility.yul\":9737:9802   */\n      tag_72\n      jump\t// in\n    tag_185:\n        /* \"#utility.yul\":9827:9833   */\n      dup1\n        /* \"#utility.yul\":9822:9825   */\n      dup5\n        /* \"#utility.yul\":9818:9834   */\n      add\n        /* \"#utility.yul\":9811:9834   */\n      swap2\n      pop\n        /* \"#utility.yul\":9562:9840   */\n      pop\n        /* \"#utility.yul\":9454:9840   */\n      swap3\n      swap2\n      pop\n      pop\n      jump\t// out\n        /* \"#utility.yul\":9846:10117   */\n    tag_37:\n        /* \"#utility.yul\":9976:9979   */\n      0x00\n        /* \"#utility.yul\":9998:10091   */\n      tag_187\n        /* \"#utility.yul\":10087:10090   */\n      dup3\n        /* \"#utility.yul\":10078:10084   */\n      dup5\n        /* \"#utility.yul\":9998:10091   */\n      tag_80\n      jump\t// in\n    tag_187:\n        /* \"#utility.yul\":9991:10091   */\n      swap2\n      pop\n        /* \"#utility.yul\":10108:10111   */\n      dup2\n        /* \"#utility.yul\":10101:10111   */\n      swap1\n      pop\n        /* \"#utility.yul\":9846:10117   */\n      swap3\n      swap2\n      pop\n      pop\n      jump\t// out\n        /* \"#utility.yul\":10123:10343   */\n    tag_81:\n        /* \"#utility.yul\":10263:10297   */\n      0x41626f7274696e672063616c6c20776173206e6f74207375636365737366756c\n        /* \"#utility.yul\":10259:10260   */\n      0x00\n        /* \"#utility.yul\":10251:10257   */\n      dup3\n        /* \"#utility.yul\":10247:10261   */\n      add\n        /* \"#utility.yul\":10240:10298   */\n      mstore\n        /* \"#utility.yul\":10332:10335   */\n      0x2e00000000000000000000000000000000000000000000000000000000000000\n        /* \"#utility.yul\":10327:10329   */\n      0x20\n        /* \"#utility.yul\":10319:10325   */\n      dup3\n        /* \"#utility.yul\":10315:10330   */\n      add\n        /* \"#utility.yul\":10308:10336   */\n      mstore\n        /* \"#utility.yul\":10123:10343   */\n      pop\n      jump\t// out\n        /* \"#utility.yul\":10349:10715   */\n    tag_82:\n        /* \"#utility.yul\":10491:10494   */\n      0x00\n        /* \"#utility.yul\":10512:10579   */\n      tag_190\n        /* \"#utility.yul\":10576:10578   */\n      0x21\n        /* \"#utility.yul\":10571:10574   */\n      dup4\n        /* \"#utility.yul\":10512:10579   */\n      tag_74\n      jump\t// in\n    tag_190:\n        /* \"#utility.yul\":10505:10579   */\n      swap2\n      pop\n        /* \"#utility.yul\":10588:10681   */\n      tag_191\n        /* \"#utility.yul\":10677:10680   */\n      dup3\n        /* \"#utility.yul\":10588:10681   */\n      tag_81\n      jump\t// in\n    tag_191:\n        /* \"#utility.yul\":10706:10708   */\n      0x40\n        /* \"#utility.yul\":10701:10704   */\n      dup3\n        /* \"#utility.yul\":10697:10709   */\n      add\n        /* \"#utility.yul\":10690:10709   */\n      swap1\n      pop\n        /* \"#utility.yul\":10349:10715   */\n      swap2\n      swap1\n      pop\n      jump\t// out\n        /* \"#utility.yul\":10721:11140   */\n    tag_43:\n        /* \"#utility.yul\":10887:10891   */\n      0x00\n        /* \"#utility.yul\":10925:10927   */\n      0x20\n        /* \"#utility.yul\":10914:10923   */\n      dup3\n        /* \"#utility.yul\":10910:10928   */\n      add\n        /* \"#utility.yul\":10902:10928   */\n      swap1\n      pop\n        /* \"#utility.yul\":10974:10983   */\n      dup2\n        /* \"#utility.yul\":10968:10972   */\n      dup2\n        /* \"#utility.yul\":10964:10984   */\n      sub\n        /* \"#utility.yul\":10960:10961   */\n      0x00\n        /* \"#utility.yul\":10949:10958   */\n      dup4\n        /* \"#utility.yul\":10945:10962   */\n      add\n        /* \"#utility.yul\":10938:10985   */\n      mstore\n        /* \"#utility.yul\":11002:11133   */\n      tag_193\n        /* \"#utility.yul\":11128:11132   */\n      dup2\n        /* \"#utility.yul\":11002:11133   */\n      tag_82\n      jump\t// in\n    tag_193:\n        /* \"#utility.yul\":10994:11133   */\n      swap1\n      pop\n        /* \"#utility.yul\":10721:11140   */\n      swap2\n      swap1\n      pop\n      jump\t// out\n\n    auxdata: 0xa26469706673582212205b63d21806a4d1c80acb7ee9cc4666e72783dfa775080ce09c863feb826e376e64736f6c63430008110033\n}\n",
				"bytecode": {
					"linkReferences": {},
					"object": "608060405234801561001057600080fd5b50336000806101000a81548173ffffffffffffffffffffffffffffffffffffffff021916908373ffffffffffffffffffffffffffffffffffffffff160217905550610992806100606000396000f3fe6080604052600436106100385760003560e01c80630bc605ad146100445780633e5beab914610081578063be45fd62146100be5761003f565b3661003f57005b600080fd5b34801561005057600080fd5b5061006b600480360381019061006691906103c5565b6100fb565b604051610078919061040d565b60405180910390f35b34801561008d57600080fd5b506100a860048036038101906100a391906103c5565b61011b565b6040516100b59190610441565b60405180910390f35b3480156100ca57600080fd5b506100e560048036038101906100e0919061060c565b610133565b6040516100f291906106fa565b60405180910390f35b60026020528060005260406000206000915054906101000a900460ff1681565b60016020528060005260406000206000915090505481565b606060008054906101000a900473ffffffffffffffffffffffffffffffffffffffff1673ffffffffffffffffffffffffffffffffffffffff163373ffffffffffffffffffffffffffffffffffffffff161461029757600260003373ffffffffffffffffffffffffffffffffffffffff1673ffffffffffffffffffffffffffffffffffffffff16815260200190815260200160002060009054906101000a900460ff16610214576040517f08c379a000000000000000000000000000000000000000000000000000000000815260040161020b906107c5565b60405180910390fd5b82600160003373ffffffffffffffffffffffffffffffffffffffff1673ffffffffffffffffffffffffffffffffffffffff168152602001908152602001600020541015610296576040517f08c379a000000000000000000000000000000000000000000000000000000000815260040161028d90610857565b60405180910390fd5b5b6000808573ffffffffffffffffffffffffffffffffffffffff1685856040516102c091906108b3565b60006040518083038185875af1925050503d80600081146102fd576040519150601f19603f3d011682016040523d82523d6000602084013e610302565b606091505b509150915081610347576040517f08c379a000000000000000000000000000000000000000000000000000000000815260040161033e9061093c565b60405180910390fd5b80925050509392505050565b6000604051905090565b600080fd5b600080fd5b600073ffffffffffffffffffffffffffffffffffffffff82169050919050565b600061039282610367565b9050919050565b6103a281610387565b81146103ad57600080fd5b50565b6000813590506103bf81610399565b92915050565b6000602082840312156103db576103da61035d565b5b60006103e9848285016103b0565b91505092915050565b60008115159050919050565b610407816103f2565b82525050565b600060208201905061042260008301846103fe565b92915050565b6000819050919050565b61043b81610428565b82525050565b60006020820190506104566000830184610432565b92915050565b600061046782610367565b9050919050565b6104778161045c565b811461048257600080fd5b50565b6000813590506104948161046e565b92915050565b6104a381610428565b81146104ae57600080fd5b50565b6000813590506104c08161049a565b92915050565b600080fd5b600080fd5b6000601f19601f8301169050919050565b7f4e487b7100000000000000000000000000000000000000000000000000000000600052604160045260246000fd5b610519826104d0565b810181811067ffffffffffffffff82111715610538576105376104e1565b5b80604052505050565b600061054b610353565b90506105578282610510565b919050565b600067ffffffffffffffff821115610577576105766104e1565b5b610580826104d0565b9050602081019050919050565b82818337600083830152505050565b60006105af6105aa8461055c565b610541565b9050828152602081018484840111156105cb576105ca6104cb565b5b6105d684828561058d565b509392505050565b600082601f8301126105f3576105f26104c6565b5b813561060384826020860161059c565b91505092915050565b6000806000606084860312156106255761062461035d565b5b600061063386828701610485565b9350506020610644868287016104b1565b925050604084013567ffffffffffffffff81111561066557610664610362565b5b610671868287016105de565b9150509250925092565b600081519050919050565b600082825260208201905092915050565b60005b838110156106b557808201518184015260208101905061069a565b60008484015250505050565b60006106cc8261067b565b6106d68185610686565b93506106e6818560208601610697565b6106ef816104d0565b840191505092915050565b6000602082019050818103600083015261071481846106c1565b905092915050565b600082825260208201905092915050565b7f596f7520617265206e6f74207065726d697474656420746f2070726f6365737360008201527f207472616e73616374696f6e732066726f6d207468697320636f6e747261637460208201527f2e00000000000000000000000000000000000000000000000000000000000000604082015250565b60006107af60418361071c565b91506107ba8261072d565b606082019050919050565b600060208201905081810360008301526107de816107a2565b9050919050565b7f596f752061726520747972696e6720746f2073656e64206d6f7265207468616e60008201527f20796f752061726520616c6c6f77656420746f2c2061626f7274696e672e0000602082015250565b6000610841603e8361071c565b915061084c826107e5565b604082019050919050565b6000602082019050818103600083015261087081610834565b9050919050565b600081905092915050565b600061088d8261067b565b6108978185610877565b93506108a7818560208601610697565b80840191505092915050565b60006108bf8284610882565b915081905092915050565b7f41626f7274696e672063616c6c20776173206e6f74207375636365737366756c60008201527f2e00000000000000000000000000000000000000000000000000000000000000602082015250565b600061092660218361071c565b9150610931826108ca565b604082019050919050565b6000602082019050818103600083015261095581610919565b905091905056fea26469706673582212205b63d21806a4d1c80acb7ee9cc4666e72783dfa775080ce09c863feb826e376e64736f6c63430008110033",
					"opcodes": "PUSH1 0x80 PUSH1 0x40 MSTORE CALLVALUE DUP1 ISZERO PUSH2 0x10 JUMPI PUSH1 0x0 DUP1 REVERT JUMPDEST POP CALLER PUSH1 0x0 DUP1 PUSH2 0x100 EXP DUP2 SLOAD DUP2 PUSH20 0xFFFFFFFFFFFFFFFFFFFFFFFFFFFFFFFFFFFFFFFF MUL NOT AND SWAP1 DUP4 PUSH20 0xFFFFFFFFFFFFFFFFFFFFFFFFFFFFFFFFFFFFFFFF AND MUL OR SWAP1 SSTORE POP PUSH2 0x992 DUP1 PUSH2 0x60 PUSH1 0x0 CODECOPY PUSH1 0x0 RETURN INVALID PUSH1 0x80 PUSH1 0x40 MSTORE PUSH1 0x4 CALLDATASIZE LT PUSH2 0x38 JUMPI PUSH1 0x0 CALLDATALOAD PUSH1 0xE0 SHR DUP1 PUSH4 0xBC605AD EQ PUSH2 0x44 JUMPI DUP1 PUSH4 0x3E5BEAB9 EQ PUSH2 0x81 JUMPI DUP1 PUSH4 0xBE45FD62 EQ PUSH2 0xBE JUMPI PUSH2 0x3F JUMP JUMPDEST CALLDATASIZE PUSH2 0x3F JUMPI STOP JUMPDEST PUSH1 0x0 DUP1 REVERT JUMPDEST CALLVALUE DUP1 ISZERO PUSH2 0x50 JUMPI PUSH1 0x0 DUP1 REVERT JUMPDEST POP PUSH2 0x6B PUSH1 0x4 DUP1 CALLDATASIZE SUB DUP2 ADD SWAP1 PUSH2 0x66 SWAP2 SWAP1 PUSH2 0x3C5 JUMP JUMPDEST PUSH2 0xFB JUMP JUMPDEST PUSH1 0x40 MLOAD PUSH2 0x78 SWAP2 SWAP1 PUSH2 0x40D JUMP JUMPDEST PUSH1 0x40 MLOAD DUP1 SWAP2 SUB SWAP1 RETURN JUMPDEST CALLVALUE DUP1 ISZERO PUSH2 0x8D JUMPI PUSH1 0x0 DUP1 REVERT JUMPDEST POP PUSH2 0xA8 PUSH1 0x4 DUP1 CALLDATASIZE SUB DUP2 ADD SWAP1 PUSH2 0xA3 SWAP2 SWAP1 PUSH2 0x3C5 JUMP JUMPDEST PUSH2 0x11B JUMP JUMPDEST PUSH1 0x40 MLOAD PUSH2 0xB5 SWAP2 SWAP1 PUSH2 0x441 JUMP JUMPDEST PUSH1 0x40 MLOAD DUP1 SWAP2 SUB SWAP1 RETURN JUMPDEST CALLVALUE DUP1 ISZERO PUSH2 0xCA JUMPI PUSH1 0x0 DUP1 REVERT JUMPDEST POP PUSH2 0xE5 PUSH1 0x4 DUP1 CALLDATASIZE SUB DUP2 ADD SWAP1 PUSH2 0xE0 SWAP2 SWAP1 PUSH2 0x60C JUMP JUMPDEST PUSH2 0x133 JUMP JUMPDEST PUSH1 0x40 MLOAD PUSH2 0xF2 SWAP2 SWAP1 PUSH2 0x6FA JUMP JUMPDEST PUSH1 0x40 MLOAD DUP1 SWAP2 SUB SWAP1 RETURN JUMPDEST PUSH1 0x2 PUSH1 0x20 MSTORE DUP1 PUSH1 0x0 MSTORE PUSH1 0x40 PUSH1 0x0 KECCAK256 PUSH1 0x0 SWAP2 POP SLOAD SWAP1 PUSH2 0x100 EXP SWAP1 DIV PUSH1 0xFF AND DUP2 JUMP JUMPDEST PUSH1 0x1 PUSH1 0x20 MSTORE DUP1 PUSH1 0x0 MSTORE PUSH1 0x40 PUSH1 0x0 KECCAK256 PUSH1 0x0 SWAP2 POP SWAP1 POP SLOAD DUP2 JUMP JUMPDEST PUSH1 0x60 PUSH1 0x0 DUP1 SLOAD SWAP1 PUSH2 0x100 EXP SWAP1 DIV PUSH20 0xFFFFFFFFFFFFFFFFFFFFFFFFFFFFFFFFFFFFFFFF AND PUSH20 0xFFFFFFFFFFFFFFFFFFFFFFFFFFFFFFFFFFFFFFFF AND CALLER PUSH20 0xFFFFFFFFFFFFFFFFFFFFFFFFFFFFFFFFFFFFFFFF AND EQ PUSH2 0x297 JUMPI PUSH1 0x2 PUSH1 0x0 CALLER PUSH20 0xFFFFFFFFFFFFFFFFFFFFFFFFFFFFFFFFFFFFFFFF AND PUSH20 0xFFFFFFFFFFFFFFFFFFFFFFFFFFFFFFFFFFFFFFFF AND DUP2 MSTORE PUSH1 0x20 ADD SWAP1 DUP2 MSTORE PUSH1 0x20 ADD PUSH1 0x0 KECCAK256 PUSH1 0x0 SWAP1 SLOAD SWAP1 PUSH2 0x100 EXP SWAP1 DIV PUSH1 0xFF AND PUSH2 0x214 JUMPI PUSH1 0x40 MLOAD PUSH32 0x8C379A000000000000000000000000000000000000000000000000000000000 DUP2 MSTORE PUSH1 0x4 ADD PUSH2 0x20B SWAP1 PUSH2 0x7C5 JUMP JUMPDEST PUSH1 0x40 MLOAD DUP1 SWAP2 SUB SWAP1 REVERT JUMPDEST DUP3 PUSH1 0x1 PUSH1 0x0 CALLER PUSH20 0xFFFFFFFFFFFFFFFFFFFFFFFFFFFFFFFFFFFFFFFF AND PUSH20 0xFFFFFFFFFFFFFFFFFFFFFFFFFFFFFFFFFFFFFFFF AND DUP2 MSTORE PUSH1 0x20 ADD SWAP1 DUP2 MSTORE PUSH1 0x20 ADD PUSH1 0x0 KECCAK256 SLOAD LT ISZERO PUSH2 0x296 JUMPI PUSH1 0x40 MLOAD PUSH32 0x8C379A000000000000000000000000000000000000000000000000000000000 DUP2 MSTORE PUSH1 0x4 ADD PUSH2 0x28D SWAP1 PUSH2 0x857 JUMP JUMPDEST PUSH1 0x40 MLOAD DUP1 SWAP2 SUB SWAP1 REVERT JUMPDEST JUMPDEST PUSH1 0x0 DUP1 DUP6 PUSH20 0xFFFFFFFFFFFFFFFFFFFFFFFFFFFFFFFFFFFFFFFF AND DUP6 DUP6 PUSH1 0x40 MLOAD PUSH2 0x2C0 SWAP2 SWAP1 PUSH2 0x8B3 JUMP JUMPDEST PUSH1 0x0 PUSH1 0x40 MLOAD DUP1 DUP4 SUB DUP2 DUP6 DUP8 GAS CALL SWAP3 POP POP POP RETURNDATASIZE DUP1 PUSH1 0x0 DUP2 EQ PUSH2 0x2FD JUMPI PUSH1 0x40 MLOAD SWAP2 POP PUSH1 0x1F NOT PUSH1 0x3F RETURNDATASIZE ADD AND DUP3 ADD PUSH1 0x40 MSTORE RETURNDATASIZE DUP3 MSTORE RETURNDATASIZE PUSH1 0x0 PUSH1 0x20 DUP5 ADD RETURNDATACOPY PUSH2 0x302 JUMP JUMPDEST PUSH1 0x60 SWAP2 POP JUMPDEST POP SWAP2 POP SWAP2 POP DUP2 PUSH2 0x347 JUMPI PUSH1 0x40 MLOAD PUSH32 0x8C379A000000000000000000000000000000000000000000000000000000000 DUP2 MSTORE PUSH1 0x4 ADD PUSH2 0x33E SWAP1 PUSH2 0x93C JUMP JUMPDEST PUSH1 0x40 MLOAD DUP1 SWAP2 SUB SWAP1 REVERT JUMPDEST DUP1 SWAP3 POP POP POP SWAP4 SWAP3 POP POP POP JUMP JUMPDEST PUSH1 0x0 PUSH1 0x40 MLOAD SWAP1 POP SWAP1 JUMP JUMPDEST PUSH1 0x0 DUP1 REVERT JUMPDEST PUSH1 0x0 DUP1 REVERT JUMPDEST PUSH1 0x0 PUSH20 0xFFFFFFFFFFFFFFFFFFFFFFFFFFFFFFFFFFFFFFFF DUP3 AND SWAP1 POP SWAP2 SWAP1 POP JUMP JUMPDEST PUSH1 0x0 PUSH2 0x392 DUP3 PUSH2 0x367 JUMP JUMPDEST SWAP1 POP SWAP2 SWAP1 POP JUMP JUMPDEST PUSH2 0x3A2 DUP2 PUSH2 0x387 JUMP JUMPDEST DUP2 EQ PUSH2 0x3AD JUMPI PUSH1 0x0 DUP1 REVERT JUMPDEST POP JUMP JUMPDEST PUSH1 0x0 DUP2 CALLDATALOAD SWAP1 POP PUSH2 0x3BF DUP2 PUSH2 0x399 JUMP JUMPDEST SWAP3 SWAP2 POP POP JUMP JUMPDEST PUSH1 0x0 PUSH1 0x20 DUP3 DUP5 SUB SLT ISZERO PUSH2 0x3DB JUMPI PUSH2 0x3DA PUSH2 0x35D JUMP JUMPDEST JUMPDEST PUSH1 0x0 PUSH2 0x3E9 DUP5 DUP3 DUP6 ADD PUSH2 0x3B0 JUMP JUMPDEST SWAP2 POP POP SWAP3 SWAP2 POP POP JUMP JUMPDEST PUSH1 0x0 DUP2 ISZERO ISZERO SWAP1 POP SWAP2 SWAP1 POP JUMP JUMPDEST PUSH2 0x407 DUP2 PUSH2 0x3F2 JUMP JUMPDEST DUP3 MSTORE POP POP JUMP JUMPDEST PUSH1 0x0 PUSH1 0x20 DUP3 ADD SWAP1 POP PUSH2 0x422 PUSH1 0x0 DUP4 ADD DUP5 PUSH2 0x3FE JUMP JUMPDEST SWAP3 SWAP2 POP POP JUMP JUMPDEST PUSH1 0x0 DUP2 SWAP1 POP SWAP2 SWAP1 POP JUMP JUMPDEST PUSH2 0x43B DUP2 PUSH2 0x428 JUMP JUMPDEST DUP3 MSTORE POP POP JUMP JUMPDEST PUSH1 0x0 PUSH1 0x20 DUP3 ADD SWAP1 POP PUSH2 0x456 PUSH1 0x0 DUP4 ADD DUP5 PUSH2 0x432 JUMP JUMPDEST SWAP3 SWAP2 POP POP JUMP JUMPDEST PUSH1 0x0 PUSH2 0x467 DUP3 PUSH2 0x367 JUMP JUMPDEST SWAP1 POP SWAP2 SWAP1 POP JUMP JUMPDEST PUSH2 0x477 DUP2 PUSH2 0x45C JUMP JUMPDEST DUP2 EQ PUSH2 0x482 JUMPI PUSH1 0x0 DUP1 REVERT JUMPDEST POP JUMP JUMPDEST PUSH1 0x0 DUP2 CALLDATALOAD SWAP1 POP PUSH2 0x494 DUP2 PUSH2 0x46E JUMP JUMPDEST SWAP3 SWAP2 POP POP JUMP JUMPDEST PUSH2 0x4A3 DUP2 PUSH2 0x428 JUMP JUMPDEST DUP2 EQ PUSH2 0x4AE JUMPI PUSH1 0x0 DUP1 REVERT JUMPDEST POP JUMP JUMPDEST PUSH1 0x0 DUP2 CALLDATALOAD SWAP1 POP PUSH2 0x4C0 DUP2 PUSH2 0x49A JUMP JUMPDEST SWAP3 SWAP2 POP POP JUMP JUMPDEST PUSH1 0x0 DUP1 REVERT JUMPDEST PUSH1 0x0 DUP1 REVERT JUMPDEST PUSH1 0x0 PUSH1 0x1F NOT PUSH1 0x1F DUP4 ADD AND SWAP1 POP SWAP2 SWAP1 POP JUMP JUMPDEST PUSH32 0x4E487B7100000000000000000000000000000000000000000000000000000000 PUSH1 0x0 MSTORE PUSH1 0x41 PUSH1 0x4 MSTORE PUSH1 0x24 PUSH1 0x0 REVERT JUMPDEST PUSH2 0x519 DUP3 PUSH2 0x4D0 JUMP JUMPDEST DUP2 ADD DUP2 DUP2 LT PUSH8 0xFFFFFFFFFFFFFFFF DUP3 GT OR ISZERO PUSH2 0x538 JUMPI PUSH2 0x537 PUSH2 0x4E1 JUMP JUMPDEST JUMPDEST DUP1 PUSH1 0x40 MSTORE POP POP POP JUMP JUMPDEST PUSH1 0x0 PUSH2 0x54B PUSH2 0x353 JUMP JUMPDEST SWAP1 POP PUSH2 0x557 DUP3 DUP3 PUSH2 0x510 JUMP JUMPDEST SWAP2 SWAP1 POP JUMP JUMPDEST PUSH1 0x0 PUSH8 0xFFFFFFFFFFFFFFFF DUP3 GT ISZERO PUSH2 0x577 JUMPI PUSH2 0x576 PUSH2 0x4E1 JUMP JUMPDEST JUMPDEST PUSH2 0x580 DUP3 PUSH2 0x4D0 JUMP JUMPDEST SWAP1 POP PUSH1 0x20 DUP2 ADD SWAP1 POP SWAP2 SWAP1 POP JUMP JUMPDEST DUP3 DUP2 DUP4 CALLDATACOPY PUSH1 0x0 DUP4 DUP4 ADD MSTORE POP POP POP JUMP JUMPDEST PUSH1 0x0 PUSH2 0x5AF PUSH2 0x5AA DUP5 PUSH2 0x55C JUMP JUMPDEST PUSH2 0x541 JUMP JUMPDEST SWAP1 POP DUP3 DUP2 MSTORE PUSH1 0x20 DUP2 ADD DUP5 DUP5 DUP5 ADD GT ISZERO PUSH2 0x5CB JUMPI PUSH2 0x5CA PUSH2 0x4CB JUMP JUMPDEST JUMPDEST PUSH2 0x5D6 DUP5 DUP3 DUP6 PUSH2 0x58D JUMP JUMPDEST POP SWAP4 SWAP3 POP POP POP JUMP JUMPDEST PUSH1 0x0 DUP3 PUSH1 0x1F DUP4 ADD SLT PUSH2 0x5F3 JUMPI PUSH2 0x5F2 PUSH2 0x4C6 JUMP JUMPDEST JUMPDEST DUP2 CALLDATALOAD PUSH2 0x603 DUP5 DUP3 PUSH1 0x20 DUP7 ADD PUSH2 0x59C JUMP JUMPDEST SWAP2 POP POP SWAP3 SWAP2 POP POP JUMP JUMPDEST PUSH1 0x0 DUP1 PUSH1 0x0 PUSH1 0x60 DUP5 DUP7 SUB SLT ISZERO PUSH2 0x625 JUMPI PUSH2 0x624 PUSH2 0x35D JUMP JUMPDEST JUMPDEST PUSH1 0x0 PUSH2 0x633 DUP7 DUP3 DUP8 ADD PUSH2 0x485 JUMP JUMPDEST SWAP4 POP POP PUSH1 0x20 PUSH2 0x644 DUP7 DUP3 DUP8 ADD PUSH2 0x4B1 JUMP JUMPDEST SWAP3 POP POP PUSH1 0x40 DUP5 ADD CALLDATALOAD PUSH8 0xFFFFFFFFFFFFFFFF DUP2 GT ISZERO PUSH2 0x665 JUMPI PUSH2 0x664 PUSH2 0x362 JUMP JUMPDEST JUMPDEST PUSH2 0x671 DUP7 DUP3 DUP8 ADD PUSH2 0x5DE JUMP JUMPDEST SWAP2 POP POP SWAP3 POP SWAP3 POP SWAP3 JUMP JUMPDEST PUSH1 0x0 DUP2 MLOAD SWAP1 POP SWAP2 SWAP1 POP JUMP JUMPDEST PUSH1 0x0 DUP3 DUP3 MSTORE PUSH1 0x20 DUP3 ADD SWAP1 POP SWAP3 SWAP2 POP POP JUMP JUMPDEST PUSH1 0x0 JUMPDEST DUP4 DUP2 LT ISZERO PUSH2 0x6B5 JUMPI DUP1 DUP3 ADD MLOAD DUP2 DUP5 ADD MSTORE PUSH1 0x20 DUP2 ADD SWAP1 POP PUSH2 0x69A JUMP JUMPDEST PUSH1 0x0 DUP5 DUP5 ADD MSTORE POP POP POP POP JUMP JUMPDEST PUSH1 0x0 PUSH2 0x6CC DUP3 PUSH2 0x67B JUMP JUMPDEST PUSH2 0x6D6 DUP2 DUP6 PUSH2 0x686 JUMP JUMPDEST SWAP4 POP PUSH2 0x6E6 DUP2 DUP6 PUSH1 0x20 DUP7 ADD PUSH2 0x697 JUMP JUMPDEST PUSH2 0x6EF DUP2 PUSH2 0x4D0 JUMP JUMPDEST DUP5 ADD SWAP2 POP POP SWAP3 SWAP2 POP POP JUMP JUMPDEST PUSH1 0x0 PUSH1 0x20 DUP3 ADD SWAP1 POP DUP2 DUP2 SUB PUSH1 0x0 DUP4 ADD MSTORE PUSH2 0x714 DUP2 DUP5 PUSH2 0x6C1 JUMP JUMPDEST SWAP1 POP SWAP3 SWAP2 POP POP JUMP JUMPDEST PUSH1 0x0 DUP3 DUP3 MSTORE PUSH1 0x20 DUP3 ADD SWAP1 POP SWAP3 SWAP2 POP POP JUMP JUMPDEST PUSH32 0x596F7520617265206E6F74207065726D697474656420746F2070726F63657373 PUSH1 0x0 DUP3 ADD MSTORE PUSH32 0x207472616E73616374696F6E732066726F6D207468697320636F6E7472616374 PUSH1 0x20 DUP3 ADD MSTORE PUSH32 0x2E00000000000000000000000000000000000000000000000000000000000000 PUSH1 0x40 DUP3 ADD MSTORE POP JUMP JUMPDEST PUSH1 0x0 PUSH2 0x7AF PUSH1 0x41 DUP4 PUSH2 0x71C JUMP JUMPDEST SWAP2 POP PUSH2 0x7BA DUP3 PUSH2 0x72D JUMP JUMPDEST PUSH1 0x60 DUP3 ADD SWAP1 POP SWAP2 SWAP1 POP JUMP JUMPDEST PUSH1 0x0 PUSH1 0x20 DUP3 ADD SWAP1 POP DUP2 DUP2 SUB PUSH1 0x0 DUP4 ADD MSTORE PUSH2 0x7DE DUP2 PUSH2 0x7A2 JUMP JUMPDEST SWAP1 POP SWAP2 SWAP1 POP JUMP JUMPDEST PUSH32 0x596F752061726520747972696E6720746F2073656E64206D6F7265207468616E PUSH1 0x0 DUP3 ADD MSTORE PUSH32 0x20796F752061726520616C6C6F77656420746F2C2061626F7274696E672E0000 PUSH1 0x20 DUP3 ADD MSTORE POP JUMP JUMPDEST PUSH1 0x0 PUSH2 0x841 PUSH1 0x3E DUP4 PUSH2 0x71C JUMP JUMPDEST SWAP2 POP PUSH2 0x84C DUP3 PUSH2 0x7E5 JUMP JUMPDEST PUSH1 0x40 DUP3 ADD SWAP1 POP SWAP2 SWAP1 POP JUMP JUMPDEST PUSH1 0x0 PUSH1 0x20 DUP3 ADD SWAP1 POP DUP2 DUP2 SUB PUSH1 0x0 DUP4 ADD MSTORE PUSH2 0x870 DUP2 PUSH2 0x834 JUMP JUMPDEST SWAP1 POP SWAP2 SWAP1 POP JUMP JUMPDEST PUSH1 0x0 DUP2 SWAP1 POP SWAP3 SWAP2 POP POP JUMP JUMPDEST PUSH1 0x0 PUSH2 0x88D DUP3 PUSH2 0x67B JUMP JUMPDEST PUSH2 0x897 DUP2 DUP6 PUSH2 0x877 JUMP JUMPDEST SWAP4 POP PUSH2 0x8A7 DUP2 DUP6 PUSH1 0x20 DUP7 ADD PUSH2 0x697 JUMP JUMPDEST DUP1 DUP5 ADD SWAP2 POP POP SWAP3 SWAP2 POP POP JUMP JUMPDEST PUSH1 0x0 PUSH2 0x8BF DUP3 DUP5 PUSH2 0x882 JUMP JUMPDEST SWAP2 POP DUP2 SWAP1 POP SWAP3 SWAP2 POP POP JUMP JUMPDEST PUSH32 0x41626F7274696E672063616C6C20776173206E6F74207375636365737366756C PUSH1 0x0 DUP3 ADD MSTORE PUSH32 0x2E00000000000000000000000000000000000000000000000000000000000000 PUSH1 0x20 DUP3 ADD MSTORE POP JUMP JUMPDEST PUSH1 0x0 PUSH2 0x926 PUSH1 0x21 DUP4 PUSH2 0x71C JUMP JUMPDEST SWAP2 POP PUSH2 0x931 DUP3 PUSH2 0x8CA JUMP JUMPDEST PUSH1 0x40 DUP3 ADD SWAP1 POP SWAP2 SWAP1 POP JUMP JUMPDEST PUSH1 0x0 PUSH1 0x20 DUP3 ADD SWAP1 POP DUP2 DUP2 SUB PUSH1 0x0 DUP4 ADD MSTORE PUSH2 0x955 DUP2 PUSH2 0x919 JUMP JUMPDEST SWAP1 POP SWAP2 SWAP1 POP JUMP INVALID LOG2 PUSH5 0x6970667358 0x22 SLT KECCAK256 JUMPDEST PUSH4 0xD21806A4 0xD1 0xC8 EXP 0xCB PUSH31 0xE9CC4666E72783DFA775080CE09C863FEB826E376E64736F6C634300081100 CALLER "
				},
				"gasEstimates": {
					"creation": {
						"codeDepositCost": "490000",
						"executionCost": "24790",
						"totalCost": "514790"
					},
					"external": {
						"allowance(address)": "2814",
						"isAllowedToSend(address)": "2823",
						"transfer(address,uint256,bytes)": "infinite"
					}
				},
				"methodIdentifiers": {
					"allowance(address)": "3e5beab9",
					"isAllowedToSend(address)": "0bc605ad",
					"transfer(address,uint256,bytes)": "be45fd62"
				}
			},
			"storageLayout": {
				"storage": [
					{
						"astId": 3,
						"contract": "contracts/SmartContractWallet.sol:SmartContractWallet",
						"label": "owner",
						"offset": 0,
						"slot": "0",
						"type": "t_address_payable"
					},
					{
						"astId": 7,
						"contract": "contracts/SmartContractWallet.sol:SmartContractWallet",
						"label": "allowance",
						"offset": 0,
						"slot": "1",
						"type": "t_mapping(t_address,t_uint256)"
					},
					{
						"astId": 11,
						"contract": "contracts/SmartContractWallet.sol:SmartContractWallet",
						"label": "isAllowedToSend",
						"offset": 0,
						"slot": "2",
						"type": "t_mapping(t_address,t_bool)"
					}
				],
				"types": {
					"t_address": {
						"encoding": "inplace",
						"label": "address",
						"numberOfBytes": "20"
					},
					"t_address_payable": {
						"encoding": "inplace",
						"label": "address payable",
						"numberOfBytes": "20"
					},
					"t_bool": {
						"encoding": "inplace",
						"label": "bool",
						"numberOfBytes": "1"
					},
					"t_mapping(t_address,t_bool)": {
						"encoding": "mapping",
						"key": "t_address",
						"label": "mapping(address => bool)",
						"numberOfBytes": "32",
						"value": "t_bool"
					},
					"t_mapping(t_address,t_uint256)": {
						"encoding": "mapping",
						"key": "t_address",
						"label": "mapping(address => uint256)",
						"numberOfBytes": "32",
						"value": "t_uint256"
					},
					"t_uint256": {
						"encoding": "inplace",
						"label": "uint256",
						"numberOfBytes": "32"
					}
				}
			},
			"userdoc": {
				"kind": "user",
				"methods": {},
				"version": 1
			}
		}
	}
}