{
	"contracts/SmartContractWallet.sol": {
		"SmartContractWallet": {
			"abi": [
				{
					"inputs": [],
					"stateMutability": "nonpayable",
					"type": "constructor"
				},
				{
					"inputs": [
						{
							"internalType": "address",
							"name": "",
							"type": "address"
						}
					],
					"name": "allowance",
					"outputs": [
						{
							"internalType": "uint256",
							"name": "",
							"type": "uint256"
						}
					],
					"stateMutability": "view",
					"type": "function"
				},
				{
					"inputs": [],
					"name": "confirmationsFromGuardiansForReset",
					"outputs": [
						{
							"internalType": "uint256",
							"name": "",
							"type": "uint256"
						}
					],
					"stateMutability": "view",
					"type": "function"
				},
				{
					"inputs": [
						{
							"internalType": "address",
							"name": "",
							"type": "address"
						}
					],
					"name": "guardians",
					"outputs": [
						{
							"internalType": "bool",
							"name": "",
							"type": "bool"
						}
					],
					"stateMutability": "view",
					"type": "function"
				},
				{
					"inputs": [
						{
							"internalType": "address",
							"name": "",
							"type": "address"
						}
					],
					"name": "isAllowedToSend",
					"outputs": [
						{
							"internalType": "bool",
							"name": "",
							"type": "bool"
						}
					],
					"stateMutability": "view",
					"type": "function"
				},
				{
					"inputs": [
						{
							"internalType": "address payable",
							"name": "_newOwner",
							"type": "address"
						}
					],
					"name": "proposeNewOwner",
					"outputs": [],
					"stateMutability": "nonpayable",
					"type": "function"
				},
				{
					"inputs": [
						{
							"internalType": "address",
							"name": "_for",
							"type": "address"
						},
						{
							"internalType": "uint256",
							"name": "_amount",
							"type": "uint256"
						}
					],
					"name": "setAllowance",
					"outputs": [],
					"stateMutability": "nonpayable",
					"type": "function"
				},
				{
					"inputs": [
						{
							"internalType": "address",
							"name": "_guardian",
							"type": "address"
						},
						{
							"internalType": "bool",
							"name": "_isGuardian",
							"type": "bool"
						}
					],
					"name": "setGuardian",
					"outputs": [],
					"stateMutability": "nonpayable",
					"type": "function"
				},
				{
					"inputs": [
						{
							"internalType": "address payable",
							"name": "_to",
							"type": "address"
						},
						{
							"internalType": "uint256",
							"name": "_amount",
							"type": "uint256"
						},
						{
							"internalType": "bytes",
							"name": "_payload",
							"type": "bytes"
						}
					],
					"name": "transfer",
					"outputs": [
						{
							"internalType": "bytes",
							"name": "",
							"type": "bytes"
						}
					],
					"stateMutability": "nonpayable",
					"type": "function"
				},
				{
					"stateMutability": "payable",
					"type": "receive"
				}
			],
			"devdoc": {
				"kind": "dev",
				"methods": {},
				"version": 1
			},
			"evm": {
				"assembly": "    /* \"contracts/SmartContractWallet.sol\":109:2407  contract SmartContractWallet {... */\n  mstore(0x40, 0x80)\n    /* \"contracts/SmartContractWallet.sol\":532:592  constructor() {... */\n  callvalue\n  dup1\n  iszero\n  tag_1\n  jumpi\n  0x00\n  dup1\n  revert\ntag_1:\n  pop\n    /* \"contracts/SmartContractWallet.sol\":573:583  msg.sender */\n  caller\n    /* \"contracts/SmartContractWallet.sol\":557:562  owner */\n  0x00\n  dup1\n    /* \"contracts/SmartContractWallet.sol\":557:584  owner = payable(msg.sender) */\n  0x0100\n  exp\n  dup2\n  sload\n  dup2\n  0xffffffffffffffffffffffffffffffffffffffff\n  mul\n  not\n  and\n  swap1\n  dup4\n  0xffffffffffffffffffffffffffffffffffffffff\n  and\n  mul\n  or\n  swap1\n  sstore\n  pop\n    /* \"contracts/SmartContractWallet.sol\":109:2407  contract SmartContractWallet {... */\n  dataSize(sub_0)\n  dup1\n  dataOffset(sub_0)\n  0x00\n  codecopy\n  0x00\n  return\nstop\n\nsub_0: assembly {\n        /* \"contracts/SmartContractWallet.sol\":109:2407  contract SmartContractWallet {... */\n      mstore(0x40, 0x80)\n      jumpi(tag_1, lt(calldatasize, 0x04))\n      shr(0xe0, calldataload(0x00))\n      dup1\n      0x3e5beab9\n      gt\n      tag_11\n      jumpi\n      dup1\n      0x3e5beab9\n      eq\n      tag_7\n      jumpi\n      dup1\n      0x83012be1\n      eq\n      tag_8\n      jumpi\n      dup1\n      0xb1f8100d\n      eq\n      tag_9\n      jumpi\n      dup1\n      0xbe45fd62\n      eq\n      tag_10\n      jumpi\n      jump(tag_2)\n    tag_11:\n      dup1\n      0x0633b14a\n      eq\n      tag_3\n      jumpi\n      dup1\n      0x0bc605ad\n      eq\n      tag_4\n      jumpi\n      dup1\n      0x2b8a1c5a\n      eq\n      tag_5\n      jumpi\n      dup1\n      0x310ec4a7\n      eq\n      tag_6\n      jumpi\n      jump(tag_2)\n    tag_1:\n      jumpi(tag_2, calldatasize)\n      stop\n    tag_2:\n      0x00\n      dup1\n      revert\n        /* \"contracts/SmartContractWallet.sol\":277:318  mapping(address => bool) public guardians */\n    tag_3:\n      callvalue\n      dup1\n      iszero\n      tag_14\n      jumpi\n      0x00\n      dup1\n      revert\n    tag_14:\n      pop\n      tag_15\n      0x04\n      dup1\n      calldatasize\n      sub\n      dup2\n      add\n      swap1\n      tag_16\n      swap2\n      swap1\n      tag_17\n      jump\t// in\n    tag_16:\n      tag_18\n      jump\t// in\n    tag_15:\n      mload(0x40)\n      tag_19\n      swap2\n      swap1\n      tag_20\n      jump\t// in\n    tag_19:\n      mload(0x40)\n      dup1\n      swap2\n      sub\n      swap1\n      return\n        /* \"contracts/SmartContractWallet.sol\":223:270  mapping(address => bool) public isAllowedToSend */\n    tag_4:\n      callvalue\n      dup1\n      iszero\n      tag_21\n      jumpi\n      0x00\n      dup1\n      revert\n    tag_21:\n      pop\n      tag_22\n      0x04\n      dup1\n      calldatasize\n      sub\n      dup2\n      add\n      swap1\n      tag_23\n      swap2\n      swap1\n      tag_17\n      jump\t// in\n    tag_23:\n      tag_24\n      jump\t// in\n    tag_22:\n      mload(0x40)\n      tag_25\n      swap2\n      swap1\n      tag_20\n      jump\t// in\n    tag_25:\n      mload(0x40)\n      dup1\n      swap2\n      sub\n      swap1\n      return\n        /* \"contracts/SmartContractWallet.sol\":600:793  function setGuardian(address _guardian, bool _isGuardian) public {... */\n    tag_5:\n      callvalue\n      dup1\n      iszero\n      tag_26\n      jumpi\n      0x00\n      dup1\n      revert\n    tag_26:\n      pop\n      tag_27\n      0x04\n      dup1\n      calldatasize\n      sub\n      dup2\n      add\n      swap1\n      tag_28\n      swap2\n      swap1\n      tag_29\n      jump\t// in\n    tag_28:\n      tag_30\n      jump\t// in\n    tag_27:\n      stop\n        /* \"contracts/SmartContractWallet.sol\":1397:1726  function setAllowance(address _for, uint _amount) public {... */\n    tag_6:\n      callvalue\n      dup1\n      iszero\n      tag_31\n      jumpi\n      0x00\n      dup1\n      revert\n    tag_31:\n      pop\n      tag_32\n      0x04\n      dup1\n      calldatasize\n      sub\n      dup2\n      add\n      swap1\n      tag_33\n      swap2\n      swap1\n      tag_34\n      jump\t// in\n    tag_33:\n      tag_35\n      jump\t// in\n    tag_32:\n      stop\n        /* \"contracts/SmartContractWallet.sol\":175:216  mapping(address => uint) public allowance */\n    tag_7:\n      callvalue\n      dup1\n      iszero\n      tag_36\n      jumpi\n      0x00\n      dup1\n      revert\n    tag_36:\n      pop\n      tag_37\n      0x04\n      dup1\n      calldatasize\n      sub\n      dup2\n      add\n      swap1\n      tag_38\n      swap2\n      swap1\n      tag_17\n      jump\t// in\n    tag_38:\n      tag_39\n      jump\t// in\n    tag_37:\n      mload(0x40)\n      tag_40\n      swap2\n      swap1\n      tag_41\n      jump\t// in\n    tag_40:\n      mload(0x40)\n      dup1\n      swap2\n      sub\n      swap1\n      return\n        /* \"contracts/SmartContractWallet.sol\":464:523  uint public constant confirmationsFromGuardiansForReset = 3 */\n    tag_8:\n      callvalue\n      dup1\n      iszero\n      tag_42\n      jumpi\n      0x00\n      dup1\n      revert\n    tag_42:\n      pop\n      tag_43\n      tag_44\n      jump\t// in\n    tag_43:\n      mload(0x40)\n      tag_45\n      swap2\n      swap1\n      tag_41\n      jump\t// in\n    tag_45:\n      mload(0x40)\n      dup1\n      swap2\n      sub\n      swap1\n      return\n        /* \"contracts/SmartContractWallet.sol\":801:1389  function proposeNewOwner(address payable _newOwner) public {... */\n    tag_9:\n      callvalue\n      dup1\n      iszero\n      tag_46\n      jumpi\n      0x00\n      dup1\n      revert\n    tag_46:\n      pop\n      tag_47\n      0x04\n      dup1\n      calldatasize\n      sub\n      dup2\n      add\n      swap1\n      tag_48\n      swap2\n      swap1\n      tag_49\n      jump\t// in\n    tag_48:\n      tag_50\n      jump\t// in\n    tag_47:\n      stop\n        /* \"contracts/SmartContractWallet.sol\":1734:2367  function transfer(address payable _to, uint _amount, bytes memory _payload) public returns(bytes memory) {... */\n    tag_10:\n      callvalue\n      dup1\n      iszero\n      tag_51\n      jumpi\n      0x00\n      dup1\n      revert\n    tag_51:\n      pop\n      tag_52\n      0x04\n      dup1\n      calldatasize\n      sub\n      dup2\n      add\n      swap1\n      tag_53\n      swap2\n      swap1\n      tag_54\n      jump\t// in\n    tag_53:\n      tag_55\n      jump\t// in\n    tag_52:\n      mload(0x40)\n      tag_56\n      swap2\n      swap1\n      tag_57\n      jump\t// in\n    tag_56:\n      mload(0x40)\n      dup1\n      swap2\n      sub\n      swap1\n      return\n        /* \"contracts/SmartContractWallet.sol\":277:318  mapping(address => bool) public guardians */\n    tag_18:\n      mstore(0x20, 0x03)\n      dup1\n      0x00\n      mstore\n      keccak256(0x00, 0x40)\n      0x00\n      swap2\n      pop\n      sload\n      swap1\n      0x0100\n      exp\n      swap1\n      div\n      0xff\n      and\n      dup2\n      jump\t// out\n        /* \"contracts/SmartContractWallet.sol\":223:270  mapping(address => bool) public isAllowedToSend */\n    tag_24:\n      mstore(0x20, 0x02)\n      dup1\n      0x00\n      mstore\n      keccak256(0x00, 0x40)\n      0x00\n      swap2\n      pop\n      sload\n      swap1\n      0x0100\n      exp\n      swap1\n      div\n      0xff\n      and\n      dup2\n      jump\t// out\n        /* \"contracts/SmartContractWallet.sol\":600:793  function setGuardian(address _guardian, bool _isGuardian) public {... */\n    tag_30:\n        /* \"contracts/SmartContractWallet.sol\":698:703  owner */\n      0x00\n      dup1\n      sload\n      swap1\n      0x0100\n      exp\n      swap1\n      div\n      0xffffffffffffffffffffffffffffffffffffffff\n      and\n        /* \"contracts/SmartContractWallet.sol\":684:703  msg.sender == owner */\n      0xffffffffffffffffffffffffffffffffffffffff\n      and\n        /* \"contracts/SmartContractWallet.sol\":684:694  msg.sender */\n      caller\n        /* \"contracts/SmartContractWallet.sol\":684:703  msg.sender == owner */\n      0xffffffffffffffffffffffffffffffffffffffff\n      and\n      eq\n        /* \"contracts/SmartContractWallet.sol\":676:740  require(msg.sender == owner, \"You are not the owner, aborting.\") */\n      tag_59\n      jumpi\n      mload(0x40)\n      0x08c379a000000000000000000000000000000000000000000000000000000000\n      dup2\n      mstore\n      0x04\n      add\n      tag_60\n      swap1\n      tag_61\n      jump\t// in\n    tag_60:\n      mload(0x40)\n      dup1\n      swap2\n      sub\n      swap1\n      revert\n    tag_59:\n        /* \"contracts/SmartContractWallet.sol\":774:785  _isGuardian */\n      dup1\n        /* \"contracts/SmartContractWallet.sol\":751:760  guardians */\n      0x03\n        /* \"contracts/SmartContractWallet.sol\":751:771  guardians[_guardian] */\n      0x00\n        /* \"contracts/SmartContractWallet.sol\":761:770  _guardian */\n      dup5\n        /* \"contracts/SmartContractWallet.sol\":751:771  guardians[_guardian] */\n      0xffffffffffffffffffffffffffffffffffffffff\n      and\n      0xffffffffffffffffffffffffffffffffffffffff\n      and\n      dup2\n      mstore\n      0x20\n      add\n      swap1\n      dup2\n      mstore\n      0x20\n      add\n      0x00\n      keccak256\n      0x00\n        /* \"contracts/SmartContractWallet.sol\":751:785  guardians[_guardian] = _isGuardian */\n      0x0100\n      exp\n      dup2\n      sload\n      dup2\n      0xff\n      mul\n      not\n      and\n      swap1\n      dup4\n      iszero\n      iszero\n      mul\n      or\n      swap1\n      sstore\n      pop\n        /* \"contracts/SmartContractWallet.sol\":600:793  function setGuardian(address _guardian, bool _isGuardian) public {... */\n      pop\n      pop\n      jump\t// out\n        /* \"contracts/SmartContractWallet.sol\":1397:1726  function setAllowance(address _for, uint _amount) public {... */\n    tag_35:\n        /* \"contracts/SmartContractWallet.sol\":1487:1492  owner */\n      0x00\n      dup1\n      sload\n      swap1\n      0x0100\n      exp\n      swap1\n      div\n      0xffffffffffffffffffffffffffffffffffffffff\n      and\n        /* \"contracts/SmartContractWallet.sol\":1473:1492  msg.sender == owner */\n      0xffffffffffffffffffffffffffffffffffffffff\n      and\n        /* \"contracts/SmartContractWallet.sol\":1473:1483  msg.sender */\n      caller\n        /* \"contracts/SmartContractWallet.sol\":1473:1492  msg.sender == owner */\n      0xffffffffffffffffffffffffffffffffffffffff\n      and\n      eq\n        /* \"contracts/SmartContractWallet.sol\":1465:1529  require(msg.sender == owner, \"You are not the owner, aborting.\") */\n      tag_63\n      jumpi\n      mload(0x40)\n      0x08c379a000000000000000000000000000000000000000000000000000000000\n      dup2\n      mstore\n      0x04\n      add\n      tag_64\n      swap1\n      tag_61\n      jump\t// in\n    tag_64:\n      mload(0x40)\n      dup1\n      swap2\n      sub\n      swap1\n      revert\n    tag_63:\n        /* \"contracts/SmartContractWallet.sol\":1564:1571  _amount */\n      dup1\n        /* \"contracts/SmartContractWallet.sol\":1540:1549  allowance */\n      0x01\n        /* \"contracts/SmartContractWallet.sol\":1540:1561  allowance[msg.sender] */\n      0x00\n        /* \"contracts/SmartContractWallet.sol\":1550:1560  msg.sender */\n      caller\n        /* \"contracts/SmartContractWallet.sol\":1540:1561  allowance[msg.sender] */\n      0xffffffffffffffffffffffffffffffffffffffff\n      and\n      0xffffffffffffffffffffffffffffffffffffffff\n      and\n      dup2\n      mstore\n      0x20\n      add\n      swap1\n      dup2\n      mstore\n      0x20\n      add\n      0x00\n      keccak256\n        /* \"contracts/SmartContractWallet.sol\":1540:1571  allowance[msg.sender] = _amount */\n      dup2\n      swap1\n      sstore\n      pop\n        /* \"contracts/SmartContractWallet.sol\":1598:1599  0 */\n      0x00\n        /* \"contracts/SmartContractWallet.sol\":1588:1595  _amount */\n      dup2\n        /* \"contracts/SmartContractWallet.sol\":1588:1599  _amount > 0 */\n      gt\n        /* \"contracts/SmartContractWallet.sol\":1584:1719  if (_amount > 0) {... */\n      iszero\n      tag_65\n      jumpi\n        /* \"contracts/SmartContractWallet.sol\":1641:1645  true */\n      0x01\n        /* \"contracts/SmartContractWallet.sol\":1616:1631  isAllowedToSend */\n      0x02\n        /* \"contracts/SmartContractWallet.sol\":1616:1637  isAllowedToSend[_for] */\n      0x00\n        /* \"contracts/SmartContractWallet.sol\":1632:1636  _for */\n      dup5\n        /* \"contracts/SmartContractWallet.sol\":1616:1637  isAllowedToSend[_for] */\n      0xffffffffffffffffffffffffffffffffffffffff\n      and\n      0xffffffffffffffffffffffffffffffffffffffff\n      and\n      dup2\n      mstore\n      0x20\n      add\n      swap1\n      dup2\n      mstore\n      0x20\n      add\n      0x00\n      keccak256\n      0x00\n        /* \"contracts/SmartContractWallet.sol\":1616:1645  isAllowedToSend[_for]  = true */\n      0x0100\n      exp\n      dup2\n      sload\n      dup2\n      0xff\n      mul\n      not\n      and\n      swap1\n      dup4\n      iszero\n      iszero\n      mul\n      or\n      swap1\n      sstore\n      pop\n        /* \"contracts/SmartContractWallet.sol\":1584:1719  if (_amount > 0) {... */\n      jump(tag_66)\n    tag_65:\n        /* \"contracts/SmartContractWallet.sol\":1702:1707  false */\n      0x00\n        /* \"contracts/SmartContractWallet.sol\":1678:1693  isAllowedToSend */\n      0x02\n        /* \"contracts/SmartContractWallet.sol\":1678:1699  isAllowedToSend[_for] */\n      0x00\n        /* \"contracts/SmartContractWallet.sol\":1694:1698  _for */\n      dup5\n        /* \"contracts/SmartContractWallet.sol\":1678:1699  isAllowedToSend[_for] */\n      0xffffffffffffffffffffffffffffffffffffffff\n      and\n      0xffffffffffffffffffffffffffffffffffffffff\n      and\n      dup2\n      mstore\n      0x20\n      add\n      swap1\n      dup2\n      mstore\n      0x20\n      add\n      0x00\n      keccak256\n      0x00\n        /* \"contracts/SmartContractWallet.sol\":1678:1707  isAllowedToSend[_for] = false */\n      0x0100\n      exp\n      dup2\n      sload\n      dup2\n      0xff\n      mul\n      not\n      and\n      swap1\n      dup4\n      iszero\n      iszero\n      mul\n      or\n      swap1\n      sstore\n      pop\n        /* \"contracts/SmartContractWallet.sol\":1584:1719  if (_amount > 0) {... */\n    tag_66:\n        /* \"contracts/SmartContractWallet.sol\":1397:1726  function setAllowance(address _for, uint _amount) public {... */\n      pop\n      pop\n      jump\t// out\n        /* \"contracts/SmartContractWallet.sol\":175:216  mapping(address => uint) public allowance */\n    tag_39:\n      mstore(0x20, 0x01)\n      dup1\n      0x00\n      mstore\n      keccak256(0x00, 0x40)\n      0x00\n      swap2\n      pop\n      swap1\n      pop\n      sload\n      dup2\n      jump\t// out\n        /* \"contracts/SmartContractWallet.sol\":464:523  uint public constant confirmationsFromGuardiansForReset = 3 */\n    tag_44:\n        /* \"contracts/SmartContractWallet.sol\":522:523  3 */\n      0x03\n        /* \"contracts/SmartContractWallet.sol\":464:523  uint public constant confirmationsFromGuardiansForReset = 3 */\n      dup2\n      jump\t// out\n        /* \"contracts/SmartContractWallet.sol\":801:1389  function proposeNewOwner(address payable _newOwner) public {... */\n    tag_50:\n        /* \"contracts/SmartContractWallet.sol\":879:888  guardians */\n      0x03\n        /* \"contracts/SmartContractWallet.sol\":879:900  guardians[msg.sender] */\n      0x00\n        /* \"contracts/SmartContractWallet.sol\":889:899  msg.sender */\n      caller\n        /* \"contracts/SmartContractWallet.sol\":879:900  guardians[msg.sender] */\n      0xffffffffffffffffffffffffffffffffffffffff\n      and\n      0xffffffffffffffffffffffffffffffffffffffff\n      and\n      dup2\n      mstore\n      0x20\n      add\n      swap1\n      dup2\n      mstore\n      0x20\n      add\n      0x00\n      keccak256\n      0x00\n      swap1\n      sload\n      swap1\n      0x0100\n      exp\n      swap1\n      div\n      0xff\n      and\n        /* \"contracts/SmartContractWallet.sol\":871:948  require(guardians[msg.sender], \"Invalid guardian for this waller, aborting.\") */\n      tag_68\n      jumpi\n      mload(0x40)\n      0x08c379a000000000000000000000000000000000000000000000000000000000\n      dup2\n      mstore\n      0x04\n      add\n      tag_69\n      swap1\n      tag_70\n      jump\t// in\n    tag_69:\n      mload(0x40)\n      dup1\n      swap2\n      sub\n      swap1\n      revert\n    tag_68:\n        /* \"contracts/SmartContractWallet.sol\":1016:1021  false */\n      0x00\n        /* \"contracts/SmartContractWallet.sol\":967:1021  nextOwnerGuardianVoted[_newOwner][msg.sender] == false */\n      iszero\n      iszero\n        /* \"contracts/SmartContractWallet.sol\":967:989  nextOwnerGuardianVoted */\n      0x04\n        /* \"contracts/SmartContractWallet.sol\":967:1000  nextOwnerGuardianVoted[_newOwner] */\n      0x00\n        /* \"contracts/SmartContractWallet.sol\":990:999  _newOwner */\n      dup4\n        /* \"contracts/SmartContractWallet.sol\":967:1000  nextOwnerGuardianVoted[_newOwner] */\n      0xffffffffffffffffffffffffffffffffffffffff\n      and\n      0xffffffffffffffffffffffffffffffffffffffff\n      and\n      dup2\n      mstore\n      0x20\n      add\n      swap1\n      dup2\n      mstore\n      0x20\n      add\n      0x00\n      keccak256\n        /* \"contracts/SmartContractWallet.sol\":967:1012  nextOwnerGuardianVoted[_newOwner][msg.sender] */\n      0x00\n        /* \"contracts/SmartContractWallet.sol\":1001:1011  msg.sender */\n      caller\n        /* \"contracts/SmartContractWallet.sol\":967:1012  nextOwnerGuardianVoted[_newOwner][msg.sender] */\n      0xffffffffffffffffffffffffffffffffffffffff\n      and\n      0xffffffffffffffffffffffffffffffffffffffff\n      and\n      dup2\n      mstore\n      0x20\n      add\n      swap1\n      dup2\n      mstore\n      0x20\n      add\n      0x00\n      keccak256\n      0x00\n      swap1\n      sload\n      swap1\n      0x0100\n      exp\n      swap1\n      div\n      0xff\n      and\n        /* \"contracts/SmartContractWallet.sol\":967:1021  nextOwnerGuardianVoted[_newOwner][msg.sender] == false */\n      iszero\n      iszero\n      eq\n        /* \"contracts/SmartContractWallet.sol\":959:1049  require(nextOwnerGuardianVoted[_newOwner][msg.sender] == false, \"You have already voted.\") */\n      tag_71\n      jumpi\n      mload(0x40)\n      0x08c379a000000000000000000000000000000000000000000000000000000000\n      dup2\n      mstore\n      0x04\n      add\n      tag_72\n      swap1\n      tag_73\n      jump\t// in\n    tag_72:\n      mload(0x40)\n      dup1\n      swap2\n      sub\n      swap1\n      revert\n    tag_71:\n        /* \"contracts/SmartContractWallet.sol\":1087:1096  nextOwner */\n      0x05\n      0x00\n      swap1\n      sload\n      swap1\n      0x0100\n      exp\n      swap1\n      div\n      0xffffffffffffffffffffffffffffffffffffffff\n      and\n        /* \"contracts/SmartContractWallet.sol\":1074:1096  _newOwner != nextOwner */\n      0xffffffffffffffffffffffffffffffffffffffff\n      and\n        /* \"contracts/SmartContractWallet.sol\":1074:1083  _newOwner */\n      dup2\n        /* \"contracts/SmartContractWallet.sol\":1074:1096  _newOwner != nextOwner */\n      0xffffffffffffffffffffffffffffffffffffffff\n      and\n      eq\n        /* \"contracts/SmartContractWallet.sol\":1070:1184  if (_newOwner != nextOwner) {... */\n      tag_74\n      jumpi\n        /* \"contracts/SmartContractWallet.sol\":1125:1134  _newOwner */\n      dup1\n        /* \"contracts/SmartContractWallet.sol\":1113:1122  nextOwner */\n      0x05\n      0x00\n        /* \"contracts/SmartContractWallet.sol\":1113:1134  nextOwner = _newOwner */\n      0x0100\n      exp\n      dup2\n      sload\n      dup2\n      0xffffffffffffffffffffffffffffffffffffffff\n      mul\n      not\n      and\n      swap1\n      dup4\n      0xffffffffffffffffffffffffffffffffffffffff\n      and\n      mul\n      or\n      swap1\n      sstore\n      pop\n        /* \"contracts/SmartContractWallet.sol\":1171:1172  0 */\n      0x00\n        /* \"contracts/SmartContractWallet.sol\":1149:1168  guardiansResetCount */\n      0x06\n        /* \"contracts/SmartContractWallet.sol\":1149:1172  guardiansResetCount = 0 */\n      dup2\n      swap1\n      sstore\n      pop\n        /* \"contracts/SmartContractWallet.sol\":1070:1184  if (_newOwner != nextOwner) {... */\n    tag_74:\n        /* \"contracts/SmartContractWallet.sol\":1196:1215  guardiansResetCount */\n      0x06\n      0x00\n        /* \"contracts/SmartContractWallet.sol\":1196:1217  guardiansResetCount++ */\n      dup2\n      sload\n      dup1\n      swap3\n      swap2\n      swap1\n      tag_75\n      swap1\n      tag_76\n      jump\t// in\n    tag_75:\n      swap2\n      swap1\n      pop\n      sstore\n      pop\n        /* \"contracts/SmartContractWallet.sol\":522:523  3 */\n      0x03\n        /* \"contracts/SmartContractWallet.sol\":1233:1252  guardiansResetCount */\n      sload(0x06)\n        /* \"contracts/SmartContractWallet.sol\":1233:1290  guardiansResetCount >= confirmationsFromGuardiansForReset */\n      lt\n        /* \"contracts/SmartContractWallet.sol\":1230:1382  if(guardiansResetCount >= confirmationsFromGuardiansForReset) {... */\n      tag_77\n      jumpi\n        /* \"contracts/SmartContractWallet.sol\":1315:1324  nextOwner */\n      0x05\n      0x00\n      swap1\n      sload\n      swap1\n      0x0100\n      exp\n      swap1\n      div\n      0xffffffffffffffffffffffffffffffffffffffff\n      and\n        /* \"contracts/SmartContractWallet.sol\":1307:1312  owner */\n      0x00\n      dup1\n        /* \"contracts/SmartContractWallet.sol\":1307:1324  owner = nextOwner */\n      0x0100\n      exp\n      dup2\n      sload\n      dup2\n      0xffffffffffffffffffffffffffffffffffffffff\n      mul\n      not\n      and\n      swap1\n      dup4\n      0xffffffffffffffffffffffffffffffffffffffff\n      and\n      mul\n      or\n      swap1\n      sstore\n      pop\n        /* \"contracts/SmartContractWallet.sol\":1367:1368  0 */\n      0x00\n        /* \"contracts/SmartContractWallet.sol\":1339:1348  nextOwner */\n      0x05\n      0x00\n        /* \"contracts/SmartContractWallet.sol\":1339:1370  nextOwner = payable(address(0)) */\n      0x0100\n      exp\n      dup2\n      sload\n      dup2\n      0xffffffffffffffffffffffffffffffffffffffff\n      mul\n      not\n      and\n      swap1\n      dup4\n      0xffffffffffffffffffffffffffffffffffffffff\n      and\n      mul\n      or\n      swap1\n      sstore\n      pop\n        /* \"contracts/SmartContractWallet.sol\":1230:1382  if(guardiansResetCount >= confirmationsFromGuardiansForReset) {... */\n    tag_77:\n        /* \"contracts/SmartContractWallet.sol\":801:1389  function proposeNewOwner(address payable _newOwner) public {... */\n      pop\n      jump\t// out\n        /* \"contracts/SmartContractWallet.sol\":1734:2367  function transfer(address payable _to, uint _amount, bytes memory _payload) public returns(bytes memory) {... */\n    tag_55:\n        /* \"contracts/SmartContractWallet.sol\":1825:1837  bytes memory */\n      0x60\n        /* \"contracts/SmartContractWallet.sol\":1868:1873  owner */\n      0x00\n      dup1\n      sload\n      swap1\n      0x0100\n      exp\n      swap1\n      div\n      0xffffffffffffffffffffffffffffffffffffffff\n      and\n        /* \"contracts/SmartContractWallet.sol\":1854:1873  msg.sender != owner */\n      0xffffffffffffffffffffffffffffffffffffffff\n      and\n        /* \"contracts/SmartContractWallet.sol\":1854:1864  msg.sender */\n      caller\n        /* \"contracts/SmartContractWallet.sol\":1854:1873  msg.sender != owner */\n      0xffffffffffffffffffffffffffffffffffffffff\n      and\n      eq\n        /* \"contracts/SmartContractWallet.sol\":1850:2178  if (msg.sender != owner) {... */\n      tag_79\n      jumpi\n        /* \"contracts/SmartContractWallet.sol\":1898:1913  isAllowedToSend */\n      0x02\n        /* \"contracts/SmartContractWallet.sol\":1898:1925  isAllowedToSend[msg.sender] */\n      0x00\n        /* \"contracts/SmartContractWallet.sol\":1914:1924  msg.sender */\n      caller\n        /* \"contracts/SmartContractWallet.sol\":1898:1925  isAllowedToSend[msg.sender] */\n      0xffffffffffffffffffffffffffffffffffffffff\n      and\n      0xffffffffffffffffffffffffffffffffffffffff\n      and\n      dup2\n      mstore\n      0x20\n      add\n      swap1\n      dup2\n      mstore\n      0x20\n      add\n      0x00\n      keccak256\n      0x00\n      swap1\n      sload\n      swap1\n      0x0100\n      exp\n      swap1\n      div\n      0xff\n      and\n        /* \"contracts/SmartContractWallet.sol\":1890:1995  require(isAllowedToSend[msg.sender], \"You are not permitted to process transactions from this contract.\") */\n      tag_80\n      jumpi\n      mload(0x40)\n      0x08c379a000000000000000000000000000000000000000000000000000000000\n      dup2\n      mstore\n      0x04\n      add\n      tag_81\n      swap1\n      tag_82\n      jump\t// in\n    tag_81:\n      mload(0x40)\n      dup1\n      swap2\n      sub\n      swap1\n      revert\n    tag_80:\n        /* \"contracts/SmartContractWallet.sol\":2043:2050  _amount */\n      dup3\n        /* \"contracts/SmartContractWallet.sol\":2018:2027  allowance */\n      0x01\n        /* \"contracts/SmartContractWallet.sol\":2018:2039  allowance[msg.sender] */\n      0x00\n        /* \"contracts/SmartContractWallet.sol\":2028:2038  msg.sender */\n      caller\n        /* \"contracts/SmartContractWallet.sol\":2018:2039  allowance[msg.sender] */\n      0xffffffffffffffffffffffffffffffffffffffff\n      and\n      0xffffffffffffffffffffffffffffffffffffffff\n      and\n      dup2\n      mstore\n      0x20\n      add\n      swap1\n      dup2\n      mstore\n      0x20\n      add\n      0x00\n      keccak256\n      sload\n        /* \"contracts/SmartContractWallet.sol\":2018:2050  allowance[msg.sender] >= _amount */\n      lt\n      iszero\n        /* \"contracts/SmartContractWallet.sol\":2010:2117  require(allowance[msg.sender] >= _amount, \"You are tyring to send more than you are allowed to, aborting.\") */\n      tag_83\n      jumpi\n      mload(0x40)\n      0x08c379a000000000000000000000000000000000000000000000000000000000\n      dup2\n      mstore\n      0x04\n      add\n      tag_84\n      swap1\n      tag_85\n      jump\t// in\n    tag_84:\n      mload(0x40)\n      dup1\n      swap2\n      sub\n      swap1\n      revert\n    tag_83:\n        /* \"contracts/SmartContractWallet.sol\":2159:2166  _amount */\n      dup3\n        /* \"contracts/SmartContractWallet.sol\":2134:2143  allowance */\n      0x01\n        /* \"contracts/SmartContractWallet.sol\":2134:2155  allowance[msg.sender] */\n      0x00\n        /* \"contracts/SmartContractWallet.sol\":2144:2154  msg.sender */\n      caller\n        /* \"contracts/SmartContractWallet.sol\":2134:2155  allowance[msg.sender] */\n      0xffffffffffffffffffffffffffffffffffffffff\n      and\n      0xffffffffffffffffffffffffffffffffffffffff\n      and\n      dup2\n      mstore\n      0x20\n      add\n      swap1\n      dup2\n      mstore\n      0x20\n      add\n      0x00\n      keccak256\n      0x00\n        /* \"contracts/SmartContractWallet.sol\":2134:2166  allowance[msg.sender] -= _amount */\n      dup3\n      dup3\n      sload\n      tag_86\n      swap2\n      swap1\n      tag_87\n      jump\t// in\n    tag_86:\n      swap3\n      pop\n      pop\n      dup2\n      swap1\n      sstore\n      pop\n        /* \"contracts/SmartContractWallet.sol\":1850:2178  if (msg.sender != owner) {... */\n    tag_79:\n        /* \"contracts/SmartContractWallet.sol\":2190:2202  bool success */\n      0x00\n        /* \"contracts/SmartContractWallet.sol\":2204:2227  bytes memory returnData */\n      dup1\n        /* \"contracts/SmartContractWallet.sol\":2231:2234  _to */\n      dup6\n        /* \"contracts/SmartContractWallet.sol\":2231:2239  _to.call */\n      0xffffffffffffffffffffffffffffffffffffffff\n      and\n        /* \"contracts/SmartContractWallet.sol\":2247:2254  _amount */\n      dup6\n        /* \"contracts/SmartContractWallet.sol\":2256:2264  _payload */\n      dup6\n        /* \"contracts/SmartContractWallet.sol\":2231:2265  _to.call{value: _amount}(_payload) */\n      mload(0x40)\n      tag_88\n      swap2\n      swap1\n      tag_89\n      jump\t// in\n    tag_88:\n      0x00\n      mload(0x40)\n      dup1\n      dup4\n      sub\n      dup2\n      dup6\n      dup8\n      gas\n      call\n      swap3\n      pop\n      pop\n      pop\n      returndatasize\n      dup1\n      0x00\n      dup2\n      eq\n      tag_92\n      jumpi\n      mload(0x40)\n      swap2\n      pop\n      and(add(returndatasize, 0x3f), not(0x1f))\n      dup3\n      add\n      0x40\n      mstore\n      returndatasize\n      dup3\n      mstore\n      returndatasize\n      0x00\n      0x20\n      dup5\n      add\n      returndatacopy\n      jump(tag_91)\n    tag_92:\n      0x60\n      swap2\n      pop\n    tag_91:\n      pop\n        /* \"contracts/SmartContractWallet.sol\":2189:2265  (bool success, bytes memory returnData) = _to.call{value: _amount}(_payload) */\n      swap2\n      pop\n      swap2\n      pop\n        /* \"contracts/SmartContractWallet.sol\":2285:2292  success */\n      dup2\n        /* \"contracts/SmartContractWallet.sol\":2277:2330  require(success, \"Aborting call was not successful.\") */\n      tag_93\n      jumpi\n      mload(0x40)\n      0x08c379a000000000000000000000000000000000000000000000000000000000\n      dup2\n      mstore\n      0x04\n      add\n      tag_94\n      swap1\n      tag_95\n      jump\t// in\n    tag_94:\n      mload(0x40)\n      dup1\n      swap2\n      sub\n      swap1\n      revert\n    tag_93:\n        /* \"contracts/SmartContractWallet.sol\":2349:2359  returnData */\n      dup1\n        /* \"contracts/SmartContractWallet.sol\":2342:2359  return returnData */\n      swap3\n      pop\n      pop\n      pop\n        /* \"contracts/SmartContractWallet.sol\":1734:2367  function transfer(address payable _to, uint _amount, bytes memory _payload) public returns(bytes memory) {... */\n      swap4\n      swap3\n      pop\n      pop\n      pop\n      jump\t// out\n        /* \"#utility.yul\":7:82   */\n    tag_96:\n        /* \"#utility.yul\":40:46   */\n      0x00\n        /* \"#utility.yul\":73:75   */\n      0x40\n        /* \"#utility.yul\":67:76   */\n      mload\n        /* \"#utility.yul\":57:76   */\n      swap1\n      pop\n        /* \"#utility.yul\":7:82   */\n      swap1\n      jump\t// out\n        /* \"#utility.yul\":88:205   */\n    tag_97:\n        /* \"#utility.yul\":197:198   */\n      0x00\n        /* \"#utility.yul\":194:195   */\n      dup1\n        /* \"#utility.yul\":187:199   */\n      revert\n        /* \"#utility.yul\":211:328   */\n    tag_98:\n        /* \"#utility.yul\":320:321   */\n      0x00\n        /* \"#utility.yul\":317:318   */\n      dup1\n        /* \"#utility.yul\":310:322   */\n      revert\n        /* \"#utility.yul\":334:460   */\n    tag_99:\n        /* \"#utility.yul\":371:378   */\n      0x00\n        /* \"#utility.yul\":411:453   */\n      0xffffffffffffffffffffffffffffffffffffffff\n        /* \"#utility.yul\":404:409   */\n      dup3\n        /* \"#utility.yul\":400:454   */\n      and\n        /* \"#utility.yul\":389:454   */\n      swap1\n      pop\n        /* \"#utility.yul\":334:460   */\n      swap2\n      swap1\n      pop\n      jump\t// out\n        /* \"#utility.yul\":466:562   */\n    tag_100:\n        /* \"#utility.yul\":503:510   */\n      0x00\n        /* \"#utility.yul\":532:556   */\n      tag_150\n        /* \"#utility.yul\":550:555   */\n      dup3\n        /* \"#utility.yul\":532:556   */\n      tag_99\n      jump\t// in\n    tag_150:\n        /* \"#utility.yul\":521:556   */\n      swap1\n      pop\n        /* \"#utility.yul\":466:562   */\n      swap2\n      swap1\n      pop\n      jump\t// out\n        /* \"#utility.yul\":568:690   */\n    tag_101:\n        /* \"#utility.yul\":641:665   */\n      tag_152\n        /* \"#utility.yul\":659:664   */\n      dup2\n        /* \"#utility.yul\":641:665   */\n      tag_100\n      jump\t// in\n    tag_152:\n        /* \"#utility.yul\":634:639   */\n      dup2\n        /* \"#utility.yul\":631:666   */\n      eq\n        /* \"#utility.yul\":621:684   */\n      tag_153\n      jumpi\n        /* \"#utility.yul\":680:681   */\n      0x00\n        /* \"#utility.yul\":677:678   */\n      dup1\n        /* \"#utility.yul\":670:682   */\n      revert\n        /* \"#utility.yul\":621:684   */\n    tag_153:\n        /* \"#utility.yul\":568:690   */\n      pop\n      jump\t// out\n        /* \"#utility.yul\":696:835   */\n    tag_102:\n        /* \"#utility.yul\":742:747   */\n      0x00\n        /* \"#utility.yul\":780:786   */\n      dup2\n        /* \"#utility.yul\":767:787   */\n      calldataload\n        /* \"#utility.yul\":758:787   */\n      swap1\n      pop\n        /* \"#utility.yul\":796:829   */\n      tag_155\n        /* \"#utility.yul\":823:828   */\n      dup2\n        /* \"#utility.yul\":796:829   */\n      tag_101\n      jump\t// in\n    tag_155:\n        /* \"#utility.yul\":696:835   */\n      swap3\n      swap2\n      pop\n      pop\n      jump\t// out\n        /* \"#utility.yul\":841:1170   */\n    tag_17:\n        /* \"#utility.yul\":900:906   */\n      0x00\n        /* \"#utility.yul\":949:951   */\n      0x20\n        /* \"#utility.yul\":937:946   */\n      dup3\n        /* \"#utility.yul\":928:935   */\n      dup5\n        /* \"#utility.yul\":924:947   */\n      sub\n        /* \"#utility.yul\":920:952   */\n      slt\n        /* \"#utility.yul\":917:1036   */\n      iszero\n      tag_157\n      jumpi\n        /* \"#utility.yul\":955:1034   */\n      tag_158\n      tag_97\n      jump\t// in\n    tag_158:\n        /* \"#utility.yul\":917:1036   */\n    tag_157:\n        /* \"#utility.yul\":1075:1076   */\n      0x00\n        /* \"#utility.yul\":1100:1153   */\n      tag_159\n        /* \"#utility.yul\":1145:1152   */\n      dup5\n        /* \"#utility.yul\":1136:1142   */\n      dup3\n        /* \"#utility.yul\":1125:1134   */\n      dup6\n        /* \"#utility.yul\":1121:1143   */\n      add\n        /* \"#utility.yul\":1100:1153   */\n      tag_102\n      jump\t// in\n    tag_159:\n        /* \"#utility.yul\":1090:1153   */\n      swap2\n      pop\n        /* \"#utility.yul\":1046:1163   */\n      pop\n        /* \"#utility.yul\":841:1170   */\n      swap3\n      swap2\n      pop\n      pop\n      jump\t// out\n        /* \"#utility.yul\":1176:1266   */\n    tag_103:\n        /* \"#utility.yul\":1210:1217   */\n      0x00\n        /* \"#utility.yul\":1253:1258   */\n      dup2\n        /* \"#utility.yul\":1246:1259   */\n      iszero\n        /* \"#utility.yul\":1239:1260   */\n      iszero\n        /* \"#utility.yul\":1228:1260   */\n      swap1\n      pop\n        /* \"#utility.yul\":1176:1266   */\n      swap2\n      swap1\n      pop\n      jump\t// out\n        /* \"#utility.yul\":1272:1381   */\n    tag_104:\n        /* \"#utility.yul\":1353:1374   */\n      tag_162\n        /* \"#utility.yul\":1368:1373   */\n      dup2\n        /* \"#utility.yul\":1353:1374   */\n      tag_103\n      jump\t// in\n    tag_162:\n        /* \"#utility.yul\":1348:1351   */\n      dup3\n        /* \"#utility.yul\":1341:1375   */\n      mstore\n        /* \"#utility.yul\":1272:1381   */\n      pop\n      pop\n      jump\t// out\n        /* \"#utility.yul\":1387:1597   */\n    tag_20:\n        /* \"#utility.yul\":1474:1478   */\n      0x00\n        /* \"#utility.yul\":1512:1514   */\n      0x20\n        /* \"#utility.yul\":1501:1510   */\n      dup3\n        /* \"#utility.yul\":1497:1515   */\n      add\n        /* \"#utility.yul\":1489:1515   */\n      swap1\n      pop\n        /* \"#utility.yul\":1525:1590   */\n      tag_164\n        /* \"#utility.yul\":1587:1588   */\n      0x00\n        /* \"#utility.yul\":1576:1585   */\n      dup4\n        /* \"#utility.yul\":1572:1589   */\n      add\n        /* \"#utility.yul\":1563:1569   */\n      dup5\n        /* \"#utility.yul\":1525:1590   */\n      tag_104\n      jump\t// in\n    tag_164:\n        /* \"#utility.yul\":1387:1597   */\n      swap3\n      swap2\n      pop\n      pop\n      jump\t// out\n        /* \"#utility.yul\":1603:1719   */\n    tag_105:\n        /* \"#utility.yul\":1673:1694   */\n      tag_166\n        /* \"#utility.yul\":1688:1693   */\n      dup2\n        /* \"#utility.yul\":1673:1694   */\n      tag_103\n      jump\t// in\n    tag_166:\n        /* \"#utility.yul\":1666:1671   */\n      dup2\n        /* \"#utility.yul\":1663:1695   */\n      eq\n        /* \"#utility.yul\":1653:1713   */\n      tag_167\n      jumpi\n        /* \"#utility.yul\":1709:1710   */\n      0x00\n        /* \"#utility.yul\":1706:1707   */\n      dup1\n        /* \"#utility.yul\":1699:1711   */\n      revert\n        /* \"#utility.yul\":1653:1713   */\n    tag_167:\n        /* \"#utility.yul\":1603:1719   */\n      pop\n      jump\t// out\n        /* \"#utility.yul\":1725:1858   */\n    tag_106:\n        /* \"#utility.yul\":1768:1773   */\n      0x00\n        /* \"#utility.yul\":1806:1812   */\n      dup2\n        /* \"#utility.yul\":1793:1813   */\n      calldataload\n        /* \"#utility.yul\":1784:1813   */\n      swap1\n      pop\n        /* \"#utility.yul\":1822:1852   */\n      tag_169\n        /* \"#utility.yul\":1846:1851   */\n      dup2\n        /* \"#utility.yul\":1822:1852   */\n      tag_105\n      jump\t// in\n    tag_169:\n        /* \"#utility.yul\":1725:1858   */\n      swap3\n      swap2\n      pop\n      pop\n      jump\t// out\n        /* \"#utility.yul\":1864:2332   */\n    tag_29:\n        /* \"#utility.yul\":1929:1935   */\n      0x00\n        /* \"#utility.yul\":1937:1943   */\n      dup1\n        /* \"#utility.yul\":1986:1988   */\n      0x40\n        /* \"#utility.yul\":1974:1983   */\n      dup4\n        /* \"#utility.yul\":1965:1972   */\n      dup6\n        /* \"#utility.yul\":1961:1984   */\n      sub\n        /* \"#utility.yul\":1957:1989   */\n      slt\n        /* \"#utility.yul\":1954:2073   */\n      iszero\n      tag_171\n      jumpi\n        /* \"#utility.yul\":1992:2071   */\n      tag_172\n      tag_97\n      jump\t// in\n    tag_172:\n        /* \"#utility.yul\":1954:2073   */\n    tag_171:\n        /* \"#utility.yul\":2112:2113   */\n      0x00\n        /* \"#utility.yul\":2137:2190   */\n      tag_173\n        /* \"#utility.yul\":2182:2189   */\n      dup6\n        /* \"#utility.yul\":2173:2179   */\n      dup3\n        /* \"#utility.yul\":2162:2171   */\n      dup7\n        /* \"#utility.yul\":2158:2180   */\n      add\n        /* \"#utility.yul\":2137:2190   */\n      tag_102\n      jump\t// in\n    tag_173:\n        /* \"#utility.yul\":2127:2190   */\n      swap3\n      pop\n        /* \"#utility.yul\":2083:2200   */\n      pop\n        /* \"#utility.yul\":2239:2241   */\n      0x20\n        /* \"#utility.yul\":2265:2315   */\n      tag_174\n        /* \"#utility.yul\":2307:2314   */\n      dup6\n        /* \"#utility.yul\":2298:2304   */\n      dup3\n        /* \"#utility.yul\":2287:2296   */\n      dup7\n        /* \"#utility.yul\":2283:2305   */\n      add\n        /* \"#utility.yul\":2265:2315   */\n      tag_106\n      jump\t// in\n    tag_174:\n        /* \"#utility.yul\":2255:2315   */\n      swap2\n      pop\n        /* \"#utility.yul\":2210:2325   */\n      pop\n        /* \"#utility.yul\":1864:2332   */\n      swap3\n      pop\n      swap3\n      swap1\n      pop\n      jump\t// out\n        /* \"#utility.yul\":2338:2415   */\n    tag_107:\n        /* \"#utility.yul\":2375:2382   */\n      0x00\n        /* \"#utility.yul\":2404:2409   */\n      dup2\n        /* \"#utility.yul\":2393:2409   */\n      swap1\n      pop\n        /* \"#utility.yul\":2338:2415   */\n      swap2\n      swap1\n      pop\n      jump\t// out\n        /* \"#utility.yul\":2421:2543   */\n    tag_108:\n        /* \"#utility.yul\":2494:2518   */\n      tag_177\n        /* \"#utility.yul\":2512:2517   */\n      dup2\n        /* \"#utility.yul\":2494:2518   */\n      tag_107\n      jump\t// in\n    tag_177:\n        /* \"#utility.yul\":2487:2492   */\n      dup2\n        /* \"#utility.yul\":2484:2519   */\n      eq\n        /* \"#utility.yul\":2474:2537   */\n      tag_178\n      jumpi\n        /* \"#utility.yul\":2533:2534   */\n      0x00\n        /* \"#utility.yul\":2530:2531   */\n      dup1\n        /* \"#utility.yul\":2523:2535   */\n      revert\n        /* \"#utility.yul\":2474:2537   */\n    tag_178:\n        /* \"#utility.yul\":2421:2543   */\n      pop\n      jump\t// out\n        /* \"#utility.yul\":2549:2688   */\n    tag_109:\n        /* \"#utility.yul\":2595:2600   */\n      0x00\n        /* \"#utility.yul\":2633:2639   */\n      dup2\n        /* \"#utility.yul\":2620:2640   */\n      calldataload\n        /* \"#utility.yul\":2611:2640   */\n      swap1\n      pop\n        /* \"#utility.yul\":2649:2682   */\n      tag_180\n        /* \"#utility.yul\":2676:2681   */\n      dup2\n        /* \"#utility.yul\":2649:2682   */\n      tag_108\n      jump\t// in\n    tag_180:\n        /* \"#utility.yul\":2549:2688   */\n      swap3\n      swap2\n      pop\n      pop\n      jump\t// out\n        /* \"#utility.yul\":2694:3168   */\n    tag_34:\n        /* \"#utility.yul\":2762:2768   */\n      0x00\n        /* \"#utility.yul\":2770:2776   */\n      dup1\n        /* \"#utility.yul\":2819:2821   */\n      0x40\n        /* \"#utility.yul\":2807:2816   */\n      dup4\n        /* \"#utility.yul\":2798:2805   */\n      dup6\n        /* \"#utility.yul\":2794:2817   */\n      sub\n        /* \"#utility.yul\":2790:2822   */\n      slt\n        /* \"#utility.yul\":2787:2906   */\n      iszero\n      tag_182\n      jumpi\n        /* \"#utility.yul\":2825:2904   */\n      tag_183\n      tag_97\n      jump\t// in\n    tag_183:\n        /* \"#utility.yul\":2787:2906   */\n    tag_182:\n        /* \"#utility.yul\":2945:2946   */\n      0x00\n        /* \"#utility.yul\":2970:3023   */\n      tag_184\n        /* \"#utility.yul\":3015:3022   */\n      dup6\n        /* \"#utility.yul\":3006:3012   */\n      dup3\n        /* \"#utility.yul\":2995:3004   */\n      dup7\n        /* \"#utility.yul\":2991:3013   */\n      add\n        /* \"#utility.yul\":2970:3023   */\n      tag_102\n      jump\t// in\n    tag_184:\n        /* \"#utility.yul\":2960:3023   */\n      swap3\n      pop\n        /* \"#utility.yul\":2916:3033   */\n      pop\n        /* \"#utility.yul\":3072:3074   */\n      0x20\n        /* \"#utility.yul\":3098:3151   */\n      tag_185\n        /* \"#utility.yul\":3143:3150   */\n      dup6\n        /* \"#utility.yul\":3134:3140   */\n      dup3\n        /* \"#utility.yul\":3123:3132   */\n      dup7\n        /* \"#utility.yul\":3119:3141   */\n      add\n        /* \"#utility.yul\":3098:3151   */\n      tag_109\n      jump\t// in\n    tag_185:\n        /* \"#utility.yul\":3088:3151   */\n      swap2\n      pop\n        /* \"#utility.yul\":3043:3161   */\n      pop\n        /* \"#utility.yul\":2694:3168   */\n      swap3\n      pop\n      swap3\n      swap1\n      pop\n      jump\t// out\n        /* \"#utility.yul\":3174:3292   */\n    tag_110:\n        /* \"#utility.yul\":3261:3285   */\n      tag_187\n        /* \"#utility.yul\":3279:3284   */\n      dup2\n        /* \"#utility.yul\":3261:3285   */\n      tag_107\n      jump\t// in\n    tag_187:\n        /* \"#utility.yul\":3256:3259   */\n      dup3\n        /* \"#utility.yul\":3249:3286   */\n      mstore\n        /* \"#utility.yul\":3174:3292   */\n      pop\n      pop\n      jump\t// out\n        /* \"#utility.yul\":3298:3520   */\n    tag_41:\n        /* \"#utility.yul\":3391:3395   */\n      0x00\n        /* \"#utility.yul\":3429:3431   */\n      0x20\n        /* \"#utility.yul\":3418:3427   */\n      dup3\n        /* \"#utility.yul\":3414:3432   */\n      add\n        /* \"#utility.yul\":3406:3432   */\n      swap1\n      pop\n        /* \"#utility.yul\":3442:3513   */\n      tag_189\n        /* \"#utility.yul\":3510:3511   */\n      0x00\n        /* \"#utility.yul\":3499:3508   */\n      dup4\n        /* \"#utility.yul\":3495:3512   */\n      add\n        /* \"#utility.yul\":3486:3492   */\n      dup5\n        /* \"#utility.yul\":3442:3513   */\n      tag_110\n      jump\t// in\n    tag_189:\n        /* \"#utility.yul\":3298:3520   */\n      swap3\n      swap2\n      pop\n      pop\n      jump\t// out\n        /* \"#utility.yul\":3526:3630   */\n    tag_111:\n        /* \"#utility.yul\":3571:3578   */\n      0x00\n        /* \"#utility.yul\":3600:3624   */\n      tag_191\n        /* \"#utility.yul\":3618:3623   */\n      dup3\n        /* \"#utility.yul\":3600:3624   */\n      tag_99\n      jump\t// in\n    tag_191:\n        /* \"#utility.yul\":3589:3624   */\n      swap1\n      pop\n        /* \"#utility.yul\":3526:3630   */\n      swap2\n      swap1\n      pop\n      jump\t// out\n        /* \"#utility.yul\":3636:3774   */\n    tag_112:\n        /* \"#utility.yul\":3717:3749   */\n      tag_193\n        /* \"#utility.yul\":3743:3748   */\n      dup2\n        /* \"#utility.yul\":3717:3749   */\n      tag_111\n      jump\t// in\n    tag_193:\n        /* \"#utility.yul\":3710:3715   */\n      dup2\n        /* \"#utility.yul\":3707:3750   */\n      eq\n        /* \"#utility.yul\":3697:3768   */\n      tag_194\n      jumpi\n        /* \"#utility.yul\":3764:3765   */\n      0x00\n        /* \"#utility.yul\":3761:3762   */\n      dup1\n        /* \"#utility.yul\":3754:3766   */\n      revert\n        /* \"#utility.yul\":3697:3768   */\n    tag_194:\n        /* \"#utility.yul\":3636:3774   */\n      pop\n      jump\t// out\n        /* \"#utility.yul\":3780:3935   */\n    tag_113:\n        /* \"#utility.yul\":3834:3839   */\n      0x00\n        /* \"#utility.yul\":3872:3878   */\n      dup2\n        /* \"#utility.yul\":3859:3879   */\n      calldataload\n        /* \"#utility.yul\":3850:3879   */\n      swap1\n      pop\n        /* \"#utility.yul\":3888:3929   */\n      tag_196\n        /* \"#utility.yul\":3923:3928   */\n      dup2\n        /* \"#utility.yul\":3888:3929   */\n      tag_112\n      jump\t// in\n    tag_196:\n        /* \"#utility.yul\":3780:3935   */\n      swap3\n      swap2\n      pop\n      pop\n      jump\t// out\n        /* \"#utility.yul\":3941:4286   */\n    tag_49:\n        /* \"#utility.yul\":4008:4014   */\n      0x00\n        /* \"#utility.yul\":4057:4059   */\n      0x20\n        /* \"#utility.yul\":4045:4054   */\n      dup3\n        /* \"#utility.yul\":4036:4043   */\n      dup5\n        /* \"#utility.yul\":4032:4055   */\n      sub\n        /* \"#utility.yul\":4028:4060   */\n      slt\n        /* \"#utility.yul\":4025:4144   */\n      iszero\n      tag_198\n      jumpi\n        /* \"#utility.yul\":4063:4142   */\n      tag_199\n      tag_97\n      jump\t// in\n    tag_199:\n        /* \"#utility.yul\":4025:4144   */\n    tag_198:\n        /* \"#utility.yul\":4183:4184   */\n      0x00\n        /* \"#utility.yul\":4208:4269   */\n      tag_200\n        /* \"#utility.yul\":4261:4268   */\n      dup5\n        /* \"#utility.yul\":4252:4258   */\n      dup3\n        /* \"#utility.yul\":4241:4250   */\n      dup6\n        /* \"#utility.yul\":4237:4259   */\n      add\n        /* \"#utility.yul\":4208:4269   */\n      tag_113\n      jump\t// in\n    tag_200:\n        /* \"#utility.yul\":4198:4269   */\n      swap2\n      pop\n        /* \"#utility.yul\":4154:4279   */\n      pop\n        /* \"#utility.yul\":3941:4286   */\n      swap3\n      swap2\n      pop\n      pop\n      jump\t// out\n        /* \"#utility.yul\":4292:4409   */\n    tag_114:\n        /* \"#utility.yul\":4401:4402   */\n      0x00\n        /* \"#utility.yul\":4398:4399   */\n      dup1\n        /* \"#utility.yul\":4391:4403   */\n      revert\n        /* \"#utility.yul\":4415:4532   */\n    tag_115:\n        /* \"#utility.yul\":4524:4525   */\n      0x00\n        /* \"#utility.yul\":4521:4522   */\n      dup1\n        /* \"#utility.yul\":4514:4526   */\n      revert\n        /* \"#utility.yul\":4538:4640   */\n    tag_116:\n        /* \"#utility.yul\":4579:4585   */\n      0x00\n        /* \"#utility.yul\":4630:4632   */\n      0x1f\n        /* \"#utility.yul\":4626:4633   */\n      not\n        /* \"#utility.yul\":4621:4623   */\n      0x1f\n        /* \"#utility.yul\":4614:4619   */\n      dup4\n        /* \"#utility.yul\":4610:4624   */\n      add\n        /* \"#utility.yul\":4606:4634   */\n      and\n        /* \"#utility.yul\":4596:4634   */\n      swap1\n      pop\n        /* \"#utility.yul\":4538:4640   */\n      swap2\n      swap1\n      pop\n      jump\t// out\n        /* \"#utility.yul\":4646:4826   */\n    tag_117:\n        /* \"#utility.yul\":4694:4771   */\n      0x4e487b7100000000000000000000000000000000000000000000000000000000\n        /* \"#utility.yul\":4691:4692   */\n      0x00\n        /* \"#utility.yul\":4684:4772   */\n      mstore\n        /* \"#utility.yul\":4791:4795   */\n      0x41\n        /* \"#utility.yul\":4788:4789   */\n      0x04\n        /* \"#utility.yul\":4781:4796   */\n      mstore\n        /* \"#utility.yul\":4815:4819   */\n      0x24\n        /* \"#utility.yul\":4812:4813   */\n      0x00\n        /* \"#utility.yul\":4805:4820   */\n      revert\n        /* \"#utility.yul\":4832:5113   */\n    tag_118:\n        /* \"#utility.yul\":4915:4942   */\n      tag_206\n        /* \"#utility.yul\":4937:4941   */\n      dup3\n        /* \"#utility.yul\":4915:4942   */\n      tag_116\n      jump\t// in\n    tag_206:\n        /* \"#utility.yul\":4907:4913   */\n      dup2\n        /* \"#utility.yul\":4903:4943   */\n      add\n        /* \"#utility.yul\":5045:5051   */\n      dup2\n        /* \"#utility.yul\":5033:5043   */\n      dup2\n        /* \"#utility.yul\":5030:5052   */\n      lt\n        /* \"#utility.yul\":5009:5027   */\n      0xffffffffffffffff\n        /* \"#utility.yul\":4997:5007   */\n      dup3\n        /* \"#utility.yul\":4994:5028   */\n      gt\n        /* \"#utility.yul\":4991:5053   */\n      or\n        /* \"#utility.yul\":4988:5076   */\n      iszero\n      tag_207\n      jumpi\n        /* \"#utility.yul\":5056:5074   */\n      tag_208\n      tag_117\n      jump\t// in\n    tag_208:\n        /* \"#utility.yul\":4988:5076   */\n    tag_207:\n        /* \"#utility.yul\":5096:5106   */\n      dup1\n        /* \"#utility.yul\":5092:5094   */\n      0x40\n        /* \"#utility.yul\":5085:5107   */\n      mstore\n        /* \"#utility.yul\":4875:5113   */\n      pop\n        /* \"#utility.yul\":4832:5113   */\n      pop\n      pop\n      jump\t// out\n        /* \"#utility.yul\":5119:5248   */\n    tag_119:\n        /* \"#utility.yul\":5153:5159   */\n      0x00\n        /* \"#utility.yul\":5180:5200   */\n      tag_210\n      tag_96\n      jump\t// in\n    tag_210:\n        /* \"#utility.yul\":5170:5200   */\n      swap1\n      pop\n        /* \"#utility.yul\":5209:5242   */\n      tag_211\n        /* \"#utility.yul\":5237:5241   */\n      dup3\n        /* \"#utility.yul\":5229:5235   */\n      dup3\n        /* \"#utility.yul\":5209:5242   */\n      tag_118\n      jump\t// in\n    tag_211:\n        /* \"#utility.yul\":5119:5248   */\n      swap2\n      swap1\n      pop\n      jump\t// out\n        /* \"#utility.yul\":5254:5561   */\n    tag_120:\n        /* \"#utility.yul\":5315:5319   */\n      0x00\n        /* \"#utility.yul\":5405:5423   */\n      0xffffffffffffffff\n        /* \"#utility.yul\":5397:5403   */\n      dup3\n        /* \"#utility.yul\":5394:5424   */\n      gt\n        /* \"#utility.yul\":5391:5447   */\n      iszero\n      tag_213\n      jumpi\n        /* \"#utility.yul\":5427:5445   */\n      tag_214\n      tag_117\n      jump\t// in\n    tag_214:\n        /* \"#utility.yul\":5391:5447   */\n    tag_213:\n        /* \"#utility.yul\":5465:5494   */\n      tag_215\n        /* \"#utility.yul\":5487:5493   */\n      dup3\n        /* \"#utility.yul\":5465:5494   */\n      tag_116\n      jump\t// in\n    tag_215:\n        /* \"#utility.yul\":5457:5494   */\n      swap1\n      pop\n        /* \"#utility.yul\":5549:5553   */\n      0x20\n        /* \"#utility.yul\":5543:5547   */\n      dup2\n        /* \"#utility.yul\":5539:5554   */\n      add\n        /* \"#utility.yul\":5531:5554   */\n      swap1\n      pop\n        /* \"#utility.yul\":5254:5561   */\n      swap2\n      swap1\n      pop\n      jump\t// out\n        /* \"#utility.yul\":5567:5713   */\n    tag_121:\n        /* \"#utility.yul\":5664:5670   */\n      dup3\n        /* \"#utility.yul\":5659:5662   */\n      dup2\n        /* \"#utility.yul\":5654:5657   */\n      dup4\n        /* \"#utility.yul\":5641:5671   */\n      calldatacopy\n        /* \"#utility.yul\":5705:5706   */\n      0x00\n        /* \"#utility.yul\":5696:5702   */\n      dup4\n        /* \"#utility.yul\":5691:5694   */\n      dup4\n        /* \"#utility.yul\":5687:5703   */\n      add\n        /* \"#utility.yul\":5680:5707   */\n      mstore\n        /* \"#utility.yul\":5567:5713   */\n      pop\n      pop\n      pop\n      jump\t// out\n        /* \"#utility.yul\":5719:6142   */\n    tag_122:\n        /* \"#utility.yul\":5796:5801   */\n      0x00\n        /* \"#utility.yul\":5821:5886   */\n      tag_218\n        /* \"#utility.yul\":5837:5885   */\n      tag_219\n        /* \"#utility.yul\":5878:5884   */\n      dup5\n        /* \"#utility.yul\":5837:5885   */\n      tag_120\n      jump\t// in\n    tag_219:\n        /* \"#utility.yul\":5821:5886   */\n      tag_119\n      jump\t// in\n    tag_218:\n        /* \"#utility.yul\":5812:5886   */\n      swap1\n      pop\n        /* \"#utility.yul\":5909:5915   */\n      dup3\n        /* \"#utility.yul\":5902:5907   */\n      dup2\n        /* \"#utility.yul\":5895:5916   */\n      mstore\n        /* \"#utility.yul\":5947:5951   */\n      0x20\n        /* \"#utility.yul\":5940:5945   */\n      dup2\n        /* \"#utility.yul\":5936:5952   */\n      add\n        /* \"#utility.yul\":5985:5988   */\n      dup5\n        /* \"#utility.yul\":5976:5982   */\n      dup5\n        /* \"#utility.yul\":5971:5974   */\n      dup5\n        /* \"#utility.yul\":5967:5983   */\n      add\n        /* \"#utility.yul\":5964:5989   */\n      gt\n        /* \"#utility.yul\":5961:6073   */\n      iszero\n      tag_220\n      jumpi\n        /* \"#utility.yul\":5992:6071   */\n      tag_221\n      tag_115\n      jump\t// in\n    tag_221:\n        /* \"#utility.yul\":5961:6073   */\n    tag_220:\n        /* \"#utility.yul\":6082:6136   */\n      tag_222\n        /* \"#utility.yul\":6129:6135   */\n      dup5\n        /* \"#utility.yul\":6124:6127   */\n      dup3\n        /* \"#utility.yul\":6119:6122   */\n      dup6\n        /* \"#utility.yul\":6082:6136   */\n      tag_121\n      jump\t// in\n    tag_222:\n        /* \"#utility.yul\":5802:6142   */\n      pop\n        /* \"#utility.yul\":5719:6142   */\n      swap4\n      swap3\n      pop\n      pop\n      pop\n      jump\t// out\n        /* \"#utility.yul\":6161:6499   */\n    tag_123:\n        /* \"#utility.yul\":6216:6221   */\n      0x00\n        /* \"#utility.yul\":6265:6268   */\n      dup3\n        /* \"#utility.yul\":6258:6262   */\n      0x1f\n        /* \"#utility.yul\":6250:6256   */\n      dup4\n        /* \"#utility.yul\":6246:6263   */\n      add\n        /* \"#utility.yul\":6242:6269   */\n      slt\n        /* \"#utility.yul\":6232:6354   */\n      tag_224\n      jumpi\n        /* \"#utility.yul\":6273:6352   */\n      tag_225\n      tag_114\n      jump\t// in\n    tag_225:\n        /* \"#utility.yul\":6232:6354   */\n    tag_224:\n        /* \"#utility.yul\":6390:6396   */\n      dup2\n        /* \"#utility.yul\":6377:6397   */\n      calldataload\n        /* \"#utility.yul\":6415:6493   */\n      tag_226\n        /* \"#utility.yul\":6489:6492   */\n      dup5\n        /* \"#utility.yul\":6481:6487   */\n      dup3\n        /* \"#utility.yul\":6474:6478   */\n      0x20\n        /* \"#utility.yul\":6466:6472   */\n      dup7\n        /* \"#utility.yul\":6462:6479   */\n      add\n        /* \"#utility.yul\":6415:6493   */\n      tag_122\n      jump\t// in\n    tag_226:\n        /* \"#utility.yul\":6406:6493   */\n      swap2\n      pop\n        /* \"#utility.yul\":6222:6499   */\n      pop\n        /* \"#utility.yul\":6161:6499   */\n      swap3\n      swap2\n      pop\n      pop\n      jump\t// out\n        /* \"#utility.yul\":6505:7318   */\n    tag_54:\n        /* \"#utility.yul\":6599:6605   */\n      0x00\n        /* \"#utility.yul\":6607:6613   */\n      dup1\n        /* \"#utility.yul\":6615:6621   */\n      0x00\n        /* \"#utility.yul\":6664:6666   */\n      0x60\n        /* \"#utility.yul\":6652:6661   */\n      dup5\n        /* \"#utility.yul\":6643:6650   */\n      dup7\n        /* \"#utility.yul\":6639:6662   */\n      sub\n        /* \"#utility.yul\":6635:6667   */\n      slt\n        /* \"#utility.yul\":6632:6751   */\n      iszero\n      tag_228\n      jumpi\n        /* \"#utility.yul\":6670:6749   */\n      tag_229\n      tag_97\n      jump\t// in\n    tag_229:\n        /* \"#utility.yul\":6632:6751   */\n    tag_228:\n        /* \"#utility.yul\":6790:6791   */\n      0x00\n        /* \"#utility.yul\":6815:6876   */\n      tag_230\n        /* \"#utility.yul\":6868:6875   */\n      dup7\n        /* \"#utility.yul\":6859:6865   */\n      dup3\n        /* \"#utility.yul\":6848:6857   */\n      dup8\n        /* \"#utility.yul\":6844:6866   */\n      add\n        /* \"#utility.yul\":6815:6876   */\n      tag_113\n      jump\t// in\n    tag_230:\n        /* \"#utility.yul\":6805:6876   */\n      swap4\n      pop\n        /* \"#utility.yul\":6761:6886   */\n      pop\n        /* \"#utility.yul\":6925:6927   */\n      0x20\n        /* \"#utility.yul\":6951:7004   */\n      tag_231\n        /* \"#utility.yul\":6996:7003   */\n      dup7\n        /* \"#utility.yul\":6987:6993   */\n      dup3\n        /* \"#utility.yul\":6976:6985   */\n      dup8\n        /* \"#utility.yul\":6972:6994   */\n      add\n        /* \"#utility.yul\":6951:7004   */\n      tag_109\n      jump\t// in\n    tag_231:\n        /* \"#utility.yul\":6941:7004   */\n      swap3\n      pop\n        /* \"#utility.yul\":6896:7014   */\n      pop\n        /* \"#utility.yul\":7081:7083   */\n      0x40\n        /* \"#utility.yul\":7070:7079   */\n      dup5\n        /* \"#utility.yul\":7066:7084   */\n      add\n        /* \"#utility.yul\":7053:7085   */\n      calldataload\n        /* \"#utility.yul\":7112:7130   */\n      0xffffffffffffffff\n        /* \"#utility.yul\":7104:7110   */\n      dup2\n        /* \"#utility.yul\":7101:7131   */\n      gt\n        /* \"#utility.yul\":7098:7215   */\n      iszero\n      tag_232\n      jumpi\n        /* \"#utility.yul\":7134:7213   */\n      tag_233\n      tag_98\n      jump\t// in\n    tag_233:\n        /* \"#utility.yul\":7098:7215   */\n    tag_232:\n        /* \"#utility.yul\":7239:7301   */\n      tag_234\n        /* \"#utility.yul\":7293:7300   */\n      dup7\n        /* \"#utility.yul\":7284:7290   */\n      dup3\n        /* \"#utility.yul\":7273:7282   */\n      dup8\n        /* \"#utility.yul\":7269:7291   */\n      add\n        /* \"#utility.yul\":7239:7301   */\n      tag_123\n      jump\t// in\n    tag_234:\n        /* \"#utility.yul\":7229:7301   */\n      swap2\n      pop\n        /* \"#utility.yul\":7024:7311   */\n      pop\n        /* \"#utility.yul\":6505:7318   */\n      swap3\n      pop\n      swap3\n      pop\n      swap3\n      jump\t// out\n        /* \"#utility.yul\":7324:7422   */\n    tag_124:\n        /* \"#utility.yul\":7375:7381   */\n      0x00\n        /* \"#utility.yul\":7409:7414   */\n      dup2\n        /* \"#utility.yul\":7403:7415   */\n      mload\n        /* \"#utility.yul\":7393:7415   */\n      swap1\n      pop\n        /* \"#utility.yul\":7324:7422   */\n      swap2\n      swap1\n      pop\n      jump\t// out\n        /* \"#utility.yul\":7428:7596   */\n    tag_125:\n        /* \"#utility.yul\":7511:7522   */\n      0x00\n        /* \"#utility.yul\":7545:7551   */\n      dup3\n        /* \"#utility.yul\":7540:7543   */\n      dup3\n        /* \"#utility.yul\":7533:7552   */\n      mstore\n        /* \"#utility.yul\":7585:7589   */\n      0x20\n        /* \"#utility.yul\":7580:7583   */\n      dup3\n        /* \"#utility.yul\":7576:7590   */\n      add\n        /* \"#utility.yul\":7561:7590   */\n      swap1\n      pop\n        /* \"#utility.yul\":7428:7596   */\n      swap3\n      swap2\n      pop\n      pop\n      jump\t// out\n        /* \"#utility.yul\":7602:7848   */\n    tag_126:\n        /* \"#utility.yul\":7683:7684   */\n      0x00\n        /* \"#utility.yul\":7693:7806   */\n    tag_238:\n        /* \"#utility.yul\":7707:7713   */\n      dup4\n        /* \"#utility.yul\":7704:7705   */\n      dup2\n        /* \"#utility.yul\":7701:7714   */\n      lt\n        /* \"#utility.yul\":7693:7806   */\n      iszero\n      tag_240\n      jumpi\n        /* \"#utility.yul\":7792:7793   */\n      dup1\n        /* \"#utility.yul\":7787:7790   */\n      dup3\n        /* \"#utility.yul\":7783:7794   */\n      add\n        /* \"#utility.yul\":7777:7795   */\n      mload\n        /* \"#utility.yul\":7773:7774   */\n      dup2\n        /* \"#utility.yul\":7768:7771   */\n      dup5\n        /* \"#utility.yul\":7764:7775   */\n      add\n        /* \"#utility.yul\":7757:7796   */\n      mstore\n        /* \"#utility.yul\":7729:7731   */\n      0x20\n        /* \"#utility.yul\":7726:7727   */\n      dup2\n        /* \"#utility.yul\":7722:7732   */\n      add\n        /* \"#utility.yul\":7717:7732   */\n      swap1\n      pop\n        /* \"#utility.yul\":7693:7806   */\n      jump(tag_238)\n    tag_240:\n        /* \"#utility.yul\":7840:7841   */\n      0x00\n        /* \"#utility.yul\":7831:7837   */\n      dup5\n        /* \"#utility.yul\":7826:7829   */\n      dup5\n        /* \"#utility.yul\":7822:7838   */\n      add\n        /* \"#utility.yul\":7815:7842   */\n      mstore\n        /* \"#utility.yul\":7664:7848   */\n      pop\n        /* \"#utility.yul\":7602:7848   */\n      pop\n      pop\n      pop\n      jump\t// out\n        /* \"#utility.yul\":7854:8227   */\n    tag_127:\n        /* \"#utility.yul\":7940:7943   */\n      0x00\n        /* \"#utility.yul\":7968:8006   */\n      tag_242\n        /* \"#utility.yul\":8000:8005   */\n      dup3\n        /* \"#utility.yul\":7968:8006   */\n      tag_124\n      jump\t// in\n    tag_242:\n        /* \"#utility.yul\":8022:8092   */\n      tag_243\n        /* \"#utility.yul\":8085:8091   */\n      dup2\n        /* \"#utility.yul\":8080:8083   */\n      dup6\n        /* \"#utility.yul\":8022:8092   */\n      tag_125\n      jump\t// in\n    tag_243:\n        /* \"#utility.yul\":8015:8092   */\n      swap4\n      pop\n        /* \"#utility.yul\":8101:8166   */\n      tag_244\n        /* \"#utility.yul\":8159:8165   */\n      dup2\n        /* \"#utility.yul\":8154:8157   */\n      dup6\n        /* \"#utility.yul\":8147:8151   */\n      0x20\n        /* \"#utility.yul\":8140:8145   */\n      dup7\n        /* \"#utility.yul\":8136:8152   */\n      add\n        /* \"#utility.yul\":8101:8166   */\n      tag_126\n      jump\t// in\n    tag_244:\n        /* \"#utility.yul\":8191:8220   */\n      tag_245\n        /* \"#utility.yul\":8213:8219   */\n      dup2\n        /* \"#utility.yul\":8191:8220   */\n      tag_116\n      jump\t// in\n    tag_245:\n        /* \"#utility.yul\":8186:8189   */\n      dup5\n        /* \"#utility.yul\":8182:8221   */\n      add\n        /* \"#utility.yul\":8175:8221   */\n      swap2\n      pop\n        /* \"#utility.yul\":7944:8227   */\n      pop\n        /* \"#utility.yul\":7854:8227   */\n      swap3\n      swap2\n      pop\n      pop\n      jump\t// out\n        /* \"#utility.yul\":8233:8542   */\n    tag_57:\n        /* \"#utility.yul\":8344:8348   */\n      0x00\n        /* \"#utility.yul\":8382:8384   */\n      0x20\n        /* \"#utility.yul\":8371:8380   */\n      dup3\n        /* \"#utility.yul\":8367:8385   */\n      add\n        /* \"#utility.yul\":8359:8385   */\n      swap1\n      pop\n        /* \"#utility.yul\":8431:8440   */\n      dup2\n        /* \"#utility.yul\":8425:8429   */\n      dup2\n        /* \"#utility.yul\":8421:8441   */\n      sub\n        /* \"#utility.yul\":8417:8418   */\n      0x00\n        /* \"#utility.yul\":8406:8415   */\n      dup4\n        /* \"#utility.yul\":8402:8419   */\n      add\n        /* \"#utility.yul\":8395:8442   */\n      mstore\n        /* \"#utility.yul\":8459:8535   */\n      tag_247\n        /* \"#utility.yul\":8530:8534   */\n      dup2\n        /* \"#utility.yul\":8521:8527   */\n      dup5\n        /* \"#utility.yul\":8459:8535   */\n      tag_127\n      jump\t// in\n    tag_247:\n        /* \"#utility.yul\":8451:8535   */\n      swap1\n      pop\n        /* \"#utility.yul\":8233:8542   */\n      swap3\n      swap2\n      pop\n      pop\n      jump\t// out\n        /* \"#utility.yul\":8548:8717   */\n    tag_128:\n        /* \"#utility.yul\":8632:8643   */\n      0x00\n        /* \"#utility.yul\":8666:8672   */\n      dup3\n        /* \"#utility.yul\":8661:8664   */\n      dup3\n        /* \"#utility.yul\":8654:8673   */\n      mstore\n        /* \"#utility.yul\":8706:8710   */\n      0x20\n        /* \"#utility.yul\":8701:8704   */\n      dup3\n        /* \"#utility.yul\":8697:8711   */\n      add\n        /* \"#utility.yul\":8682:8711   */\n      swap1\n      pop\n        /* \"#utility.yul\":8548:8717   */\n      swap3\n      swap2\n      pop\n      pop\n      jump\t// out\n        /* \"#utility.yul\":8723:8905   */\n    tag_129:\n        /* \"#utility.yul\":8863:8897   */\n      0x596f7520617265206e6f7420746865206f776e65722c2061626f7274696e672e\n        /* \"#utility.yul\":8859:8860   */\n      0x00\n        /* \"#utility.yul\":8851:8857   */\n      dup3\n        /* \"#utility.yul\":8847:8861   */\n      add\n        /* \"#utility.yul\":8840:8898   */\n      mstore\n        /* \"#utility.yul\":8723:8905   */\n      pop\n      jump\t// out\n        /* \"#utility.yul\":8911:9277   */\n    tag_130:\n        /* \"#utility.yul\":9053:9056   */\n      0x00\n        /* \"#utility.yul\":9074:9141   */\n      tag_251\n        /* \"#utility.yul\":9138:9140   */\n      0x20\n        /* \"#utility.yul\":9133:9136   */\n      dup4\n        /* \"#utility.yul\":9074:9141   */\n      tag_128\n      jump\t// in\n    tag_251:\n        /* \"#utility.yul\":9067:9141   */\n      swap2\n      pop\n        /* \"#utility.yul\":9150:9243   */\n      tag_252\n        /* \"#utility.yul\":9239:9242   */\n      dup3\n        /* \"#utility.yul\":9150:9243   */\n      tag_129\n      jump\t// in\n    tag_252:\n        /* \"#utility.yul\":9268:9270   */\n      0x20\n        /* \"#utility.yul\":9263:9266   */\n      dup3\n        /* \"#utility.yul\":9259:9271   */\n      add\n        /* \"#utility.yul\":9252:9271   */\n      swap1\n      pop\n        /* \"#utility.yul\":8911:9277   */\n      swap2\n      swap1\n      pop\n      jump\t// out\n        /* \"#utility.yul\":9283:9702   */\n    tag_61:\n        /* \"#utility.yul\":9449:9453   */\n      0x00\n        /* \"#utility.yul\":9487:9489   */\n      0x20\n        /* \"#utility.yul\":9476:9485   */\n      dup3\n        /* \"#utility.yul\":9472:9490   */\n      add\n        /* \"#utility.yul\":9464:9490   */\n      swap1\n      pop\n        /* \"#utility.yul\":9536:9545   */\n      dup2\n        /* \"#utility.yul\":9530:9534   */\n      dup2\n        /* \"#utility.yul\":9526:9546   */\n      sub\n        /* \"#utility.yul\":9522:9523   */\n      0x00\n        /* \"#utility.yul\":9511:9520   */\n      dup4\n        /* \"#utility.yul\":9507:9524   */\n      add\n        /* \"#utility.yul\":9500:9547   */\n      mstore\n        /* \"#utility.yul\":9564:9695   */\n      tag_254\n        /* \"#utility.yul\":9690:9694   */\n      dup2\n        /* \"#utility.yul\":9564:9695   */\n      tag_130\n      jump\t// in\n    tag_254:\n        /* \"#utility.yul\":9556:9695   */\n      swap1\n      pop\n        /* \"#utility.yul\":9283:9702   */\n      swap2\n      swap1\n      pop\n      jump\t// out\n        /* \"#utility.yul\":9708:9938   */\n    tag_131:\n        /* \"#utility.yul\":9848:9882   */\n      0x496e76616c696420677561726469616e20666f7220746869732077616c6c6572\n        /* \"#utility.yul\":9844:9845   */\n      0x00\n        /* \"#utility.yul\":9836:9842   */\n      dup3\n        /* \"#utility.yul\":9832:9846   */\n      add\n        /* \"#utility.yul\":9825:9883   */\n      mstore\n        /* \"#utility.yul\":9917:9930   */\n      0x2c2061626f7274696e672e000000000000000000000000000000000000000000\n        /* \"#utility.yul\":9912:9914   */\n      0x20\n        /* \"#utility.yul\":9904:9910   */\n      dup3\n        /* \"#utility.yul\":9900:9915   */\n      add\n        /* \"#utility.yul\":9893:9931   */\n      mstore\n        /* \"#utility.yul\":9708:9938   */\n      pop\n      jump\t// out\n        /* \"#utility.yul\":9944:10310   */\n    tag_132:\n        /* \"#utility.yul\":10086:10089   */\n      0x00\n        /* \"#utility.yul\":10107:10174   */\n      tag_257\n        /* \"#utility.yul\":10171:10173   */\n      0x2b\n        /* \"#utility.yul\":10166:10169   */\n      dup4\n        /* \"#utility.yul\":10107:10174   */\n      tag_128\n      jump\t// in\n    tag_257:\n        /* \"#utility.yul\":10100:10174   */\n      swap2\n      pop\n        /* \"#utility.yul\":10183:10276   */\n      tag_258\n        /* \"#utility.yul\":10272:10275   */\n      dup3\n        /* \"#utility.yul\":10183:10276   */\n      tag_131\n      jump\t// in\n    tag_258:\n        /* \"#utility.yul\":10301:10303   */\n      0x40\n        /* \"#utility.yul\":10296:10299   */\n      dup3\n        /* \"#utility.yul\":10292:10304   */\n      add\n        /* \"#utility.yul\":10285:10304   */\n      swap1\n      pop\n        /* \"#utility.yul\":9944:10310   */\n      swap2\n      swap1\n      pop\n      jump\t// out\n        /* \"#utility.yul\":10316:10735   */\n    tag_70:\n        /* \"#utility.yul\":10482:10486   */\n      0x00\n        /* \"#utility.yul\":10520:10522   */\n      0x20\n        /* \"#utility.yul\":10509:10518   */\n      dup3\n        /* \"#utility.yul\":10505:10523   */\n      add\n        /* \"#utility.yul\":10497:10523   */\n      swap1\n      pop\n        /* \"#utility.yul\":10569:10578   */\n      dup2\n        /* \"#utility.yul\":10563:10567   */\n      dup2\n        /* \"#utility.yul\":10559:10579   */\n      sub\n        /* \"#utility.yul\":10555:10556   */\n      0x00\n        /* \"#utility.yul\":10544:10553   */\n      dup4\n        /* \"#utility.yul\":10540:10557   */\n      add\n        /* \"#utility.yul\":10533:10580   */\n      mstore\n        /* \"#utility.yul\":10597:10728   */\n      tag_260\n        /* \"#utility.yul\":10723:10727   */\n      dup2\n        /* \"#utility.yul\":10597:10728   */\n      tag_132\n      jump\t// in\n    tag_260:\n        /* \"#utility.yul\":10589:10728   */\n      swap1\n      pop\n        /* \"#utility.yul\":10316:10735   */\n      swap2\n      swap1\n      pop\n      jump\t// out\n        /* \"#utility.yul\":10741:10914   */\n    tag_133:\n        /* \"#utility.yul\":10881:10906   */\n      0x596f75206861766520616c726561647920766f7465642e000000000000000000\n        /* \"#utility.yul\":10877:10878   */\n      0x00\n        /* \"#utility.yul\":10869:10875   */\n      dup3\n        /* \"#utility.yul\":10865:10879   */\n      add\n        /* \"#utility.yul\":10858:10907   */\n      mstore\n        /* \"#utility.yul\":10741:10914   */\n      pop\n      jump\t// out\n        /* \"#utility.yul\":10920:11286   */\n    tag_134:\n        /* \"#utility.yul\":11062:11065   */\n      0x00\n        /* \"#utility.yul\":11083:11150   */\n      tag_263\n        /* \"#utility.yul\":11147:11149   */\n      0x17\n        /* \"#utility.yul\":11142:11145   */\n      dup4\n        /* \"#utility.yul\":11083:11150   */\n      tag_128\n      jump\t// in\n    tag_263:\n        /* \"#utility.yul\":11076:11150   */\n      swap2\n      pop\n        /* \"#utility.yul\":11159:11252   */\n      tag_264\n        /* \"#utility.yul\":11248:11251   */\n      dup3\n        /* \"#utility.yul\":11159:11252   */\n      tag_133\n      jump\t// in\n    tag_264:\n        /* \"#utility.yul\":11277:11279   */\n      0x20\n        /* \"#utility.yul\":11272:11275   */\n      dup3\n        /* \"#utility.yul\":11268:11280   */\n      add\n        /* \"#utility.yul\":11261:11280   */\n      swap1\n      pop\n        /* \"#utility.yul\":10920:11286   */\n      swap2\n      swap1\n      pop\n      jump\t// out\n        /* \"#utility.yul\":11292:11711   */\n    tag_73:\n        /* \"#utility.yul\":11458:11462   */\n      0x00\n        /* \"#utility.yul\":11496:11498   */\n      0x20\n        /* \"#utility.yul\":11485:11494   */\n      dup3\n        /* \"#utility.yul\":11481:11499   */\n      add\n        /* \"#utility.yul\":11473:11499   */\n      swap1\n      pop\n        /* \"#utility.yul\":11545:11554   */\n      dup2\n        /* \"#utility.yul\":11539:11543   */\n      dup2\n        /* \"#utility.yul\":11535:11555   */\n      sub\n        /* \"#utility.yul\":11531:11532   */\n      0x00\n        /* \"#utility.yul\":11520:11529   */\n      dup4\n        /* \"#utility.yul\":11516:11533   */\n      add\n        /* \"#utility.yul\":11509:11556   */\n      mstore\n        /* \"#utility.yul\":11573:11704   */\n      tag_266\n        /* \"#utility.yul\":11699:11703   */\n      dup2\n        /* \"#utility.yul\":11573:11704   */\n      tag_134\n      jump\t// in\n    tag_266:\n        /* \"#utility.yul\":11565:11704   */\n      swap1\n      pop\n        /* \"#utility.yul\":11292:11711   */\n      swap2\n      swap1\n      pop\n      jump\t// out\n        /* \"#utility.yul\":11717:11897   */\n    tag_135:\n        /* \"#utility.yul\":11765:11842   */\n      0x4e487b7100000000000000000000000000000000000000000000000000000000\n        /* \"#utility.yul\":11762:11763   */\n      0x00\n        /* \"#utility.yul\":11755:11843   */\n      mstore\n        /* \"#utility.yul\":11862:11866   */\n      0x11\n        /* \"#utility.yul\":11859:11860   */\n      0x04\n        /* \"#utility.yul\":11852:11867   */\n      mstore\n        /* \"#utility.yul\":11886:11890   */\n      0x24\n        /* \"#utility.yul\":11883:11884   */\n      0x00\n        /* \"#utility.yul\":11876:11891   */\n      revert\n        /* \"#utility.yul\":11903:12136   */\n    tag_76:\n        /* \"#utility.yul\":11942:11945   */\n      0x00\n        /* \"#utility.yul\":11965:11989   */\n      tag_269\n        /* \"#utility.yul\":11983:11988   */\n      dup3\n        /* \"#utility.yul\":11965:11989   */\n      tag_107\n      jump\t// in\n    tag_269:\n        /* \"#utility.yul\":11956:11989   */\n      swap2\n      pop\n        /* \"#utility.yul\":12011:12077   */\n      0xffffffffffffffffffffffffffffffffffffffffffffffffffffffffffffffff\n        /* \"#utility.yul\":12004:12009   */\n      dup3\n        /* \"#utility.yul\":12001:12078   */\n      sub\n        /* \"#utility.yul\":11998:12101   */\n      tag_270\n      jumpi\n        /* \"#utility.yul\":12081:12099   */\n      tag_271\n      tag_135\n      jump\t// in\n    tag_271:\n        /* \"#utility.yul\":11998:12101   */\n    tag_270:\n        /* \"#utility.yul\":12128:12129   */\n      0x01\n        /* \"#utility.yul\":12121:12126   */\n      dup3\n        /* \"#utility.yul\":12117:12130   */\n      add\n        /* \"#utility.yul\":12110:12130   */\n      swap1\n      pop\n        /* \"#utility.yul\":11903:12136   */\n      swap2\n      swap1\n      pop\n      jump\t// out\n        /* \"#utility.yul\":12142:12431   */\n    tag_136:\n        /* \"#utility.yul\":12282:12316   */\n      0x596f7520617265206e6f74207065726d697474656420746f2070726f63657373\n        /* \"#utility.yul\":12278:12279   */\n      0x00\n        /* \"#utility.yul\":12270:12276   */\n      dup3\n        /* \"#utility.yul\":12266:12280   */\n      add\n        /* \"#utility.yul\":12259:12317   */\n      mstore\n        /* \"#utility.yul\":12351:12385   */\n      0x207472616e73616374696f6e732066726f6d207468697320636f6e7472616374\n        /* \"#utility.yul\":12346:12348   */\n      0x20\n        /* \"#utility.yul\":12338:12344   */\n      dup3\n        /* \"#utility.yul\":12334:12349   */\n      add\n        /* \"#utility.yul\":12327:12386   */\n      mstore\n        /* \"#utility.yul\":12420:12423   */\n      0x2e00000000000000000000000000000000000000000000000000000000000000\n        /* \"#utility.yul\":12415:12417   */\n      0x40\n        /* \"#utility.yul\":12407:12413   */\n      dup3\n        /* \"#utility.yul\":12403:12418   */\n      add\n        /* \"#utility.yul\":12396:12424   */\n      mstore\n        /* \"#utility.yul\":12142:12431   */\n      pop\n      jump\t// out\n        /* \"#utility.yul\":12437:12803   */\n    tag_137:\n        /* \"#utility.yul\":12579:12582   */\n      0x00\n        /* \"#utility.yul\":12600:12667   */\n      tag_274\n        /* \"#utility.yul\":12664:12666   */\n      0x41\n        /* \"#utility.yul\":12659:12662   */\n      dup4\n        /* \"#utility.yul\":12600:12667   */\n      tag_128\n      jump\t// in\n    tag_274:\n        /* \"#utility.yul\":12593:12667   */\n      swap2\n      pop\n        /* \"#utility.yul\":12676:12769   */\n      tag_275\n        /* \"#utility.yul\":12765:12768   */\n      dup3\n        /* \"#utility.yul\":12676:12769   */\n      tag_136\n      jump\t// in\n    tag_275:\n        /* \"#utility.yul\":12794:12796   */\n      0x60\n        /* \"#utility.yul\":12789:12792   */\n      dup3\n        /* \"#utility.yul\":12785:12797   */\n      add\n        /* \"#utility.yul\":12778:12797   */\n      swap1\n      pop\n        /* \"#utility.yul\":12437:12803   */\n      swap2\n      swap1\n      pop\n      jump\t// out\n        /* \"#utility.yul\":12809:13228   */\n    tag_82:\n        /* \"#utility.yul\":12975:12979   */\n      0x00\n        /* \"#utility.yul\":13013:13015   */\n      0x20\n        /* \"#utility.yul\":13002:13011   */\n      dup3\n        /* \"#utility.yul\":12998:13016   */\n      add\n        /* \"#utility.yul\":12990:13016   */\n      swap1\n      pop\n        /* \"#utility.yul\":13062:13071   */\n      dup2\n        /* \"#utility.yul\":13056:13060   */\n      dup2\n        /* \"#utility.yul\":13052:13072   */\n      sub\n        /* \"#utility.yul\":13048:13049   */\n      0x00\n        /* \"#utility.yul\":13037:13046   */\n      dup4\n        /* \"#utility.yul\":13033:13050   */\n      add\n        /* \"#utility.yul\":13026:13073   */\n      mstore\n        /* \"#utility.yul\":13090:13221   */\n      tag_277\n        /* \"#utility.yul\":13216:13220   */\n      dup2\n        /* \"#utility.yul\":13090:13221   */\n      tag_137\n      jump\t// in\n    tag_277:\n        /* \"#utility.yul\":13082:13221   */\n      swap1\n      pop\n        /* \"#utility.yul\":12809:13228   */\n      swap2\n      swap1\n      pop\n      jump\t// out\n        /* \"#utility.yul\":13234:13483   */\n    tag_138:\n        /* \"#utility.yul\":13374:13408   */\n      0x596f752061726520747972696e6720746f2073656e64206d6f7265207468616e\n        /* \"#utility.yul\":13370:13371   */\n      0x00\n        /* \"#utility.yul\":13362:13368   */\n      dup3\n        /* \"#utility.yul\":13358:13372   */\n      add\n        /* \"#utility.yul\":13351:13409   */\n      mstore\n        /* \"#utility.yul\":13443:13475   */\n      0x20796f752061726520616c6c6f77656420746f2c2061626f7274696e672e0000\n        /* \"#utility.yul\":13438:13440   */\n      0x20\n        /* \"#utility.yul\":13430:13436   */\n      dup3\n        /* \"#utility.yul\":13426:13441   */\n      add\n        /* \"#utility.yul\":13419:13476   */\n      mstore\n        /* \"#utility.yul\":13234:13483   */\n      pop\n      jump\t// out\n        /* \"#utility.yul\":13489:13855   */\n    tag_139:\n        /* \"#utility.yul\":13631:13634   */\n      0x00\n        /* \"#utility.yul\":13652:13719   */\n      tag_280\n        /* \"#utility.yul\":13716:13718   */\n      0x3e\n        /* \"#utility.yul\":13711:13714   */\n      dup4\n        /* \"#utility.yul\":13652:13719   */\n      tag_128\n      jump\t// in\n    tag_280:\n        /* \"#utility.yul\":13645:13719   */\n      swap2\n      pop\n        /* \"#utility.yul\":13728:13821   */\n      tag_281\n        /* \"#utility.yul\":13817:13820   */\n      dup3\n        /* \"#utility.yul\":13728:13821   */\n      tag_138\n      jump\t// in\n    tag_281:\n        /* \"#utility.yul\":13846:13848   */\n      0x40\n        /* \"#utility.yul\":13841:13844   */\n      dup3\n        /* \"#utility.yul\":13837:13849   */\n      add\n        /* \"#utility.yul\":13830:13849   */\n      swap1\n      pop\n        /* \"#utility.yul\":13489:13855   */\n      swap2\n      swap1\n      pop\n      jump\t// out\n        /* \"#utility.yul\":13861:14280   */\n    tag_85:\n        /* \"#utility.yul\":14027:14031   */\n      0x00\n        /* \"#utility.yul\":14065:14067   */\n      0x20\n        /* \"#utility.yul\":14054:14063   */\n      dup3\n        /* \"#utility.yul\":14050:14068   */\n      add\n        /* \"#utility.yul\":14042:14068   */\n      swap1\n      pop\n        /* \"#utility.yul\":14114:14123   */\n      dup2\n        /* \"#utility.yul\":14108:14112   */\n      dup2\n        /* \"#utility.yul\":14104:14124   */\n      sub\n        /* \"#utility.yul\":14100:14101   */\n      0x00\n        /* \"#utility.yul\":14089:14098   */\n      dup4\n        /* \"#utility.yul\":14085:14102   */\n      add\n        /* \"#utility.yul\":14078:14125   */\n      mstore\n        /* \"#utility.yul\":14142:14273   */\n      tag_283\n        /* \"#utility.yul\":14268:14272   */\n      dup2\n        /* \"#utility.yul\":14142:14273   */\n      tag_139\n      jump\t// in\n    tag_283:\n        /* \"#utility.yul\":14134:14273   */\n      swap1\n      pop\n        /* \"#utility.yul\":13861:14280   */\n      swap2\n      swap1\n      pop\n      jump\t// out\n        /* \"#utility.yul\":14286:14480   */\n    tag_87:\n        /* \"#utility.yul\":14326:14330   */\n      0x00\n        /* \"#utility.yul\":14346:14366   */\n      tag_285\n        /* \"#utility.yul\":14364:14365   */\n      dup3\n        /* \"#utility.yul\":14346:14366   */\n      tag_107\n      jump\t// in\n    tag_285:\n        /* \"#utility.yul\":14341:14366   */\n      swap2\n      pop\n        /* \"#utility.yul\":14380:14400   */\n      tag_286\n        /* \"#utility.yul\":14398:14399   */\n      dup4\n        /* \"#utility.yul\":14380:14400   */\n      tag_107\n      jump\t// in\n    tag_286:\n        /* \"#utility.yul\":14375:14400   */\n      swap3\n      pop\n        /* \"#utility.yul\":14424:14425   */\n      dup3\n        /* \"#utility.yul\":14421:14422   */\n      dup3\n        /* \"#utility.yul\":14417:14426   */\n      sub\n        /* \"#utility.yul\":14409:14426   */\n      swap1\n      pop\n        /* \"#utility.yul\":14448:14449   */\n      dup2\n        /* \"#utility.yul\":14442:14446   */\n      dup2\n        /* \"#utility.yul\":14439:14450   */\n      gt\n        /* \"#utility.yul\":14436:14473   */\n      iszero\n      tag_287\n      jumpi\n        /* \"#utility.yul\":14453:14471   */\n      tag_288\n      tag_135\n      jump\t// in\n    tag_288:\n        /* \"#utility.yul\":14436:14473   */\n    tag_287:\n        /* \"#utility.yul\":14286:14480   */\n      swap3\n      swap2\n      pop\n      pop\n      jump\t// out\n        /* \"#utility.yul\":14486:14633   */\n    tag_140:\n        /* \"#utility.yul\":14587:14598   */\n      0x00\n        /* \"#utility.yul\":14624:14627   */\n      dup2\n        /* \"#utility.yul\":14609:14627   */\n      swap1\n      pop\n        /* \"#utility.yul\":14486:14633   */\n      swap3\n      swap2\n      pop\n      pop\n      jump\t// out\n        /* \"#utility.yul\":14639:15025   */\n    tag_141:\n        /* \"#utility.yul\":14743:14746   */\n      0x00\n        /* \"#utility.yul\":14771:14809   */\n      tag_291\n        /* \"#utility.yul\":14803:14808   */\n      dup3\n        /* \"#utility.yul\":14771:14809   */\n      tag_124\n      jump\t// in\n    tag_291:\n        /* \"#utility.yul\":14825:14913   */\n      tag_292\n        /* \"#utility.yul\":14906:14912   */\n      dup2\n        /* \"#utility.yul\":14901:14904   */\n      dup6\n        /* \"#utility.yul\":14825:14913   */\n      tag_140\n      jump\t// in\n    tag_292:\n        /* \"#utility.yul\":14818:14913   */\n      swap4\n      pop\n        /* \"#utility.yul\":14922:14987   */\n      tag_293\n        /* \"#utility.yul\":14980:14986   */\n      dup2\n        /* \"#utility.yul\":14975:14978   */\n      dup6\n        /* \"#utility.yul\":14968:14972   */\n      0x20\n        /* \"#utility.yul\":14961:14966   */\n      dup7\n        /* \"#utility.yul\":14957:14973   */\n      add\n        /* \"#utility.yul\":14922:14987   */\n      tag_126\n      jump\t// in\n    tag_293:\n        /* \"#utility.yul\":15012:15018   */\n      dup1\n        /* \"#utility.yul\":15007:15010   */\n      dup5\n        /* \"#utility.yul\":15003:15019   */\n      add\n        /* \"#utility.yul\":14996:15019   */\n      swap2\n      pop\n        /* \"#utility.yul\":14747:15025   */\n      pop\n        /* \"#utility.yul\":14639:15025   */\n      swap3\n      swap2\n      pop\n      pop\n      jump\t// out\n        /* \"#utility.yul\":15031:15302   */\n    tag_89:\n        /* \"#utility.yul\":15161:15164   */\n      0x00\n        /* \"#utility.yul\":15183:15276   */\n      tag_295\n        /* \"#utility.yul\":15272:15275   */\n      dup3\n        /* \"#utility.yul\":15263:15269   */\n      dup5\n        /* \"#utility.yul\":15183:15276   */\n      tag_141\n      jump\t// in\n    tag_295:\n        /* \"#utility.yul\":15176:15276   */\n      swap2\n      pop\n        /* \"#utility.yul\":15293:15296   */\n      dup2\n        /* \"#utility.yul\":15286:15296   */\n      swap1\n      pop\n        /* \"#utility.yul\":15031:15302   */\n      swap3\n      swap2\n      pop\n      pop\n      jump\t// out\n        /* \"#utility.yul\":15308:15528   */\n    tag_142:\n        /* \"#utility.yul\":15448:15482   */\n      0x41626f7274696e672063616c6c20776173206e6f74207375636365737366756c\n        /* \"#utility.yul\":15444:15445   */\n      0x00\n        /* \"#utility.yul\":15436:15442   */\n      dup3\n        /* \"#utility.yul\":15432:15446   */\n      add\n        /* \"#utility.yul\":15425:15483   */\n      mstore\n        /* \"#utility.yul\":15517:15520   */\n      0x2e00000000000000000000000000000000000000000000000000000000000000\n        /* \"#utility.yul\":15512:15514   */\n      0x20\n        /* \"#utility.yul\":15504:15510   */\n      dup3\n        /* \"#utility.yul\":15500:15515   */\n      add\n        /* \"#utility.yul\":15493:15521   */\n      mstore\n        /* \"#utility.yul\":15308:15528   */\n      pop\n      jump\t// out\n        /* \"#utility.yul\":15534:15900   */\n    tag_143:\n        /* \"#utility.yul\":15676:15679   */\n      0x00\n        /* \"#utility.yul\":15697:15764   */\n      tag_298\n        /* \"#utility.yul\":15761:15763   */\n      0x21\n        /* \"#utility.yul\":15756:15759   */\n      dup4\n        /* \"#utility.yul\":15697:15764   */\n      tag_128\n      jump\t// in\n    tag_298:\n        /* \"#utility.yul\":15690:15764   */\n      swap2\n      pop\n        /* \"#utility.yul\":15773:15866   */\n      tag_299\n        /* \"#utility.yul\":15862:15865   */\n      dup3\n        /* \"#utility.yul\":15773:15866   */\n      tag_142\n      jump\t// in\n    tag_299:\n        /* \"#utility.yul\":15891:15893   */\n      0x40\n        /* \"#utility.yul\":15886:15889   */\n      dup3\n        /* \"#utility.yul\":15882:15894   */\n      add\n        /* \"#utility.yul\":15875:15894   */\n      swap1\n      pop\n        /* \"#utility.yul\":15534:15900   */\n      swap2\n      swap1\n      pop\n      jump\t// out\n        /* \"#utility.yul\":15906:16325   */\n    tag_95:\n        /* \"#utility.yul\":16072:16076   */\n      0x00\n        /* \"#utility.yul\":16110:16112   */\n      0x20\n        /* \"#utility.yul\":16099:16108   */\n      dup3\n        /* \"#utility.yul\":16095:16113   */\n      add\n        /* \"#utility.yul\":16087:16113   */\n      swap1\n      pop\n        /* \"#utility.yul\":16159:16168   */\n      dup2\n        /* \"#utility.yul\":16153:16157   */\n      dup2\n        /* \"#utility.yul\":16149:16169   */\n      sub\n        /* \"#utility.yul\":16145:16146   */\n      0x00\n        /* \"#utility.yul\":16134:16143   */\n      dup4\n        /* \"#utility.yul\":16130:16147   */\n      add\n        /* \"#utility.yul\":16123:16170   */\n      mstore\n        /* \"#utility.yul\":16187:16318   */\n      tag_301\n        /* \"#utility.yul\":16313:16317   */\n      dup2\n        /* \"#utility.yul\":16187:16318   */\n      tag_143\n      jump\t// in\n    tag_301:\n        /* \"#utility.yul\":16179:16318   */\n      swap1\n      pop\n        /* \"#utility.yul\":15906:16325   */\n      swap2\n      swap1\n      pop\n      jump\t// out\n\n    auxdata: 0xa2646970667358221220e83211adddcd0ee943d7c6d7aa801fdb98266f959d1b5f746bd68cf941a699c664736f6c63430008110033\n}\n",
				"bytecode": {
					"linkReferences": {},
					"object": "608060405234801561001057600080fd5b50336000806101000a81548173ffffffffffffffffffffffffffffffffffffffff021916908373ffffffffffffffffffffffffffffffffffffffff160217905550611368806100606000396000f3fe60806040526004361061007f5760003560e01c80633e5beab91161004e5780633e5beab91461015757806383012be114610194578063b1f8100d146101bf578063be45fd62146101e857610086565b80630633b14a1461008b5780630bc605ad146100c85780632b8a1c5a14610105578063310ec4a71461012e57610086565b3661008657005b600080fd5b34801561009757600080fd5b506100b260048036038101906100ad9190610aad565b610225565b6040516100bf9190610af5565b60405180910390f35b3480156100d457600080fd5b506100ef60048036038101906100ea9190610aad565b610245565b6040516100fc9190610af5565b60405180910390f35b34801561011157600080fd5b5061012c60048036038101906101279190610b3c565b610265565b005b34801561013a57600080fd5b5061015560048036038101906101509190610bb2565b61034e565b005b34801561016357600080fd5b5061017e60048036038101906101799190610aad565b6104e3565b60405161018b9190610c01565b60405180910390f35b3480156101a057600080fd5b506101a96104fb565b6040516101b69190610c01565b60405180910390f35b3480156101cb57600080fd5b506101e660048036038101906101e19190610c5a565b610500565b005b3480156101f457600080fd5b5061020f600480360381019061020a9190610dcd565b6107c5565b60405161021c9190610ebb565b60405180910390f35b60036020528060005260406000206000915054906101000a900460ff1681565b60026020528060005260406000206000915054906101000a900460ff1681565b60008054906101000a900473ffffffffffffffffffffffffffffffffffffffff1673ffffffffffffffffffffffffffffffffffffffff163373ffffffffffffffffffffffffffffffffffffffff16146102f3576040517f08c379a00000000000000000000000000000000000000000000000000000000081526004016102ea90610f3a565b60405180910390fd5b80600360008473ffffffffffffffffffffffffffffffffffffffff1673ffffffffffffffffffffffffffffffffffffffff16815260200190815260200160002060006101000a81548160ff0219169083151502179055505050565b60008054906101000a900473ffffffffffffffffffffffffffffffffffffffff1673ffffffffffffffffffffffffffffffffffffffff163373ffffffffffffffffffffffffffffffffffffffff16146103dc576040517f08c379a00000000000000000000000000000000000000000000000000000000081526004016103d390610f3a565b60405180910390fd5b80600160003373ffffffffffffffffffffffffffffffffffffffff1673ffffffffffffffffffffffffffffffffffffffff168152602001908152602001600020819055506000811115610486576001600260008473ffffffffffffffffffffffffffffffffffffffff1673ffffffffffffffffffffffffffffffffffffffff16815260200190815260200160002060006101000a81548160ff0219169083151502179055506104df565b6000600260008473ffffffffffffffffffffffffffffffffffffffff1673ffffffffffffffffffffffffffffffffffffffff16815260200190815260200160002060006101000a81548160ff0219169083151502179055505b5050565b60016020528060005260406000206000915090505481565b600381565b600360003373ffffffffffffffffffffffffffffffffffffffff1673ffffffffffffffffffffffffffffffffffffffff16815260200190815260200160002060009054906101000a900460ff1661058c576040517f08c379a000000000000000000000000000000000000000000000000000000000815260040161058390610fcc565b60405180910390fd5b60001515600460008373ffffffffffffffffffffffffffffffffffffffff1673ffffffffffffffffffffffffffffffffffffffff16815260200190815260200160002060003373ffffffffffffffffffffffffffffffffffffffff1673ffffffffffffffffffffffffffffffffffffffff16815260200190815260200160002060009054906101000a900460ff1615151461065c576040517f08c379a000000000000000000000000000000000000000000000000000000000815260040161065390611038565b60405180910390fd5b600560009054906101000a900473ffffffffffffffffffffffffffffffffffffffff1673ffffffffffffffffffffffffffffffffffffffff168173ffffffffffffffffffffffffffffffffffffffff16146106fb5780600560006101000a81548173ffffffffffffffffffffffffffffffffffffffff021916908373ffffffffffffffffffffffffffffffffffffffff16021790555060006006819055505b6006600081548092919061070e90611087565b91905055506003600654106107c257600560009054906101000a900473ffffffffffffffffffffffffffffffffffffffff166000806101000a81548173ffffffffffffffffffffffffffffffffffffffff021916908373ffffffffffffffffffffffffffffffffffffffff1602179055506000600560006101000a81548173ffffffffffffffffffffffffffffffffffffffff021916908373ffffffffffffffffffffffffffffffffffffffff1602179055505b50565b606060008054906101000a900473ffffffffffffffffffffffffffffffffffffffff1673ffffffffffffffffffffffffffffffffffffffff163373ffffffffffffffffffffffffffffffffffffffff161461097f57600260003373ffffffffffffffffffffffffffffffffffffffff1673ffffffffffffffffffffffffffffffffffffffff16815260200190815260200160002060009054906101000a900460ff166108a6576040517f08c379a000000000000000000000000000000000000000000000000000000000815260040161089d90611167565b60405180910390fd5b82600160003373ffffffffffffffffffffffffffffffffffffffff1673ffffffffffffffffffffffffffffffffffffffff168152602001908152602001600020541015610928576040517f08c379a000000000000000000000000000000000000000000000000000000000815260040161091f906111f9565b60405180910390fd5b82600160003373ffffffffffffffffffffffffffffffffffffffff1673ffffffffffffffffffffffffffffffffffffffff16815260200190815260200160002060008282546109779190611219565b925050819055505b6000808573ffffffffffffffffffffffffffffffffffffffff1685856040516109a89190611289565b60006040518083038185875af1925050503d80600081146109e5576040519150601f19603f3d011682016040523d82523d6000602084013e6109ea565b606091505b509150915081610a2f576040517f08c379a0000000000000000000000000000000000000000000000000000000008152600401610a2690611312565b60405180910390fd5b80925050509392505050565b6000604051905090565b600080fd5b600080fd5b600073ffffffffffffffffffffffffffffffffffffffff82169050919050565b6000610a7a82610a4f565b9050919050565b610a8a81610a6f565b8114610a9557600080fd5b50565b600081359050610aa781610a81565b92915050565b600060208284031215610ac357610ac2610a45565b5b6000610ad184828501610a98565b91505092915050565b60008115159050919050565b610aef81610ada565b82525050565b6000602082019050610b0a6000830184610ae6565b92915050565b610b1981610ada565b8114610b2457600080fd5b50565b600081359050610b3681610b10565b92915050565b60008060408385031215610b5357610b52610a45565b5b6000610b6185828601610a98565b9250506020610b7285828601610b27565b9150509250929050565b6000819050919050565b610b8f81610b7c565b8114610b9a57600080fd5b50565b600081359050610bac81610b86565b92915050565b60008060408385031215610bc957610bc8610a45565b5b6000610bd785828601610a98565b9250506020610be885828601610b9d565b9150509250929050565b610bfb81610b7c565b82525050565b6000602082019050610c166000830184610bf2565b92915050565b6000610c2782610a4f565b9050919050565b610c3781610c1c565b8114610c4257600080fd5b50565b600081359050610c5481610c2e565b92915050565b600060208284031215610c7057610c6f610a45565b5b6000610c7e84828501610c45565b91505092915050565b600080fd5b600080fd5b6000601f19601f8301169050919050565b7f4e487b7100000000000000000000000000000000000000000000000000000000600052604160045260246000fd5b610cda82610c91565b810181811067ffffffffffffffff82111715610cf957610cf8610ca2565b5b80604052505050565b6000610d0c610a3b565b9050610d188282610cd1565b919050565b600067ffffffffffffffff821115610d3857610d37610ca2565b5b610d4182610c91565b9050602081019050919050565b82818337600083830152505050565b6000610d70610d6b84610d1d565b610d02565b905082815260208101848484011115610d8c57610d8b610c8c565b5b610d97848285610d4e565b509392505050565b600082601f830112610db457610db3610c87565b5b8135610dc4848260208601610d5d565b91505092915050565b600080600060608486031215610de657610de5610a45565b5b6000610df486828701610c45565b9350506020610e0586828701610b9d565b925050604084013567ffffffffffffffff811115610e2657610e25610a4a565b5b610e3286828701610d9f565b9150509250925092565b600081519050919050565b600082825260208201905092915050565b60005b83811015610e76578082015181840152602081019050610e5b565b60008484015250505050565b6000610e8d82610e3c565b610e978185610e47565b9350610ea7818560208601610e58565b610eb081610c91565b840191505092915050565b60006020820190508181036000830152610ed58184610e82565b905092915050565b600082825260208201905092915050565b7f596f7520617265206e6f7420746865206f776e65722c2061626f7274696e672e600082015250565b6000610f24602083610edd565b9150610f2f82610eee565b602082019050919050565b60006020820190508181036000830152610f5381610f17565b9050919050565b7f496e76616c696420677561726469616e20666f7220746869732077616c6c657260008201527f2c2061626f7274696e672e000000000000000000000000000000000000000000602082015250565b6000610fb6602b83610edd565b9150610fc182610f5a565b604082019050919050565b60006020820190508181036000830152610fe581610fa9565b9050919050565b7f596f75206861766520616c726561647920766f7465642e000000000000000000600082015250565b6000611022601783610edd565b915061102d82610fec565b602082019050919050565b6000602082019050818103600083015261105181611015565b9050919050565b7f4e487b7100000000000000000000000000000000000000000000000000000000600052601160045260246000fd5b600061109282610b7c565b91507fffffffffffffffffffffffffffffffffffffffffffffffffffffffffffffffff82036110c4576110c3611058565b5b600182019050919050565b7f596f7520617265206e6f74207065726d697474656420746f2070726f6365737360008201527f207472616e73616374696f6e732066726f6d207468697320636f6e747261637460208201527f2e00000000000000000000000000000000000000000000000000000000000000604082015250565b6000611151604183610edd565b915061115c826110cf565b606082019050919050565b6000602082019050818103600083015261118081611144565b9050919050565b7f596f752061726520747972696e6720746f2073656e64206d6f7265207468616e60008201527f20796f752061726520616c6c6f77656420746f2c2061626f7274696e672e0000602082015250565b60006111e3603e83610edd565b91506111ee82611187565b604082019050919050565b60006020820190508181036000830152611212816111d6565b9050919050565b600061122482610b7c565b915061122f83610b7c565b925082820390508181111561124757611246611058565b5b92915050565b600081905092915050565b600061126382610e3c565b61126d818561124d565b935061127d818560208601610e58565b80840191505092915050565b60006112958284611258565b915081905092915050565b7f41626f7274696e672063616c6c20776173206e6f74207375636365737366756c60008201527f2e00000000000000000000000000000000000000000000000000000000000000602082015250565b60006112fc602183610edd565b9150611307826112a0565b604082019050919050565b6000602082019050818103600083015261132b816112ef565b905091905056fea2646970667358221220e83211adddcd0ee943d7c6d7aa801fdb98266f959d1b5f746bd68cf941a699c664736f6c63430008110033",
					"opcodes": "PUSH1 0x80 PUSH1 0x40 MSTORE CALLVALUE DUP1 ISZERO PUSH2 0x10 JUMPI PUSH1 0x0 DUP1 REVERT JUMPDEST POP CALLER PUSH1 0x0 DUP1 PUSH2 0x100 EXP DUP2 SLOAD DUP2 PUSH20 0xFFFFFFFFFFFFFFFFFFFFFFFFFFFFFFFFFFFFFFFF MUL NOT AND SWAP1 DUP4 PUSH20 0xFFFFFFFFFFFFFFFFFFFFFFFFFFFFFFFFFFFFFFFF AND MUL OR SWAP1 SSTORE POP PUSH2 0x1368 DUP1 PUSH2 0x60 PUSH1 0x0 CODECOPY PUSH1 0x0 RETURN INVALID PUSH1 0x80 PUSH1 0x40 MSTORE PUSH1 0x4 CALLDATASIZE LT PUSH2 0x7F JUMPI PUSH1 0x0 CALLDATALOAD PUSH1 0xE0 SHR DUP1 PUSH4 0x3E5BEAB9 GT PUSH2 0x4E JUMPI DUP1 PUSH4 0x3E5BEAB9 EQ PUSH2 0x157 JUMPI DUP1 PUSH4 0x83012BE1 EQ PUSH2 0x194 JUMPI DUP1 PUSH4 0xB1F8100D EQ PUSH2 0x1BF JUMPI DUP1 PUSH4 0xBE45FD62 EQ PUSH2 0x1E8 JUMPI PUSH2 0x86 JUMP JUMPDEST DUP1 PUSH4 0x633B14A EQ PUSH2 0x8B JUMPI DUP1 PUSH4 0xBC605AD EQ PUSH2 0xC8 JUMPI DUP1 PUSH4 0x2B8A1C5A EQ PUSH2 0x105 JUMPI DUP1 PUSH4 0x310EC4A7 EQ PUSH2 0x12E JUMPI PUSH2 0x86 JUMP JUMPDEST CALLDATASIZE PUSH2 0x86 JUMPI STOP JUMPDEST PUSH1 0x0 DUP1 REVERT JUMPDEST CALLVALUE DUP1 ISZERO PUSH2 0x97 JUMPI PUSH1 0x0 DUP1 REVERT JUMPDEST POP PUSH2 0xB2 PUSH1 0x4 DUP1 CALLDATASIZE SUB DUP2 ADD SWAP1 PUSH2 0xAD SWAP2 SWAP1 PUSH2 0xAAD JUMP JUMPDEST PUSH2 0x225 JUMP JUMPDEST PUSH1 0x40 MLOAD PUSH2 0xBF SWAP2 SWAP1 PUSH2 0xAF5 JUMP JUMPDEST PUSH1 0x40 MLOAD DUP1 SWAP2 SUB SWAP1 RETURN JUMPDEST CALLVALUE DUP1 ISZERO PUSH2 0xD4 JUMPI PUSH1 0x0 DUP1 REVERT JUMPDEST POP PUSH2 0xEF PUSH1 0x4 DUP1 CALLDATASIZE SUB DUP2 ADD SWAP1 PUSH2 0xEA SWAP2 SWAP1 PUSH2 0xAAD JUMP JUMPDEST PUSH2 0x245 JUMP JUMPDEST PUSH1 0x40 MLOAD PUSH2 0xFC SWAP2 SWAP1 PUSH2 0xAF5 JUMP JUMPDEST PUSH1 0x40 MLOAD DUP1 SWAP2 SUB SWAP1 RETURN JUMPDEST CALLVALUE DUP1 ISZERO PUSH2 0x111 JUMPI PUSH1 0x0 DUP1 REVERT JUMPDEST POP PUSH2 0x12C PUSH1 0x4 DUP1 CALLDATASIZE SUB DUP2 ADD SWAP1 PUSH2 0x127 SWAP2 SWAP1 PUSH2 0xB3C JUMP JUMPDEST PUSH2 0x265 JUMP JUMPDEST STOP JUMPDEST CALLVALUE DUP1 ISZERO PUSH2 0x13A JUMPI PUSH1 0x0 DUP1 REVERT JUMPDEST POP PUSH2 0x155 PUSH1 0x4 DUP1 CALLDATASIZE SUB DUP2 ADD SWAP1 PUSH2 0x150 SWAP2 SWAP1 PUSH2 0xBB2 JUMP JUMPDEST PUSH2 0x34E JUMP JUMPDEST STOP JUMPDEST CALLVALUE DUP1 ISZERO PUSH2 0x163 JUMPI PUSH1 0x0 DUP1 REVERT JUMPDEST POP PUSH2 0x17E PUSH1 0x4 DUP1 CALLDATASIZE SUB DUP2 ADD SWAP1 PUSH2 0x179 SWAP2 SWAP1 PUSH2 0xAAD JUMP JUMPDEST PUSH2 0x4E3 JUMP JUMPDEST PUSH1 0x40 MLOAD PUSH2 0x18B SWAP2 SWAP1 PUSH2 0xC01 JUMP JUMPDEST PUSH1 0x40 MLOAD DUP1 SWAP2 SUB SWAP1 RETURN JUMPDEST CALLVALUE DUP1 ISZERO PUSH2 0x1A0 JUMPI PUSH1 0x0 DUP1 REVERT JUMPDEST POP PUSH2 0x1A9 PUSH2 0x4FB JUMP JUMPDEST PUSH1 0x40 MLOAD PUSH2 0x1B6 SWAP2 SWAP1 PUSH2 0xC01 JUMP JUMPDEST PUSH1 0x40 MLOAD DUP1 SWAP2 SUB SWAP1 RETURN JUMPDEST CALLVALUE DUP1 ISZERO PUSH2 0x1CB JUMPI PUSH1 0x0 DUP1 REVERT JUMPDEST POP PUSH2 0x1E6 PUSH1 0x4 DUP1 CALLDATASIZE SUB DUP2 ADD SWAP1 PUSH2 0x1E1 SWAP2 SWAP1 PUSH2 0xC5A JUMP JUMPDEST PUSH2 0x500 JUMP JUMPDEST STOP JUMPDEST CALLVALUE DUP1 ISZERO PUSH2 0x1F4 JUMPI PUSH1 0x0 DUP1 REVERT JUMPDEST POP PUSH2 0x20F PUSH1 0x4 DUP1 CALLDATASIZE SUB DUP2 ADD SWAP1 PUSH2 0x20A SWAP2 SWAP1 PUSH2 0xDCD JUMP JUMPDEST PUSH2 0x7C5 JUMP JUMPDEST PUSH1 0x40 MLOAD PUSH2 0x21C SWAP2 SWAP1 PUSH2 0xEBB JUMP JUMPDEST PUSH1 0x40 MLOAD DUP1 SWAP2 SUB SWAP1 RETURN JUMPDEST PUSH1 0x3 PUSH1 0x20 MSTORE DUP1 PUSH1 0x0 MSTORE PUSH1 0x40 PUSH1 0x0 KECCAK256 PUSH1 0x0 SWAP2 POP SLOAD SWAP1 PUSH2 0x100 EXP SWAP1 DIV PUSH1 0xFF AND DUP2 JUMP JUMPDEST PUSH1 0x2 PUSH1 0x20 MSTORE DUP1 PUSH1 0x0 MSTORE PUSH1 0x40 PUSH1 0x0 KECCAK256 PUSH1 0x0 SWAP2 POP SLOAD SWAP1 PUSH2 0x100 EXP SWAP1 DIV PUSH1 0xFF AND DUP2 JUMP JUMPDEST PUSH1 0x0 DUP1 SLOAD SWAP1 PUSH2 0x100 EXP SWAP1 DIV PUSH20 0xFFFFFFFFFFFFFFFFFFFFFFFFFFFFFFFFFFFFFFFF AND PUSH20 0xFFFFFFFFFFFFFFFFFFFFFFFFFFFFFFFFFFFFFFFF AND CALLER PUSH20 0xFFFFFFFFFFFFFFFFFFFFFFFFFFFFFFFFFFFFFFFF AND EQ PUSH2 0x2F3 JUMPI PUSH1 0x40 MLOAD PUSH32 0x8C379A000000000000000000000000000000000000000000000000000000000 DUP2 MSTORE PUSH1 0x4 ADD PUSH2 0x2EA SWAP1 PUSH2 0xF3A JUMP JUMPDEST PUSH1 0x40 MLOAD DUP1 SWAP2 SUB SWAP1 REVERT JUMPDEST DUP1 PUSH1 0x3 PUSH1 0x0 DUP5 PUSH20 0xFFFFFFFFFFFFFFFFFFFFFFFFFFFFFFFFFFFFFFFF AND PUSH20 0xFFFFFFFFFFFFFFFFFFFFFFFFFFFFFFFFFFFFFFFF AND DUP2 MSTORE PUSH1 0x20 ADD SWAP1 DUP2 MSTORE PUSH1 0x20 ADD PUSH1 0x0 KECCAK256 PUSH1 0x0 PUSH2 0x100 EXP DUP2 SLOAD DUP2 PUSH1 0xFF MUL NOT AND SWAP1 DUP4 ISZERO ISZERO MUL OR SWAP1 SSTORE POP POP POP JUMP JUMPDEST PUSH1 0x0 DUP1 SLOAD SWAP1 PUSH2 0x100 EXP SWAP1 DIV PUSH20 0xFFFFFFFFFFFFFFFFFFFFFFFFFFFFFFFFFFFFFFFF AND PUSH20 0xFFFFFFFFFFFFFFFFFFFFFFFFFFFFFFFFFFFFFFFF AND CALLER PUSH20 0xFFFFFFFFFFFFFFFFFFFFFFFFFFFFFFFFFFFFFFFF AND EQ PUSH2 0x3DC JUMPI PUSH1 0x40 MLOAD PUSH32 0x8C379A000000000000000000000000000000000000000000000000000000000 DUP2 MSTORE PUSH1 0x4 ADD PUSH2 0x3D3 SWAP1 PUSH2 0xF3A JUMP JUMPDEST PUSH1 0x40 MLOAD DUP1 SWAP2 SUB SWAP1 REVERT JUMPDEST DUP1 PUSH1 0x1 PUSH1 0x0 CALLER PUSH20 0xFFFFFFFFFFFFFFFFFFFFFFFFFFFFFFFFFFFFFFFF AND PUSH20 0xFFFFFFFFFFFFFFFFFFFFFFFFFFFFFFFFFFFFFFFF AND DUP2 MSTORE PUSH1 0x20 ADD SWAP1 DUP2 MSTORE PUSH1 0x20 ADD PUSH1 0x0 KECCAK256 DUP2 SWAP1 SSTORE POP PUSH1 0x0 DUP2 GT ISZERO PUSH2 0x486 JUMPI PUSH1 0x1 PUSH1 0x2 PUSH1 0x0 DUP5 PUSH20 0xFFFFFFFFFFFFFFFFFFFFFFFFFFFFFFFFFFFFFFFF AND PUSH20 0xFFFFFFFFFFFFFFFFFFFFFFFFFFFFFFFFFFFFFFFF AND DUP2 MSTORE PUSH1 0x20 ADD SWAP1 DUP2 MSTORE PUSH1 0x20 ADD PUSH1 0x0 KECCAK256 PUSH1 0x0 PUSH2 0x100 EXP DUP2 SLOAD DUP2 PUSH1 0xFF MUL NOT AND SWAP1 DUP4 ISZERO ISZERO MUL OR SWAP1 SSTORE POP PUSH2 0x4DF JUMP JUMPDEST PUSH1 0x0 PUSH1 0x2 PUSH1 0x0 DUP5 PUSH20 0xFFFFFFFFFFFFFFFFFFFFFFFFFFFFFFFFFFFFFFFF AND PUSH20 0xFFFFFFFFFFFFFFFFFFFFFFFFFFFFFFFFFFFFFFFF AND DUP2 MSTORE PUSH1 0x20 ADD SWAP1 DUP2 MSTORE PUSH1 0x20 ADD PUSH1 0x0 KECCAK256 PUSH1 0x0 PUSH2 0x100 EXP DUP2 SLOAD DUP2 PUSH1 0xFF MUL NOT AND SWAP1 DUP4 ISZERO ISZERO MUL OR SWAP1 SSTORE POP JUMPDEST POP POP JUMP JUMPDEST PUSH1 0x1 PUSH1 0x20 MSTORE DUP1 PUSH1 0x0 MSTORE PUSH1 0x40 PUSH1 0x0 KECCAK256 PUSH1 0x0 SWAP2 POP SWAP1 POP SLOAD DUP2 JUMP JUMPDEST PUSH1 0x3 DUP2 JUMP JUMPDEST PUSH1 0x3 PUSH1 0x0 CALLER PUSH20 0xFFFFFFFFFFFFFFFFFFFFFFFFFFFFFFFFFFFFFFFF AND PUSH20 0xFFFFFFFFFFFFFFFFFFFFFFFFFFFFFFFFFFFFFFFF AND DUP2 MSTORE PUSH1 0x20 ADD SWAP1 DUP2 MSTORE PUSH1 0x20 ADD PUSH1 0x0 KECCAK256 PUSH1 0x0 SWAP1 SLOAD SWAP1 PUSH2 0x100 EXP SWAP1 DIV PUSH1 0xFF AND PUSH2 0x58C JUMPI PUSH1 0x40 MLOAD PUSH32 0x8C379A000000000000000000000000000000000000000000000000000000000 DUP2 MSTORE PUSH1 0x4 ADD PUSH2 0x583 SWAP1 PUSH2 0xFCC JUMP JUMPDEST PUSH1 0x40 MLOAD DUP1 SWAP2 SUB SWAP1 REVERT JUMPDEST PUSH1 0x0 ISZERO ISZERO PUSH1 0x4 PUSH1 0x0 DUP4 PUSH20 0xFFFFFFFFFFFFFFFFFFFFFFFFFFFFFFFFFFFFFFFF AND PUSH20 0xFFFFFFFFFFFFFFFFFFFFFFFFFFFFFFFFFFFFFFFF AND DUP2 MSTORE PUSH1 0x20 ADD SWAP1 DUP2 MSTORE PUSH1 0x20 ADD PUSH1 0x0 KECCAK256 PUSH1 0x0 CALLER PUSH20 0xFFFFFFFFFFFFFFFFFFFFFFFFFFFFFFFFFFFFFFFF AND PUSH20 0xFFFFFFFFFFFFFFFFFFFFFFFFFFFFFFFFFFFFFFFF AND DUP2 MSTORE PUSH1 0x20 ADD SWAP1 DUP2 MSTORE PUSH1 0x20 ADD PUSH1 0x0 KECCAK256 PUSH1 0x0 SWAP1 SLOAD SWAP1 PUSH2 0x100 EXP SWAP1 DIV PUSH1 0xFF AND ISZERO ISZERO EQ PUSH2 0x65C JUMPI PUSH1 0x40 MLOAD PUSH32 0x8C379A000000000000000000000000000000000000000000000000000000000 DUP2 MSTORE PUSH1 0x4 ADD PUSH2 0x653 SWAP1 PUSH2 0x1038 JUMP JUMPDEST PUSH1 0x40 MLOAD DUP1 SWAP2 SUB SWAP1 REVERT JUMPDEST PUSH1 0x5 PUSH1 0x0 SWAP1 SLOAD SWAP1 PUSH2 0x100 EXP SWAP1 DIV PUSH20 0xFFFFFFFFFFFFFFFFFFFFFFFFFFFFFFFFFFFFFFFF AND PUSH20 0xFFFFFFFFFFFFFFFFFFFFFFFFFFFFFFFFFFFFFFFF AND DUP2 PUSH20 0xFFFFFFFFFFFFFFFFFFFFFFFFFFFFFFFFFFFFFFFF AND EQ PUSH2 0x6FB JUMPI DUP1 PUSH1 0x5 PUSH1 0x0 PUSH2 0x100 EXP DUP2 SLOAD DUP2 PUSH20 0xFFFFFFFFFFFFFFFFFFFFFFFFFFFFFFFFFFFFFFFF MUL NOT AND SWAP1 DUP4 PUSH20 0xFFFFFFFFFFFFFFFFFFFFFFFFFFFFFFFFFFFFFFFF AND MUL OR SWAP1 SSTORE POP PUSH1 0x0 PUSH1 0x6 DUP2 SWAP1 SSTORE POP JUMPDEST PUSH1 0x6 PUSH1 0x0 DUP2 SLOAD DUP1 SWAP3 SWAP2 SWAP1 PUSH2 0x70E SWAP1 PUSH2 0x1087 JUMP JUMPDEST SWAP2 SWAP1 POP SSTORE POP PUSH1 0x3 PUSH1 0x6 SLOAD LT PUSH2 0x7C2 JUMPI PUSH1 0x5 PUSH1 0x0 SWAP1 SLOAD SWAP1 PUSH2 0x100 EXP SWAP1 DIV PUSH20 0xFFFFFFFFFFFFFFFFFFFFFFFFFFFFFFFFFFFFFFFF AND PUSH1 0x0 DUP1 PUSH2 0x100 EXP DUP2 SLOAD DUP2 PUSH20 0xFFFFFFFFFFFFFFFFFFFFFFFFFFFFFFFFFFFFFFFF MUL NOT AND SWAP1 DUP4 PUSH20 0xFFFFFFFFFFFFFFFFFFFFFFFFFFFFFFFFFFFFFFFF AND MUL OR SWAP1 SSTORE POP PUSH1 0x0 PUSH1 0x5 PUSH1 0x0 PUSH2 0x100 EXP DUP2 SLOAD DUP2 PUSH20 0xFFFFFFFFFFFFFFFFFFFFFFFFFFFFFFFFFFFFFFFF MUL NOT AND SWAP1 DUP4 PUSH20 0xFFFFFFFFFFFFFFFFFFFFFFFFFFFFFFFFFFFFFFFF AND MUL OR SWAP1 SSTORE POP JUMPDEST POP JUMP JUMPDEST PUSH1 0x60 PUSH1 0x0 DUP1 SLOAD SWAP1 PUSH2 0x100 EXP SWAP1 DIV PUSH20 0xFFFFFFFFFFFFFFFFFFFFFFFFFFFFFFFFFFFFFFFF AND PUSH20 0xFFFFFFFFFFFFFFFFFFFFFFFFFFFFFFFFFFFFFFFF AND CALLER PUSH20 0xFFFFFFFFFFFFFFFFFFFFFFFFFFFFFFFFFFFFFFFF AND EQ PUSH2 0x97F JUMPI PUSH1 0x2 PUSH1 0x0 CALLER PUSH20 0xFFFFFFFFFFFFFFFFFFFFFFFFFFFFFFFFFFFFFFFF AND PUSH20 0xFFFFFFFFFFFFFFFFFFFFFFFFFFFFFFFFFFFFFFFF AND DUP2 MSTORE PUSH1 0x20 ADD SWAP1 DUP2 MSTORE PUSH1 0x20 ADD PUSH1 0x0 KECCAK256 PUSH1 0x0 SWAP1 SLOAD SWAP1 PUSH2 0x100 EXP SWAP1 DIV PUSH1 0xFF AND PUSH2 0x8A6 JUMPI PUSH1 0x40 MLOAD PUSH32 0x8C379A000000000000000000000000000000000000000000000000000000000 DUP2 MSTORE PUSH1 0x4 ADD PUSH2 0x89D SWAP1 PUSH2 0x1167 JUMP JUMPDEST PUSH1 0x40 MLOAD DUP1 SWAP2 SUB SWAP1 REVERT JUMPDEST DUP3 PUSH1 0x1 PUSH1 0x0 CALLER PUSH20 0xFFFFFFFFFFFFFFFFFFFFFFFFFFFFFFFFFFFFFFFF AND PUSH20 0xFFFFFFFFFFFFFFFFFFFFFFFFFFFFFFFFFFFFFFFF AND DUP2 MSTORE PUSH1 0x20 ADD SWAP1 DUP2 MSTORE PUSH1 0x20 ADD PUSH1 0x0 KECCAK256 SLOAD LT ISZERO PUSH2 0x928 JUMPI PUSH1 0x40 MLOAD PUSH32 0x8C379A000000000000000000000000000000000000000000000000000000000 DUP2 MSTORE PUSH1 0x4 ADD PUSH2 0x91F SWAP1 PUSH2 0x11F9 JUMP JUMPDEST PUSH1 0x40 MLOAD DUP1 SWAP2 SUB SWAP1 REVERT JUMPDEST DUP3 PUSH1 0x1 PUSH1 0x0 CALLER PUSH20 0xFFFFFFFFFFFFFFFFFFFFFFFFFFFFFFFFFFFFFFFF AND PUSH20 0xFFFFFFFFFFFFFFFFFFFFFFFFFFFFFFFFFFFFFFFF AND DUP2 MSTORE PUSH1 0x20 ADD SWAP1 DUP2 MSTORE PUSH1 0x20 ADD PUSH1 0x0 KECCAK256 PUSH1 0x0 DUP3 DUP3 SLOAD PUSH2 0x977 SWAP2 SWAP1 PUSH2 0x1219 JUMP JUMPDEST SWAP3 POP POP DUP2 SWAP1 SSTORE POP JUMPDEST PUSH1 0x0 DUP1 DUP6 PUSH20 0xFFFFFFFFFFFFFFFFFFFFFFFFFFFFFFFFFFFFFFFF AND DUP6 DUP6 PUSH1 0x40 MLOAD PUSH2 0x9A8 SWAP2 SWAP1 PUSH2 0x1289 JUMP JUMPDEST PUSH1 0x0 PUSH1 0x40 MLOAD DUP1 DUP4 SUB DUP2 DUP6 DUP8 GAS CALL SWAP3 POP POP POP RETURNDATASIZE DUP1 PUSH1 0x0 DUP2 EQ PUSH2 0x9E5 JUMPI PUSH1 0x40 MLOAD SWAP2 POP PUSH1 0x1F NOT PUSH1 0x3F RETURNDATASIZE ADD AND DUP3 ADD PUSH1 0x40 MSTORE RETURNDATASIZE DUP3 MSTORE RETURNDATASIZE PUSH1 0x0 PUSH1 0x20 DUP5 ADD RETURNDATACOPY PUSH2 0x9EA JUMP JUMPDEST PUSH1 0x60 SWAP2 POP JUMPDEST POP SWAP2 POP SWAP2 POP DUP2 PUSH2 0xA2F JUMPI PUSH1 0x40 MLOAD PUSH32 0x8C379A000000000000000000000000000000000000000000000000000000000 DUP2 MSTORE PUSH1 0x4 ADD PUSH2 0xA26 SWAP1 PUSH2 0x1312 JUMP JUMPDEST PUSH1 0x40 MLOAD DUP1 SWAP2 SUB SWAP1 REVERT JUMPDEST DUP1 SWAP3 POP POP POP SWAP4 SWAP3 POP POP POP JUMP JUMPDEST PUSH1 0x0 PUSH1 0x40 MLOAD SWAP1 POP SWAP1 JUMP JUMPDEST PUSH1 0x0 DUP1 REVERT JUMPDEST PUSH1 0x0 DUP1 REVERT JUMPDEST PUSH1 0x0 PUSH20 0xFFFFFFFFFFFFFFFFFFFFFFFFFFFFFFFFFFFFFFFF DUP3 AND SWAP1 POP SWAP2 SWAP1 POP JUMP JUMPDEST PUSH1 0x0 PUSH2 0xA7A DUP3 PUSH2 0xA4F JUMP JUMPDEST SWAP1 POP SWAP2 SWAP1 POP JUMP JUMPDEST PUSH2 0xA8A DUP2 PUSH2 0xA6F JUMP JUMPDEST DUP2 EQ PUSH2 0xA95 JUMPI PUSH1 0x0 DUP1 REVERT JUMPDEST POP JUMP JUMPDEST PUSH1 0x0 DUP2 CALLDATALOAD SWAP1 POP PUSH2 0xAA7 DUP2 PUSH2 0xA81 JUMP JUMPDEST SWAP3 SWAP2 POP POP JUMP JUMPDEST PUSH1 0x0 PUSH1 0x20 DUP3 DUP5 SUB SLT ISZERO PUSH2 0xAC3 JUMPI PUSH2 0xAC2 PUSH2 0xA45 JUMP JUMPDEST JUMPDEST PUSH1 0x0 PUSH2 0xAD1 DUP5 DUP3 DUP6 ADD PUSH2 0xA98 JUMP JUMPDEST SWAP2 POP POP SWAP3 SWAP2 POP POP JUMP JUMPDEST PUSH1 0x0 DUP2 ISZERO ISZERO SWAP1 POP SWAP2 SWAP1 POP JUMP JUMPDEST PUSH2 0xAEF DUP2 PUSH2 0xADA JUMP JUMPDEST DUP3 MSTORE POP POP JUMP JUMPDEST PUSH1 0x0 PUSH1 0x20 DUP3 ADD SWAP1 POP PUSH2 0xB0A PUSH1 0x0 DUP4 ADD DUP5 PUSH2 0xAE6 JUMP JUMPDEST SWAP3 SWAP2 POP POP JUMP JUMPDEST PUSH2 0xB19 DUP2 PUSH2 0xADA JUMP JUMPDEST DUP2 EQ PUSH2 0xB24 JUMPI PUSH1 0x0 DUP1 REVERT JUMPDEST POP JUMP JUMPDEST PUSH1 0x0 DUP2 CALLDATALOAD SWAP1 POP PUSH2 0xB36 DUP2 PUSH2 0xB10 JUMP JUMPDEST SWAP3 SWAP2 POP POP JUMP JUMPDEST PUSH1 0x0 DUP1 PUSH1 0x40 DUP4 DUP6 SUB SLT ISZERO PUSH2 0xB53 JUMPI PUSH2 0xB52 PUSH2 0xA45 JUMP JUMPDEST JUMPDEST PUSH1 0x0 PUSH2 0xB61 DUP6 DUP3 DUP7 ADD PUSH2 0xA98 JUMP JUMPDEST SWAP3 POP POP PUSH1 0x20 PUSH2 0xB72 DUP6 DUP3 DUP7 ADD PUSH2 0xB27 JUMP JUMPDEST SWAP2 POP POP SWAP3 POP SWAP3 SWAP1 POP JUMP JUMPDEST PUSH1 0x0 DUP2 SWAP1 POP SWAP2 SWAP1 POP JUMP JUMPDEST PUSH2 0xB8F DUP2 PUSH2 0xB7C JUMP JUMPDEST DUP2 EQ PUSH2 0xB9A JUMPI PUSH1 0x0 DUP1 REVERT JUMPDEST POP JUMP JUMPDEST PUSH1 0x0 DUP2 CALLDATALOAD SWAP1 POP PUSH2 0xBAC DUP2 PUSH2 0xB86 JUMP JUMPDEST SWAP3 SWAP2 POP POP JUMP JUMPDEST PUSH1 0x0 DUP1 PUSH1 0x40 DUP4 DUP6 SUB SLT ISZERO PUSH2 0xBC9 JUMPI PUSH2 0xBC8 PUSH2 0xA45 JUMP JUMPDEST JUMPDEST PUSH1 0x0 PUSH2 0xBD7 DUP6 DUP3 DUP7 ADD PUSH2 0xA98 JUMP JUMPDEST SWAP3 POP POP PUSH1 0x20 PUSH2 0xBE8 DUP6 DUP3 DUP7 ADD PUSH2 0xB9D JUMP JUMPDEST SWAP2 POP POP SWAP3 POP SWAP3 SWAP1 POP JUMP JUMPDEST PUSH2 0xBFB DUP2 PUSH2 0xB7C JUMP JUMPDEST DUP3 MSTORE POP POP JUMP JUMPDEST PUSH1 0x0 PUSH1 0x20 DUP3 ADD SWAP1 POP PUSH2 0xC16 PUSH1 0x0 DUP4 ADD DUP5 PUSH2 0xBF2 JUMP JUMPDEST SWAP3 SWAP2 POP POP JUMP JUMPDEST PUSH1 0x0 PUSH2 0xC27 DUP3 PUSH2 0xA4F JUMP JUMPDEST SWAP1 POP SWAP2 SWAP1 POP JUMP JUMPDEST PUSH2 0xC37 DUP2 PUSH2 0xC1C JUMP JUMPDEST DUP2 EQ PUSH2 0xC42 JUMPI PUSH1 0x0 DUP1 REVERT JUMPDEST POP JUMP JUMPDEST PUSH1 0x0 DUP2 CALLDATALOAD SWAP1 POP PUSH2 0xC54 DUP2 PUSH2 0xC2E JUMP JUMPDEST SWAP3 SWAP2 POP POP JUMP JUMPDEST PUSH1 0x0 PUSH1 0x20 DUP3 DUP5 SUB SLT ISZERO PUSH2 0xC70 JUMPI PUSH2 0xC6F PUSH2 0xA45 JUMP JUMPDEST JUMPDEST PUSH1 0x0 PUSH2 0xC7E DUP5 DUP3 DUP6 ADD PUSH2 0xC45 JUMP JUMPDEST SWAP2 POP POP SWAP3 SWAP2 POP POP JUMP JUMPDEST PUSH1 0x0 DUP1 REVERT JUMPDEST PUSH1 0x0 DUP1 REVERT JUMPDEST PUSH1 0x0 PUSH1 0x1F NOT PUSH1 0x1F DUP4 ADD AND SWAP1 POP SWAP2 SWAP1 POP JUMP JUMPDEST PUSH32 0x4E487B7100000000000000000000000000000000000000000000000000000000 PUSH1 0x0 MSTORE PUSH1 0x41 PUSH1 0x4 MSTORE PUSH1 0x24 PUSH1 0x0 REVERT JUMPDEST PUSH2 0xCDA DUP3 PUSH2 0xC91 JUMP JUMPDEST DUP2 ADD DUP2 DUP2 LT PUSH8 0xFFFFFFFFFFFFFFFF DUP3 GT OR ISZERO PUSH2 0xCF9 JUMPI PUSH2 0xCF8 PUSH2 0xCA2 JUMP JUMPDEST JUMPDEST DUP1 PUSH1 0x40 MSTORE POP POP POP JUMP JUMPDEST PUSH1 0x0 PUSH2 0xD0C PUSH2 0xA3B JUMP JUMPDEST SWAP1 POP PUSH2 0xD18 DUP3 DUP3 PUSH2 0xCD1 JUMP JUMPDEST SWAP2 SWAP1 POP JUMP JUMPDEST PUSH1 0x0 PUSH8 0xFFFFFFFFFFFFFFFF DUP3 GT ISZERO PUSH2 0xD38 JUMPI PUSH2 0xD37 PUSH2 0xCA2 JUMP JUMPDEST JUMPDEST PUSH2 0xD41 DUP3 PUSH2 0xC91 JUMP JUMPDEST SWAP1 POP PUSH1 0x20 DUP2 ADD SWAP1 POP SWAP2 SWAP1 POP JUMP JUMPDEST DUP3 DUP2 DUP4 CALLDATACOPY PUSH1 0x0 DUP4 DUP4 ADD MSTORE POP POP POP JUMP JUMPDEST PUSH1 0x0 PUSH2 0xD70 PUSH2 0xD6B DUP5 PUSH2 0xD1D JUMP JUMPDEST PUSH2 0xD02 JUMP JUMPDEST SWAP1 POP DUP3 DUP2 MSTORE PUSH1 0x20 DUP2 ADD DUP5 DUP5 DUP5 ADD GT ISZERO PUSH2 0xD8C JUMPI PUSH2 0xD8B PUSH2 0xC8C JUMP JUMPDEST JUMPDEST PUSH2 0xD97 DUP5 DUP3 DUP6 PUSH2 0xD4E JUMP JUMPDEST POP SWAP4 SWAP3 POP POP POP JUMP JUMPDEST PUSH1 0x0 DUP3 PUSH1 0x1F DUP4 ADD SLT PUSH2 0xDB4 JUMPI PUSH2 0xDB3 PUSH2 0xC87 JUMP JUMPDEST JUMPDEST DUP2 CALLDATALOAD PUSH2 0xDC4 DUP5 DUP3 PUSH1 0x20 DUP7 ADD PUSH2 0xD5D JUMP JUMPDEST SWAP2 POP POP SWAP3 SWAP2 POP POP JUMP JUMPDEST PUSH1 0x0 DUP1 PUSH1 0x0 PUSH1 0x60 DUP5 DUP7 SUB SLT ISZERO PUSH2 0xDE6 JUMPI PUSH2 0xDE5 PUSH2 0xA45 JUMP JUMPDEST JUMPDEST PUSH1 0x0 PUSH2 0xDF4 DUP7 DUP3 DUP8 ADD PUSH2 0xC45 JUMP JUMPDEST SWAP4 POP POP PUSH1 0x20 PUSH2 0xE05 DUP7 DUP3 DUP8 ADD PUSH2 0xB9D JUMP JUMPDEST SWAP3 POP POP PUSH1 0x40 DUP5 ADD CALLDATALOAD PUSH8 0xFFFFFFFFFFFFFFFF DUP2 GT ISZERO PUSH2 0xE26 JUMPI PUSH2 0xE25 PUSH2 0xA4A JUMP JUMPDEST JUMPDEST PUSH2 0xE32 DUP7 DUP3 DUP8 ADD PUSH2 0xD9F JUMP JUMPDEST SWAP2 POP POP SWAP3 POP SWAP3 POP SWAP3 JUMP JUMPDEST PUSH1 0x0 DUP2 MLOAD SWAP1 POP SWAP2 SWAP1 POP JUMP JUMPDEST PUSH1 0x0 DUP3 DUP3 MSTORE PUSH1 0x20 DUP3 ADD SWAP1 POP SWAP3 SWAP2 POP POP JUMP JUMPDEST PUSH1 0x0 JUMPDEST DUP4 DUP2 LT ISZERO PUSH2 0xE76 JUMPI DUP1 DUP3 ADD MLOAD DUP2 DUP5 ADD MSTORE PUSH1 0x20 DUP2 ADD SWAP1 POP PUSH2 0xE5B JUMP JUMPDEST PUSH1 0x0 DUP5 DUP5 ADD MSTORE POP POP POP POP JUMP JUMPDEST PUSH1 0x0 PUSH2 0xE8D DUP3 PUSH2 0xE3C JUMP JUMPDEST PUSH2 0xE97 DUP2 DUP6 PUSH2 0xE47 JUMP JUMPDEST SWAP4 POP PUSH2 0xEA7 DUP2 DUP6 PUSH1 0x20 DUP7 ADD PUSH2 0xE58 JUMP JUMPDEST PUSH2 0xEB0 DUP2 PUSH2 0xC91 JUMP JUMPDEST DUP5 ADD SWAP2 POP POP SWAP3 SWAP2 POP POP JUMP JUMPDEST PUSH1 0x0 PUSH1 0x20 DUP3 ADD SWAP1 POP DUP2 DUP2 SUB PUSH1 0x0 DUP4 ADD MSTORE PUSH2 0xED5 DUP2 DUP5 PUSH2 0xE82 JUMP JUMPDEST SWAP1 POP SWAP3 SWAP2 POP POP JUMP JUMPDEST PUSH1 0x0 DUP3 DUP3 MSTORE PUSH1 0x20 DUP3 ADD SWAP1 POP SWAP3 SWAP2 POP POP JUMP JUMPDEST PUSH32 0x596F7520617265206E6F7420746865206F776E65722C2061626F7274696E672E PUSH1 0x0 DUP3 ADD MSTORE POP JUMP JUMPDEST PUSH1 0x0 PUSH2 0xF24 PUSH1 0x20 DUP4 PUSH2 0xEDD JUMP JUMPDEST SWAP2 POP PUSH2 0xF2F DUP3 PUSH2 0xEEE JUMP JUMPDEST PUSH1 0x20 DUP3 ADD SWAP1 POP SWAP2 SWAP1 POP JUMP JUMPDEST PUSH1 0x0 PUSH1 0x20 DUP3 ADD SWAP1 POP DUP2 DUP2 SUB PUSH1 0x0 DUP4 ADD MSTORE PUSH2 0xF53 DUP2 PUSH2 0xF17 JUMP JUMPDEST SWAP1 POP SWAP2 SWAP1 POP JUMP JUMPDEST PUSH32 0x496E76616C696420677561726469616E20666F7220746869732077616C6C6572 PUSH1 0x0 DUP3 ADD MSTORE PUSH32 0x2C2061626F7274696E672E000000000000000000000000000000000000000000 PUSH1 0x20 DUP3 ADD MSTORE POP JUMP JUMPDEST PUSH1 0x0 PUSH2 0xFB6 PUSH1 0x2B DUP4 PUSH2 0xEDD JUMP JUMPDEST SWAP2 POP PUSH2 0xFC1 DUP3 PUSH2 0xF5A JUMP JUMPDEST PUSH1 0x40 DUP3 ADD SWAP1 POP SWAP2 SWAP1 POP JUMP JUMPDEST PUSH1 0x0 PUSH1 0x20 DUP3 ADD SWAP1 POP DUP2 DUP2 SUB PUSH1 0x0 DUP4 ADD MSTORE PUSH2 0xFE5 DUP2 PUSH2 0xFA9 JUMP JUMPDEST SWAP1 POP SWAP2 SWAP1 POP JUMP JUMPDEST PUSH32 0x596F75206861766520616C726561647920766F7465642E000000000000000000 PUSH1 0x0 DUP3 ADD MSTORE POP JUMP JUMPDEST PUSH1 0x0 PUSH2 0x1022 PUSH1 0x17 DUP4 PUSH2 0xEDD JUMP JUMPDEST SWAP2 POP PUSH2 0x102D DUP3 PUSH2 0xFEC JUMP JUMPDEST PUSH1 0x20 DUP3 ADD SWAP1 POP SWAP2 SWAP1 POP JUMP JUMPDEST PUSH1 0x0 PUSH1 0x20 DUP3 ADD SWAP1 POP DUP2 DUP2 SUB PUSH1 0x0 DUP4 ADD MSTORE PUSH2 0x1051 DUP2 PUSH2 0x1015 JUMP JUMPDEST SWAP1 POP SWAP2 SWAP1 POP JUMP JUMPDEST PUSH32 0x4E487B7100000000000000000000000000000000000000000000000000000000 PUSH1 0x0 MSTORE PUSH1 0x11 PUSH1 0x4 MSTORE PUSH1 0x24 PUSH1 0x0 REVERT JUMPDEST PUSH1 0x0 PUSH2 0x1092 DUP3 PUSH2 0xB7C JUMP JUMPDEST SWAP2 POP PUSH32 0xFFFFFFFFFFFFFFFFFFFFFFFFFFFFFFFFFFFFFFFFFFFFFFFFFFFFFFFFFFFFFFFF DUP3 SUB PUSH2 0x10C4 JUMPI PUSH2 0x10C3 PUSH2 0x1058 JUMP JUMPDEST JUMPDEST PUSH1 0x1 DUP3 ADD SWAP1 POP SWAP2 SWAP1 POP JUMP JUMPDEST PUSH32 0x596F7520617265206E6F74207065726D697474656420746F2070726F63657373 PUSH1 0x0 DUP3 ADD MSTORE PUSH32 0x207472616E73616374696F6E732066726F6D207468697320636F6E7472616374 PUSH1 0x20 DUP3 ADD MSTORE PUSH32 0x2E00000000000000000000000000000000000000000000000000000000000000 PUSH1 0x40 DUP3 ADD MSTORE POP JUMP JUMPDEST PUSH1 0x0 PUSH2 0x1151 PUSH1 0x41 DUP4 PUSH2 0xEDD JUMP JUMPDEST SWAP2 POP PUSH2 0x115C DUP3 PUSH2 0x10CF JUMP JUMPDEST PUSH1 0x60 DUP3 ADD SWAP1 POP SWAP2 SWAP1 POP JUMP JUMPDEST PUSH1 0x0 PUSH1 0x20 DUP3 ADD SWAP1 POP DUP2 DUP2 SUB PUSH1 0x0 DUP4 ADD MSTORE PUSH2 0x1180 DUP2 PUSH2 0x1144 JUMP JUMPDEST SWAP1 POP SWAP2 SWAP1 POP JUMP JUMPDEST PUSH32 0x596F752061726520747972696E6720746F2073656E64206D6F7265207468616E PUSH1 0x0 DUP3 ADD MSTORE PUSH32 0x20796F752061726520616C6C6F77656420746F2C2061626F7274696E672E0000 PUSH1 0x20 DUP3 ADD MSTORE POP JUMP JUMPDEST PUSH1 0x0 PUSH2 0x11E3 PUSH1 0x3E DUP4 PUSH2 0xEDD JUMP JUMPDEST SWAP2 POP PUSH2 0x11EE DUP3 PUSH2 0x1187 JUMP JUMPDEST PUSH1 0x40 DUP3 ADD SWAP1 POP SWAP2 SWAP1 POP JUMP JUMPDEST PUSH1 0x0 PUSH1 0x20 DUP3 ADD SWAP1 POP DUP2 DUP2 SUB PUSH1 0x0 DUP4 ADD MSTORE PUSH2 0x1212 DUP2 PUSH2 0x11D6 JUMP JUMPDEST SWAP1 POP SWAP2 SWAP1 POP JUMP JUMPDEST PUSH1 0x0 PUSH2 0x1224 DUP3 PUSH2 0xB7C JUMP JUMPDEST SWAP2 POP PUSH2 0x122F DUP4 PUSH2 0xB7C JUMP JUMPDEST SWAP3 POP DUP3 DUP3 SUB SWAP1 POP DUP2 DUP2 GT ISZERO PUSH2 0x1247 JUMPI PUSH2 0x1246 PUSH2 0x1058 JUMP JUMPDEST JUMPDEST SWAP3 SWAP2 POP POP JUMP JUMPDEST PUSH1 0x0 DUP2 SWAP1 POP SWAP3 SWAP2 POP POP JUMP JUMPDEST PUSH1 0x0 PUSH2 0x1263 DUP3 PUSH2 0xE3C JUMP JUMPDEST PUSH2 0x126D DUP2 DUP6 PUSH2 0x124D JUMP JUMPDEST SWAP4 POP PUSH2 0x127D DUP2 DUP6 PUSH1 0x20 DUP7 ADD PUSH2 0xE58 JUMP JUMPDEST DUP1 DUP5 ADD SWAP2 POP POP SWAP3 SWAP2 POP POP JUMP JUMPDEST PUSH1 0x0 PUSH2 0x1295 DUP3 DUP5 PUSH2 0x1258 JUMP JUMPDEST SWAP2 POP DUP2 SWAP1 POP SWAP3 SWAP2 POP POP JUMP JUMPDEST PUSH32 0x41626F7274696E672063616C6C20776173206E6F74207375636365737366756C PUSH1 0x0 DUP3 ADD MSTORE PUSH32 0x2E00000000000000000000000000000000000000000000000000000000000000 PUSH1 0x20 DUP3 ADD MSTORE POP JUMP JUMPDEST PUSH1 0x0 PUSH2 0x12FC PUSH1 0x21 DUP4 PUSH2 0xEDD JUMP JUMPDEST SWAP2 POP PUSH2 0x1307 DUP3 PUSH2 0x12A0 JUMP JUMPDEST PUSH1 0x40 DUP3 ADD SWAP1 POP SWAP2 SWAP1 POP JUMP JUMPDEST PUSH1 0x0 PUSH1 0x20 DUP3 ADD SWAP1 POP DUP2 DUP2 SUB PUSH1 0x0 DUP4 ADD MSTORE PUSH2 0x132B DUP2 PUSH2 0x12EF JUMP JUMPDEST SWAP1 POP SWAP2 SWAP1 POP JUMP INVALID LOG2 PUSH5 0x6970667358 0x22 SLT KECCAK256 0xE8 ORIGIN GT 0xAD 0xDD 0xCD 0xE 0xE9 NUMBER 0xD7 0xC6 0xD7 0xAA DUP1 0x1F 0xDB SWAP9 0x26 PUSH16 0x959D1B5F746BD68CF941A699C664736F PUSH13 0x63430008110033000000000000 "
				},
				"gasEstimates": {
					"creation": {
						"codeDepositCost": "993600",
						"executionCost": "25300",
						"totalCost": "1018900"
					},
					"external": {
						"allowance(address)": "2814",
						"confirmationsFromGuardiansForReset()": "351",
						"guardians(address)": "2846",
						"isAllowedToSend(address)": "2868",
						"proposeNewOwner(address)": "63023",
						"setAllowance(address,uint256)": "49459",
						"setGuardian(address,bool)": "27203",
						"transfer(address,uint256,bytes)": "infinite"
					}
				},
				"methodIdentifiers": {
					"allowance(address)": "3e5beab9",
					"confirmationsFromGuardiansForReset()": "83012be1",
					"guardians(address)": "0633b14a",
					"isAllowedToSend(address)": "0bc605ad",
					"proposeNewOwner(address)": "b1f8100d",
					"setAllowance(address,uint256)": "310ec4a7",
					"setGuardian(address,bool)": "2b8a1c5a",
					"transfer(address,uint256,bytes)": "be45fd62"
				}
			},
			"storageLayout": {
				"storage": [
					{
						"astId": 3,
						"contract": "contracts/SmartContractWallet.sol:SmartContractWallet",
						"label": "owner",
						"offset": 0,
						"slot": "0",
						"type": "t_address_payable"
					},
					{
						"astId": 7,
						"contract": "contracts/SmartContractWallet.sol:SmartContractWallet",
						"label": "allowance",
						"offset": 0,
						"slot": "1",
						"type": "t_mapping(t_address,t_uint256)"
					},
					{
						"astId": 11,
						"contract": "contracts/SmartContractWallet.sol:SmartContractWallet",
						"label": "isAllowedToSend",
						"offset": 0,
						"slot": "2",
						"type": "t_mapping(t_address,t_bool)"
					},
					{
						"astId": 15,
						"contract": "contracts/SmartContractWallet.sol:SmartContractWallet",
						"label": "guardians",
						"offset": 0,
						"slot": "3",
						"type": "t_mapping(t_address,t_bool)"
					},
					{
						"astId": 21,
						"contract": "contracts/SmartContractWallet.sol:SmartContractWallet",
						"label": "nextOwnerGuardianVoted",
						"offset": 0,
						"slot": "4",
						"type": "t_mapping(t_address,t_mapping(t_address,t_bool))"
					},
					{
						"astId": 23,
						"contract": "contracts/SmartContractWallet.sol:SmartContractWallet",
						"label": "nextOwner",
						"offset": 0,
						"slot": "5",
						"type": "t_address_payable"
					},
					{
						"astId": 25,
						"contract": "contracts/SmartContractWallet.sol:SmartContractWallet",
						"label": "guardiansResetCount",
						"offset": 0,
						"slot": "6",
						"type": "t_uint256"
					}
				],
				"types": {
					"t_address": {
						"encoding": "inplace",
						"label": "address",
						"numberOfBytes": "20"
					},
					"t_address_payable": {
						"encoding": "inplace",
						"label": "address payable",
						"numberOfBytes": "20"
					},
					"t_bool": {
						"encoding": "inplace",
						"label": "bool",
						"numberOfBytes": "1"
					},
					"t_mapping(t_address,t_bool)": {
						"encoding": "mapping",
						"key": "t_address",
						"label": "mapping(address => bool)",
						"numberOfBytes": "32",
						"value": "t_bool"
					},
					"t_mapping(t_address,t_mapping(t_address,t_bool))": {
						"encoding": "mapping",
						"key": "t_address",
						"label": "mapping(address => mapping(address => bool))",
						"numberOfBytes": "32",
						"value": "t_mapping(t_address,t_bool)"
					},
					"t_mapping(t_address,t_uint256)": {
						"encoding": "mapping",
						"key": "t_address",
						"label": "mapping(address => uint256)",
						"numberOfBytes": "32",
						"value": "t_uint256"
					},
					"t_uint256": {
						"encoding": "inplace",
						"label": "uint256",
						"numberOfBytes": "32"
					}
				}
			},
			"userdoc": {
				"kind": "user",
				"methods": {},
				"version": 1
			}
		}
	}
}