{
	"contracts/SmartContractWallet.sol": {
		"SmartContractWallet": {
			"abi": [
				{
					"inputs": [],
					"stateMutability": "nonpayable",
					"type": "constructor"
				},
				{
					"inputs": [
						{
							"internalType": "address",
							"name": "",
							"type": "address"
						}
					],
					"name": "allowance",
					"outputs": [
						{
							"internalType": "uint256",
							"name": "",
							"type": "uint256"
						}
					],
					"stateMutability": "view",
					"type": "function"
				},
				{
					"inputs": [
						{
							"internalType": "address",
							"name": "",
							"type": "address"
						}
					],
					"name": "guardians",
					"outputs": [
						{
							"internalType": "bool",
							"name": "",
							"type": "bool"
						}
					],
					"stateMutability": "view",
					"type": "function"
				},
				{
					"inputs": [
						{
							"internalType": "address",
							"name": "",
							"type": "address"
						}
					],
					"name": "isAllowedToSend",
					"outputs": [
						{
							"internalType": "bool",
							"name": "",
							"type": "bool"
						}
					],
					"stateMutability": "view",
					"type": "function"
				},
				{
					"inputs": [
						{
							"internalType": "address",
							"name": "_for",
							"type": "address"
						},
						{
							"internalType": "uint256",
							"name": "_amount",
							"type": "uint256"
						}
					],
					"name": "setAllowance",
					"outputs": [],
					"stateMutability": "nonpayable",
					"type": "function"
				},
				{
					"inputs": [
						{
							"internalType": "address",
							"name": "_guardian",
							"type": "address"
						},
						{
							"internalType": "bool",
							"name": "_isGuardian",
							"type": "bool"
						}
					],
					"name": "setGuardian",
					"outputs": [],
					"stateMutability": "nonpayable",
					"type": "function"
				},
				{
					"inputs": [
						{
							"internalType": "address payable",
							"name": "_to",
							"type": "address"
						},
						{
							"internalType": "uint256",
							"name": "_amount",
							"type": "uint256"
						},
						{
							"internalType": "bytes",
							"name": "_payload",
							"type": "bytes"
						}
					],
					"name": "transfer",
					"outputs": [
						{
							"internalType": "bytes",
							"name": "",
							"type": "bytes"
						}
					],
					"stateMutability": "nonpayable",
					"type": "function"
				},
				{
					"stateMutability": "payable",
					"type": "receive"
				}
			],
			"devdoc": {
				"kind": "dev",
				"methods": {},
				"version": 1
			},
			"evm": {
				"assembly": "    /* \"contracts/SmartContractWallet.sol\":109:1637  contract SmartContractWallet {... */\n  mstore(0x40, 0x80)\n    /* \"contracts/SmartContractWallet.sol\":358:418  constructor() {... */\n  callvalue\n  dup1\n  iszero\n  tag_1\n  jumpi\n  0x00\n  dup1\n  revert\ntag_1:\n  pop\n    /* \"contracts/SmartContractWallet.sol\":399:409  msg.sender */\n  caller\n    /* \"contracts/SmartContractWallet.sol\":383:388  owner */\n  0x00\n  dup1\n    /* \"contracts/SmartContractWallet.sol\":383:410  owner = payable(msg.sender) */\n  0x0100\n  exp\n  dup2\n  sload\n  dup2\n  0xffffffffffffffffffffffffffffffffffffffff\n  mul\n  not\n  and\n  swap1\n  dup4\n  0xffffffffffffffffffffffffffffffffffffffff\n  and\n  mul\n  or\n  swap1\n  sstore\n  pop\n    /* \"contracts/SmartContractWallet.sol\":109:1637  contract SmartContractWallet {... */\n  dataSize(sub_0)\n  dup1\n  dataOffset(sub_0)\n  0x00\n  codecopy\n  0x00\n  return\nstop\n\nsub_0: assembly {\n        /* \"contracts/SmartContractWallet.sol\":109:1637  contract SmartContractWallet {... */\n      mstore(0x40, 0x80)\n      jumpi(tag_1, lt(calldatasize, 0x04))\n      shr(0xe0, calldataload(0x00))\n      dup1\n      0x0633b14a\n      eq\n      tag_3\n      jumpi\n      dup1\n      0x0bc605ad\n      eq\n      tag_4\n      jumpi\n      dup1\n      0x2b8a1c5a\n      eq\n      tag_5\n      jumpi\n      dup1\n      0x310ec4a7\n      eq\n      tag_6\n      jumpi\n      dup1\n      0x3e5beab9\n      eq\n      tag_7\n      jumpi\n      dup1\n      0xbe45fd62\n      eq\n      tag_8\n      jumpi\n      jump(tag_2)\n    tag_1:\n      jumpi(tag_2, calldatasize)\n      stop\n    tag_2:\n      0x00\n      dup1\n      revert\n        /* \"contracts/SmartContractWallet.sol\":277:318  mapping(address => bool) public guardians */\n    tag_3:\n      callvalue\n      dup1\n      iszero\n      tag_11\n      jumpi\n      0x00\n      dup1\n      revert\n    tag_11:\n      pop\n      tag_12\n      0x04\n      dup1\n      calldatasize\n      sub\n      dup2\n      add\n      swap1\n      tag_13\n      swap2\n      swap1\n      tag_14\n      jump\t// in\n    tag_13:\n      tag_15\n      jump\t// in\n    tag_12:\n      mload(0x40)\n      tag_16\n      swap2\n      swap1\n      tag_17\n      jump\t// in\n    tag_16:\n      mload(0x40)\n      dup1\n      swap2\n      sub\n      swap1\n      return\n        /* \"contracts/SmartContractWallet.sol\":223:270  mapping(address => bool) public isAllowedToSend */\n    tag_4:\n      callvalue\n      dup1\n      iszero\n      tag_18\n      jumpi\n      0x00\n      dup1\n      revert\n    tag_18:\n      pop\n      tag_19\n      0x04\n      dup1\n      calldatasize\n      sub\n      dup2\n      add\n      swap1\n      tag_20\n      swap2\n      swap1\n      tag_14\n      jump\t// in\n    tag_20:\n      tag_21\n      jump\t// in\n    tag_19:\n      mload(0x40)\n      tag_22\n      swap2\n      swap1\n      tag_17\n      jump\t// in\n    tag_22:\n      mload(0x40)\n      dup1\n      swap2\n      sub\n      swap1\n      return\n        /* \"contracts/SmartContractWallet.sol\":426:619  function setGuardian(address _guardian, bool _isGuardian) public {... */\n    tag_5:\n      callvalue\n      dup1\n      iszero\n      tag_23\n      jumpi\n      0x00\n      dup1\n      revert\n    tag_23:\n      pop\n      tag_24\n      0x04\n      dup1\n      calldatasize\n      sub\n      dup2\n      add\n      swap1\n      tag_25\n      swap2\n      swap1\n      tag_26\n      jump\t// in\n    tag_25:\n      tag_27\n      jump\t// in\n    tag_24:\n      stop\n        /* \"contracts/SmartContractWallet.sol\":627:956  function setAllowance(address _for, uint _amount) public {... */\n    tag_6:\n      callvalue\n      dup1\n      iszero\n      tag_28\n      jumpi\n      0x00\n      dup1\n      revert\n    tag_28:\n      pop\n      tag_29\n      0x04\n      dup1\n      calldatasize\n      sub\n      dup2\n      add\n      swap1\n      tag_30\n      swap2\n      swap1\n      tag_31\n      jump\t// in\n    tag_30:\n      tag_32\n      jump\t// in\n    tag_29:\n      stop\n        /* \"contracts/SmartContractWallet.sol\":175:216  mapping(address => uint) public allowance */\n    tag_7:\n      callvalue\n      dup1\n      iszero\n      tag_33\n      jumpi\n      0x00\n      dup1\n      revert\n    tag_33:\n      pop\n      tag_34\n      0x04\n      dup1\n      calldatasize\n      sub\n      dup2\n      add\n      swap1\n      tag_35\n      swap2\n      swap1\n      tag_14\n      jump\t// in\n    tag_35:\n      tag_36\n      jump\t// in\n    tag_34:\n      mload(0x40)\n      tag_37\n      swap2\n      swap1\n      tag_38\n      jump\t// in\n    tag_37:\n      mload(0x40)\n      dup1\n      swap2\n      sub\n      swap1\n      return\n        /* \"contracts/SmartContractWallet.sol\":964:1597  function transfer(address payable _to, uint _amount, bytes memory _payload) public returns(bytes memory) {... */\n    tag_8:\n      callvalue\n      dup1\n      iszero\n      tag_39\n      jumpi\n      0x00\n      dup1\n      revert\n    tag_39:\n      pop\n      tag_40\n      0x04\n      dup1\n      calldatasize\n      sub\n      dup2\n      add\n      swap1\n      tag_41\n      swap2\n      swap1\n      tag_42\n      jump\t// in\n    tag_41:\n      tag_43\n      jump\t// in\n    tag_40:\n      mload(0x40)\n      tag_44\n      swap2\n      swap1\n      tag_45\n      jump\t// in\n    tag_44:\n      mload(0x40)\n      dup1\n      swap2\n      sub\n      swap1\n      return\n        /* \"contracts/SmartContractWallet.sol\":277:318  mapping(address => bool) public guardians */\n    tag_15:\n      mstore(0x20, 0x03)\n      dup1\n      0x00\n      mstore\n      keccak256(0x00, 0x40)\n      0x00\n      swap2\n      pop\n      sload\n      swap1\n      0x0100\n      exp\n      swap1\n      div\n      0xff\n      and\n      dup2\n      jump\t// out\n        /* \"contracts/SmartContractWallet.sol\":223:270  mapping(address => bool) public isAllowedToSend */\n    tag_21:\n      mstore(0x20, 0x02)\n      dup1\n      0x00\n      mstore\n      keccak256(0x00, 0x40)\n      0x00\n      swap2\n      pop\n      sload\n      swap1\n      0x0100\n      exp\n      swap1\n      div\n      0xff\n      and\n      dup2\n      jump\t// out\n        /* \"contracts/SmartContractWallet.sol\":426:619  function setGuardian(address _guardian, bool _isGuardian) public {... */\n    tag_27:\n        /* \"contracts/SmartContractWallet.sol\":524:529  owner */\n      0x00\n      dup1\n      sload\n      swap1\n      0x0100\n      exp\n      swap1\n      div\n      0xffffffffffffffffffffffffffffffffffffffff\n      and\n        /* \"contracts/SmartContractWallet.sol\":510:529  msg.sender == owner */\n      0xffffffffffffffffffffffffffffffffffffffff\n      and\n        /* \"contracts/SmartContractWallet.sol\":510:520  msg.sender */\n      caller\n        /* \"contracts/SmartContractWallet.sol\":510:529  msg.sender == owner */\n      0xffffffffffffffffffffffffffffffffffffffff\n      and\n      eq\n        /* \"contracts/SmartContractWallet.sol\":502:566  require(msg.sender == owner, \"You are not the owner, aborting.\") */\n      tag_47\n      jumpi\n      mload(0x40)\n      0x08c379a000000000000000000000000000000000000000000000000000000000\n      dup2\n      mstore\n      0x04\n      add\n      tag_48\n      swap1\n      tag_49\n      jump\t// in\n    tag_48:\n      mload(0x40)\n      dup1\n      swap2\n      sub\n      swap1\n      revert\n    tag_47:\n        /* \"contracts/SmartContractWallet.sol\":600:611  _isGuardian */\n      dup1\n        /* \"contracts/SmartContractWallet.sol\":577:586  guardians */\n      0x03\n        /* \"contracts/SmartContractWallet.sol\":577:597  guardians[_guardian] */\n      0x00\n        /* \"contracts/SmartContractWallet.sol\":587:596  _guardian */\n      dup5\n        /* \"contracts/SmartContractWallet.sol\":577:597  guardians[_guardian] */\n      0xffffffffffffffffffffffffffffffffffffffff\n      and\n      0xffffffffffffffffffffffffffffffffffffffff\n      and\n      dup2\n      mstore\n      0x20\n      add\n      swap1\n      dup2\n      mstore\n      0x20\n      add\n      0x00\n      keccak256\n      0x00\n        /* \"contracts/SmartContractWallet.sol\":577:611  guardians[_guardian] = _isGuardian */\n      0x0100\n      exp\n      dup2\n      sload\n      dup2\n      0xff\n      mul\n      not\n      and\n      swap1\n      dup4\n      iszero\n      iszero\n      mul\n      or\n      swap1\n      sstore\n      pop\n        /* \"contracts/SmartContractWallet.sol\":426:619  function setGuardian(address _guardian, bool _isGuardian) public {... */\n      pop\n      pop\n      jump\t// out\n        /* \"contracts/SmartContractWallet.sol\":627:956  function setAllowance(address _for, uint _amount) public {... */\n    tag_32:\n        /* \"contracts/SmartContractWallet.sol\":717:722  owner */\n      0x00\n      dup1\n      sload\n      swap1\n      0x0100\n      exp\n      swap1\n      div\n      0xffffffffffffffffffffffffffffffffffffffff\n      and\n        /* \"contracts/SmartContractWallet.sol\":703:722  msg.sender == owner */\n      0xffffffffffffffffffffffffffffffffffffffff\n      and\n        /* \"contracts/SmartContractWallet.sol\":703:713  msg.sender */\n      caller\n        /* \"contracts/SmartContractWallet.sol\":703:722  msg.sender == owner */\n      0xffffffffffffffffffffffffffffffffffffffff\n      and\n      eq\n        /* \"contracts/SmartContractWallet.sol\":695:759  require(msg.sender == owner, \"You are not the owner, aborting.\") */\n      tag_51\n      jumpi\n      mload(0x40)\n      0x08c379a000000000000000000000000000000000000000000000000000000000\n      dup2\n      mstore\n      0x04\n      add\n      tag_52\n      swap1\n      tag_49\n      jump\t// in\n    tag_52:\n      mload(0x40)\n      dup1\n      swap2\n      sub\n      swap1\n      revert\n    tag_51:\n        /* \"contracts/SmartContractWallet.sol\":794:801  _amount */\n      dup1\n        /* \"contracts/SmartContractWallet.sol\":770:779  allowance */\n      0x01\n        /* \"contracts/SmartContractWallet.sol\":770:791  allowance[msg.sender] */\n      0x00\n        /* \"contracts/SmartContractWallet.sol\":780:790  msg.sender */\n      caller\n        /* \"contracts/SmartContractWallet.sol\":770:791  allowance[msg.sender] */\n      0xffffffffffffffffffffffffffffffffffffffff\n      and\n      0xffffffffffffffffffffffffffffffffffffffff\n      and\n      dup2\n      mstore\n      0x20\n      add\n      swap1\n      dup2\n      mstore\n      0x20\n      add\n      0x00\n      keccak256\n        /* \"contracts/SmartContractWallet.sol\":770:801  allowance[msg.sender] = _amount */\n      dup2\n      swap1\n      sstore\n      pop\n        /* \"contracts/SmartContractWallet.sol\":828:829  0 */\n      0x00\n        /* \"contracts/SmartContractWallet.sol\":818:825  _amount */\n      dup2\n        /* \"contracts/SmartContractWallet.sol\":818:829  _amount > 0 */\n      gt\n        /* \"contracts/SmartContractWallet.sol\":814:949  if (_amount > 0) {... */\n      iszero\n      tag_53\n      jumpi\n        /* \"contracts/SmartContractWallet.sol\":871:875  true */\n      0x01\n        /* \"contracts/SmartContractWallet.sol\":846:861  isAllowedToSend */\n      0x02\n        /* \"contracts/SmartContractWallet.sol\":846:867  isAllowedToSend[_for] */\n      0x00\n        /* \"contracts/SmartContractWallet.sol\":862:866  _for */\n      dup5\n        /* \"contracts/SmartContractWallet.sol\":846:867  isAllowedToSend[_for] */\n      0xffffffffffffffffffffffffffffffffffffffff\n      and\n      0xffffffffffffffffffffffffffffffffffffffff\n      and\n      dup2\n      mstore\n      0x20\n      add\n      swap1\n      dup2\n      mstore\n      0x20\n      add\n      0x00\n      keccak256\n      0x00\n        /* \"contracts/SmartContractWallet.sol\":846:875  isAllowedToSend[_for]  = true */\n      0x0100\n      exp\n      dup2\n      sload\n      dup2\n      0xff\n      mul\n      not\n      and\n      swap1\n      dup4\n      iszero\n      iszero\n      mul\n      or\n      swap1\n      sstore\n      pop\n        /* \"contracts/SmartContractWallet.sol\":814:949  if (_amount > 0) {... */\n      jump(tag_54)\n    tag_53:\n        /* \"contracts/SmartContractWallet.sol\":932:937  false */\n      0x00\n        /* \"contracts/SmartContractWallet.sol\":908:923  isAllowedToSend */\n      0x02\n        /* \"contracts/SmartContractWallet.sol\":908:929  isAllowedToSend[_for] */\n      0x00\n        /* \"contracts/SmartContractWallet.sol\":924:928  _for */\n      dup5\n        /* \"contracts/SmartContractWallet.sol\":908:929  isAllowedToSend[_for] */\n      0xffffffffffffffffffffffffffffffffffffffff\n      and\n      0xffffffffffffffffffffffffffffffffffffffff\n      and\n      dup2\n      mstore\n      0x20\n      add\n      swap1\n      dup2\n      mstore\n      0x20\n      add\n      0x00\n      keccak256\n      0x00\n        /* \"contracts/SmartContractWallet.sol\":908:937  isAllowedToSend[_for] = false */\n      0x0100\n      exp\n      dup2\n      sload\n      dup2\n      0xff\n      mul\n      not\n      and\n      swap1\n      dup4\n      iszero\n      iszero\n      mul\n      or\n      swap1\n      sstore\n      pop\n        /* \"contracts/SmartContractWallet.sol\":814:949  if (_amount > 0) {... */\n    tag_54:\n        /* \"contracts/SmartContractWallet.sol\":627:956  function setAllowance(address _for, uint _amount) public {... */\n      pop\n      pop\n      jump\t// out\n        /* \"contracts/SmartContractWallet.sol\":175:216  mapping(address => uint) public allowance */\n    tag_36:\n      mstore(0x20, 0x01)\n      dup1\n      0x00\n      mstore\n      keccak256(0x00, 0x40)\n      0x00\n      swap2\n      pop\n      swap1\n      pop\n      sload\n      dup2\n      jump\t// out\n        /* \"contracts/SmartContractWallet.sol\":964:1597  function transfer(address payable _to, uint _amount, bytes memory _payload) public returns(bytes memory) {... */\n    tag_43:\n        /* \"contracts/SmartContractWallet.sol\":1055:1067  bytes memory */\n      0x60\n        /* \"contracts/SmartContractWallet.sol\":1098:1103  owner */\n      0x00\n      dup1\n      sload\n      swap1\n      0x0100\n      exp\n      swap1\n      div\n      0xffffffffffffffffffffffffffffffffffffffff\n      and\n        /* \"contracts/SmartContractWallet.sol\":1084:1103  msg.sender != owner */\n      0xffffffffffffffffffffffffffffffffffffffff\n      and\n        /* \"contracts/SmartContractWallet.sol\":1084:1094  msg.sender */\n      caller\n        /* \"contracts/SmartContractWallet.sol\":1084:1103  msg.sender != owner */\n      0xffffffffffffffffffffffffffffffffffffffff\n      and\n      eq\n        /* \"contracts/SmartContractWallet.sol\":1080:1408  if (msg.sender != owner) {... */\n      tag_56\n      jumpi\n        /* \"contracts/SmartContractWallet.sol\":1128:1143  isAllowedToSend */\n      0x02\n        /* \"contracts/SmartContractWallet.sol\":1128:1155  isAllowedToSend[msg.sender] */\n      0x00\n        /* \"contracts/SmartContractWallet.sol\":1144:1154  msg.sender */\n      caller\n        /* \"contracts/SmartContractWallet.sol\":1128:1155  isAllowedToSend[msg.sender] */\n      0xffffffffffffffffffffffffffffffffffffffff\n      and\n      0xffffffffffffffffffffffffffffffffffffffff\n      and\n      dup2\n      mstore\n      0x20\n      add\n      swap1\n      dup2\n      mstore\n      0x20\n      add\n      0x00\n      keccak256\n      0x00\n      swap1\n      sload\n      swap1\n      0x0100\n      exp\n      swap1\n      div\n      0xff\n      and\n        /* \"contracts/SmartContractWallet.sol\":1120:1225  require(isAllowedToSend[msg.sender], \"You are not permitted to process transactions from this contract.\") */\n      tag_57\n      jumpi\n      mload(0x40)\n      0x08c379a000000000000000000000000000000000000000000000000000000000\n      dup2\n      mstore\n      0x04\n      add\n      tag_58\n      swap1\n      tag_59\n      jump\t// in\n    tag_58:\n      mload(0x40)\n      dup1\n      swap2\n      sub\n      swap1\n      revert\n    tag_57:\n        /* \"contracts/SmartContractWallet.sol\":1273:1280  _amount */\n      dup3\n        /* \"contracts/SmartContractWallet.sol\":1248:1257  allowance */\n      0x01\n        /* \"contracts/SmartContractWallet.sol\":1248:1269  allowance[msg.sender] */\n      0x00\n        /* \"contracts/SmartContractWallet.sol\":1258:1268  msg.sender */\n      caller\n        /* \"contracts/SmartContractWallet.sol\":1248:1269  allowance[msg.sender] */\n      0xffffffffffffffffffffffffffffffffffffffff\n      and\n      0xffffffffffffffffffffffffffffffffffffffff\n      and\n      dup2\n      mstore\n      0x20\n      add\n      swap1\n      dup2\n      mstore\n      0x20\n      add\n      0x00\n      keccak256\n      sload\n        /* \"contracts/SmartContractWallet.sol\":1248:1280  allowance[msg.sender] >= _amount */\n      lt\n      iszero\n        /* \"contracts/SmartContractWallet.sol\":1240:1347  require(allowance[msg.sender] >= _amount, \"You are tyring to send more than you are allowed to, aborting.\") */\n      tag_60\n      jumpi\n      mload(0x40)\n      0x08c379a000000000000000000000000000000000000000000000000000000000\n      dup2\n      mstore\n      0x04\n      add\n      tag_61\n      swap1\n      tag_62\n      jump\t// in\n    tag_61:\n      mload(0x40)\n      dup1\n      swap2\n      sub\n      swap1\n      revert\n    tag_60:\n        /* \"contracts/SmartContractWallet.sol\":1389:1396  _amount */\n      dup3\n        /* \"contracts/SmartContractWallet.sol\":1364:1373  allowance */\n      0x01\n        /* \"contracts/SmartContractWallet.sol\":1364:1385  allowance[msg.sender] */\n      0x00\n        /* \"contracts/SmartContractWallet.sol\":1374:1384  msg.sender */\n      caller\n        /* \"contracts/SmartContractWallet.sol\":1364:1385  allowance[msg.sender] */\n      0xffffffffffffffffffffffffffffffffffffffff\n      and\n      0xffffffffffffffffffffffffffffffffffffffff\n      and\n      dup2\n      mstore\n      0x20\n      add\n      swap1\n      dup2\n      mstore\n      0x20\n      add\n      0x00\n      keccak256\n      0x00\n        /* \"contracts/SmartContractWallet.sol\":1364:1396  allowance[msg.sender] -= _amount */\n      dup3\n      dup3\n      sload\n      tag_63\n      swap2\n      swap1\n      tag_64\n      jump\t// in\n    tag_63:\n      swap3\n      pop\n      pop\n      dup2\n      swap1\n      sstore\n      pop\n        /* \"contracts/SmartContractWallet.sol\":1080:1408  if (msg.sender != owner) {... */\n    tag_56:\n        /* \"contracts/SmartContractWallet.sol\":1420:1432  bool success */\n      0x00\n        /* \"contracts/SmartContractWallet.sol\":1434:1457  bytes memory returnData */\n      dup1\n        /* \"contracts/SmartContractWallet.sol\":1461:1464  _to */\n      dup6\n        /* \"contracts/SmartContractWallet.sol\":1461:1469  _to.call */\n      0xffffffffffffffffffffffffffffffffffffffff\n      and\n        /* \"contracts/SmartContractWallet.sol\":1477:1484  _amount */\n      dup6\n        /* \"contracts/SmartContractWallet.sol\":1486:1494  _payload */\n      dup6\n        /* \"contracts/SmartContractWallet.sol\":1461:1495  _to.call{value: _amount}(_payload) */\n      mload(0x40)\n      tag_65\n      swap2\n      swap1\n      tag_66\n      jump\t// in\n    tag_65:\n      0x00\n      mload(0x40)\n      dup1\n      dup4\n      sub\n      dup2\n      dup6\n      dup8\n      gas\n      call\n      swap3\n      pop\n      pop\n      pop\n      returndatasize\n      dup1\n      0x00\n      dup2\n      eq\n      tag_69\n      jumpi\n      mload(0x40)\n      swap2\n      pop\n      and(add(returndatasize, 0x3f), not(0x1f))\n      dup3\n      add\n      0x40\n      mstore\n      returndatasize\n      dup3\n      mstore\n      returndatasize\n      0x00\n      0x20\n      dup5\n      add\n      returndatacopy\n      jump(tag_68)\n    tag_69:\n      0x60\n      swap2\n      pop\n    tag_68:\n      pop\n        /* \"contracts/SmartContractWallet.sol\":1419:1495  (bool success, bytes memory returnData) = _to.call{value: _amount}(_payload) */\n      swap2\n      pop\n      swap2\n      pop\n        /* \"contracts/SmartContractWallet.sol\":1515:1522  success */\n      dup2\n        /* \"contracts/SmartContractWallet.sol\":1507:1560  require(success, \"Aborting call was not successful.\") */\n      tag_70\n      jumpi\n      mload(0x40)\n      0x08c379a000000000000000000000000000000000000000000000000000000000\n      dup2\n      mstore\n      0x04\n      add\n      tag_71\n      swap1\n      tag_72\n      jump\t// in\n    tag_71:\n      mload(0x40)\n      dup1\n      swap2\n      sub\n      swap1\n      revert\n    tag_70:\n        /* \"contracts/SmartContractWallet.sol\":1579:1589  returnData */\n      dup1\n        /* \"contracts/SmartContractWallet.sol\":1572:1589  return returnData */\n      swap3\n      pop\n      pop\n      pop\n        /* \"contracts/SmartContractWallet.sol\":964:1597  function transfer(address payable _to, uint _amount, bytes memory _payload) public returns(bytes memory) {... */\n      swap4\n      swap3\n      pop\n      pop\n      pop\n      jump\t// out\n        /* \"#utility.yul\":7:82   */\n    tag_73:\n        /* \"#utility.yul\":40:46   */\n      0x00\n        /* \"#utility.yul\":73:75   */\n      0x40\n        /* \"#utility.yul\":67:76   */\n      mload\n        /* \"#utility.yul\":57:76   */\n      swap1\n      pop\n        /* \"#utility.yul\":7:82   */\n      swap1\n      jump\t// out\n        /* \"#utility.yul\":88:205   */\n    tag_74:\n        /* \"#utility.yul\":197:198   */\n      0x00\n        /* \"#utility.yul\":194:195   */\n      dup1\n        /* \"#utility.yul\":187:199   */\n      revert\n        /* \"#utility.yul\":211:328   */\n    tag_75:\n        /* \"#utility.yul\":320:321   */\n      0x00\n        /* \"#utility.yul\":317:318   */\n      dup1\n        /* \"#utility.yul\":310:322   */\n      revert\n        /* \"#utility.yul\":334:460   */\n    tag_76:\n        /* \"#utility.yul\":371:378   */\n      0x00\n        /* \"#utility.yul\":411:453   */\n      0xffffffffffffffffffffffffffffffffffffffff\n        /* \"#utility.yul\":404:409   */\n      dup3\n        /* \"#utility.yul\":400:454   */\n      and\n        /* \"#utility.yul\":389:454   */\n      swap1\n      pop\n        /* \"#utility.yul\":334:460   */\n      swap2\n      swap1\n      pop\n      jump\t// out\n        /* \"#utility.yul\":466:562   */\n    tag_77:\n        /* \"#utility.yul\":503:510   */\n      0x00\n        /* \"#utility.yul\":532:556   */\n      tag_123\n        /* \"#utility.yul\":550:555   */\n      dup3\n        /* \"#utility.yul\":532:556   */\n      tag_76\n      jump\t// in\n    tag_123:\n        /* \"#utility.yul\":521:556   */\n      swap1\n      pop\n        /* \"#utility.yul\":466:562   */\n      swap2\n      swap1\n      pop\n      jump\t// out\n        /* \"#utility.yul\":568:690   */\n    tag_78:\n        /* \"#utility.yul\":641:665   */\n      tag_125\n        /* \"#utility.yul\":659:664   */\n      dup2\n        /* \"#utility.yul\":641:665   */\n      tag_77\n      jump\t// in\n    tag_125:\n        /* \"#utility.yul\":634:639   */\n      dup2\n        /* \"#utility.yul\":631:666   */\n      eq\n        /* \"#utility.yul\":621:684   */\n      tag_126\n      jumpi\n        /* \"#utility.yul\":680:681   */\n      0x00\n        /* \"#utility.yul\":677:678   */\n      dup1\n        /* \"#utility.yul\":670:682   */\n      revert\n        /* \"#utility.yul\":621:684   */\n    tag_126:\n        /* \"#utility.yul\":568:690   */\n      pop\n      jump\t// out\n        /* \"#utility.yul\":696:835   */\n    tag_79:\n        /* \"#utility.yul\":742:747   */\n      0x00\n        /* \"#utility.yul\":780:786   */\n      dup2\n        /* \"#utility.yul\":767:787   */\n      calldataload\n        /* \"#utility.yul\":758:787   */\n      swap1\n      pop\n        /* \"#utility.yul\":796:829   */\n      tag_128\n        /* \"#utility.yul\":823:828   */\n      dup2\n        /* \"#utility.yul\":796:829   */\n      tag_78\n      jump\t// in\n    tag_128:\n        /* \"#utility.yul\":696:835   */\n      swap3\n      swap2\n      pop\n      pop\n      jump\t// out\n        /* \"#utility.yul\":841:1170   */\n    tag_14:\n        /* \"#utility.yul\":900:906   */\n      0x00\n        /* \"#utility.yul\":949:951   */\n      0x20\n        /* \"#utility.yul\":937:946   */\n      dup3\n        /* \"#utility.yul\":928:935   */\n      dup5\n        /* \"#utility.yul\":924:947   */\n      sub\n        /* \"#utility.yul\":920:952   */\n      slt\n        /* \"#utility.yul\":917:1036   */\n      iszero\n      tag_130\n      jumpi\n        /* \"#utility.yul\":955:1034   */\n      tag_131\n      tag_74\n      jump\t// in\n    tag_131:\n        /* \"#utility.yul\":917:1036   */\n    tag_130:\n        /* \"#utility.yul\":1075:1076   */\n      0x00\n        /* \"#utility.yul\":1100:1153   */\n      tag_132\n        /* \"#utility.yul\":1145:1152   */\n      dup5\n        /* \"#utility.yul\":1136:1142   */\n      dup3\n        /* \"#utility.yul\":1125:1134   */\n      dup6\n        /* \"#utility.yul\":1121:1143   */\n      add\n        /* \"#utility.yul\":1100:1153   */\n      tag_79\n      jump\t// in\n    tag_132:\n        /* \"#utility.yul\":1090:1153   */\n      swap2\n      pop\n        /* \"#utility.yul\":1046:1163   */\n      pop\n        /* \"#utility.yul\":841:1170   */\n      swap3\n      swap2\n      pop\n      pop\n      jump\t// out\n        /* \"#utility.yul\":1176:1266   */\n    tag_80:\n        /* \"#utility.yul\":1210:1217   */\n      0x00\n        /* \"#utility.yul\":1253:1258   */\n      dup2\n        /* \"#utility.yul\":1246:1259   */\n      iszero\n        /* \"#utility.yul\":1239:1260   */\n      iszero\n        /* \"#utility.yul\":1228:1260   */\n      swap1\n      pop\n        /* \"#utility.yul\":1176:1266   */\n      swap2\n      swap1\n      pop\n      jump\t// out\n        /* \"#utility.yul\":1272:1381   */\n    tag_81:\n        /* \"#utility.yul\":1353:1374   */\n      tag_135\n        /* \"#utility.yul\":1368:1373   */\n      dup2\n        /* \"#utility.yul\":1353:1374   */\n      tag_80\n      jump\t// in\n    tag_135:\n        /* \"#utility.yul\":1348:1351   */\n      dup3\n        /* \"#utility.yul\":1341:1375   */\n      mstore\n        /* \"#utility.yul\":1272:1381   */\n      pop\n      pop\n      jump\t// out\n        /* \"#utility.yul\":1387:1597   */\n    tag_17:\n        /* \"#utility.yul\":1474:1478   */\n      0x00\n        /* \"#utility.yul\":1512:1514   */\n      0x20\n        /* \"#utility.yul\":1501:1510   */\n      dup3\n        /* \"#utility.yul\":1497:1515   */\n      add\n        /* \"#utility.yul\":1489:1515   */\n      swap1\n      pop\n        /* \"#utility.yul\":1525:1590   */\n      tag_137\n        /* \"#utility.yul\":1587:1588   */\n      0x00\n        /* \"#utility.yul\":1576:1585   */\n      dup4\n        /* \"#utility.yul\":1572:1589   */\n      add\n        /* \"#utility.yul\":1563:1569   */\n      dup5\n        /* \"#utility.yul\":1525:1590   */\n      tag_81\n      jump\t// in\n    tag_137:\n        /* \"#utility.yul\":1387:1597   */\n      swap3\n      swap2\n      pop\n      pop\n      jump\t// out\n        /* \"#utility.yul\":1603:1719   */\n    tag_82:\n        /* \"#utility.yul\":1673:1694   */\n      tag_139\n        /* \"#utility.yul\":1688:1693   */\n      dup2\n        /* \"#utility.yul\":1673:1694   */\n      tag_80\n      jump\t// in\n    tag_139:\n        /* \"#utility.yul\":1666:1671   */\n      dup2\n        /* \"#utility.yul\":1663:1695   */\n      eq\n        /* \"#utility.yul\":1653:1713   */\n      tag_140\n      jumpi\n        /* \"#utility.yul\":1709:1710   */\n      0x00\n        /* \"#utility.yul\":1706:1707   */\n      dup1\n        /* \"#utility.yul\":1699:1711   */\n      revert\n        /* \"#utility.yul\":1653:1713   */\n    tag_140:\n        /* \"#utility.yul\":1603:1719   */\n      pop\n      jump\t// out\n        /* \"#utility.yul\":1725:1858   */\n    tag_83:\n        /* \"#utility.yul\":1768:1773   */\n      0x00\n        /* \"#utility.yul\":1806:1812   */\n      dup2\n        /* \"#utility.yul\":1793:1813   */\n      calldataload\n        /* \"#utility.yul\":1784:1813   */\n      swap1\n      pop\n        /* \"#utility.yul\":1822:1852   */\n      tag_142\n        /* \"#utility.yul\":1846:1851   */\n      dup2\n        /* \"#utility.yul\":1822:1852   */\n      tag_82\n      jump\t// in\n    tag_142:\n        /* \"#utility.yul\":1725:1858   */\n      swap3\n      swap2\n      pop\n      pop\n      jump\t// out\n        /* \"#utility.yul\":1864:2332   */\n    tag_26:\n        /* \"#utility.yul\":1929:1935   */\n      0x00\n        /* \"#utility.yul\":1937:1943   */\n      dup1\n        /* \"#utility.yul\":1986:1988   */\n      0x40\n        /* \"#utility.yul\":1974:1983   */\n      dup4\n        /* \"#utility.yul\":1965:1972   */\n      dup6\n        /* \"#utility.yul\":1961:1984   */\n      sub\n        /* \"#utility.yul\":1957:1989   */\n      slt\n        /* \"#utility.yul\":1954:2073   */\n      iszero\n      tag_144\n      jumpi\n        /* \"#utility.yul\":1992:2071   */\n      tag_145\n      tag_74\n      jump\t// in\n    tag_145:\n        /* \"#utility.yul\":1954:2073   */\n    tag_144:\n        /* \"#utility.yul\":2112:2113   */\n      0x00\n        /* \"#utility.yul\":2137:2190   */\n      tag_146\n        /* \"#utility.yul\":2182:2189   */\n      dup6\n        /* \"#utility.yul\":2173:2179   */\n      dup3\n        /* \"#utility.yul\":2162:2171   */\n      dup7\n        /* \"#utility.yul\":2158:2180   */\n      add\n        /* \"#utility.yul\":2137:2190   */\n      tag_79\n      jump\t// in\n    tag_146:\n        /* \"#utility.yul\":2127:2190   */\n      swap3\n      pop\n        /* \"#utility.yul\":2083:2200   */\n      pop\n        /* \"#utility.yul\":2239:2241   */\n      0x20\n        /* \"#utility.yul\":2265:2315   */\n      tag_147\n        /* \"#utility.yul\":2307:2314   */\n      dup6\n        /* \"#utility.yul\":2298:2304   */\n      dup3\n        /* \"#utility.yul\":2287:2296   */\n      dup7\n        /* \"#utility.yul\":2283:2305   */\n      add\n        /* \"#utility.yul\":2265:2315   */\n      tag_83\n      jump\t// in\n    tag_147:\n        /* \"#utility.yul\":2255:2315   */\n      swap2\n      pop\n        /* \"#utility.yul\":2210:2325   */\n      pop\n        /* \"#utility.yul\":1864:2332   */\n      swap3\n      pop\n      swap3\n      swap1\n      pop\n      jump\t// out\n        /* \"#utility.yul\":2338:2415   */\n    tag_84:\n        /* \"#utility.yul\":2375:2382   */\n      0x00\n        /* \"#utility.yul\":2404:2409   */\n      dup2\n        /* \"#utility.yul\":2393:2409   */\n      swap1\n      pop\n        /* \"#utility.yul\":2338:2415   */\n      swap2\n      swap1\n      pop\n      jump\t// out\n        /* \"#utility.yul\":2421:2543   */\n    tag_85:\n        /* \"#utility.yul\":2494:2518   */\n      tag_150\n        /* \"#utility.yul\":2512:2517   */\n      dup2\n        /* \"#utility.yul\":2494:2518   */\n      tag_84\n      jump\t// in\n    tag_150:\n        /* \"#utility.yul\":2487:2492   */\n      dup2\n        /* \"#utility.yul\":2484:2519   */\n      eq\n        /* \"#utility.yul\":2474:2537   */\n      tag_151\n      jumpi\n        /* \"#utility.yul\":2533:2534   */\n      0x00\n        /* \"#utility.yul\":2530:2531   */\n      dup1\n        /* \"#utility.yul\":2523:2535   */\n      revert\n        /* \"#utility.yul\":2474:2537   */\n    tag_151:\n        /* \"#utility.yul\":2421:2543   */\n      pop\n      jump\t// out\n        /* \"#utility.yul\":2549:2688   */\n    tag_86:\n        /* \"#utility.yul\":2595:2600   */\n      0x00\n        /* \"#utility.yul\":2633:2639   */\n      dup2\n        /* \"#utility.yul\":2620:2640   */\n      calldataload\n        /* \"#utility.yul\":2611:2640   */\n      swap1\n      pop\n        /* \"#utility.yul\":2649:2682   */\n      tag_153\n        /* \"#utility.yul\":2676:2681   */\n      dup2\n        /* \"#utility.yul\":2649:2682   */\n      tag_85\n      jump\t// in\n    tag_153:\n        /* \"#utility.yul\":2549:2688   */\n      swap3\n      swap2\n      pop\n      pop\n      jump\t// out\n        /* \"#utility.yul\":2694:3168   */\n    tag_31:\n        /* \"#utility.yul\":2762:2768   */\n      0x00\n        /* \"#utility.yul\":2770:2776   */\n      dup1\n        /* \"#utility.yul\":2819:2821   */\n      0x40\n        /* \"#utility.yul\":2807:2816   */\n      dup4\n        /* \"#utility.yul\":2798:2805   */\n      dup6\n        /* \"#utility.yul\":2794:2817   */\n      sub\n        /* \"#utility.yul\":2790:2822   */\n      slt\n        /* \"#utility.yul\":2787:2906   */\n      iszero\n      tag_155\n      jumpi\n        /* \"#utility.yul\":2825:2904   */\n      tag_156\n      tag_74\n      jump\t// in\n    tag_156:\n        /* \"#utility.yul\":2787:2906   */\n    tag_155:\n        /* \"#utility.yul\":2945:2946   */\n      0x00\n        /* \"#utility.yul\":2970:3023   */\n      tag_157\n        /* \"#utility.yul\":3015:3022   */\n      dup6\n        /* \"#utility.yul\":3006:3012   */\n      dup3\n        /* \"#utility.yul\":2995:3004   */\n      dup7\n        /* \"#utility.yul\":2991:3013   */\n      add\n        /* \"#utility.yul\":2970:3023   */\n      tag_79\n      jump\t// in\n    tag_157:\n        /* \"#utility.yul\":2960:3023   */\n      swap3\n      pop\n        /* \"#utility.yul\":2916:3033   */\n      pop\n        /* \"#utility.yul\":3072:3074   */\n      0x20\n        /* \"#utility.yul\":3098:3151   */\n      tag_158\n        /* \"#utility.yul\":3143:3150   */\n      dup6\n        /* \"#utility.yul\":3134:3140   */\n      dup3\n        /* \"#utility.yul\":3123:3132   */\n      dup7\n        /* \"#utility.yul\":3119:3141   */\n      add\n        /* \"#utility.yul\":3098:3151   */\n      tag_86\n      jump\t// in\n    tag_158:\n        /* \"#utility.yul\":3088:3151   */\n      swap2\n      pop\n        /* \"#utility.yul\":3043:3161   */\n      pop\n        /* \"#utility.yul\":2694:3168   */\n      swap3\n      pop\n      swap3\n      swap1\n      pop\n      jump\t// out\n        /* \"#utility.yul\":3174:3292   */\n    tag_87:\n        /* \"#utility.yul\":3261:3285   */\n      tag_160\n        /* \"#utility.yul\":3279:3284   */\n      dup2\n        /* \"#utility.yul\":3261:3285   */\n      tag_84\n      jump\t// in\n    tag_160:\n        /* \"#utility.yul\":3256:3259   */\n      dup3\n        /* \"#utility.yul\":3249:3286   */\n      mstore\n        /* \"#utility.yul\":3174:3292   */\n      pop\n      pop\n      jump\t// out\n        /* \"#utility.yul\":3298:3520   */\n    tag_38:\n        /* \"#utility.yul\":3391:3395   */\n      0x00\n        /* \"#utility.yul\":3429:3431   */\n      0x20\n        /* \"#utility.yul\":3418:3427   */\n      dup3\n        /* \"#utility.yul\":3414:3432   */\n      add\n        /* \"#utility.yul\":3406:3432   */\n      swap1\n      pop\n        /* \"#utility.yul\":3442:3513   */\n      tag_162\n        /* \"#utility.yul\":3510:3511   */\n      0x00\n        /* \"#utility.yul\":3499:3508   */\n      dup4\n        /* \"#utility.yul\":3495:3512   */\n      add\n        /* \"#utility.yul\":3486:3492   */\n      dup5\n        /* \"#utility.yul\":3442:3513   */\n      tag_87\n      jump\t// in\n    tag_162:\n        /* \"#utility.yul\":3298:3520   */\n      swap3\n      swap2\n      pop\n      pop\n      jump\t// out\n        /* \"#utility.yul\":3526:3630   */\n    tag_88:\n        /* \"#utility.yul\":3571:3578   */\n      0x00\n        /* \"#utility.yul\":3600:3624   */\n      tag_164\n        /* \"#utility.yul\":3618:3623   */\n      dup3\n        /* \"#utility.yul\":3600:3624   */\n      tag_76\n      jump\t// in\n    tag_164:\n        /* \"#utility.yul\":3589:3624   */\n      swap1\n      pop\n        /* \"#utility.yul\":3526:3630   */\n      swap2\n      swap1\n      pop\n      jump\t// out\n        /* \"#utility.yul\":3636:3774   */\n    tag_89:\n        /* \"#utility.yul\":3717:3749   */\n      tag_166\n        /* \"#utility.yul\":3743:3748   */\n      dup2\n        /* \"#utility.yul\":3717:3749   */\n      tag_88\n      jump\t// in\n    tag_166:\n        /* \"#utility.yul\":3710:3715   */\n      dup2\n        /* \"#utility.yul\":3707:3750   */\n      eq\n        /* \"#utility.yul\":3697:3768   */\n      tag_167\n      jumpi\n        /* \"#utility.yul\":3764:3765   */\n      0x00\n        /* \"#utility.yul\":3761:3762   */\n      dup1\n        /* \"#utility.yul\":3754:3766   */\n      revert\n        /* \"#utility.yul\":3697:3768   */\n    tag_167:\n        /* \"#utility.yul\":3636:3774   */\n      pop\n      jump\t// out\n        /* \"#utility.yul\":3780:3935   */\n    tag_90:\n        /* \"#utility.yul\":3834:3839   */\n      0x00\n        /* \"#utility.yul\":3872:3878   */\n      dup2\n        /* \"#utility.yul\":3859:3879   */\n      calldataload\n        /* \"#utility.yul\":3850:3879   */\n      swap1\n      pop\n        /* \"#utility.yul\":3888:3929   */\n      tag_169\n        /* \"#utility.yul\":3923:3928   */\n      dup2\n        /* \"#utility.yul\":3888:3929   */\n      tag_89\n      jump\t// in\n    tag_169:\n        /* \"#utility.yul\":3780:3935   */\n      swap3\n      swap2\n      pop\n      pop\n      jump\t// out\n        /* \"#utility.yul\":3941:4058   */\n    tag_91:\n        /* \"#utility.yul\":4050:4051   */\n      0x00\n        /* \"#utility.yul\":4047:4048   */\n      dup1\n        /* \"#utility.yul\":4040:4052   */\n      revert\n        /* \"#utility.yul\":4064:4181   */\n    tag_92:\n        /* \"#utility.yul\":4173:4174   */\n      0x00\n        /* \"#utility.yul\":4170:4171   */\n      dup1\n        /* \"#utility.yul\":4163:4175   */\n      revert\n        /* \"#utility.yul\":4187:4289   */\n    tag_93:\n        /* \"#utility.yul\":4228:4234   */\n      0x00\n        /* \"#utility.yul\":4279:4281   */\n      0x1f\n        /* \"#utility.yul\":4275:4282   */\n      not\n        /* \"#utility.yul\":4270:4272   */\n      0x1f\n        /* \"#utility.yul\":4263:4268   */\n      dup4\n        /* \"#utility.yul\":4259:4273   */\n      add\n        /* \"#utility.yul\":4255:4283   */\n      and\n        /* \"#utility.yul\":4245:4283   */\n      swap1\n      pop\n        /* \"#utility.yul\":4187:4289   */\n      swap2\n      swap1\n      pop\n      jump\t// out\n        /* \"#utility.yul\":4295:4475   */\n    tag_94:\n        /* \"#utility.yul\":4343:4420   */\n      0x4e487b7100000000000000000000000000000000000000000000000000000000\n        /* \"#utility.yul\":4340:4341   */\n      0x00\n        /* \"#utility.yul\":4333:4421   */\n      mstore\n        /* \"#utility.yul\":4440:4444   */\n      0x41\n        /* \"#utility.yul\":4437:4438   */\n      0x04\n        /* \"#utility.yul\":4430:4445   */\n      mstore\n        /* \"#utility.yul\":4464:4468   */\n      0x24\n        /* \"#utility.yul\":4461:4462   */\n      0x00\n        /* \"#utility.yul\":4454:4469   */\n      revert\n        /* \"#utility.yul\":4481:4762   */\n    tag_95:\n        /* \"#utility.yul\":4564:4591   */\n      tag_175\n        /* \"#utility.yul\":4586:4590   */\n      dup3\n        /* \"#utility.yul\":4564:4591   */\n      tag_93\n      jump\t// in\n    tag_175:\n        /* \"#utility.yul\":4556:4562   */\n      dup2\n        /* \"#utility.yul\":4552:4592   */\n      add\n        /* \"#utility.yul\":4694:4700   */\n      dup2\n        /* \"#utility.yul\":4682:4692   */\n      dup2\n        /* \"#utility.yul\":4679:4701   */\n      lt\n        /* \"#utility.yul\":4658:4676   */\n      0xffffffffffffffff\n        /* \"#utility.yul\":4646:4656   */\n      dup3\n        /* \"#utility.yul\":4643:4677   */\n      gt\n        /* \"#utility.yul\":4640:4702   */\n      or\n        /* \"#utility.yul\":4637:4725   */\n      iszero\n      tag_176\n      jumpi\n        /* \"#utility.yul\":4705:4723   */\n      tag_177\n      tag_94\n      jump\t// in\n    tag_177:\n        /* \"#utility.yul\":4637:4725   */\n    tag_176:\n        /* \"#utility.yul\":4745:4755   */\n      dup1\n        /* \"#utility.yul\":4741:4743   */\n      0x40\n        /* \"#utility.yul\":4734:4756   */\n      mstore\n        /* \"#utility.yul\":4524:4762   */\n      pop\n        /* \"#utility.yul\":4481:4762   */\n      pop\n      pop\n      jump\t// out\n        /* \"#utility.yul\":4768:4897   */\n    tag_96:\n        /* \"#utility.yul\":4802:4808   */\n      0x00\n        /* \"#utility.yul\":4829:4849   */\n      tag_179\n      tag_73\n      jump\t// in\n    tag_179:\n        /* \"#utility.yul\":4819:4849   */\n      swap1\n      pop\n        /* \"#utility.yul\":4858:4891   */\n      tag_180\n        /* \"#utility.yul\":4886:4890   */\n      dup3\n        /* \"#utility.yul\":4878:4884   */\n      dup3\n        /* \"#utility.yul\":4858:4891   */\n      tag_95\n      jump\t// in\n    tag_180:\n        /* \"#utility.yul\":4768:4897   */\n      swap2\n      swap1\n      pop\n      jump\t// out\n        /* \"#utility.yul\":4903:5210   */\n    tag_97:\n        /* \"#utility.yul\":4964:4968   */\n      0x00\n        /* \"#utility.yul\":5054:5072   */\n      0xffffffffffffffff\n        /* \"#utility.yul\":5046:5052   */\n      dup3\n        /* \"#utility.yul\":5043:5073   */\n      gt\n        /* \"#utility.yul\":5040:5096   */\n      iszero\n      tag_182\n      jumpi\n        /* \"#utility.yul\":5076:5094   */\n      tag_183\n      tag_94\n      jump\t// in\n    tag_183:\n        /* \"#utility.yul\":5040:5096   */\n    tag_182:\n        /* \"#utility.yul\":5114:5143   */\n      tag_184\n        /* \"#utility.yul\":5136:5142   */\n      dup3\n        /* \"#utility.yul\":5114:5143   */\n      tag_93\n      jump\t// in\n    tag_184:\n        /* \"#utility.yul\":5106:5143   */\n      swap1\n      pop\n        /* \"#utility.yul\":5198:5202   */\n      0x20\n        /* \"#utility.yul\":5192:5196   */\n      dup2\n        /* \"#utility.yul\":5188:5203   */\n      add\n        /* \"#utility.yul\":5180:5203   */\n      swap1\n      pop\n        /* \"#utility.yul\":4903:5210   */\n      swap2\n      swap1\n      pop\n      jump\t// out\n        /* \"#utility.yul\":5216:5362   */\n    tag_98:\n        /* \"#utility.yul\":5313:5319   */\n      dup3\n        /* \"#utility.yul\":5308:5311   */\n      dup2\n        /* \"#utility.yul\":5303:5306   */\n      dup4\n        /* \"#utility.yul\":5290:5320   */\n      calldatacopy\n        /* \"#utility.yul\":5354:5355   */\n      0x00\n        /* \"#utility.yul\":5345:5351   */\n      dup4\n        /* \"#utility.yul\":5340:5343   */\n      dup4\n        /* \"#utility.yul\":5336:5352   */\n      add\n        /* \"#utility.yul\":5329:5356   */\n      mstore\n        /* \"#utility.yul\":5216:5362   */\n      pop\n      pop\n      pop\n      jump\t// out\n        /* \"#utility.yul\":5368:5791   */\n    tag_99:\n        /* \"#utility.yul\":5445:5450   */\n      0x00\n        /* \"#utility.yul\":5470:5535   */\n      tag_187\n        /* \"#utility.yul\":5486:5534   */\n      tag_188\n        /* \"#utility.yul\":5527:5533   */\n      dup5\n        /* \"#utility.yul\":5486:5534   */\n      tag_97\n      jump\t// in\n    tag_188:\n        /* \"#utility.yul\":5470:5535   */\n      tag_96\n      jump\t// in\n    tag_187:\n        /* \"#utility.yul\":5461:5535   */\n      swap1\n      pop\n        /* \"#utility.yul\":5558:5564   */\n      dup3\n        /* \"#utility.yul\":5551:5556   */\n      dup2\n        /* \"#utility.yul\":5544:5565   */\n      mstore\n        /* \"#utility.yul\":5596:5600   */\n      0x20\n        /* \"#utility.yul\":5589:5594   */\n      dup2\n        /* \"#utility.yul\":5585:5601   */\n      add\n        /* \"#utility.yul\":5634:5637   */\n      dup5\n        /* \"#utility.yul\":5625:5631   */\n      dup5\n        /* \"#utility.yul\":5620:5623   */\n      dup5\n        /* \"#utility.yul\":5616:5632   */\n      add\n        /* \"#utility.yul\":5613:5638   */\n      gt\n        /* \"#utility.yul\":5610:5722   */\n      iszero\n      tag_189\n      jumpi\n        /* \"#utility.yul\":5641:5720   */\n      tag_190\n      tag_92\n      jump\t// in\n    tag_190:\n        /* \"#utility.yul\":5610:5722   */\n    tag_189:\n        /* \"#utility.yul\":5731:5785   */\n      tag_191\n        /* \"#utility.yul\":5778:5784   */\n      dup5\n        /* \"#utility.yul\":5773:5776   */\n      dup3\n        /* \"#utility.yul\":5768:5771   */\n      dup6\n        /* \"#utility.yul\":5731:5785   */\n      tag_98\n      jump\t// in\n    tag_191:\n        /* \"#utility.yul\":5451:5791   */\n      pop\n        /* \"#utility.yul\":5368:5791   */\n      swap4\n      swap3\n      pop\n      pop\n      pop\n      jump\t// out\n        /* \"#utility.yul\":5810:6148   */\n    tag_100:\n        /* \"#utility.yul\":5865:5870   */\n      0x00\n        /* \"#utility.yul\":5914:5917   */\n      dup3\n        /* \"#utility.yul\":5907:5911   */\n      0x1f\n        /* \"#utility.yul\":5899:5905   */\n      dup4\n        /* \"#utility.yul\":5895:5912   */\n      add\n        /* \"#utility.yul\":5891:5918   */\n      slt\n        /* \"#utility.yul\":5881:6003   */\n      tag_193\n      jumpi\n        /* \"#utility.yul\":5922:6001   */\n      tag_194\n      tag_91\n      jump\t// in\n    tag_194:\n        /* \"#utility.yul\":5881:6003   */\n    tag_193:\n        /* \"#utility.yul\":6039:6045   */\n      dup2\n        /* \"#utility.yul\":6026:6046   */\n      calldataload\n        /* \"#utility.yul\":6064:6142   */\n      tag_195\n        /* \"#utility.yul\":6138:6141   */\n      dup5\n        /* \"#utility.yul\":6130:6136   */\n      dup3\n        /* \"#utility.yul\":6123:6127   */\n      0x20\n        /* \"#utility.yul\":6115:6121   */\n      dup7\n        /* \"#utility.yul\":6111:6128   */\n      add\n        /* \"#utility.yul\":6064:6142   */\n      tag_99\n      jump\t// in\n    tag_195:\n        /* \"#utility.yul\":6055:6142   */\n      swap2\n      pop\n        /* \"#utility.yul\":5871:6148   */\n      pop\n        /* \"#utility.yul\":5810:6148   */\n      swap3\n      swap2\n      pop\n      pop\n      jump\t// out\n        /* \"#utility.yul\":6154:6967   */\n    tag_42:\n        /* \"#utility.yul\":6248:6254   */\n      0x00\n        /* \"#utility.yul\":6256:6262   */\n      dup1\n        /* \"#utility.yul\":6264:6270   */\n      0x00\n        /* \"#utility.yul\":6313:6315   */\n      0x60\n        /* \"#utility.yul\":6301:6310   */\n      dup5\n        /* \"#utility.yul\":6292:6299   */\n      dup7\n        /* \"#utility.yul\":6288:6311   */\n      sub\n        /* \"#utility.yul\":6284:6316   */\n      slt\n        /* \"#utility.yul\":6281:6400   */\n      iszero\n      tag_197\n      jumpi\n        /* \"#utility.yul\":6319:6398   */\n      tag_198\n      tag_74\n      jump\t// in\n    tag_198:\n        /* \"#utility.yul\":6281:6400   */\n    tag_197:\n        /* \"#utility.yul\":6439:6440   */\n      0x00\n        /* \"#utility.yul\":6464:6525   */\n      tag_199\n        /* \"#utility.yul\":6517:6524   */\n      dup7\n        /* \"#utility.yul\":6508:6514   */\n      dup3\n        /* \"#utility.yul\":6497:6506   */\n      dup8\n        /* \"#utility.yul\":6493:6515   */\n      add\n        /* \"#utility.yul\":6464:6525   */\n      tag_90\n      jump\t// in\n    tag_199:\n        /* \"#utility.yul\":6454:6525   */\n      swap4\n      pop\n        /* \"#utility.yul\":6410:6535   */\n      pop\n        /* \"#utility.yul\":6574:6576   */\n      0x20\n        /* \"#utility.yul\":6600:6653   */\n      tag_200\n        /* \"#utility.yul\":6645:6652   */\n      dup7\n        /* \"#utility.yul\":6636:6642   */\n      dup3\n        /* \"#utility.yul\":6625:6634   */\n      dup8\n        /* \"#utility.yul\":6621:6643   */\n      add\n        /* \"#utility.yul\":6600:6653   */\n      tag_86\n      jump\t// in\n    tag_200:\n        /* \"#utility.yul\":6590:6653   */\n      swap3\n      pop\n        /* \"#utility.yul\":6545:6663   */\n      pop\n        /* \"#utility.yul\":6730:6732   */\n      0x40\n        /* \"#utility.yul\":6719:6728   */\n      dup5\n        /* \"#utility.yul\":6715:6733   */\n      add\n        /* \"#utility.yul\":6702:6734   */\n      calldataload\n        /* \"#utility.yul\":6761:6779   */\n      0xffffffffffffffff\n        /* \"#utility.yul\":6753:6759   */\n      dup2\n        /* \"#utility.yul\":6750:6780   */\n      gt\n        /* \"#utility.yul\":6747:6864   */\n      iszero\n      tag_201\n      jumpi\n        /* \"#utility.yul\":6783:6862   */\n      tag_202\n      tag_75\n      jump\t// in\n    tag_202:\n        /* \"#utility.yul\":6747:6864   */\n    tag_201:\n        /* \"#utility.yul\":6888:6950   */\n      tag_203\n        /* \"#utility.yul\":6942:6949   */\n      dup7\n        /* \"#utility.yul\":6933:6939   */\n      dup3\n        /* \"#utility.yul\":6922:6931   */\n      dup8\n        /* \"#utility.yul\":6918:6940   */\n      add\n        /* \"#utility.yul\":6888:6950   */\n      tag_100\n      jump\t// in\n    tag_203:\n        /* \"#utility.yul\":6878:6950   */\n      swap2\n      pop\n        /* \"#utility.yul\":6673:6960   */\n      pop\n        /* \"#utility.yul\":6154:6967   */\n      swap3\n      pop\n      swap3\n      pop\n      swap3\n      jump\t// out\n        /* \"#utility.yul\":6973:7071   */\n    tag_101:\n        /* \"#utility.yul\":7024:7030   */\n      0x00\n        /* \"#utility.yul\":7058:7063   */\n      dup2\n        /* \"#utility.yul\":7052:7064   */\n      mload\n        /* \"#utility.yul\":7042:7064   */\n      swap1\n      pop\n        /* \"#utility.yul\":6973:7071   */\n      swap2\n      swap1\n      pop\n      jump\t// out\n        /* \"#utility.yul\":7077:7245   */\n    tag_102:\n        /* \"#utility.yul\":7160:7171   */\n      0x00\n        /* \"#utility.yul\":7194:7200   */\n      dup3\n        /* \"#utility.yul\":7189:7192   */\n      dup3\n        /* \"#utility.yul\":7182:7201   */\n      mstore\n        /* \"#utility.yul\":7234:7238   */\n      0x20\n        /* \"#utility.yul\":7229:7232   */\n      dup3\n        /* \"#utility.yul\":7225:7239   */\n      add\n        /* \"#utility.yul\":7210:7239   */\n      swap1\n      pop\n        /* \"#utility.yul\":7077:7245   */\n      swap3\n      swap2\n      pop\n      pop\n      jump\t// out\n        /* \"#utility.yul\":7251:7497   */\n    tag_103:\n        /* \"#utility.yul\":7332:7333   */\n      0x00\n        /* \"#utility.yul\":7342:7455   */\n    tag_207:\n        /* \"#utility.yul\":7356:7362   */\n      dup4\n        /* \"#utility.yul\":7353:7354   */\n      dup2\n        /* \"#utility.yul\":7350:7363   */\n      lt\n        /* \"#utility.yul\":7342:7455   */\n      iszero\n      tag_209\n      jumpi\n        /* \"#utility.yul\":7441:7442   */\n      dup1\n        /* \"#utility.yul\":7436:7439   */\n      dup3\n        /* \"#utility.yul\":7432:7443   */\n      add\n        /* \"#utility.yul\":7426:7444   */\n      mload\n        /* \"#utility.yul\":7422:7423   */\n      dup2\n        /* \"#utility.yul\":7417:7420   */\n      dup5\n        /* \"#utility.yul\":7413:7424   */\n      add\n        /* \"#utility.yul\":7406:7445   */\n      mstore\n        /* \"#utility.yul\":7378:7380   */\n      0x20\n        /* \"#utility.yul\":7375:7376   */\n      dup2\n        /* \"#utility.yul\":7371:7381   */\n      add\n        /* \"#utility.yul\":7366:7381   */\n      swap1\n      pop\n        /* \"#utility.yul\":7342:7455   */\n      jump(tag_207)\n    tag_209:\n        /* \"#utility.yul\":7489:7490   */\n      0x00\n        /* \"#utility.yul\":7480:7486   */\n      dup5\n        /* \"#utility.yul\":7475:7478   */\n      dup5\n        /* \"#utility.yul\":7471:7487   */\n      add\n        /* \"#utility.yul\":7464:7491   */\n      mstore\n        /* \"#utility.yul\":7313:7497   */\n      pop\n        /* \"#utility.yul\":7251:7497   */\n      pop\n      pop\n      pop\n      jump\t// out\n        /* \"#utility.yul\":7503:7876   */\n    tag_104:\n        /* \"#utility.yul\":7589:7592   */\n      0x00\n        /* \"#utility.yul\":7617:7655   */\n      tag_211\n        /* \"#utility.yul\":7649:7654   */\n      dup3\n        /* \"#utility.yul\":7617:7655   */\n      tag_101\n      jump\t// in\n    tag_211:\n        /* \"#utility.yul\":7671:7741   */\n      tag_212\n        /* \"#utility.yul\":7734:7740   */\n      dup2\n        /* \"#utility.yul\":7729:7732   */\n      dup6\n        /* \"#utility.yul\":7671:7741   */\n      tag_102\n      jump\t// in\n    tag_212:\n        /* \"#utility.yul\":7664:7741   */\n      swap4\n      pop\n        /* \"#utility.yul\":7750:7815   */\n      tag_213\n        /* \"#utility.yul\":7808:7814   */\n      dup2\n        /* \"#utility.yul\":7803:7806   */\n      dup6\n        /* \"#utility.yul\":7796:7800   */\n      0x20\n        /* \"#utility.yul\":7789:7794   */\n      dup7\n        /* \"#utility.yul\":7785:7801   */\n      add\n        /* \"#utility.yul\":7750:7815   */\n      tag_103\n      jump\t// in\n    tag_213:\n        /* \"#utility.yul\":7840:7869   */\n      tag_214\n        /* \"#utility.yul\":7862:7868   */\n      dup2\n        /* \"#utility.yul\":7840:7869   */\n      tag_93\n      jump\t// in\n    tag_214:\n        /* \"#utility.yul\":7835:7838   */\n      dup5\n        /* \"#utility.yul\":7831:7870   */\n      add\n        /* \"#utility.yul\":7824:7870   */\n      swap2\n      pop\n        /* \"#utility.yul\":7593:7876   */\n      pop\n        /* \"#utility.yul\":7503:7876   */\n      swap3\n      swap2\n      pop\n      pop\n      jump\t// out\n        /* \"#utility.yul\":7882:8191   */\n    tag_45:\n        /* \"#utility.yul\":7993:7997   */\n      0x00\n        /* \"#utility.yul\":8031:8033   */\n      0x20\n        /* \"#utility.yul\":8020:8029   */\n      dup3\n        /* \"#utility.yul\":8016:8034   */\n      add\n        /* \"#utility.yul\":8008:8034   */\n      swap1\n      pop\n        /* \"#utility.yul\":8080:8089   */\n      dup2\n        /* \"#utility.yul\":8074:8078   */\n      dup2\n        /* \"#utility.yul\":8070:8090   */\n      sub\n        /* \"#utility.yul\":8066:8067   */\n      0x00\n        /* \"#utility.yul\":8055:8064   */\n      dup4\n        /* \"#utility.yul\":8051:8068   */\n      add\n        /* \"#utility.yul\":8044:8091   */\n      mstore\n        /* \"#utility.yul\":8108:8184   */\n      tag_216\n        /* \"#utility.yul\":8179:8183   */\n      dup2\n        /* \"#utility.yul\":8170:8176   */\n      dup5\n        /* \"#utility.yul\":8108:8184   */\n      tag_104\n      jump\t// in\n    tag_216:\n        /* \"#utility.yul\":8100:8184   */\n      swap1\n      pop\n        /* \"#utility.yul\":7882:8191   */\n      swap3\n      swap2\n      pop\n      pop\n      jump\t// out\n        /* \"#utility.yul\":8197:8366   */\n    tag_105:\n        /* \"#utility.yul\":8281:8292   */\n      0x00\n        /* \"#utility.yul\":8315:8321   */\n      dup3\n        /* \"#utility.yul\":8310:8313   */\n      dup3\n        /* \"#utility.yul\":8303:8322   */\n      mstore\n        /* \"#utility.yul\":8355:8359   */\n      0x20\n        /* \"#utility.yul\":8350:8353   */\n      dup3\n        /* \"#utility.yul\":8346:8360   */\n      add\n        /* \"#utility.yul\":8331:8360   */\n      swap1\n      pop\n        /* \"#utility.yul\":8197:8366   */\n      swap3\n      swap2\n      pop\n      pop\n      jump\t// out\n        /* \"#utility.yul\":8372:8554   */\n    tag_106:\n        /* \"#utility.yul\":8512:8546   */\n      0x596f7520617265206e6f7420746865206f776e65722c2061626f7274696e672e\n        /* \"#utility.yul\":8508:8509   */\n      0x00\n        /* \"#utility.yul\":8500:8506   */\n      dup3\n        /* \"#utility.yul\":8496:8510   */\n      add\n        /* \"#utility.yul\":8489:8547   */\n      mstore\n        /* \"#utility.yul\":8372:8554   */\n      pop\n      jump\t// out\n        /* \"#utility.yul\":8560:8926   */\n    tag_107:\n        /* \"#utility.yul\":8702:8705   */\n      0x00\n        /* \"#utility.yul\":8723:8790   */\n      tag_220\n        /* \"#utility.yul\":8787:8789   */\n      0x20\n        /* \"#utility.yul\":8782:8785   */\n      dup4\n        /* \"#utility.yul\":8723:8790   */\n      tag_105\n      jump\t// in\n    tag_220:\n        /* \"#utility.yul\":8716:8790   */\n      swap2\n      pop\n        /* \"#utility.yul\":8799:8892   */\n      tag_221\n        /* \"#utility.yul\":8888:8891   */\n      dup3\n        /* \"#utility.yul\":8799:8892   */\n      tag_106\n      jump\t// in\n    tag_221:\n        /* \"#utility.yul\":8917:8919   */\n      0x20\n        /* \"#utility.yul\":8912:8915   */\n      dup3\n        /* \"#utility.yul\":8908:8920   */\n      add\n        /* \"#utility.yul\":8901:8920   */\n      swap1\n      pop\n        /* \"#utility.yul\":8560:8926   */\n      swap2\n      swap1\n      pop\n      jump\t// out\n        /* \"#utility.yul\":8932:9351   */\n    tag_49:\n        /* \"#utility.yul\":9098:9102   */\n      0x00\n        /* \"#utility.yul\":9136:9138   */\n      0x20\n        /* \"#utility.yul\":9125:9134   */\n      dup3\n        /* \"#utility.yul\":9121:9139   */\n      add\n        /* \"#utility.yul\":9113:9139   */\n      swap1\n      pop\n        /* \"#utility.yul\":9185:9194   */\n      dup2\n        /* \"#utility.yul\":9179:9183   */\n      dup2\n        /* \"#utility.yul\":9175:9195   */\n      sub\n        /* \"#utility.yul\":9171:9172   */\n      0x00\n        /* \"#utility.yul\":9160:9169   */\n      dup4\n        /* \"#utility.yul\":9156:9173   */\n      add\n        /* \"#utility.yul\":9149:9196   */\n      mstore\n        /* \"#utility.yul\":9213:9344   */\n      tag_223\n        /* \"#utility.yul\":9339:9343   */\n      dup2\n        /* \"#utility.yul\":9213:9344   */\n      tag_107\n      jump\t// in\n    tag_223:\n        /* \"#utility.yul\":9205:9344   */\n      swap1\n      pop\n        /* \"#utility.yul\":8932:9351   */\n      swap2\n      swap1\n      pop\n      jump\t// out\n        /* \"#utility.yul\":9357:9646   */\n    tag_108:\n        /* \"#utility.yul\":9497:9531   */\n      0x596f7520617265206e6f74207065726d697474656420746f2070726f63657373\n        /* \"#utility.yul\":9493:9494   */\n      0x00\n        /* \"#utility.yul\":9485:9491   */\n      dup3\n        /* \"#utility.yul\":9481:9495   */\n      add\n        /* \"#utility.yul\":9474:9532   */\n      mstore\n        /* \"#utility.yul\":9566:9600   */\n      0x207472616e73616374696f6e732066726f6d207468697320636f6e7472616374\n        /* \"#utility.yul\":9561:9563   */\n      0x20\n        /* \"#utility.yul\":9553:9559   */\n      dup3\n        /* \"#utility.yul\":9549:9564   */\n      add\n        /* \"#utility.yul\":9542:9601   */\n      mstore\n        /* \"#utility.yul\":9635:9638   */\n      0x2e00000000000000000000000000000000000000000000000000000000000000\n        /* \"#utility.yul\":9630:9632   */\n      0x40\n        /* \"#utility.yul\":9622:9628   */\n      dup3\n        /* \"#utility.yul\":9618:9633   */\n      add\n        /* \"#utility.yul\":9611:9639   */\n      mstore\n        /* \"#utility.yul\":9357:9646   */\n      pop\n      jump\t// out\n        /* \"#utility.yul\":9652:10018   */\n    tag_109:\n        /* \"#utility.yul\":9794:9797   */\n      0x00\n        /* \"#utility.yul\":9815:9882   */\n      tag_226\n        /* \"#utility.yul\":9879:9881   */\n      0x41\n        /* \"#utility.yul\":9874:9877   */\n      dup4\n        /* \"#utility.yul\":9815:9882   */\n      tag_105\n      jump\t// in\n    tag_226:\n        /* \"#utility.yul\":9808:9882   */\n      swap2\n      pop\n        /* \"#utility.yul\":9891:9984   */\n      tag_227\n        /* \"#utility.yul\":9980:9983   */\n      dup3\n        /* \"#utility.yul\":9891:9984   */\n      tag_108\n      jump\t// in\n    tag_227:\n        /* \"#utility.yul\":10009:10011   */\n      0x60\n        /* \"#utility.yul\":10004:10007   */\n      dup3\n        /* \"#utility.yul\":10000:10012   */\n      add\n        /* \"#utility.yul\":9993:10012   */\n      swap1\n      pop\n        /* \"#utility.yul\":9652:10018   */\n      swap2\n      swap1\n      pop\n      jump\t// out\n        /* \"#utility.yul\":10024:10443   */\n    tag_59:\n        /* \"#utility.yul\":10190:10194   */\n      0x00\n        /* \"#utility.yul\":10228:10230   */\n      0x20\n        /* \"#utility.yul\":10217:10226   */\n      dup3\n        /* \"#utility.yul\":10213:10231   */\n      add\n        /* \"#utility.yul\":10205:10231   */\n      swap1\n      pop\n        /* \"#utility.yul\":10277:10286   */\n      dup2\n        /* \"#utility.yul\":10271:10275   */\n      dup2\n        /* \"#utility.yul\":10267:10287   */\n      sub\n        /* \"#utility.yul\":10263:10264   */\n      0x00\n        /* \"#utility.yul\":10252:10261   */\n      dup4\n        /* \"#utility.yul\":10248:10265   */\n      add\n        /* \"#utility.yul\":10241:10288   */\n      mstore\n        /* \"#utility.yul\":10305:10436   */\n      tag_229\n        /* \"#utility.yul\":10431:10435   */\n      dup2\n        /* \"#utility.yul\":10305:10436   */\n      tag_109\n      jump\t// in\n    tag_229:\n        /* \"#utility.yul\":10297:10436   */\n      swap1\n      pop\n        /* \"#utility.yul\":10024:10443   */\n      swap2\n      swap1\n      pop\n      jump\t// out\n        /* \"#utility.yul\":10449:10698   */\n    tag_110:\n        /* \"#utility.yul\":10589:10623   */\n      0x596f752061726520747972696e6720746f2073656e64206d6f7265207468616e\n        /* \"#utility.yul\":10585:10586   */\n      0x00\n        /* \"#utility.yul\":10577:10583   */\n      dup3\n        /* \"#utility.yul\":10573:10587   */\n      add\n        /* \"#utility.yul\":10566:10624   */\n      mstore\n        /* \"#utility.yul\":10658:10690   */\n      0x20796f752061726520616c6c6f77656420746f2c2061626f7274696e672e0000\n        /* \"#utility.yul\":10653:10655   */\n      0x20\n        /* \"#utility.yul\":10645:10651   */\n      dup3\n        /* \"#utility.yul\":10641:10656   */\n      add\n        /* \"#utility.yul\":10634:10691   */\n      mstore\n        /* \"#utility.yul\":10449:10698   */\n      pop\n      jump\t// out\n        /* \"#utility.yul\":10704:11070   */\n    tag_111:\n        /* \"#utility.yul\":10846:10849   */\n      0x00\n        /* \"#utility.yul\":10867:10934   */\n      tag_232\n        /* \"#utility.yul\":10931:10933   */\n      0x3e\n        /* \"#utility.yul\":10926:10929   */\n      dup4\n        /* \"#utility.yul\":10867:10934   */\n      tag_105\n      jump\t// in\n    tag_232:\n        /* \"#utility.yul\":10860:10934   */\n      swap2\n      pop\n        /* \"#utility.yul\":10943:11036   */\n      tag_233\n        /* \"#utility.yul\":11032:11035   */\n      dup3\n        /* \"#utility.yul\":10943:11036   */\n      tag_110\n      jump\t// in\n    tag_233:\n        /* \"#utility.yul\":11061:11063   */\n      0x40\n        /* \"#utility.yul\":11056:11059   */\n      dup3\n        /* \"#utility.yul\":11052:11064   */\n      add\n        /* \"#utility.yul\":11045:11064   */\n      swap1\n      pop\n        /* \"#utility.yul\":10704:11070   */\n      swap2\n      swap1\n      pop\n      jump\t// out\n        /* \"#utility.yul\":11076:11495   */\n    tag_62:\n        /* \"#utility.yul\":11242:11246   */\n      0x00\n        /* \"#utility.yul\":11280:11282   */\n      0x20\n        /* \"#utility.yul\":11269:11278   */\n      dup3\n        /* \"#utility.yul\":11265:11283   */\n      add\n        /* \"#utility.yul\":11257:11283   */\n      swap1\n      pop\n        /* \"#utility.yul\":11329:11338   */\n      dup2\n        /* \"#utility.yul\":11323:11327   */\n      dup2\n        /* \"#utility.yul\":11319:11339   */\n      sub\n        /* \"#utility.yul\":11315:11316   */\n      0x00\n        /* \"#utility.yul\":11304:11313   */\n      dup4\n        /* \"#utility.yul\":11300:11317   */\n      add\n        /* \"#utility.yul\":11293:11340   */\n      mstore\n        /* \"#utility.yul\":11357:11488   */\n      tag_235\n        /* \"#utility.yul\":11483:11487   */\n      dup2\n        /* \"#utility.yul\":11357:11488   */\n      tag_111\n      jump\t// in\n    tag_235:\n        /* \"#utility.yul\":11349:11488   */\n      swap1\n      pop\n        /* \"#utility.yul\":11076:11495   */\n      swap2\n      swap1\n      pop\n      jump\t// out\n        /* \"#utility.yul\":11501:11681   */\n    tag_112:\n        /* \"#utility.yul\":11549:11626   */\n      0x4e487b7100000000000000000000000000000000000000000000000000000000\n        /* \"#utility.yul\":11546:11547   */\n      0x00\n        /* \"#utility.yul\":11539:11627   */\n      mstore\n        /* \"#utility.yul\":11646:11650   */\n      0x11\n        /* \"#utility.yul\":11643:11644   */\n      0x04\n        /* \"#utility.yul\":11636:11651   */\n      mstore\n        /* \"#utility.yul\":11670:11674   */\n      0x24\n        /* \"#utility.yul\":11667:11668   */\n      0x00\n        /* \"#utility.yul\":11660:11675   */\n      revert\n        /* \"#utility.yul\":11687:11881   */\n    tag_64:\n        /* \"#utility.yul\":11727:11731   */\n      0x00\n        /* \"#utility.yul\":11747:11767   */\n      tag_238\n        /* \"#utility.yul\":11765:11766   */\n      dup3\n        /* \"#utility.yul\":11747:11767   */\n      tag_84\n      jump\t// in\n    tag_238:\n        /* \"#utility.yul\":11742:11767   */\n      swap2\n      pop\n        /* \"#utility.yul\":11781:11801   */\n      tag_239\n        /* \"#utility.yul\":11799:11800   */\n      dup4\n        /* \"#utility.yul\":11781:11801   */\n      tag_84\n      jump\t// in\n    tag_239:\n        /* \"#utility.yul\":11776:11801   */\n      swap3\n      pop\n        /* \"#utility.yul\":11825:11826   */\n      dup3\n        /* \"#utility.yul\":11822:11823   */\n      dup3\n        /* \"#utility.yul\":11818:11827   */\n      sub\n        /* \"#utility.yul\":11810:11827   */\n      swap1\n      pop\n        /* \"#utility.yul\":11849:11850   */\n      dup2\n        /* \"#utility.yul\":11843:11847   */\n      dup2\n        /* \"#utility.yul\":11840:11851   */\n      gt\n        /* \"#utility.yul\":11837:11874   */\n      iszero\n      tag_240\n      jumpi\n        /* \"#utility.yul\":11854:11872   */\n      tag_241\n      tag_112\n      jump\t// in\n    tag_241:\n        /* \"#utility.yul\":11837:11874   */\n    tag_240:\n        /* \"#utility.yul\":11687:11881   */\n      swap3\n      swap2\n      pop\n      pop\n      jump\t// out\n        /* \"#utility.yul\":11887:12034   */\n    tag_113:\n        /* \"#utility.yul\":11988:11999   */\n      0x00\n        /* \"#utility.yul\":12025:12028   */\n      dup2\n        /* \"#utility.yul\":12010:12028   */\n      swap1\n      pop\n        /* \"#utility.yul\":11887:12034   */\n      swap3\n      swap2\n      pop\n      pop\n      jump\t// out\n        /* \"#utility.yul\":12040:12426   */\n    tag_114:\n        /* \"#utility.yul\":12144:12147   */\n      0x00\n        /* \"#utility.yul\":12172:12210   */\n      tag_244\n        /* \"#utility.yul\":12204:12209   */\n      dup3\n        /* \"#utility.yul\":12172:12210   */\n      tag_101\n      jump\t// in\n    tag_244:\n        /* \"#utility.yul\":12226:12314   */\n      tag_245\n        /* \"#utility.yul\":12307:12313   */\n      dup2\n        /* \"#utility.yul\":12302:12305   */\n      dup6\n        /* \"#utility.yul\":12226:12314   */\n      tag_113\n      jump\t// in\n    tag_245:\n        /* \"#utility.yul\":12219:12314   */\n      swap4\n      pop\n        /* \"#utility.yul\":12323:12388   */\n      tag_246\n        /* \"#utility.yul\":12381:12387   */\n      dup2\n        /* \"#utility.yul\":12376:12379   */\n      dup6\n        /* \"#utility.yul\":12369:12373   */\n      0x20\n        /* \"#utility.yul\":12362:12367   */\n      dup7\n        /* \"#utility.yul\":12358:12374   */\n      add\n        /* \"#utility.yul\":12323:12388   */\n      tag_103\n      jump\t// in\n    tag_246:\n        /* \"#utility.yul\":12413:12419   */\n      dup1\n        /* \"#utility.yul\":12408:12411   */\n      dup5\n        /* \"#utility.yul\":12404:12420   */\n      add\n        /* \"#utility.yul\":12397:12420   */\n      swap2\n      pop\n        /* \"#utility.yul\":12148:12426   */\n      pop\n        /* \"#utility.yul\":12040:12426   */\n      swap3\n      swap2\n      pop\n      pop\n      jump\t// out\n        /* \"#utility.yul\":12432:12703   */\n    tag_66:\n        /* \"#utility.yul\":12562:12565   */\n      0x00\n        /* \"#utility.yul\":12584:12677   */\n      tag_248\n        /* \"#utility.yul\":12673:12676   */\n      dup3\n        /* \"#utility.yul\":12664:12670   */\n      dup5\n        /* \"#utility.yul\":12584:12677   */\n      tag_114\n      jump\t// in\n    tag_248:\n        /* \"#utility.yul\":12577:12677   */\n      swap2\n      pop\n        /* \"#utility.yul\":12694:12697   */\n      dup2\n        /* \"#utility.yul\":12687:12697   */\n      swap1\n      pop\n        /* \"#utility.yul\":12432:12703   */\n      swap3\n      swap2\n      pop\n      pop\n      jump\t// out\n        /* \"#utility.yul\":12709:12929   */\n    tag_115:\n        /* \"#utility.yul\":12849:12883   */\n      0x41626f7274696e672063616c6c20776173206e6f74207375636365737366756c\n        /* \"#utility.yul\":12845:12846   */\n      0x00\n        /* \"#utility.yul\":12837:12843   */\n      dup3\n        /* \"#utility.yul\":12833:12847   */\n      add\n        /* \"#utility.yul\":12826:12884   */\n      mstore\n        /* \"#utility.yul\":12918:12921   */\n      0x2e00000000000000000000000000000000000000000000000000000000000000\n        /* \"#utility.yul\":12913:12915   */\n      0x20\n        /* \"#utility.yul\":12905:12911   */\n      dup3\n        /* \"#utility.yul\":12901:12916   */\n      add\n        /* \"#utility.yul\":12894:12922   */\n      mstore\n        /* \"#utility.yul\":12709:12929   */\n      pop\n      jump\t// out\n        /* \"#utility.yul\":12935:13301   */\n    tag_116:\n        /* \"#utility.yul\":13077:13080   */\n      0x00\n        /* \"#utility.yul\":13098:13165   */\n      tag_251\n        /* \"#utility.yul\":13162:13164   */\n      0x21\n        /* \"#utility.yul\":13157:13160   */\n      dup4\n        /* \"#utility.yul\":13098:13165   */\n      tag_105\n      jump\t// in\n    tag_251:\n        /* \"#utility.yul\":13091:13165   */\n      swap2\n      pop\n        /* \"#utility.yul\":13174:13267   */\n      tag_252\n        /* \"#utility.yul\":13263:13266   */\n      dup3\n        /* \"#utility.yul\":13174:13267   */\n      tag_115\n      jump\t// in\n    tag_252:\n        /* \"#utility.yul\":13292:13294   */\n      0x40\n        /* \"#utility.yul\":13287:13290   */\n      dup3\n        /* \"#utility.yul\":13283:13295   */\n      add\n        /* \"#utility.yul\":13276:13295   */\n      swap1\n      pop\n        /* \"#utility.yul\":12935:13301   */\n      swap2\n      swap1\n      pop\n      jump\t// out\n        /* \"#utility.yul\":13307:13726   */\n    tag_72:\n        /* \"#utility.yul\":13473:13477   */\n      0x00\n        /* \"#utility.yul\":13511:13513   */\n      0x20\n        /* \"#utility.yul\":13500:13509   */\n      dup3\n        /* \"#utility.yul\":13496:13514   */\n      add\n        /* \"#utility.yul\":13488:13514   */\n      swap1\n      pop\n        /* \"#utility.yul\":13560:13569   */\n      dup2\n        /* \"#utility.yul\":13554:13558   */\n      dup2\n        /* \"#utility.yul\":13550:13570   */\n      sub\n        /* \"#utility.yul\":13546:13547   */\n      0x00\n        /* \"#utility.yul\":13535:13544   */\n      dup4\n        /* \"#utility.yul\":13531:13548   */\n      add\n        /* \"#utility.yul\":13524:13571   */\n      mstore\n        /* \"#utility.yul\":13588:13719   */\n      tag_254\n        /* \"#utility.yul\":13714:13718   */\n      dup2\n        /* \"#utility.yul\":13588:13719   */\n      tag_116\n      jump\t// in\n    tag_254:\n        /* \"#utility.yul\":13580:13719   */\n      swap1\n      pop\n        /* \"#utility.yul\":13307:13726   */\n      swap2\n      swap1\n      pop\n      jump\t// out\n\n    auxdata: 0xa2646970667358221220fa31891c9e0d372fdfe5c4b9bec8a57a628a8b6048e3cb0e5a51f482ba79d75f64736f6c63430008110033\n}\n",
				"bytecode": {
					"linkReferences": {},
					"object": "608060405234801561001057600080fd5b50336000806101000a81548173ffffffffffffffffffffffffffffffffffffffff021916908373ffffffffffffffffffffffffffffffffffffffff160217905550610eb1806100606000396000f3fe6080604052600436106100595760003560e01c80630633b14a146100655780630bc605ad146100a25780632b8a1c5a146100df578063310ec4a7146101085780633e5beab914610131578063be45fd621461016e57610060565b3661006057005b600080fd5b34801561007157600080fd5b5061008c60048036038101906100879190610769565b6101ab565b60405161009991906107b1565b60405180910390f35b3480156100ae57600080fd5b506100c960048036038101906100c49190610769565b6101cb565b6040516100d691906107b1565b60405180910390f35b3480156100eb57600080fd5b50610106600480360381019061010191906107f8565b6101eb565b005b34801561011457600080fd5b5061012f600480360381019061012a919061086e565b6102d4565b005b34801561013d57600080fd5b5061015860048036038101906101539190610769565b610469565b60405161016591906108bd565b60405180910390f35b34801561017a57600080fd5b5061019560048036038101906101909190610a5c565b610481565b6040516101a29190610b4a565b60405180910390f35b60036020528060005260406000206000915054906101000a900460ff1681565b60026020528060005260406000206000915054906101000a900460ff1681565b60008054906101000a900473ffffffffffffffffffffffffffffffffffffffff1673ffffffffffffffffffffffffffffffffffffffff163373ffffffffffffffffffffffffffffffffffffffff1614610279576040517f08c379a000000000000000000000000000000000000000000000000000000000815260040161027090610bc9565b60405180910390fd5b80600360008473ffffffffffffffffffffffffffffffffffffffff1673ffffffffffffffffffffffffffffffffffffffff16815260200190815260200160002060006101000a81548160ff0219169083151502179055505050565b60008054906101000a900473ffffffffffffffffffffffffffffffffffffffff1673ffffffffffffffffffffffffffffffffffffffff163373ffffffffffffffffffffffffffffffffffffffff1614610362576040517f08c379a000000000000000000000000000000000000000000000000000000000815260040161035990610bc9565b60405180910390fd5b80600160003373ffffffffffffffffffffffffffffffffffffffff1673ffffffffffffffffffffffffffffffffffffffff16815260200190815260200160002081905550600081111561040c576001600260008473ffffffffffffffffffffffffffffffffffffffff1673ffffffffffffffffffffffffffffffffffffffff16815260200190815260200160002060006101000a81548160ff021916908315150217905550610465565b6000600260008473ffffffffffffffffffffffffffffffffffffffff1673ffffffffffffffffffffffffffffffffffffffff16815260200190815260200160002060006101000a81548160ff0219169083151502179055505b5050565b60016020528060005260406000206000915090505481565b606060008054906101000a900473ffffffffffffffffffffffffffffffffffffffff1673ffffffffffffffffffffffffffffffffffffffff163373ffffffffffffffffffffffffffffffffffffffff161461063b57600260003373ffffffffffffffffffffffffffffffffffffffff1673ffffffffffffffffffffffffffffffffffffffff16815260200190815260200160002060009054906101000a900460ff16610562576040517f08c379a000000000000000000000000000000000000000000000000000000000815260040161055990610c81565b60405180910390fd5b82600160003373ffffffffffffffffffffffffffffffffffffffff1673ffffffffffffffffffffffffffffffffffffffff1681526020019081526020016000205410156105e4576040517f08c379a00000000000000000000000000000000000000000000000000000000081526004016105db90610d13565b60405180910390fd5b82600160003373ffffffffffffffffffffffffffffffffffffffff1673ffffffffffffffffffffffffffffffffffffffff16815260200190815260200160002060008282546106339190610d62565b925050819055505b6000808573ffffffffffffffffffffffffffffffffffffffff1685856040516106649190610dd2565b60006040518083038185875af1925050503d80600081146106a1576040519150601f19603f3d011682016040523d82523d6000602084013e6106a6565b606091505b5091509150816106eb576040517f08c379a00000000000000000000000000000000000000000000000000000000081526004016106e290610e5b565b60405180910390fd5b80925050509392505050565b6000604051905090565b600080fd5b600080fd5b600073ffffffffffffffffffffffffffffffffffffffff82169050919050565b60006107368261070b565b9050919050565b6107468161072b565b811461075157600080fd5b50565b6000813590506107638161073d565b92915050565b60006020828403121561077f5761077e610701565b5b600061078d84828501610754565b91505092915050565b60008115159050919050565b6107ab81610796565b82525050565b60006020820190506107c660008301846107a2565b92915050565b6107d581610796565b81146107e057600080fd5b50565b6000813590506107f2816107cc565b92915050565b6000806040838503121561080f5761080e610701565b5b600061081d85828601610754565b925050602061082e858286016107e3565b9150509250929050565b6000819050919050565b61084b81610838565b811461085657600080fd5b50565b60008135905061086881610842565b92915050565b6000806040838503121561088557610884610701565b5b600061089385828601610754565b92505060206108a485828601610859565b9150509250929050565b6108b781610838565b82525050565b60006020820190506108d260008301846108ae565b92915050565b60006108e38261070b565b9050919050565b6108f3816108d8565b81146108fe57600080fd5b50565b600081359050610910816108ea565b92915050565b600080fd5b600080fd5b6000601f19601f8301169050919050565b7f4e487b7100000000000000000000000000000000000000000000000000000000600052604160045260246000fd5b61096982610920565b810181811067ffffffffffffffff8211171561098857610987610931565b5b80604052505050565b600061099b6106f7565b90506109a78282610960565b919050565b600067ffffffffffffffff8211156109c7576109c6610931565b5b6109d082610920565b9050602081019050919050565b82818337600083830152505050565b60006109ff6109fa846109ac565b610991565b905082815260208101848484011115610a1b57610a1a61091b565b5b610a268482856109dd565b509392505050565b600082601f830112610a4357610a42610916565b5b8135610a538482602086016109ec565b91505092915050565b600080600060608486031215610a7557610a74610701565b5b6000610a8386828701610901565b9350506020610a9486828701610859565b925050604084013567ffffffffffffffff811115610ab557610ab4610706565b5b610ac186828701610a2e565b9150509250925092565b600081519050919050565b600082825260208201905092915050565b60005b83811015610b05578082015181840152602081019050610aea565b60008484015250505050565b6000610b1c82610acb565b610b268185610ad6565b9350610b36818560208601610ae7565b610b3f81610920565b840191505092915050565b60006020820190508181036000830152610b648184610b11565b905092915050565b600082825260208201905092915050565b7f596f7520617265206e6f7420746865206f776e65722c2061626f7274696e672e600082015250565b6000610bb3602083610b6c565b9150610bbe82610b7d565b602082019050919050565b60006020820190508181036000830152610be281610ba6565b9050919050565b7f596f7520617265206e6f74207065726d697474656420746f2070726f6365737360008201527f207472616e73616374696f6e732066726f6d207468697320636f6e747261637460208201527f2e00000000000000000000000000000000000000000000000000000000000000604082015250565b6000610c6b604183610b6c565b9150610c7682610be9565b606082019050919050565b60006020820190508181036000830152610c9a81610c5e565b9050919050565b7f596f752061726520747972696e6720746f2073656e64206d6f7265207468616e60008201527f20796f752061726520616c6c6f77656420746f2c2061626f7274696e672e0000602082015250565b6000610cfd603e83610b6c565b9150610d0882610ca1565b604082019050919050565b60006020820190508181036000830152610d2c81610cf0565b9050919050565b7f4e487b7100000000000000000000000000000000000000000000000000000000600052601160045260246000fd5b6000610d6d82610838565b9150610d7883610838565b9250828203905081811115610d9057610d8f610d33565b5b92915050565b600081905092915050565b6000610dac82610acb565b610db68185610d96565b9350610dc6818560208601610ae7565b80840191505092915050565b6000610dde8284610da1565b915081905092915050565b7f41626f7274696e672063616c6c20776173206e6f74207375636365737366756c60008201527f2e00000000000000000000000000000000000000000000000000000000000000602082015250565b6000610e45602183610b6c565b9150610e5082610de9565b604082019050919050565b60006020820190508181036000830152610e7481610e38565b905091905056fea2646970667358221220fa31891c9e0d372fdfe5c4b9bec8a57a628a8b6048e3cb0e5a51f482ba79d75f64736f6c63430008110033",
					"opcodes": "PUSH1 0x80 PUSH1 0x40 MSTORE CALLVALUE DUP1 ISZERO PUSH2 0x10 JUMPI PUSH1 0x0 DUP1 REVERT JUMPDEST POP CALLER PUSH1 0x0 DUP1 PUSH2 0x100 EXP DUP2 SLOAD DUP2 PUSH20 0xFFFFFFFFFFFFFFFFFFFFFFFFFFFFFFFFFFFFFFFF MUL NOT AND SWAP1 DUP4 PUSH20 0xFFFFFFFFFFFFFFFFFFFFFFFFFFFFFFFFFFFFFFFF AND MUL OR SWAP1 SSTORE POP PUSH2 0xEB1 DUP1 PUSH2 0x60 PUSH1 0x0 CODECOPY PUSH1 0x0 RETURN INVALID PUSH1 0x80 PUSH1 0x40 MSTORE PUSH1 0x4 CALLDATASIZE LT PUSH2 0x59 JUMPI PUSH1 0x0 CALLDATALOAD PUSH1 0xE0 SHR DUP1 PUSH4 0x633B14A EQ PUSH2 0x65 JUMPI DUP1 PUSH4 0xBC605AD EQ PUSH2 0xA2 JUMPI DUP1 PUSH4 0x2B8A1C5A EQ PUSH2 0xDF JUMPI DUP1 PUSH4 0x310EC4A7 EQ PUSH2 0x108 JUMPI DUP1 PUSH4 0x3E5BEAB9 EQ PUSH2 0x131 JUMPI DUP1 PUSH4 0xBE45FD62 EQ PUSH2 0x16E JUMPI PUSH2 0x60 JUMP JUMPDEST CALLDATASIZE PUSH2 0x60 JUMPI STOP JUMPDEST PUSH1 0x0 DUP1 REVERT JUMPDEST CALLVALUE DUP1 ISZERO PUSH2 0x71 JUMPI PUSH1 0x0 DUP1 REVERT JUMPDEST POP PUSH2 0x8C PUSH1 0x4 DUP1 CALLDATASIZE SUB DUP2 ADD SWAP1 PUSH2 0x87 SWAP2 SWAP1 PUSH2 0x769 JUMP JUMPDEST PUSH2 0x1AB JUMP JUMPDEST PUSH1 0x40 MLOAD PUSH2 0x99 SWAP2 SWAP1 PUSH2 0x7B1 JUMP JUMPDEST PUSH1 0x40 MLOAD DUP1 SWAP2 SUB SWAP1 RETURN JUMPDEST CALLVALUE DUP1 ISZERO PUSH2 0xAE JUMPI PUSH1 0x0 DUP1 REVERT JUMPDEST POP PUSH2 0xC9 PUSH1 0x4 DUP1 CALLDATASIZE SUB DUP2 ADD SWAP1 PUSH2 0xC4 SWAP2 SWAP1 PUSH2 0x769 JUMP JUMPDEST PUSH2 0x1CB JUMP JUMPDEST PUSH1 0x40 MLOAD PUSH2 0xD6 SWAP2 SWAP1 PUSH2 0x7B1 JUMP JUMPDEST PUSH1 0x40 MLOAD DUP1 SWAP2 SUB SWAP1 RETURN JUMPDEST CALLVALUE DUP1 ISZERO PUSH2 0xEB JUMPI PUSH1 0x0 DUP1 REVERT JUMPDEST POP PUSH2 0x106 PUSH1 0x4 DUP1 CALLDATASIZE SUB DUP2 ADD SWAP1 PUSH2 0x101 SWAP2 SWAP1 PUSH2 0x7F8 JUMP JUMPDEST PUSH2 0x1EB JUMP JUMPDEST STOP JUMPDEST CALLVALUE DUP1 ISZERO PUSH2 0x114 JUMPI PUSH1 0x0 DUP1 REVERT JUMPDEST POP PUSH2 0x12F PUSH1 0x4 DUP1 CALLDATASIZE SUB DUP2 ADD SWAP1 PUSH2 0x12A SWAP2 SWAP1 PUSH2 0x86E JUMP JUMPDEST PUSH2 0x2D4 JUMP JUMPDEST STOP JUMPDEST CALLVALUE DUP1 ISZERO PUSH2 0x13D JUMPI PUSH1 0x0 DUP1 REVERT JUMPDEST POP PUSH2 0x158 PUSH1 0x4 DUP1 CALLDATASIZE SUB DUP2 ADD SWAP1 PUSH2 0x153 SWAP2 SWAP1 PUSH2 0x769 JUMP JUMPDEST PUSH2 0x469 JUMP JUMPDEST PUSH1 0x40 MLOAD PUSH2 0x165 SWAP2 SWAP1 PUSH2 0x8BD JUMP JUMPDEST PUSH1 0x40 MLOAD DUP1 SWAP2 SUB SWAP1 RETURN JUMPDEST CALLVALUE DUP1 ISZERO PUSH2 0x17A JUMPI PUSH1 0x0 DUP1 REVERT JUMPDEST POP PUSH2 0x195 PUSH1 0x4 DUP1 CALLDATASIZE SUB DUP2 ADD SWAP1 PUSH2 0x190 SWAP2 SWAP1 PUSH2 0xA5C JUMP JUMPDEST PUSH2 0x481 JUMP JUMPDEST PUSH1 0x40 MLOAD PUSH2 0x1A2 SWAP2 SWAP1 PUSH2 0xB4A JUMP JUMPDEST PUSH1 0x40 MLOAD DUP1 SWAP2 SUB SWAP1 RETURN JUMPDEST PUSH1 0x3 PUSH1 0x20 MSTORE DUP1 PUSH1 0x0 MSTORE PUSH1 0x40 PUSH1 0x0 KECCAK256 PUSH1 0x0 SWAP2 POP SLOAD SWAP1 PUSH2 0x100 EXP SWAP1 DIV PUSH1 0xFF AND DUP2 JUMP JUMPDEST PUSH1 0x2 PUSH1 0x20 MSTORE DUP1 PUSH1 0x0 MSTORE PUSH1 0x40 PUSH1 0x0 KECCAK256 PUSH1 0x0 SWAP2 POP SLOAD SWAP1 PUSH2 0x100 EXP SWAP1 DIV PUSH1 0xFF AND DUP2 JUMP JUMPDEST PUSH1 0x0 DUP1 SLOAD SWAP1 PUSH2 0x100 EXP SWAP1 DIV PUSH20 0xFFFFFFFFFFFFFFFFFFFFFFFFFFFFFFFFFFFFFFFF AND PUSH20 0xFFFFFFFFFFFFFFFFFFFFFFFFFFFFFFFFFFFFFFFF AND CALLER PUSH20 0xFFFFFFFFFFFFFFFFFFFFFFFFFFFFFFFFFFFFFFFF AND EQ PUSH2 0x279 JUMPI PUSH1 0x40 MLOAD PUSH32 0x8C379A000000000000000000000000000000000000000000000000000000000 DUP2 MSTORE PUSH1 0x4 ADD PUSH2 0x270 SWAP1 PUSH2 0xBC9 JUMP JUMPDEST PUSH1 0x40 MLOAD DUP1 SWAP2 SUB SWAP1 REVERT JUMPDEST DUP1 PUSH1 0x3 PUSH1 0x0 DUP5 PUSH20 0xFFFFFFFFFFFFFFFFFFFFFFFFFFFFFFFFFFFFFFFF AND PUSH20 0xFFFFFFFFFFFFFFFFFFFFFFFFFFFFFFFFFFFFFFFF AND DUP2 MSTORE PUSH1 0x20 ADD SWAP1 DUP2 MSTORE PUSH1 0x20 ADD PUSH1 0x0 KECCAK256 PUSH1 0x0 PUSH2 0x100 EXP DUP2 SLOAD DUP2 PUSH1 0xFF MUL NOT AND SWAP1 DUP4 ISZERO ISZERO MUL OR SWAP1 SSTORE POP POP POP JUMP JUMPDEST PUSH1 0x0 DUP1 SLOAD SWAP1 PUSH2 0x100 EXP SWAP1 DIV PUSH20 0xFFFFFFFFFFFFFFFFFFFFFFFFFFFFFFFFFFFFFFFF AND PUSH20 0xFFFFFFFFFFFFFFFFFFFFFFFFFFFFFFFFFFFFFFFF AND CALLER PUSH20 0xFFFFFFFFFFFFFFFFFFFFFFFFFFFFFFFFFFFFFFFF AND EQ PUSH2 0x362 JUMPI PUSH1 0x40 MLOAD PUSH32 0x8C379A000000000000000000000000000000000000000000000000000000000 DUP2 MSTORE PUSH1 0x4 ADD PUSH2 0x359 SWAP1 PUSH2 0xBC9 JUMP JUMPDEST PUSH1 0x40 MLOAD DUP1 SWAP2 SUB SWAP1 REVERT JUMPDEST DUP1 PUSH1 0x1 PUSH1 0x0 CALLER PUSH20 0xFFFFFFFFFFFFFFFFFFFFFFFFFFFFFFFFFFFFFFFF AND PUSH20 0xFFFFFFFFFFFFFFFFFFFFFFFFFFFFFFFFFFFFFFFF AND DUP2 MSTORE PUSH1 0x20 ADD SWAP1 DUP2 MSTORE PUSH1 0x20 ADD PUSH1 0x0 KECCAK256 DUP2 SWAP1 SSTORE POP PUSH1 0x0 DUP2 GT ISZERO PUSH2 0x40C JUMPI PUSH1 0x1 PUSH1 0x2 PUSH1 0x0 DUP5 PUSH20 0xFFFFFFFFFFFFFFFFFFFFFFFFFFFFFFFFFFFFFFFF AND PUSH20 0xFFFFFFFFFFFFFFFFFFFFFFFFFFFFFFFFFFFFFFFF AND DUP2 MSTORE PUSH1 0x20 ADD SWAP1 DUP2 MSTORE PUSH1 0x20 ADD PUSH1 0x0 KECCAK256 PUSH1 0x0 PUSH2 0x100 EXP DUP2 SLOAD DUP2 PUSH1 0xFF MUL NOT AND SWAP1 DUP4 ISZERO ISZERO MUL OR SWAP1 SSTORE POP PUSH2 0x465 JUMP JUMPDEST PUSH1 0x0 PUSH1 0x2 PUSH1 0x0 DUP5 PUSH20 0xFFFFFFFFFFFFFFFFFFFFFFFFFFFFFFFFFFFFFFFF AND PUSH20 0xFFFFFFFFFFFFFFFFFFFFFFFFFFFFFFFFFFFFFFFF AND DUP2 MSTORE PUSH1 0x20 ADD SWAP1 DUP2 MSTORE PUSH1 0x20 ADD PUSH1 0x0 KECCAK256 PUSH1 0x0 PUSH2 0x100 EXP DUP2 SLOAD DUP2 PUSH1 0xFF MUL NOT AND SWAP1 DUP4 ISZERO ISZERO MUL OR SWAP1 SSTORE POP JUMPDEST POP POP JUMP JUMPDEST PUSH1 0x1 PUSH1 0x20 MSTORE DUP1 PUSH1 0x0 MSTORE PUSH1 0x40 PUSH1 0x0 KECCAK256 PUSH1 0x0 SWAP2 POP SWAP1 POP SLOAD DUP2 JUMP JUMPDEST PUSH1 0x60 PUSH1 0x0 DUP1 SLOAD SWAP1 PUSH2 0x100 EXP SWAP1 DIV PUSH20 0xFFFFFFFFFFFFFFFFFFFFFFFFFFFFFFFFFFFFFFFF AND PUSH20 0xFFFFFFFFFFFFFFFFFFFFFFFFFFFFFFFFFFFFFFFF AND CALLER PUSH20 0xFFFFFFFFFFFFFFFFFFFFFFFFFFFFFFFFFFFFFFFF AND EQ PUSH2 0x63B JUMPI PUSH1 0x2 PUSH1 0x0 CALLER PUSH20 0xFFFFFFFFFFFFFFFFFFFFFFFFFFFFFFFFFFFFFFFF AND PUSH20 0xFFFFFFFFFFFFFFFFFFFFFFFFFFFFFFFFFFFFFFFF AND DUP2 MSTORE PUSH1 0x20 ADD SWAP1 DUP2 MSTORE PUSH1 0x20 ADD PUSH1 0x0 KECCAK256 PUSH1 0x0 SWAP1 SLOAD SWAP1 PUSH2 0x100 EXP SWAP1 DIV PUSH1 0xFF AND PUSH2 0x562 JUMPI PUSH1 0x40 MLOAD PUSH32 0x8C379A000000000000000000000000000000000000000000000000000000000 DUP2 MSTORE PUSH1 0x4 ADD PUSH2 0x559 SWAP1 PUSH2 0xC81 JUMP JUMPDEST PUSH1 0x40 MLOAD DUP1 SWAP2 SUB SWAP1 REVERT JUMPDEST DUP3 PUSH1 0x1 PUSH1 0x0 CALLER PUSH20 0xFFFFFFFFFFFFFFFFFFFFFFFFFFFFFFFFFFFFFFFF AND PUSH20 0xFFFFFFFFFFFFFFFFFFFFFFFFFFFFFFFFFFFFFFFF AND DUP2 MSTORE PUSH1 0x20 ADD SWAP1 DUP2 MSTORE PUSH1 0x20 ADD PUSH1 0x0 KECCAK256 SLOAD LT ISZERO PUSH2 0x5E4 JUMPI PUSH1 0x40 MLOAD PUSH32 0x8C379A000000000000000000000000000000000000000000000000000000000 DUP2 MSTORE PUSH1 0x4 ADD PUSH2 0x5DB SWAP1 PUSH2 0xD13 JUMP JUMPDEST PUSH1 0x40 MLOAD DUP1 SWAP2 SUB SWAP1 REVERT JUMPDEST DUP3 PUSH1 0x1 PUSH1 0x0 CALLER PUSH20 0xFFFFFFFFFFFFFFFFFFFFFFFFFFFFFFFFFFFFFFFF AND PUSH20 0xFFFFFFFFFFFFFFFFFFFFFFFFFFFFFFFFFFFFFFFF AND DUP2 MSTORE PUSH1 0x20 ADD SWAP1 DUP2 MSTORE PUSH1 0x20 ADD PUSH1 0x0 KECCAK256 PUSH1 0x0 DUP3 DUP3 SLOAD PUSH2 0x633 SWAP2 SWAP1 PUSH2 0xD62 JUMP JUMPDEST SWAP3 POP POP DUP2 SWAP1 SSTORE POP JUMPDEST PUSH1 0x0 DUP1 DUP6 PUSH20 0xFFFFFFFFFFFFFFFFFFFFFFFFFFFFFFFFFFFFFFFF AND DUP6 DUP6 PUSH1 0x40 MLOAD PUSH2 0x664 SWAP2 SWAP1 PUSH2 0xDD2 JUMP JUMPDEST PUSH1 0x0 PUSH1 0x40 MLOAD DUP1 DUP4 SUB DUP2 DUP6 DUP8 GAS CALL SWAP3 POP POP POP RETURNDATASIZE DUP1 PUSH1 0x0 DUP2 EQ PUSH2 0x6A1 JUMPI PUSH1 0x40 MLOAD SWAP2 POP PUSH1 0x1F NOT PUSH1 0x3F RETURNDATASIZE ADD AND DUP3 ADD PUSH1 0x40 MSTORE RETURNDATASIZE DUP3 MSTORE RETURNDATASIZE PUSH1 0x0 PUSH1 0x20 DUP5 ADD RETURNDATACOPY PUSH2 0x6A6 JUMP JUMPDEST PUSH1 0x60 SWAP2 POP JUMPDEST POP SWAP2 POP SWAP2 POP DUP2 PUSH2 0x6EB JUMPI PUSH1 0x40 MLOAD PUSH32 0x8C379A000000000000000000000000000000000000000000000000000000000 DUP2 MSTORE PUSH1 0x4 ADD PUSH2 0x6E2 SWAP1 PUSH2 0xE5B JUMP JUMPDEST PUSH1 0x40 MLOAD DUP1 SWAP2 SUB SWAP1 REVERT JUMPDEST DUP1 SWAP3 POP POP POP SWAP4 SWAP3 POP POP POP JUMP JUMPDEST PUSH1 0x0 PUSH1 0x40 MLOAD SWAP1 POP SWAP1 JUMP JUMPDEST PUSH1 0x0 DUP1 REVERT JUMPDEST PUSH1 0x0 DUP1 REVERT JUMPDEST PUSH1 0x0 PUSH20 0xFFFFFFFFFFFFFFFFFFFFFFFFFFFFFFFFFFFFFFFF DUP3 AND SWAP1 POP SWAP2 SWAP1 POP JUMP JUMPDEST PUSH1 0x0 PUSH2 0x736 DUP3 PUSH2 0x70B JUMP JUMPDEST SWAP1 POP SWAP2 SWAP1 POP JUMP JUMPDEST PUSH2 0x746 DUP2 PUSH2 0x72B JUMP JUMPDEST DUP2 EQ PUSH2 0x751 JUMPI PUSH1 0x0 DUP1 REVERT JUMPDEST POP JUMP JUMPDEST PUSH1 0x0 DUP2 CALLDATALOAD SWAP1 POP PUSH2 0x763 DUP2 PUSH2 0x73D JUMP JUMPDEST SWAP3 SWAP2 POP POP JUMP JUMPDEST PUSH1 0x0 PUSH1 0x20 DUP3 DUP5 SUB SLT ISZERO PUSH2 0x77F JUMPI PUSH2 0x77E PUSH2 0x701 JUMP JUMPDEST JUMPDEST PUSH1 0x0 PUSH2 0x78D DUP5 DUP3 DUP6 ADD PUSH2 0x754 JUMP JUMPDEST SWAP2 POP POP SWAP3 SWAP2 POP POP JUMP JUMPDEST PUSH1 0x0 DUP2 ISZERO ISZERO SWAP1 POP SWAP2 SWAP1 POP JUMP JUMPDEST PUSH2 0x7AB DUP2 PUSH2 0x796 JUMP JUMPDEST DUP3 MSTORE POP POP JUMP JUMPDEST PUSH1 0x0 PUSH1 0x20 DUP3 ADD SWAP1 POP PUSH2 0x7C6 PUSH1 0x0 DUP4 ADD DUP5 PUSH2 0x7A2 JUMP JUMPDEST SWAP3 SWAP2 POP POP JUMP JUMPDEST PUSH2 0x7D5 DUP2 PUSH2 0x796 JUMP JUMPDEST DUP2 EQ PUSH2 0x7E0 JUMPI PUSH1 0x0 DUP1 REVERT JUMPDEST POP JUMP JUMPDEST PUSH1 0x0 DUP2 CALLDATALOAD SWAP1 POP PUSH2 0x7F2 DUP2 PUSH2 0x7CC JUMP JUMPDEST SWAP3 SWAP2 POP POP JUMP JUMPDEST PUSH1 0x0 DUP1 PUSH1 0x40 DUP4 DUP6 SUB SLT ISZERO PUSH2 0x80F JUMPI PUSH2 0x80E PUSH2 0x701 JUMP JUMPDEST JUMPDEST PUSH1 0x0 PUSH2 0x81D DUP6 DUP3 DUP7 ADD PUSH2 0x754 JUMP JUMPDEST SWAP3 POP POP PUSH1 0x20 PUSH2 0x82E DUP6 DUP3 DUP7 ADD PUSH2 0x7E3 JUMP JUMPDEST SWAP2 POP POP SWAP3 POP SWAP3 SWAP1 POP JUMP JUMPDEST PUSH1 0x0 DUP2 SWAP1 POP SWAP2 SWAP1 POP JUMP JUMPDEST PUSH2 0x84B DUP2 PUSH2 0x838 JUMP JUMPDEST DUP2 EQ PUSH2 0x856 JUMPI PUSH1 0x0 DUP1 REVERT JUMPDEST POP JUMP JUMPDEST PUSH1 0x0 DUP2 CALLDATALOAD SWAP1 POP PUSH2 0x868 DUP2 PUSH2 0x842 JUMP JUMPDEST SWAP3 SWAP2 POP POP JUMP JUMPDEST PUSH1 0x0 DUP1 PUSH1 0x40 DUP4 DUP6 SUB SLT ISZERO PUSH2 0x885 JUMPI PUSH2 0x884 PUSH2 0x701 JUMP JUMPDEST JUMPDEST PUSH1 0x0 PUSH2 0x893 DUP6 DUP3 DUP7 ADD PUSH2 0x754 JUMP JUMPDEST SWAP3 POP POP PUSH1 0x20 PUSH2 0x8A4 DUP6 DUP3 DUP7 ADD PUSH2 0x859 JUMP JUMPDEST SWAP2 POP POP SWAP3 POP SWAP3 SWAP1 POP JUMP JUMPDEST PUSH2 0x8B7 DUP2 PUSH2 0x838 JUMP JUMPDEST DUP3 MSTORE POP POP JUMP JUMPDEST PUSH1 0x0 PUSH1 0x20 DUP3 ADD SWAP1 POP PUSH2 0x8D2 PUSH1 0x0 DUP4 ADD DUP5 PUSH2 0x8AE JUMP JUMPDEST SWAP3 SWAP2 POP POP JUMP JUMPDEST PUSH1 0x0 PUSH2 0x8E3 DUP3 PUSH2 0x70B JUMP JUMPDEST SWAP1 POP SWAP2 SWAP1 POP JUMP JUMPDEST PUSH2 0x8F3 DUP2 PUSH2 0x8D8 JUMP JUMPDEST DUP2 EQ PUSH2 0x8FE JUMPI PUSH1 0x0 DUP1 REVERT JUMPDEST POP JUMP JUMPDEST PUSH1 0x0 DUP2 CALLDATALOAD SWAP1 POP PUSH2 0x910 DUP2 PUSH2 0x8EA JUMP JUMPDEST SWAP3 SWAP2 POP POP JUMP JUMPDEST PUSH1 0x0 DUP1 REVERT JUMPDEST PUSH1 0x0 DUP1 REVERT JUMPDEST PUSH1 0x0 PUSH1 0x1F NOT PUSH1 0x1F DUP4 ADD AND SWAP1 POP SWAP2 SWAP1 POP JUMP JUMPDEST PUSH32 0x4E487B7100000000000000000000000000000000000000000000000000000000 PUSH1 0x0 MSTORE PUSH1 0x41 PUSH1 0x4 MSTORE PUSH1 0x24 PUSH1 0x0 REVERT JUMPDEST PUSH2 0x969 DUP3 PUSH2 0x920 JUMP JUMPDEST DUP2 ADD DUP2 DUP2 LT PUSH8 0xFFFFFFFFFFFFFFFF DUP3 GT OR ISZERO PUSH2 0x988 JUMPI PUSH2 0x987 PUSH2 0x931 JUMP JUMPDEST JUMPDEST DUP1 PUSH1 0x40 MSTORE POP POP POP JUMP JUMPDEST PUSH1 0x0 PUSH2 0x99B PUSH2 0x6F7 JUMP JUMPDEST SWAP1 POP PUSH2 0x9A7 DUP3 DUP3 PUSH2 0x960 JUMP JUMPDEST SWAP2 SWAP1 POP JUMP JUMPDEST PUSH1 0x0 PUSH8 0xFFFFFFFFFFFFFFFF DUP3 GT ISZERO PUSH2 0x9C7 JUMPI PUSH2 0x9C6 PUSH2 0x931 JUMP JUMPDEST JUMPDEST PUSH2 0x9D0 DUP3 PUSH2 0x920 JUMP JUMPDEST SWAP1 POP PUSH1 0x20 DUP2 ADD SWAP1 POP SWAP2 SWAP1 POP JUMP JUMPDEST DUP3 DUP2 DUP4 CALLDATACOPY PUSH1 0x0 DUP4 DUP4 ADD MSTORE POP POP POP JUMP JUMPDEST PUSH1 0x0 PUSH2 0x9FF PUSH2 0x9FA DUP5 PUSH2 0x9AC JUMP JUMPDEST PUSH2 0x991 JUMP JUMPDEST SWAP1 POP DUP3 DUP2 MSTORE PUSH1 0x20 DUP2 ADD DUP5 DUP5 DUP5 ADD GT ISZERO PUSH2 0xA1B JUMPI PUSH2 0xA1A PUSH2 0x91B JUMP JUMPDEST JUMPDEST PUSH2 0xA26 DUP5 DUP3 DUP6 PUSH2 0x9DD JUMP JUMPDEST POP SWAP4 SWAP3 POP POP POP JUMP JUMPDEST PUSH1 0x0 DUP3 PUSH1 0x1F DUP4 ADD SLT PUSH2 0xA43 JUMPI PUSH2 0xA42 PUSH2 0x916 JUMP JUMPDEST JUMPDEST DUP2 CALLDATALOAD PUSH2 0xA53 DUP5 DUP3 PUSH1 0x20 DUP7 ADD PUSH2 0x9EC JUMP JUMPDEST SWAP2 POP POP SWAP3 SWAP2 POP POP JUMP JUMPDEST PUSH1 0x0 DUP1 PUSH1 0x0 PUSH1 0x60 DUP5 DUP7 SUB SLT ISZERO PUSH2 0xA75 JUMPI PUSH2 0xA74 PUSH2 0x701 JUMP JUMPDEST JUMPDEST PUSH1 0x0 PUSH2 0xA83 DUP7 DUP3 DUP8 ADD PUSH2 0x901 JUMP JUMPDEST SWAP4 POP POP PUSH1 0x20 PUSH2 0xA94 DUP7 DUP3 DUP8 ADD PUSH2 0x859 JUMP JUMPDEST SWAP3 POP POP PUSH1 0x40 DUP5 ADD CALLDATALOAD PUSH8 0xFFFFFFFFFFFFFFFF DUP2 GT ISZERO PUSH2 0xAB5 JUMPI PUSH2 0xAB4 PUSH2 0x706 JUMP JUMPDEST JUMPDEST PUSH2 0xAC1 DUP7 DUP3 DUP8 ADD PUSH2 0xA2E JUMP JUMPDEST SWAP2 POP POP SWAP3 POP SWAP3 POP SWAP3 JUMP JUMPDEST PUSH1 0x0 DUP2 MLOAD SWAP1 POP SWAP2 SWAP1 POP JUMP JUMPDEST PUSH1 0x0 DUP3 DUP3 MSTORE PUSH1 0x20 DUP3 ADD SWAP1 POP SWAP3 SWAP2 POP POP JUMP JUMPDEST PUSH1 0x0 JUMPDEST DUP4 DUP2 LT ISZERO PUSH2 0xB05 JUMPI DUP1 DUP3 ADD MLOAD DUP2 DUP5 ADD MSTORE PUSH1 0x20 DUP2 ADD SWAP1 POP PUSH2 0xAEA JUMP JUMPDEST PUSH1 0x0 DUP5 DUP5 ADD MSTORE POP POP POP POP JUMP JUMPDEST PUSH1 0x0 PUSH2 0xB1C DUP3 PUSH2 0xACB JUMP JUMPDEST PUSH2 0xB26 DUP2 DUP6 PUSH2 0xAD6 JUMP JUMPDEST SWAP4 POP PUSH2 0xB36 DUP2 DUP6 PUSH1 0x20 DUP7 ADD PUSH2 0xAE7 JUMP JUMPDEST PUSH2 0xB3F DUP2 PUSH2 0x920 JUMP JUMPDEST DUP5 ADD SWAP2 POP POP SWAP3 SWAP2 POP POP JUMP JUMPDEST PUSH1 0x0 PUSH1 0x20 DUP3 ADD SWAP1 POP DUP2 DUP2 SUB PUSH1 0x0 DUP4 ADD MSTORE PUSH2 0xB64 DUP2 DUP5 PUSH2 0xB11 JUMP JUMPDEST SWAP1 POP SWAP3 SWAP2 POP POP JUMP JUMPDEST PUSH1 0x0 DUP3 DUP3 MSTORE PUSH1 0x20 DUP3 ADD SWAP1 POP SWAP3 SWAP2 POP POP JUMP JUMPDEST PUSH32 0x596F7520617265206E6F7420746865206F776E65722C2061626F7274696E672E PUSH1 0x0 DUP3 ADD MSTORE POP JUMP JUMPDEST PUSH1 0x0 PUSH2 0xBB3 PUSH1 0x20 DUP4 PUSH2 0xB6C JUMP JUMPDEST SWAP2 POP PUSH2 0xBBE DUP3 PUSH2 0xB7D JUMP JUMPDEST PUSH1 0x20 DUP3 ADD SWAP1 POP SWAP2 SWAP1 POP JUMP JUMPDEST PUSH1 0x0 PUSH1 0x20 DUP3 ADD SWAP1 POP DUP2 DUP2 SUB PUSH1 0x0 DUP4 ADD MSTORE PUSH2 0xBE2 DUP2 PUSH2 0xBA6 JUMP JUMPDEST SWAP1 POP SWAP2 SWAP1 POP JUMP JUMPDEST PUSH32 0x596F7520617265206E6F74207065726D697474656420746F2070726F63657373 PUSH1 0x0 DUP3 ADD MSTORE PUSH32 0x207472616E73616374696F6E732066726F6D207468697320636F6E7472616374 PUSH1 0x20 DUP3 ADD MSTORE PUSH32 0x2E00000000000000000000000000000000000000000000000000000000000000 PUSH1 0x40 DUP3 ADD MSTORE POP JUMP JUMPDEST PUSH1 0x0 PUSH2 0xC6B PUSH1 0x41 DUP4 PUSH2 0xB6C JUMP JUMPDEST SWAP2 POP PUSH2 0xC76 DUP3 PUSH2 0xBE9 JUMP JUMPDEST PUSH1 0x60 DUP3 ADD SWAP1 POP SWAP2 SWAP1 POP JUMP JUMPDEST PUSH1 0x0 PUSH1 0x20 DUP3 ADD SWAP1 POP DUP2 DUP2 SUB PUSH1 0x0 DUP4 ADD MSTORE PUSH2 0xC9A DUP2 PUSH2 0xC5E JUMP JUMPDEST SWAP1 POP SWAP2 SWAP1 POP JUMP JUMPDEST PUSH32 0x596F752061726520747972696E6720746F2073656E64206D6F7265207468616E PUSH1 0x0 DUP3 ADD MSTORE PUSH32 0x20796F752061726520616C6C6F77656420746F2C2061626F7274696E672E0000 PUSH1 0x20 DUP3 ADD MSTORE POP JUMP JUMPDEST PUSH1 0x0 PUSH2 0xCFD PUSH1 0x3E DUP4 PUSH2 0xB6C JUMP JUMPDEST SWAP2 POP PUSH2 0xD08 DUP3 PUSH2 0xCA1 JUMP JUMPDEST PUSH1 0x40 DUP3 ADD SWAP1 POP SWAP2 SWAP1 POP JUMP JUMPDEST PUSH1 0x0 PUSH1 0x20 DUP3 ADD SWAP1 POP DUP2 DUP2 SUB PUSH1 0x0 DUP4 ADD MSTORE PUSH2 0xD2C DUP2 PUSH2 0xCF0 JUMP JUMPDEST SWAP1 POP SWAP2 SWAP1 POP JUMP JUMPDEST PUSH32 0x4E487B7100000000000000000000000000000000000000000000000000000000 PUSH1 0x0 MSTORE PUSH1 0x11 PUSH1 0x4 MSTORE PUSH1 0x24 PUSH1 0x0 REVERT JUMPDEST PUSH1 0x0 PUSH2 0xD6D DUP3 PUSH2 0x838 JUMP JUMPDEST SWAP2 POP PUSH2 0xD78 DUP4 PUSH2 0x838 JUMP JUMPDEST SWAP3 POP DUP3 DUP3 SUB SWAP1 POP DUP2 DUP2 GT ISZERO PUSH2 0xD90 JUMPI PUSH2 0xD8F PUSH2 0xD33 JUMP JUMPDEST JUMPDEST SWAP3 SWAP2 POP POP JUMP JUMPDEST PUSH1 0x0 DUP2 SWAP1 POP SWAP3 SWAP2 POP POP JUMP JUMPDEST PUSH1 0x0 PUSH2 0xDAC DUP3 PUSH2 0xACB JUMP JUMPDEST PUSH2 0xDB6 DUP2 DUP6 PUSH2 0xD96 JUMP JUMPDEST SWAP4 POP PUSH2 0xDC6 DUP2 DUP6 PUSH1 0x20 DUP7 ADD PUSH2 0xAE7 JUMP JUMPDEST DUP1 DUP5 ADD SWAP2 POP POP SWAP3 SWAP2 POP POP JUMP JUMPDEST PUSH1 0x0 PUSH2 0xDDE DUP3 DUP5 PUSH2 0xDA1 JUMP JUMPDEST SWAP2 POP DUP2 SWAP1 POP SWAP3 SWAP2 POP POP JUMP JUMPDEST PUSH32 0x41626F7274696E672063616C6C20776173206E6F74207375636365737366756C PUSH1 0x0 DUP3 ADD MSTORE PUSH32 0x2E00000000000000000000000000000000000000000000000000000000000000 PUSH1 0x20 DUP3 ADD MSTORE POP JUMP JUMPDEST PUSH1 0x0 PUSH2 0xE45 PUSH1 0x21 DUP4 PUSH2 0xB6C JUMP JUMPDEST SWAP2 POP PUSH2 0xE50 DUP3 PUSH2 0xDE9 JUMP JUMPDEST PUSH1 0x40 DUP3 ADD SWAP1 POP SWAP2 SWAP1 POP JUMP JUMPDEST PUSH1 0x0 PUSH1 0x20 DUP3 ADD SWAP1 POP DUP2 DUP2 SUB PUSH1 0x0 DUP4 ADD MSTORE PUSH2 0xE74 DUP2 PUSH2 0xE38 JUMP JUMPDEST SWAP1 POP SWAP2 SWAP1 POP JUMP INVALID LOG2 PUSH5 0x6970667358 0x22 SLT KECCAK256 STATICCALL BALANCE DUP10 SHR SWAP15 0xD CALLDATACOPY 0x2F 0xDF 0xE5 0xC4 0xB9 0xBE 0xC8 0xA5 PUSH27 0x628A8B6048E3CB0E5A51F482BA79D75F64736F6C63430008110033 "
				},
				"gasEstimates": {
					"creation": {
						"codeDepositCost": "752200",
						"executionCost": "25052",
						"totalCost": "777252"
					},
					"external": {
						"allowance(address)": "2880",
						"guardians(address)": "2823",
						"isAllowedToSend(address)": "2845",
						"setAllowance(address,uint256)": "49436",
						"setGuardian(address,bool)": "27180",
						"transfer(address,uint256,bytes)": "infinite"
					}
				},
				"methodIdentifiers": {
					"allowance(address)": "3e5beab9",
					"guardians(address)": "0633b14a",
					"isAllowedToSend(address)": "0bc605ad",
					"setAllowance(address,uint256)": "310ec4a7",
					"setGuardian(address,bool)": "2b8a1c5a",
					"transfer(address,uint256,bytes)": "be45fd62"
				}
			},
			"storageLayout": {
				"storage": [
					{
						"astId": 3,
						"contract": "contracts/SmartContractWallet.sol:SmartContractWallet",
						"label": "owner",
						"offset": 0,
						"slot": "0",
						"type": "t_address_payable"
					},
					{
						"astId": 7,
						"contract": "contracts/SmartContractWallet.sol:SmartContractWallet",
						"label": "allowance",
						"offset": 0,
						"slot": "1",
						"type": "t_mapping(t_address,t_uint256)"
					},
					{
						"astId": 11,
						"contract": "contracts/SmartContractWallet.sol:SmartContractWallet",
						"label": "isAllowedToSend",
						"offset": 0,
						"slot": "2",
						"type": "t_mapping(t_address,t_bool)"
					},
					{
						"astId": 15,
						"contract": "contracts/SmartContractWallet.sol:SmartContractWallet",
						"label": "guardians",
						"offset": 0,
						"slot": "3",
						"type": "t_mapping(t_address,t_bool)"
					},
					{
						"astId": 17,
						"contract": "contracts/SmartContractWallet.sol:SmartContractWallet",
						"label": "newOwner",
						"offset": 0,
						"slot": "4",
						"type": "t_address_payable"
					}
				],
				"types": {
					"t_address": {
						"encoding": "inplace",
						"label": "address",
						"numberOfBytes": "20"
					},
					"t_address_payable": {
						"encoding": "inplace",
						"label": "address payable",
						"numberOfBytes": "20"
					},
					"t_bool": {
						"encoding": "inplace",
						"label": "bool",
						"numberOfBytes": "1"
					},
					"t_mapping(t_address,t_bool)": {
						"encoding": "mapping",
						"key": "t_address",
						"label": "mapping(address => bool)",
						"numberOfBytes": "32",
						"value": "t_bool"
					},
					"t_mapping(t_address,t_uint256)": {
						"encoding": "mapping",
						"key": "t_address",
						"label": "mapping(address => uint256)",
						"numberOfBytes": "32",
						"value": "t_uint256"
					},
					"t_uint256": {
						"encoding": "inplace",
						"label": "uint256",
						"numberOfBytes": "32"
					}
				}
			},
			"userdoc": {
				"kind": "user",
				"methods": {},
				"version": 1
			}
		}
	}
}