{
	"contracts/SmartContractWallet.sol": {
		"SmartContractWallet": {
			"abi": [
				{
					"inputs": [],
					"stateMutability": "nonpayable",
					"type": "constructor"
				},
				{
					"inputs": [
						{
							"internalType": "address",
							"name": "",
							"type": "address"
						}
					],
					"name": "allowance",
					"outputs": [
						{
							"internalType": "uint256",
							"name": "",
							"type": "uint256"
						}
					],
					"stateMutability": "view",
					"type": "function"
				},
				{
					"inputs": [
						{
							"internalType": "address payable",
							"name": "_to",
							"type": "address"
						},
						{
							"internalType": "uint256",
							"name": "_amount",
							"type": "uint256"
						},
						{
							"internalType": "bytes",
							"name": "_payload",
							"type": "bytes"
						}
					],
					"name": "transfer",
					"outputs": [
						{
							"internalType": "bytes",
							"name": "",
							"type": "bytes"
						}
					],
					"stateMutability": "nonpayable",
					"type": "function"
				},
				{
					"stateMutability": "payable",
					"type": "receive"
				}
			],
			"devdoc": {
				"kind": "dev",
				"methods": {},
				"version": 1
			},
			"evm": {
				"assembly": "    /* \"contracts/SmartContractWallet.sol\":109:711  contract SmartContractWallet {... */\n  mstore(0x40, 0x80)\n    /* \"contracts/SmartContractWallet.sol\":225:285  constructor() {... */\n  callvalue\n  dup1\n  iszero\n  tag_1\n  jumpi\n  0x00\n  dup1\n  revert\ntag_1:\n  pop\n    /* \"contracts/SmartContractWallet.sol\":266:276  msg.sender */\n  caller\n    /* \"contracts/SmartContractWallet.sol\":250:255  owner */\n  0x00\n  dup1\n    /* \"contracts/SmartContractWallet.sol\":250:277  owner = payable(msg.sender) */\n  0x0100\n  exp\n  dup2\n  sload\n  dup2\n  0xffffffffffffffffffffffffffffffffffffffff\n  mul\n  not\n  and\n  swap1\n  dup4\n  0xffffffffffffffffffffffffffffffffffffffff\n  and\n  mul\n  or\n  swap1\n  sstore\n  pop\n    /* \"contracts/SmartContractWallet.sol\":109:711  contract SmartContractWallet {... */\n  dataSize(sub_0)\n  dup1\n  dataOffset(sub_0)\n  0x00\n  codecopy\n  0x00\n  return\nstop\n\nsub_0: assembly {\n        /* \"contracts/SmartContractWallet.sol\":109:711  contract SmartContractWallet {... */\n      mstore(0x40, 0x80)\n      jumpi(tag_1, lt(calldatasize, 0x04))\n      shr(0xe0, calldataload(0x00))\n      dup1\n      0x3e5beab9\n      eq\n      tag_3\n      jumpi\n      dup1\n      0xbe45fd62\n      eq\n      tag_4\n      jumpi\n      jump(tag_2)\n    tag_1:\n      jumpi(tag_2, calldatasize)\n      stop\n    tag_2:\n      0x00\n      dup1\n      revert\n        /* \"contracts/SmartContractWallet.sol\":175:216  mapping(address => uint) public allowance */\n    tag_3:\n      callvalue\n      dup1\n      iszero\n      tag_7\n      jumpi\n      0x00\n      dup1\n      revert\n    tag_7:\n      pop\n      tag_8\n      0x04\n      dup1\n      calldatasize\n      sub\n      dup2\n      add\n      swap1\n      tag_9\n      swap2\n      swap1\n      tag_10\n      jump\t// in\n    tag_9:\n      tag_11\n      jump\t// in\n    tag_8:\n      mload(0x40)\n      tag_12\n      swap2\n      swap1\n      tag_13\n      jump\t// in\n    tag_12:\n      mload(0x40)\n      dup1\n      swap2\n      sub\n      swap1\n      return\n        /* \"contracts/SmartContractWallet.sol\":293:671  function transfer(address payable _to, uint _amount, bytes memory _payload) public returns(bytes memory) {... */\n    tag_4:\n      callvalue\n      dup1\n      iszero\n      tag_14\n      jumpi\n      0x00\n      dup1\n      revert\n    tag_14:\n      pop\n      tag_15\n      0x04\n      dup1\n      calldatasize\n      sub\n      dup2\n      add\n      swap1\n      tag_16\n      swap2\n      swap1\n      tag_17\n      jump\t// in\n    tag_16:\n      tag_18\n      jump\t// in\n    tag_15:\n      mload(0x40)\n      tag_19\n      swap2\n      swap1\n      tag_20\n      jump\t// in\n    tag_19:\n      mload(0x40)\n      dup1\n      swap2\n      sub\n      swap1\n      return\n        /* \"contracts/SmartContractWallet.sol\":175:216  mapping(address => uint) public allowance */\n    tag_11:\n      mstore(0x20, 0x01)\n      dup1\n      0x00\n      mstore\n      keccak256(0x00, 0x40)\n      0x00\n      swap2\n      pop\n      swap1\n      pop\n      sload\n      dup2\n      jump\t// out\n        /* \"contracts/SmartContractWallet.sol\":293:671  function transfer(address payable _to, uint _amount, bytes memory _payload) public returns(bytes memory) {... */\n    tag_18:\n        /* \"contracts/SmartContractWallet.sol\":384:396  bytes memory */\n      0x60\n        /* \"contracts/SmartContractWallet.sol\":431:436  owner */\n      0x00\n      dup1\n      sload\n      swap1\n      0x0100\n      exp\n      swap1\n      div\n      0xffffffffffffffffffffffffffffffffffffffff\n      and\n        /* \"contracts/SmartContractWallet.sol\":417:436  msg.sender == owner */\n      0xffffffffffffffffffffffffffffffffffffffff\n      and\n        /* \"contracts/SmartContractWallet.sol\":417:427  msg.sender */\n      caller\n        /* \"contracts/SmartContractWallet.sol\":417:436  msg.sender == owner */\n      0xffffffffffffffffffffffffffffffffffffffff\n      and\n      eq\n        /* \"contracts/SmartContractWallet.sol\":409:473  require(msg.sender == owner, \"You are not the owner, aborting.\") */\n      tag_22\n      jumpi\n      mload(0x40)\n      0x08c379a000000000000000000000000000000000000000000000000000000000\n      dup2\n      mstore\n      0x04\n      add\n      tag_23\n      swap1\n      tag_24\n      jump\t// in\n    tag_23:\n      mload(0x40)\n      dup1\n      swap2\n      sub\n      swap1\n      revert\n    tag_22:\n        /* \"contracts/SmartContractWallet.sol\":494:506  bool success */\n      0x00\n        /* \"contracts/SmartContractWallet.sol\":508:531  bytes memory returnData */\n      dup1\n        /* \"contracts/SmartContractWallet.sol\":535:538  _to */\n      dup6\n        /* \"contracts/SmartContractWallet.sol\":535:543  _to.call */\n      0xffffffffffffffffffffffffffffffffffffffff\n      and\n        /* \"contracts/SmartContractWallet.sol\":551:558  _amount */\n      dup6\n        /* \"contracts/SmartContractWallet.sol\":560:568  _payload */\n      dup6\n        /* \"contracts/SmartContractWallet.sol\":535:569  _to.call{value: _amount}(_payload) */\n      mload(0x40)\n      tag_25\n      swap2\n      swap1\n      tag_26\n      jump\t// in\n    tag_25:\n      0x00\n      mload(0x40)\n      dup1\n      dup4\n      sub\n      dup2\n      dup6\n      dup8\n      gas\n      call\n      swap3\n      pop\n      pop\n      pop\n      returndatasize\n      dup1\n      0x00\n      dup2\n      eq\n      tag_29\n      jumpi\n      mload(0x40)\n      swap2\n      pop\n      and(add(returndatasize, 0x3f), not(0x1f))\n      dup3\n      add\n      0x40\n      mstore\n      returndatasize\n      dup3\n      mstore\n      returndatasize\n      0x00\n      0x20\n      dup5\n      add\n      returndatacopy\n      jump(tag_28)\n    tag_29:\n      0x60\n      swap2\n      pop\n    tag_28:\n      pop\n        /* \"contracts/SmartContractWallet.sol\":493:569  (bool success, bytes memory returnData) = _to.call{value: _amount}(_payload) */\n      swap2\n      pop\n      swap2\n      pop\n        /* \"contracts/SmartContractWallet.sol\":589:596  success */\n      dup2\n        /* \"contracts/SmartContractWallet.sol\":581:634  require(success, \"Aborting call was not successful.\") */\n      tag_30\n      jumpi\n      mload(0x40)\n      0x08c379a000000000000000000000000000000000000000000000000000000000\n      dup2\n      mstore\n      0x04\n      add\n      tag_31\n      swap1\n      tag_32\n      jump\t// in\n    tag_31:\n      mload(0x40)\n      dup1\n      swap2\n      sub\n      swap1\n      revert\n    tag_30:\n        /* \"contracts/SmartContractWallet.sol\":653:663  returnData */\n      dup1\n        /* \"contracts/SmartContractWallet.sol\":646:663  return returnData */\n      swap3\n      pop\n      pop\n      pop\n        /* \"contracts/SmartContractWallet.sol\":293:671  function transfer(address payable _to, uint _amount, bytes memory _payload) public returns(bytes memory) {... */\n      swap4\n      swap3\n      pop\n      pop\n      pop\n      jump\t// out\n        /* \"#utility.yul\":7:82   */\n    tag_33:\n        /* \"#utility.yul\":40:46   */\n      0x00\n        /* \"#utility.yul\":73:75   */\n      0x40\n        /* \"#utility.yul\":67:76   */\n      mload\n        /* \"#utility.yul\":57:76   */\n      swap1\n      pop\n        /* \"#utility.yul\":7:82   */\n      swap1\n      jump\t// out\n        /* \"#utility.yul\":88:205   */\n    tag_34:\n        /* \"#utility.yul\":197:198   */\n      0x00\n        /* \"#utility.yul\":194:195   */\n      dup1\n        /* \"#utility.yul\":187:199   */\n      revert\n        /* \"#utility.yul\":211:328   */\n    tag_35:\n        /* \"#utility.yul\":320:321   */\n      0x00\n        /* \"#utility.yul\":317:318   */\n      dup1\n        /* \"#utility.yul\":310:322   */\n      revert\n        /* \"#utility.yul\":334:460   */\n    tag_36:\n        /* \"#utility.yul\":371:378   */\n      0x00\n        /* \"#utility.yul\":411:453   */\n      0xffffffffffffffffffffffffffffffffffffffff\n        /* \"#utility.yul\":404:409   */\n      dup3\n        /* \"#utility.yul\":400:454   */\n      and\n        /* \"#utility.yul\":389:454   */\n      swap1\n      pop\n        /* \"#utility.yul\":334:460   */\n      swap2\n      swap1\n      pop\n      jump\t// out\n        /* \"#utility.yul\":466:562   */\n    tag_37:\n        /* \"#utility.yul\":503:510   */\n      0x00\n        /* \"#utility.yul\":532:556   */\n      tag_74\n        /* \"#utility.yul\":550:555   */\n      dup3\n        /* \"#utility.yul\":532:556   */\n      tag_36\n      jump\t// in\n    tag_74:\n        /* \"#utility.yul\":521:556   */\n      swap1\n      pop\n        /* \"#utility.yul\":466:562   */\n      swap2\n      swap1\n      pop\n      jump\t// out\n        /* \"#utility.yul\":568:690   */\n    tag_38:\n        /* \"#utility.yul\":641:665   */\n      tag_76\n        /* \"#utility.yul\":659:664   */\n      dup2\n        /* \"#utility.yul\":641:665   */\n      tag_37\n      jump\t// in\n    tag_76:\n        /* \"#utility.yul\":634:639   */\n      dup2\n        /* \"#utility.yul\":631:666   */\n      eq\n        /* \"#utility.yul\":621:684   */\n      tag_77\n      jumpi\n        /* \"#utility.yul\":680:681   */\n      0x00\n        /* \"#utility.yul\":677:678   */\n      dup1\n        /* \"#utility.yul\":670:682   */\n      revert\n        /* \"#utility.yul\":621:684   */\n    tag_77:\n        /* \"#utility.yul\":568:690   */\n      pop\n      jump\t// out\n        /* \"#utility.yul\":696:835   */\n    tag_39:\n        /* \"#utility.yul\":742:747   */\n      0x00\n        /* \"#utility.yul\":780:786   */\n      dup2\n        /* \"#utility.yul\":767:787   */\n      calldataload\n        /* \"#utility.yul\":758:787   */\n      swap1\n      pop\n        /* \"#utility.yul\":796:829   */\n      tag_79\n        /* \"#utility.yul\":823:828   */\n      dup2\n        /* \"#utility.yul\":796:829   */\n      tag_38\n      jump\t// in\n    tag_79:\n        /* \"#utility.yul\":696:835   */\n      swap3\n      swap2\n      pop\n      pop\n      jump\t// out\n        /* \"#utility.yul\":841:1170   */\n    tag_10:\n        /* \"#utility.yul\":900:906   */\n      0x00\n        /* \"#utility.yul\":949:951   */\n      0x20\n        /* \"#utility.yul\":937:946   */\n      dup3\n        /* \"#utility.yul\":928:935   */\n      dup5\n        /* \"#utility.yul\":924:947   */\n      sub\n        /* \"#utility.yul\":920:952   */\n      slt\n        /* \"#utility.yul\":917:1036   */\n      iszero\n      tag_81\n      jumpi\n        /* \"#utility.yul\":955:1034   */\n      tag_82\n      tag_34\n      jump\t// in\n    tag_82:\n        /* \"#utility.yul\":917:1036   */\n    tag_81:\n        /* \"#utility.yul\":1075:1076   */\n      0x00\n        /* \"#utility.yul\":1100:1153   */\n      tag_83\n        /* \"#utility.yul\":1145:1152   */\n      dup5\n        /* \"#utility.yul\":1136:1142   */\n      dup3\n        /* \"#utility.yul\":1125:1134   */\n      dup6\n        /* \"#utility.yul\":1121:1143   */\n      add\n        /* \"#utility.yul\":1100:1153   */\n      tag_39\n      jump\t// in\n    tag_83:\n        /* \"#utility.yul\":1090:1153   */\n      swap2\n      pop\n        /* \"#utility.yul\":1046:1163   */\n      pop\n        /* \"#utility.yul\":841:1170   */\n      swap3\n      swap2\n      pop\n      pop\n      jump\t// out\n        /* \"#utility.yul\":1176:1253   */\n    tag_40:\n        /* \"#utility.yul\":1213:1220   */\n      0x00\n        /* \"#utility.yul\":1242:1247   */\n      dup2\n        /* \"#utility.yul\":1231:1247   */\n      swap1\n      pop\n        /* \"#utility.yul\":1176:1253   */\n      swap2\n      swap1\n      pop\n      jump\t// out\n        /* \"#utility.yul\":1259:1377   */\n    tag_41:\n        /* \"#utility.yul\":1346:1370   */\n      tag_86\n        /* \"#utility.yul\":1364:1369   */\n      dup2\n        /* \"#utility.yul\":1346:1370   */\n      tag_40\n      jump\t// in\n    tag_86:\n        /* \"#utility.yul\":1341:1344   */\n      dup3\n        /* \"#utility.yul\":1334:1371   */\n      mstore\n        /* \"#utility.yul\":1259:1377   */\n      pop\n      pop\n      jump\t// out\n        /* \"#utility.yul\":1383:1605   */\n    tag_13:\n        /* \"#utility.yul\":1476:1480   */\n      0x00\n        /* \"#utility.yul\":1514:1516   */\n      0x20\n        /* \"#utility.yul\":1503:1512   */\n      dup3\n        /* \"#utility.yul\":1499:1517   */\n      add\n        /* \"#utility.yul\":1491:1517   */\n      swap1\n      pop\n        /* \"#utility.yul\":1527:1598   */\n      tag_88\n        /* \"#utility.yul\":1595:1596   */\n      0x00\n        /* \"#utility.yul\":1584:1593   */\n      dup4\n        /* \"#utility.yul\":1580:1597   */\n      add\n        /* \"#utility.yul\":1571:1577   */\n      dup5\n        /* \"#utility.yul\":1527:1598   */\n      tag_41\n      jump\t// in\n    tag_88:\n        /* \"#utility.yul\":1383:1605   */\n      swap3\n      swap2\n      pop\n      pop\n      jump\t// out\n        /* \"#utility.yul\":1611:1715   */\n    tag_42:\n        /* \"#utility.yul\":1656:1663   */\n      0x00\n        /* \"#utility.yul\":1685:1709   */\n      tag_90\n        /* \"#utility.yul\":1703:1708   */\n      dup3\n        /* \"#utility.yul\":1685:1709   */\n      tag_36\n      jump\t// in\n    tag_90:\n        /* \"#utility.yul\":1674:1709   */\n      swap1\n      pop\n        /* \"#utility.yul\":1611:1715   */\n      swap2\n      swap1\n      pop\n      jump\t// out\n        /* \"#utility.yul\":1721:1859   */\n    tag_43:\n        /* \"#utility.yul\":1802:1834   */\n      tag_92\n        /* \"#utility.yul\":1828:1833   */\n      dup2\n        /* \"#utility.yul\":1802:1834   */\n      tag_42\n      jump\t// in\n    tag_92:\n        /* \"#utility.yul\":1795:1800   */\n      dup2\n        /* \"#utility.yul\":1792:1835   */\n      eq\n        /* \"#utility.yul\":1782:1853   */\n      tag_93\n      jumpi\n        /* \"#utility.yul\":1849:1850   */\n      0x00\n        /* \"#utility.yul\":1846:1847   */\n      dup1\n        /* \"#utility.yul\":1839:1851   */\n      revert\n        /* \"#utility.yul\":1782:1853   */\n    tag_93:\n        /* \"#utility.yul\":1721:1859   */\n      pop\n      jump\t// out\n        /* \"#utility.yul\":1865:2020   */\n    tag_44:\n        /* \"#utility.yul\":1919:1924   */\n      0x00\n        /* \"#utility.yul\":1957:1963   */\n      dup2\n        /* \"#utility.yul\":1944:1964   */\n      calldataload\n        /* \"#utility.yul\":1935:1964   */\n      swap1\n      pop\n        /* \"#utility.yul\":1973:2014   */\n      tag_95\n        /* \"#utility.yul\":2008:2013   */\n      dup2\n        /* \"#utility.yul\":1973:2014   */\n      tag_43\n      jump\t// in\n    tag_95:\n        /* \"#utility.yul\":1865:2020   */\n      swap3\n      swap2\n      pop\n      pop\n      jump\t// out\n        /* \"#utility.yul\":2026:2148   */\n    tag_45:\n        /* \"#utility.yul\":2099:2123   */\n      tag_97\n        /* \"#utility.yul\":2117:2122   */\n      dup2\n        /* \"#utility.yul\":2099:2123   */\n      tag_40\n      jump\t// in\n    tag_97:\n        /* \"#utility.yul\":2092:2097   */\n      dup2\n        /* \"#utility.yul\":2089:2124   */\n      eq\n        /* \"#utility.yul\":2079:2142   */\n      tag_98\n      jumpi\n        /* \"#utility.yul\":2138:2139   */\n      0x00\n        /* \"#utility.yul\":2135:2136   */\n      dup1\n        /* \"#utility.yul\":2128:2140   */\n      revert\n        /* \"#utility.yul\":2079:2142   */\n    tag_98:\n        /* \"#utility.yul\":2026:2148   */\n      pop\n      jump\t// out\n        /* \"#utility.yul\":2154:2293   */\n    tag_46:\n        /* \"#utility.yul\":2200:2205   */\n      0x00\n        /* \"#utility.yul\":2238:2244   */\n      dup2\n        /* \"#utility.yul\":2225:2245   */\n      calldataload\n        /* \"#utility.yul\":2216:2245   */\n      swap1\n      pop\n        /* \"#utility.yul\":2254:2287   */\n      tag_100\n        /* \"#utility.yul\":2281:2286   */\n      dup2\n        /* \"#utility.yul\":2254:2287   */\n      tag_45\n      jump\t// in\n    tag_100:\n        /* \"#utility.yul\":2154:2293   */\n      swap3\n      swap2\n      pop\n      pop\n      jump\t// out\n        /* \"#utility.yul\":2299:2416   */\n    tag_47:\n        /* \"#utility.yul\":2408:2409   */\n      0x00\n        /* \"#utility.yul\":2405:2406   */\n      dup1\n        /* \"#utility.yul\":2398:2410   */\n      revert\n        /* \"#utility.yul\":2422:2539   */\n    tag_48:\n        /* \"#utility.yul\":2531:2532   */\n      0x00\n        /* \"#utility.yul\":2528:2529   */\n      dup1\n        /* \"#utility.yul\":2521:2533   */\n      revert\n        /* \"#utility.yul\":2545:2647   */\n    tag_49:\n        /* \"#utility.yul\":2586:2592   */\n      0x00\n        /* \"#utility.yul\":2637:2639   */\n      0x1f\n        /* \"#utility.yul\":2633:2640   */\n      not\n        /* \"#utility.yul\":2628:2630   */\n      0x1f\n        /* \"#utility.yul\":2621:2626   */\n      dup4\n        /* \"#utility.yul\":2617:2631   */\n      add\n        /* \"#utility.yul\":2613:2641   */\n      and\n        /* \"#utility.yul\":2603:2641   */\n      swap1\n      pop\n        /* \"#utility.yul\":2545:2647   */\n      swap2\n      swap1\n      pop\n      jump\t// out\n        /* \"#utility.yul\":2653:2833   */\n    tag_50:\n        /* \"#utility.yul\":2701:2778   */\n      0x4e487b7100000000000000000000000000000000000000000000000000000000\n        /* \"#utility.yul\":2698:2699   */\n      0x00\n        /* \"#utility.yul\":2691:2779   */\n      mstore\n        /* \"#utility.yul\":2798:2802   */\n      0x41\n        /* \"#utility.yul\":2795:2796   */\n      0x04\n        /* \"#utility.yul\":2788:2803   */\n      mstore\n        /* \"#utility.yul\":2822:2826   */\n      0x24\n        /* \"#utility.yul\":2819:2820   */\n      0x00\n        /* \"#utility.yul\":2812:2827   */\n      revert\n        /* \"#utility.yul\":2839:3120   */\n    tag_51:\n        /* \"#utility.yul\":2922:2949   */\n      tag_106\n        /* \"#utility.yul\":2944:2948   */\n      dup3\n        /* \"#utility.yul\":2922:2949   */\n      tag_49\n      jump\t// in\n    tag_106:\n        /* \"#utility.yul\":2914:2920   */\n      dup2\n        /* \"#utility.yul\":2910:2950   */\n      add\n        /* \"#utility.yul\":3052:3058   */\n      dup2\n        /* \"#utility.yul\":3040:3050   */\n      dup2\n        /* \"#utility.yul\":3037:3059   */\n      lt\n        /* \"#utility.yul\":3016:3034   */\n      0xffffffffffffffff\n        /* \"#utility.yul\":3004:3014   */\n      dup3\n        /* \"#utility.yul\":3001:3035   */\n      gt\n        /* \"#utility.yul\":2998:3060   */\n      or\n        /* \"#utility.yul\":2995:3083   */\n      iszero\n      tag_107\n      jumpi\n        /* \"#utility.yul\":3063:3081   */\n      tag_108\n      tag_50\n      jump\t// in\n    tag_108:\n        /* \"#utility.yul\":2995:3083   */\n    tag_107:\n        /* \"#utility.yul\":3103:3113   */\n      dup1\n        /* \"#utility.yul\":3099:3101   */\n      0x40\n        /* \"#utility.yul\":3092:3114   */\n      mstore\n        /* \"#utility.yul\":2882:3120   */\n      pop\n        /* \"#utility.yul\":2839:3120   */\n      pop\n      pop\n      jump\t// out\n        /* \"#utility.yul\":3126:3255   */\n    tag_52:\n        /* \"#utility.yul\":3160:3166   */\n      0x00\n        /* \"#utility.yul\":3187:3207   */\n      tag_110\n      tag_33\n      jump\t// in\n    tag_110:\n        /* \"#utility.yul\":3177:3207   */\n      swap1\n      pop\n        /* \"#utility.yul\":3216:3249   */\n      tag_111\n        /* \"#utility.yul\":3244:3248   */\n      dup3\n        /* \"#utility.yul\":3236:3242   */\n      dup3\n        /* \"#utility.yul\":3216:3249   */\n      tag_51\n      jump\t// in\n    tag_111:\n        /* \"#utility.yul\":3126:3255   */\n      swap2\n      swap1\n      pop\n      jump\t// out\n        /* \"#utility.yul\":3261:3568   */\n    tag_53:\n        /* \"#utility.yul\":3322:3326   */\n      0x00\n        /* \"#utility.yul\":3412:3430   */\n      0xffffffffffffffff\n        /* \"#utility.yul\":3404:3410   */\n      dup3\n        /* \"#utility.yul\":3401:3431   */\n      gt\n        /* \"#utility.yul\":3398:3454   */\n      iszero\n      tag_113\n      jumpi\n        /* \"#utility.yul\":3434:3452   */\n      tag_114\n      tag_50\n      jump\t// in\n    tag_114:\n        /* \"#utility.yul\":3398:3454   */\n    tag_113:\n        /* \"#utility.yul\":3472:3501   */\n      tag_115\n        /* \"#utility.yul\":3494:3500   */\n      dup3\n        /* \"#utility.yul\":3472:3501   */\n      tag_49\n      jump\t// in\n    tag_115:\n        /* \"#utility.yul\":3464:3501   */\n      swap1\n      pop\n        /* \"#utility.yul\":3556:3560   */\n      0x20\n        /* \"#utility.yul\":3550:3554   */\n      dup2\n        /* \"#utility.yul\":3546:3561   */\n      add\n        /* \"#utility.yul\":3538:3561   */\n      swap1\n      pop\n        /* \"#utility.yul\":3261:3568   */\n      swap2\n      swap1\n      pop\n      jump\t// out\n        /* \"#utility.yul\":3574:3720   */\n    tag_54:\n        /* \"#utility.yul\":3671:3677   */\n      dup3\n        /* \"#utility.yul\":3666:3669   */\n      dup2\n        /* \"#utility.yul\":3661:3664   */\n      dup4\n        /* \"#utility.yul\":3648:3678   */\n      calldatacopy\n        /* \"#utility.yul\":3712:3713   */\n      0x00\n        /* \"#utility.yul\":3703:3709   */\n      dup4\n        /* \"#utility.yul\":3698:3701   */\n      dup4\n        /* \"#utility.yul\":3694:3710   */\n      add\n        /* \"#utility.yul\":3687:3714   */\n      mstore\n        /* \"#utility.yul\":3574:3720   */\n      pop\n      pop\n      pop\n      jump\t// out\n        /* \"#utility.yul\":3726:4149   */\n    tag_55:\n        /* \"#utility.yul\":3803:3808   */\n      0x00\n        /* \"#utility.yul\":3828:3893   */\n      tag_118\n        /* \"#utility.yul\":3844:3892   */\n      tag_119\n        /* \"#utility.yul\":3885:3891   */\n      dup5\n        /* \"#utility.yul\":3844:3892   */\n      tag_53\n      jump\t// in\n    tag_119:\n        /* \"#utility.yul\":3828:3893   */\n      tag_52\n      jump\t// in\n    tag_118:\n        /* \"#utility.yul\":3819:3893   */\n      swap1\n      pop\n        /* \"#utility.yul\":3916:3922   */\n      dup3\n        /* \"#utility.yul\":3909:3914   */\n      dup2\n        /* \"#utility.yul\":3902:3923   */\n      mstore\n        /* \"#utility.yul\":3954:3958   */\n      0x20\n        /* \"#utility.yul\":3947:3952   */\n      dup2\n        /* \"#utility.yul\":3943:3959   */\n      add\n        /* \"#utility.yul\":3992:3995   */\n      dup5\n        /* \"#utility.yul\":3983:3989   */\n      dup5\n        /* \"#utility.yul\":3978:3981   */\n      dup5\n        /* \"#utility.yul\":3974:3990   */\n      add\n        /* \"#utility.yul\":3971:3996   */\n      gt\n        /* \"#utility.yul\":3968:4080   */\n      iszero\n      tag_120\n      jumpi\n        /* \"#utility.yul\":3999:4078   */\n      tag_121\n      tag_48\n      jump\t// in\n    tag_121:\n        /* \"#utility.yul\":3968:4080   */\n    tag_120:\n        /* \"#utility.yul\":4089:4143   */\n      tag_122\n        /* \"#utility.yul\":4136:4142   */\n      dup5\n        /* \"#utility.yul\":4131:4134   */\n      dup3\n        /* \"#utility.yul\":4126:4129   */\n      dup6\n        /* \"#utility.yul\":4089:4143   */\n      tag_54\n      jump\t// in\n    tag_122:\n        /* \"#utility.yul\":3809:4149   */\n      pop\n        /* \"#utility.yul\":3726:4149   */\n      swap4\n      swap3\n      pop\n      pop\n      pop\n      jump\t// out\n        /* \"#utility.yul\":4168:4506   */\n    tag_56:\n        /* \"#utility.yul\":4223:4228   */\n      0x00\n        /* \"#utility.yul\":4272:4275   */\n      dup3\n        /* \"#utility.yul\":4265:4269   */\n      0x1f\n        /* \"#utility.yul\":4257:4263   */\n      dup4\n        /* \"#utility.yul\":4253:4270   */\n      add\n        /* \"#utility.yul\":4249:4276   */\n      slt\n        /* \"#utility.yul\":4239:4361   */\n      tag_124\n      jumpi\n        /* \"#utility.yul\":4280:4359   */\n      tag_125\n      tag_47\n      jump\t// in\n    tag_125:\n        /* \"#utility.yul\":4239:4361   */\n    tag_124:\n        /* \"#utility.yul\":4397:4403   */\n      dup2\n        /* \"#utility.yul\":4384:4404   */\n      calldataload\n        /* \"#utility.yul\":4422:4500   */\n      tag_126\n        /* \"#utility.yul\":4496:4499   */\n      dup5\n        /* \"#utility.yul\":4488:4494   */\n      dup3\n        /* \"#utility.yul\":4481:4485   */\n      0x20\n        /* \"#utility.yul\":4473:4479   */\n      dup7\n        /* \"#utility.yul\":4469:4486   */\n      add\n        /* \"#utility.yul\":4422:4500   */\n      tag_55\n      jump\t// in\n    tag_126:\n        /* \"#utility.yul\":4413:4500   */\n      swap2\n      pop\n        /* \"#utility.yul\":4229:4506   */\n      pop\n        /* \"#utility.yul\":4168:4506   */\n      swap3\n      swap2\n      pop\n      pop\n      jump\t// out\n        /* \"#utility.yul\":4512:5325   */\n    tag_17:\n        /* \"#utility.yul\":4606:4612   */\n      0x00\n        /* \"#utility.yul\":4614:4620   */\n      dup1\n        /* \"#utility.yul\":4622:4628   */\n      0x00\n        /* \"#utility.yul\":4671:4673   */\n      0x60\n        /* \"#utility.yul\":4659:4668   */\n      dup5\n        /* \"#utility.yul\":4650:4657   */\n      dup7\n        /* \"#utility.yul\":4646:4669   */\n      sub\n        /* \"#utility.yul\":4642:4674   */\n      slt\n        /* \"#utility.yul\":4639:4758   */\n      iszero\n      tag_128\n      jumpi\n        /* \"#utility.yul\":4677:4756   */\n      tag_129\n      tag_34\n      jump\t// in\n    tag_129:\n        /* \"#utility.yul\":4639:4758   */\n    tag_128:\n        /* \"#utility.yul\":4797:4798   */\n      0x00\n        /* \"#utility.yul\":4822:4883   */\n      tag_130\n        /* \"#utility.yul\":4875:4882   */\n      dup7\n        /* \"#utility.yul\":4866:4872   */\n      dup3\n        /* \"#utility.yul\":4855:4864   */\n      dup8\n        /* \"#utility.yul\":4851:4873   */\n      add\n        /* \"#utility.yul\":4822:4883   */\n      tag_44\n      jump\t// in\n    tag_130:\n        /* \"#utility.yul\":4812:4883   */\n      swap4\n      pop\n        /* \"#utility.yul\":4768:4893   */\n      pop\n        /* \"#utility.yul\":4932:4934   */\n      0x20\n        /* \"#utility.yul\":4958:5011   */\n      tag_131\n        /* \"#utility.yul\":5003:5010   */\n      dup7\n        /* \"#utility.yul\":4994:5000   */\n      dup3\n        /* \"#utility.yul\":4983:4992   */\n      dup8\n        /* \"#utility.yul\":4979:5001   */\n      add\n        /* \"#utility.yul\":4958:5011   */\n      tag_46\n      jump\t// in\n    tag_131:\n        /* \"#utility.yul\":4948:5011   */\n      swap3\n      pop\n        /* \"#utility.yul\":4903:5021   */\n      pop\n        /* \"#utility.yul\":5088:5090   */\n      0x40\n        /* \"#utility.yul\":5077:5086   */\n      dup5\n        /* \"#utility.yul\":5073:5091   */\n      add\n        /* \"#utility.yul\":5060:5092   */\n      calldataload\n        /* \"#utility.yul\":5119:5137   */\n      0xffffffffffffffff\n        /* \"#utility.yul\":5111:5117   */\n      dup2\n        /* \"#utility.yul\":5108:5138   */\n      gt\n        /* \"#utility.yul\":5105:5222   */\n      iszero\n      tag_132\n      jumpi\n        /* \"#utility.yul\":5141:5220   */\n      tag_133\n      tag_35\n      jump\t// in\n    tag_133:\n        /* \"#utility.yul\":5105:5222   */\n    tag_132:\n        /* \"#utility.yul\":5246:5308   */\n      tag_134\n        /* \"#utility.yul\":5300:5307   */\n      dup7\n        /* \"#utility.yul\":5291:5297   */\n      dup3\n        /* \"#utility.yul\":5280:5289   */\n      dup8\n        /* \"#utility.yul\":5276:5298   */\n      add\n        /* \"#utility.yul\":5246:5308   */\n      tag_56\n      jump\t// in\n    tag_134:\n        /* \"#utility.yul\":5236:5308   */\n      swap2\n      pop\n        /* \"#utility.yul\":5031:5318   */\n      pop\n        /* \"#utility.yul\":4512:5325   */\n      swap3\n      pop\n      swap3\n      pop\n      swap3\n      jump\t// out\n        /* \"#utility.yul\":5331:5429   */\n    tag_57:\n        /* \"#utility.yul\":5382:5388   */\n      0x00\n        /* \"#utility.yul\":5416:5421   */\n      dup2\n        /* \"#utility.yul\":5410:5422   */\n      mload\n        /* \"#utility.yul\":5400:5422   */\n      swap1\n      pop\n        /* \"#utility.yul\":5331:5429   */\n      swap2\n      swap1\n      pop\n      jump\t// out\n        /* \"#utility.yul\":5435:5603   */\n    tag_58:\n        /* \"#utility.yul\":5518:5529   */\n      0x00\n        /* \"#utility.yul\":5552:5558   */\n      dup3\n        /* \"#utility.yul\":5547:5550   */\n      dup3\n        /* \"#utility.yul\":5540:5559   */\n      mstore\n        /* \"#utility.yul\":5592:5596   */\n      0x20\n        /* \"#utility.yul\":5587:5590   */\n      dup3\n        /* \"#utility.yul\":5583:5597   */\n      add\n        /* \"#utility.yul\":5568:5597   */\n      swap1\n      pop\n        /* \"#utility.yul\":5435:5603   */\n      swap3\n      swap2\n      pop\n      pop\n      jump\t// out\n        /* \"#utility.yul\":5609:5855   */\n    tag_59:\n        /* \"#utility.yul\":5690:5691   */\n      0x00\n        /* \"#utility.yul\":5700:5813   */\n    tag_138:\n        /* \"#utility.yul\":5714:5720   */\n      dup4\n        /* \"#utility.yul\":5711:5712   */\n      dup2\n        /* \"#utility.yul\":5708:5721   */\n      lt\n        /* \"#utility.yul\":5700:5813   */\n      iszero\n      tag_140\n      jumpi\n        /* \"#utility.yul\":5799:5800   */\n      dup1\n        /* \"#utility.yul\":5794:5797   */\n      dup3\n        /* \"#utility.yul\":5790:5801   */\n      add\n        /* \"#utility.yul\":5784:5802   */\n      mload\n        /* \"#utility.yul\":5780:5781   */\n      dup2\n        /* \"#utility.yul\":5775:5778   */\n      dup5\n        /* \"#utility.yul\":5771:5782   */\n      add\n        /* \"#utility.yul\":5764:5803   */\n      mstore\n        /* \"#utility.yul\":5736:5738   */\n      0x20\n        /* \"#utility.yul\":5733:5734   */\n      dup2\n        /* \"#utility.yul\":5729:5739   */\n      add\n        /* \"#utility.yul\":5724:5739   */\n      swap1\n      pop\n        /* \"#utility.yul\":5700:5813   */\n      jump(tag_138)\n    tag_140:\n        /* \"#utility.yul\":5847:5848   */\n      0x00\n        /* \"#utility.yul\":5838:5844   */\n      dup5\n        /* \"#utility.yul\":5833:5836   */\n      dup5\n        /* \"#utility.yul\":5829:5845   */\n      add\n        /* \"#utility.yul\":5822:5849   */\n      mstore\n        /* \"#utility.yul\":5671:5855   */\n      pop\n        /* \"#utility.yul\":5609:5855   */\n      pop\n      pop\n      pop\n      jump\t// out\n        /* \"#utility.yul\":5861:6234   */\n    tag_60:\n        /* \"#utility.yul\":5947:5950   */\n      0x00\n        /* \"#utility.yul\":5975:6013   */\n      tag_142\n        /* \"#utility.yul\":6007:6012   */\n      dup3\n        /* \"#utility.yul\":5975:6013   */\n      tag_57\n      jump\t// in\n    tag_142:\n        /* \"#utility.yul\":6029:6099   */\n      tag_143\n        /* \"#utility.yul\":6092:6098   */\n      dup2\n        /* \"#utility.yul\":6087:6090   */\n      dup6\n        /* \"#utility.yul\":6029:6099   */\n      tag_58\n      jump\t// in\n    tag_143:\n        /* \"#utility.yul\":6022:6099   */\n      swap4\n      pop\n        /* \"#utility.yul\":6108:6173   */\n      tag_144\n        /* \"#utility.yul\":6166:6172   */\n      dup2\n        /* \"#utility.yul\":6161:6164   */\n      dup6\n        /* \"#utility.yul\":6154:6158   */\n      0x20\n        /* \"#utility.yul\":6147:6152   */\n      dup7\n        /* \"#utility.yul\":6143:6159   */\n      add\n        /* \"#utility.yul\":6108:6173   */\n      tag_59\n      jump\t// in\n    tag_144:\n        /* \"#utility.yul\":6198:6227   */\n      tag_145\n        /* \"#utility.yul\":6220:6226   */\n      dup2\n        /* \"#utility.yul\":6198:6227   */\n      tag_49\n      jump\t// in\n    tag_145:\n        /* \"#utility.yul\":6193:6196   */\n      dup5\n        /* \"#utility.yul\":6189:6228   */\n      add\n        /* \"#utility.yul\":6182:6228   */\n      swap2\n      pop\n        /* \"#utility.yul\":5951:6234   */\n      pop\n        /* \"#utility.yul\":5861:6234   */\n      swap3\n      swap2\n      pop\n      pop\n      jump\t// out\n        /* \"#utility.yul\":6240:6549   */\n    tag_20:\n        /* \"#utility.yul\":6351:6355   */\n      0x00\n        /* \"#utility.yul\":6389:6391   */\n      0x20\n        /* \"#utility.yul\":6378:6387   */\n      dup3\n        /* \"#utility.yul\":6374:6392   */\n      add\n        /* \"#utility.yul\":6366:6392   */\n      swap1\n      pop\n        /* \"#utility.yul\":6438:6447   */\n      dup2\n        /* \"#utility.yul\":6432:6436   */\n      dup2\n        /* \"#utility.yul\":6428:6448   */\n      sub\n        /* \"#utility.yul\":6424:6425   */\n      0x00\n        /* \"#utility.yul\":6413:6422   */\n      dup4\n        /* \"#utility.yul\":6409:6426   */\n      add\n        /* \"#utility.yul\":6402:6449   */\n      mstore\n        /* \"#utility.yul\":6466:6542   */\n      tag_147\n        /* \"#utility.yul\":6537:6541   */\n      dup2\n        /* \"#utility.yul\":6528:6534   */\n      dup5\n        /* \"#utility.yul\":6466:6542   */\n      tag_60\n      jump\t// in\n    tag_147:\n        /* \"#utility.yul\":6458:6542   */\n      swap1\n      pop\n        /* \"#utility.yul\":6240:6549   */\n      swap3\n      swap2\n      pop\n      pop\n      jump\t// out\n        /* \"#utility.yul\":6555:6724   */\n    tag_61:\n        /* \"#utility.yul\":6639:6650   */\n      0x00\n        /* \"#utility.yul\":6673:6679   */\n      dup3\n        /* \"#utility.yul\":6668:6671   */\n      dup3\n        /* \"#utility.yul\":6661:6680   */\n      mstore\n        /* \"#utility.yul\":6713:6717   */\n      0x20\n        /* \"#utility.yul\":6708:6711   */\n      dup3\n        /* \"#utility.yul\":6704:6718   */\n      add\n        /* \"#utility.yul\":6689:6718   */\n      swap1\n      pop\n        /* \"#utility.yul\":6555:6724   */\n      swap3\n      swap2\n      pop\n      pop\n      jump\t// out\n        /* \"#utility.yul\":6730:6912   */\n    tag_62:\n        /* \"#utility.yul\":6870:6904   */\n      0x596f7520617265206e6f7420746865206f776e65722c2061626f7274696e672e\n        /* \"#utility.yul\":6866:6867   */\n      0x00\n        /* \"#utility.yul\":6858:6864   */\n      dup3\n        /* \"#utility.yul\":6854:6868   */\n      add\n        /* \"#utility.yul\":6847:6905   */\n      mstore\n        /* \"#utility.yul\":6730:6912   */\n      pop\n      jump\t// out\n        /* \"#utility.yul\":6918:7284   */\n    tag_63:\n        /* \"#utility.yul\":7060:7063   */\n      0x00\n        /* \"#utility.yul\":7081:7148   */\n      tag_151\n        /* \"#utility.yul\":7145:7147   */\n      0x20\n        /* \"#utility.yul\":7140:7143   */\n      dup4\n        /* \"#utility.yul\":7081:7148   */\n      tag_61\n      jump\t// in\n    tag_151:\n        /* \"#utility.yul\":7074:7148   */\n      swap2\n      pop\n        /* \"#utility.yul\":7157:7250   */\n      tag_152\n        /* \"#utility.yul\":7246:7249   */\n      dup3\n        /* \"#utility.yul\":7157:7250   */\n      tag_62\n      jump\t// in\n    tag_152:\n        /* \"#utility.yul\":7275:7277   */\n      0x20\n        /* \"#utility.yul\":7270:7273   */\n      dup3\n        /* \"#utility.yul\":7266:7278   */\n      add\n        /* \"#utility.yul\":7259:7278   */\n      swap1\n      pop\n        /* \"#utility.yul\":6918:7284   */\n      swap2\n      swap1\n      pop\n      jump\t// out\n        /* \"#utility.yul\":7290:7709   */\n    tag_24:\n        /* \"#utility.yul\":7456:7460   */\n      0x00\n        /* \"#utility.yul\":7494:7496   */\n      0x20\n        /* \"#utility.yul\":7483:7492   */\n      dup3\n        /* \"#utility.yul\":7479:7497   */\n      add\n        /* \"#utility.yul\":7471:7497   */\n      swap1\n      pop\n        /* \"#utility.yul\":7543:7552   */\n      dup2\n        /* \"#utility.yul\":7537:7541   */\n      dup2\n        /* \"#utility.yul\":7533:7553   */\n      sub\n        /* \"#utility.yul\":7529:7530   */\n      0x00\n        /* \"#utility.yul\":7518:7527   */\n      dup4\n        /* \"#utility.yul\":7514:7531   */\n      add\n        /* \"#utility.yul\":7507:7554   */\n      mstore\n        /* \"#utility.yul\":7571:7702   */\n      tag_154\n        /* \"#utility.yul\":7697:7701   */\n      dup2\n        /* \"#utility.yul\":7571:7702   */\n      tag_63\n      jump\t// in\n    tag_154:\n        /* \"#utility.yul\":7563:7702   */\n      swap1\n      pop\n        /* \"#utility.yul\":7290:7709   */\n      swap2\n      swap1\n      pop\n      jump\t// out\n        /* \"#utility.yul\":7715:7862   */\n    tag_64:\n        /* \"#utility.yul\":7816:7827   */\n      0x00\n        /* \"#utility.yul\":7853:7856   */\n      dup2\n        /* \"#utility.yul\":7838:7856   */\n      swap1\n      pop\n        /* \"#utility.yul\":7715:7862   */\n      swap3\n      swap2\n      pop\n      pop\n      jump\t// out\n        /* \"#utility.yul\":7868:8254   */\n    tag_65:\n        /* \"#utility.yul\":7972:7975   */\n      0x00\n        /* \"#utility.yul\":8000:8038   */\n      tag_157\n        /* \"#utility.yul\":8032:8037   */\n      dup3\n        /* \"#utility.yul\":8000:8038   */\n      tag_57\n      jump\t// in\n    tag_157:\n        /* \"#utility.yul\":8054:8142   */\n      tag_158\n        /* \"#utility.yul\":8135:8141   */\n      dup2\n        /* \"#utility.yul\":8130:8133   */\n      dup6\n        /* \"#utility.yul\":8054:8142   */\n      tag_64\n      jump\t// in\n    tag_158:\n        /* \"#utility.yul\":8047:8142   */\n      swap4\n      pop\n        /* \"#utility.yul\":8151:8216   */\n      tag_159\n        /* \"#utility.yul\":8209:8215   */\n      dup2\n        /* \"#utility.yul\":8204:8207   */\n      dup6\n        /* \"#utility.yul\":8197:8201   */\n      0x20\n        /* \"#utility.yul\":8190:8195   */\n      dup7\n        /* \"#utility.yul\":8186:8202   */\n      add\n        /* \"#utility.yul\":8151:8216   */\n      tag_59\n      jump\t// in\n    tag_159:\n        /* \"#utility.yul\":8241:8247   */\n      dup1\n        /* \"#utility.yul\":8236:8239   */\n      dup5\n        /* \"#utility.yul\":8232:8248   */\n      add\n        /* \"#utility.yul\":8225:8248   */\n      swap2\n      pop\n        /* \"#utility.yul\":7976:8254   */\n      pop\n        /* \"#utility.yul\":7868:8254   */\n      swap3\n      swap2\n      pop\n      pop\n      jump\t// out\n        /* \"#utility.yul\":8260:8531   */\n    tag_26:\n        /* \"#utility.yul\":8390:8393   */\n      0x00\n        /* \"#utility.yul\":8412:8505   */\n      tag_161\n        /* \"#utility.yul\":8501:8504   */\n      dup3\n        /* \"#utility.yul\":8492:8498   */\n      dup5\n        /* \"#utility.yul\":8412:8505   */\n      tag_65\n      jump\t// in\n    tag_161:\n        /* \"#utility.yul\":8405:8505   */\n      swap2\n      pop\n        /* \"#utility.yul\":8522:8525   */\n      dup2\n        /* \"#utility.yul\":8515:8525   */\n      swap1\n      pop\n        /* \"#utility.yul\":8260:8531   */\n      swap3\n      swap2\n      pop\n      pop\n      jump\t// out\n        /* \"#utility.yul\":8537:8757   */\n    tag_66:\n        /* \"#utility.yul\":8677:8711   */\n      0x41626f7274696e672063616c6c20776173206e6f74207375636365737366756c\n        /* \"#utility.yul\":8673:8674   */\n      0x00\n        /* \"#utility.yul\":8665:8671   */\n      dup3\n        /* \"#utility.yul\":8661:8675   */\n      add\n        /* \"#utility.yul\":8654:8712   */\n      mstore\n        /* \"#utility.yul\":8746:8749   */\n      0x2e00000000000000000000000000000000000000000000000000000000000000\n        /* \"#utility.yul\":8741:8743   */\n      0x20\n        /* \"#utility.yul\":8733:8739   */\n      dup3\n        /* \"#utility.yul\":8729:8744   */\n      add\n        /* \"#utility.yul\":8722:8750   */\n      mstore\n        /* \"#utility.yul\":8537:8757   */\n      pop\n      jump\t// out\n        /* \"#utility.yul\":8763:9129   */\n    tag_67:\n        /* \"#utility.yul\":8905:8908   */\n      0x00\n        /* \"#utility.yul\":8926:8993   */\n      tag_164\n        /* \"#utility.yul\":8990:8992   */\n      0x21\n        /* \"#utility.yul\":8985:8988   */\n      dup4\n        /* \"#utility.yul\":8926:8993   */\n      tag_61\n      jump\t// in\n    tag_164:\n        /* \"#utility.yul\":8919:8993   */\n      swap2\n      pop\n        /* \"#utility.yul\":9002:9095   */\n      tag_165\n        /* \"#utility.yul\":9091:9094   */\n      dup3\n        /* \"#utility.yul\":9002:9095   */\n      tag_66\n      jump\t// in\n    tag_165:\n        /* \"#utility.yul\":9120:9122   */\n      0x40\n        /* \"#utility.yul\":9115:9118   */\n      dup3\n        /* \"#utility.yul\":9111:9123   */\n      add\n        /* \"#utility.yul\":9104:9123   */\n      swap1\n      pop\n        /* \"#utility.yul\":8763:9129   */\n      swap2\n      swap1\n      pop\n      jump\t// out\n        /* \"#utility.yul\":9135:9554   */\n    tag_32:\n        /* \"#utility.yul\":9301:9305   */\n      0x00\n        /* \"#utility.yul\":9339:9341   */\n      0x20\n        /* \"#utility.yul\":9328:9337   */\n      dup3\n        /* \"#utility.yul\":9324:9342   */\n      add\n        /* \"#utility.yul\":9316:9342   */\n      swap1\n      pop\n        /* \"#utility.yul\":9388:9397   */\n      dup2\n        /* \"#utility.yul\":9382:9386   */\n      dup2\n        /* \"#utility.yul\":9378:9398   */\n      sub\n        /* \"#utility.yul\":9374:9375   */\n      0x00\n        /* \"#utility.yul\":9363:9372   */\n      dup4\n        /* \"#utility.yul\":9359:9376   */\n      add\n        /* \"#utility.yul\":9352:9399   */\n      mstore\n        /* \"#utility.yul\":9416:9547   */\n      tag_167\n        /* \"#utility.yul\":9542:9546   */\n      dup2\n        /* \"#utility.yul\":9416:9547   */\n      tag_67\n      jump\t// in\n    tag_167:\n        /* \"#utility.yul\":9408:9547   */\n      swap1\n      pop\n        /* \"#utility.yul\":9135:9554   */\n      swap2\n      swap1\n      pop\n      jump\t// out\n\n    auxdata: 0xa26469706673582212200ffd7d8123bb48083b7f87b28029f7a5ec02ae6ecf278033299d62890c402d1764736f6c63430008110033\n}\n",
				"bytecode": {
					"linkReferences": {},
					"object": "608060405234801561001057600080fd5b50336000806101000a81548173ffffffffffffffffffffffffffffffffffffffff021916908373ffffffffffffffffffffffffffffffffffffffff160217905550610742806100606000396000f3fe60806040526004361061002d5760003560e01c80633e5beab914610039578063be45fd621461007657610034565b3661003457005b600080fd5b34801561004557600080fd5b50610060600480360381019061005b9190610289565b6100b3565b60405161006d91906102cf565b60405180910390f35b34801561008257600080fd5b5061009d6004803603810190610098919061049a565b6100cb565b6040516100aa9190610588565b60405180910390f35b60016020528060005260406000206000915090505481565b606060008054906101000a900473ffffffffffffffffffffffffffffffffffffffff1673ffffffffffffffffffffffffffffffffffffffff163373ffffffffffffffffffffffffffffffffffffffff161461015b576040517f08c379a000000000000000000000000000000000000000000000000000000000815260040161015290610607565b60405180910390fd5b6000808573ffffffffffffffffffffffffffffffffffffffff1685856040516101849190610663565b60006040518083038185875af1925050503d80600081146101c1576040519150601f19603f3d011682016040523d82523d6000602084013e6101c6565b606091505b50915091508161020b576040517f08c379a0000000000000000000000000000000000000000000000000000000008152600401610202906106ec565b60405180910390fd5b80925050509392505050565b6000604051905090565b600080fd5b600080fd5b600073ffffffffffffffffffffffffffffffffffffffff82169050919050565b60006102568261022b565b9050919050565b6102668161024b565b811461027157600080fd5b50565b6000813590506102838161025d565b92915050565b60006020828403121561029f5761029e610221565b5b60006102ad84828501610274565b91505092915050565b6000819050919050565b6102c9816102b6565b82525050565b60006020820190506102e460008301846102c0565b92915050565b60006102f58261022b565b9050919050565b610305816102ea565b811461031057600080fd5b50565b600081359050610322816102fc565b92915050565b610331816102b6565b811461033c57600080fd5b50565b60008135905061034e81610328565b92915050565b600080fd5b600080fd5b6000601f19601f8301169050919050565b7f4e487b7100000000000000000000000000000000000000000000000000000000600052604160045260246000fd5b6103a78261035e565b810181811067ffffffffffffffff821117156103c6576103c561036f565b5b80604052505050565b60006103d9610217565b90506103e5828261039e565b919050565b600067ffffffffffffffff8211156104055761040461036f565b5b61040e8261035e565b9050602081019050919050565b82818337600083830152505050565b600061043d610438846103ea565b6103cf565b90508281526020810184848401111561045957610458610359565b5b61046484828561041b565b509392505050565b600082601f83011261048157610480610354565b5b813561049184826020860161042a565b91505092915050565b6000806000606084860312156104b3576104b2610221565b5b60006104c186828701610313565b93505060206104d28682870161033f565b925050604084013567ffffffffffffffff8111156104f3576104f2610226565b5b6104ff8682870161046c565b9150509250925092565b600081519050919050565b600082825260208201905092915050565b60005b83811015610543578082015181840152602081019050610528565b60008484015250505050565b600061055a82610509565b6105648185610514565b9350610574818560208601610525565b61057d8161035e565b840191505092915050565b600060208201905081810360008301526105a2818461054f565b905092915050565b600082825260208201905092915050565b7f596f7520617265206e6f7420746865206f776e65722c2061626f7274696e672e600082015250565b60006105f16020836105aa565b91506105fc826105bb565b602082019050919050565b60006020820190508181036000830152610620816105e4565b9050919050565b600081905092915050565b600061063d82610509565b6106478185610627565b9350610657818560208601610525565b80840191505092915050565b600061066f8284610632565b915081905092915050565b7f41626f7274696e672063616c6c20776173206e6f74207375636365737366756c60008201527f2e00000000000000000000000000000000000000000000000000000000000000602082015250565b60006106d66021836105aa565b91506106e18261067a565b604082019050919050565b60006020820190508181036000830152610705816106c9565b905091905056fea26469706673582212200ffd7d8123bb48083b7f87b28029f7a5ec02ae6ecf278033299d62890c402d1764736f6c63430008110033",
					"opcodes": "PUSH1 0x80 PUSH1 0x40 MSTORE CALLVALUE DUP1 ISZERO PUSH2 0x10 JUMPI PUSH1 0x0 DUP1 REVERT JUMPDEST POP CALLER PUSH1 0x0 DUP1 PUSH2 0x100 EXP DUP2 SLOAD DUP2 PUSH20 0xFFFFFFFFFFFFFFFFFFFFFFFFFFFFFFFFFFFFFFFF MUL NOT AND SWAP1 DUP4 PUSH20 0xFFFFFFFFFFFFFFFFFFFFFFFFFFFFFFFFFFFFFFFF AND MUL OR SWAP1 SSTORE POP PUSH2 0x742 DUP1 PUSH2 0x60 PUSH1 0x0 CODECOPY PUSH1 0x0 RETURN INVALID PUSH1 0x80 PUSH1 0x40 MSTORE PUSH1 0x4 CALLDATASIZE LT PUSH2 0x2D JUMPI PUSH1 0x0 CALLDATALOAD PUSH1 0xE0 SHR DUP1 PUSH4 0x3E5BEAB9 EQ PUSH2 0x39 JUMPI DUP1 PUSH4 0xBE45FD62 EQ PUSH2 0x76 JUMPI PUSH2 0x34 JUMP JUMPDEST CALLDATASIZE PUSH2 0x34 JUMPI STOP JUMPDEST PUSH1 0x0 DUP1 REVERT JUMPDEST CALLVALUE DUP1 ISZERO PUSH2 0x45 JUMPI PUSH1 0x0 DUP1 REVERT JUMPDEST POP PUSH2 0x60 PUSH1 0x4 DUP1 CALLDATASIZE SUB DUP2 ADD SWAP1 PUSH2 0x5B SWAP2 SWAP1 PUSH2 0x289 JUMP JUMPDEST PUSH2 0xB3 JUMP JUMPDEST PUSH1 0x40 MLOAD PUSH2 0x6D SWAP2 SWAP1 PUSH2 0x2CF JUMP JUMPDEST PUSH1 0x40 MLOAD DUP1 SWAP2 SUB SWAP1 RETURN JUMPDEST CALLVALUE DUP1 ISZERO PUSH2 0x82 JUMPI PUSH1 0x0 DUP1 REVERT JUMPDEST POP PUSH2 0x9D PUSH1 0x4 DUP1 CALLDATASIZE SUB DUP2 ADD SWAP1 PUSH2 0x98 SWAP2 SWAP1 PUSH2 0x49A JUMP JUMPDEST PUSH2 0xCB JUMP JUMPDEST PUSH1 0x40 MLOAD PUSH2 0xAA SWAP2 SWAP1 PUSH2 0x588 JUMP JUMPDEST PUSH1 0x40 MLOAD DUP1 SWAP2 SUB SWAP1 RETURN JUMPDEST PUSH1 0x1 PUSH1 0x20 MSTORE DUP1 PUSH1 0x0 MSTORE PUSH1 0x40 PUSH1 0x0 KECCAK256 PUSH1 0x0 SWAP2 POP SWAP1 POP SLOAD DUP2 JUMP JUMPDEST PUSH1 0x60 PUSH1 0x0 DUP1 SLOAD SWAP1 PUSH2 0x100 EXP SWAP1 DIV PUSH20 0xFFFFFFFFFFFFFFFFFFFFFFFFFFFFFFFFFFFFFFFF AND PUSH20 0xFFFFFFFFFFFFFFFFFFFFFFFFFFFFFFFFFFFFFFFF AND CALLER PUSH20 0xFFFFFFFFFFFFFFFFFFFFFFFFFFFFFFFFFFFFFFFF AND EQ PUSH2 0x15B JUMPI PUSH1 0x40 MLOAD PUSH32 0x8C379A000000000000000000000000000000000000000000000000000000000 DUP2 MSTORE PUSH1 0x4 ADD PUSH2 0x152 SWAP1 PUSH2 0x607 JUMP JUMPDEST PUSH1 0x40 MLOAD DUP1 SWAP2 SUB SWAP1 REVERT JUMPDEST PUSH1 0x0 DUP1 DUP6 PUSH20 0xFFFFFFFFFFFFFFFFFFFFFFFFFFFFFFFFFFFFFFFF AND DUP6 DUP6 PUSH1 0x40 MLOAD PUSH2 0x184 SWAP2 SWAP1 PUSH2 0x663 JUMP JUMPDEST PUSH1 0x0 PUSH1 0x40 MLOAD DUP1 DUP4 SUB DUP2 DUP6 DUP8 GAS CALL SWAP3 POP POP POP RETURNDATASIZE DUP1 PUSH1 0x0 DUP2 EQ PUSH2 0x1C1 JUMPI PUSH1 0x40 MLOAD SWAP2 POP PUSH1 0x1F NOT PUSH1 0x3F RETURNDATASIZE ADD AND DUP3 ADD PUSH1 0x40 MSTORE RETURNDATASIZE DUP3 MSTORE RETURNDATASIZE PUSH1 0x0 PUSH1 0x20 DUP5 ADD RETURNDATACOPY PUSH2 0x1C6 JUMP JUMPDEST PUSH1 0x60 SWAP2 POP JUMPDEST POP SWAP2 POP SWAP2 POP DUP2 PUSH2 0x20B JUMPI PUSH1 0x40 MLOAD PUSH32 0x8C379A000000000000000000000000000000000000000000000000000000000 DUP2 MSTORE PUSH1 0x4 ADD PUSH2 0x202 SWAP1 PUSH2 0x6EC JUMP JUMPDEST PUSH1 0x40 MLOAD DUP1 SWAP2 SUB SWAP1 REVERT JUMPDEST DUP1 SWAP3 POP POP POP SWAP4 SWAP3 POP POP POP JUMP JUMPDEST PUSH1 0x0 PUSH1 0x40 MLOAD SWAP1 POP SWAP1 JUMP JUMPDEST PUSH1 0x0 DUP1 REVERT JUMPDEST PUSH1 0x0 DUP1 REVERT JUMPDEST PUSH1 0x0 PUSH20 0xFFFFFFFFFFFFFFFFFFFFFFFFFFFFFFFFFFFFFFFF DUP3 AND SWAP1 POP SWAP2 SWAP1 POP JUMP JUMPDEST PUSH1 0x0 PUSH2 0x256 DUP3 PUSH2 0x22B JUMP JUMPDEST SWAP1 POP SWAP2 SWAP1 POP JUMP JUMPDEST PUSH2 0x266 DUP2 PUSH2 0x24B JUMP JUMPDEST DUP2 EQ PUSH2 0x271 JUMPI PUSH1 0x0 DUP1 REVERT JUMPDEST POP JUMP JUMPDEST PUSH1 0x0 DUP2 CALLDATALOAD SWAP1 POP PUSH2 0x283 DUP2 PUSH2 0x25D JUMP JUMPDEST SWAP3 SWAP2 POP POP JUMP JUMPDEST PUSH1 0x0 PUSH1 0x20 DUP3 DUP5 SUB SLT ISZERO PUSH2 0x29F JUMPI PUSH2 0x29E PUSH2 0x221 JUMP JUMPDEST JUMPDEST PUSH1 0x0 PUSH2 0x2AD DUP5 DUP3 DUP6 ADD PUSH2 0x274 JUMP JUMPDEST SWAP2 POP POP SWAP3 SWAP2 POP POP JUMP JUMPDEST PUSH1 0x0 DUP2 SWAP1 POP SWAP2 SWAP1 POP JUMP JUMPDEST PUSH2 0x2C9 DUP2 PUSH2 0x2B6 JUMP JUMPDEST DUP3 MSTORE POP POP JUMP JUMPDEST PUSH1 0x0 PUSH1 0x20 DUP3 ADD SWAP1 POP PUSH2 0x2E4 PUSH1 0x0 DUP4 ADD DUP5 PUSH2 0x2C0 JUMP JUMPDEST SWAP3 SWAP2 POP POP JUMP JUMPDEST PUSH1 0x0 PUSH2 0x2F5 DUP3 PUSH2 0x22B JUMP JUMPDEST SWAP1 POP SWAP2 SWAP1 POP JUMP JUMPDEST PUSH2 0x305 DUP2 PUSH2 0x2EA JUMP JUMPDEST DUP2 EQ PUSH2 0x310 JUMPI PUSH1 0x0 DUP1 REVERT JUMPDEST POP JUMP JUMPDEST PUSH1 0x0 DUP2 CALLDATALOAD SWAP1 POP PUSH2 0x322 DUP2 PUSH2 0x2FC JUMP JUMPDEST SWAP3 SWAP2 POP POP JUMP JUMPDEST PUSH2 0x331 DUP2 PUSH2 0x2B6 JUMP JUMPDEST DUP2 EQ PUSH2 0x33C JUMPI PUSH1 0x0 DUP1 REVERT JUMPDEST POP JUMP JUMPDEST PUSH1 0x0 DUP2 CALLDATALOAD SWAP1 POP PUSH2 0x34E DUP2 PUSH2 0x328 JUMP JUMPDEST SWAP3 SWAP2 POP POP JUMP JUMPDEST PUSH1 0x0 DUP1 REVERT JUMPDEST PUSH1 0x0 DUP1 REVERT JUMPDEST PUSH1 0x0 PUSH1 0x1F NOT PUSH1 0x1F DUP4 ADD AND SWAP1 POP SWAP2 SWAP1 POP JUMP JUMPDEST PUSH32 0x4E487B7100000000000000000000000000000000000000000000000000000000 PUSH1 0x0 MSTORE PUSH1 0x41 PUSH1 0x4 MSTORE PUSH1 0x24 PUSH1 0x0 REVERT JUMPDEST PUSH2 0x3A7 DUP3 PUSH2 0x35E JUMP JUMPDEST DUP2 ADD DUP2 DUP2 LT PUSH8 0xFFFFFFFFFFFFFFFF DUP3 GT OR ISZERO PUSH2 0x3C6 JUMPI PUSH2 0x3C5 PUSH2 0x36F JUMP JUMPDEST JUMPDEST DUP1 PUSH1 0x40 MSTORE POP POP POP JUMP JUMPDEST PUSH1 0x0 PUSH2 0x3D9 PUSH2 0x217 JUMP JUMPDEST SWAP1 POP PUSH2 0x3E5 DUP3 DUP3 PUSH2 0x39E JUMP JUMPDEST SWAP2 SWAP1 POP JUMP JUMPDEST PUSH1 0x0 PUSH8 0xFFFFFFFFFFFFFFFF DUP3 GT ISZERO PUSH2 0x405 JUMPI PUSH2 0x404 PUSH2 0x36F JUMP JUMPDEST JUMPDEST PUSH2 0x40E DUP3 PUSH2 0x35E JUMP JUMPDEST SWAP1 POP PUSH1 0x20 DUP2 ADD SWAP1 POP SWAP2 SWAP1 POP JUMP JUMPDEST DUP3 DUP2 DUP4 CALLDATACOPY PUSH1 0x0 DUP4 DUP4 ADD MSTORE POP POP POP JUMP JUMPDEST PUSH1 0x0 PUSH2 0x43D PUSH2 0x438 DUP5 PUSH2 0x3EA JUMP JUMPDEST PUSH2 0x3CF JUMP JUMPDEST SWAP1 POP DUP3 DUP2 MSTORE PUSH1 0x20 DUP2 ADD DUP5 DUP5 DUP5 ADD GT ISZERO PUSH2 0x459 JUMPI PUSH2 0x458 PUSH2 0x359 JUMP JUMPDEST JUMPDEST PUSH2 0x464 DUP5 DUP3 DUP6 PUSH2 0x41B JUMP JUMPDEST POP SWAP4 SWAP3 POP POP POP JUMP JUMPDEST PUSH1 0x0 DUP3 PUSH1 0x1F DUP4 ADD SLT PUSH2 0x481 JUMPI PUSH2 0x480 PUSH2 0x354 JUMP JUMPDEST JUMPDEST DUP2 CALLDATALOAD PUSH2 0x491 DUP5 DUP3 PUSH1 0x20 DUP7 ADD PUSH2 0x42A JUMP JUMPDEST SWAP2 POP POP SWAP3 SWAP2 POP POP JUMP JUMPDEST PUSH1 0x0 DUP1 PUSH1 0x0 PUSH1 0x60 DUP5 DUP7 SUB SLT ISZERO PUSH2 0x4B3 JUMPI PUSH2 0x4B2 PUSH2 0x221 JUMP JUMPDEST JUMPDEST PUSH1 0x0 PUSH2 0x4C1 DUP7 DUP3 DUP8 ADD PUSH2 0x313 JUMP JUMPDEST SWAP4 POP POP PUSH1 0x20 PUSH2 0x4D2 DUP7 DUP3 DUP8 ADD PUSH2 0x33F JUMP JUMPDEST SWAP3 POP POP PUSH1 0x40 DUP5 ADD CALLDATALOAD PUSH8 0xFFFFFFFFFFFFFFFF DUP2 GT ISZERO PUSH2 0x4F3 JUMPI PUSH2 0x4F2 PUSH2 0x226 JUMP JUMPDEST JUMPDEST PUSH2 0x4FF DUP7 DUP3 DUP8 ADD PUSH2 0x46C JUMP JUMPDEST SWAP2 POP POP SWAP3 POP SWAP3 POP SWAP3 JUMP JUMPDEST PUSH1 0x0 DUP2 MLOAD SWAP1 POP SWAP2 SWAP1 POP JUMP JUMPDEST PUSH1 0x0 DUP3 DUP3 MSTORE PUSH1 0x20 DUP3 ADD SWAP1 POP SWAP3 SWAP2 POP POP JUMP JUMPDEST PUSH1 0x0 JUMPDEST DUP4 DUP2 LT ISZERO PUSH2 0x543 JUMPI DUP1 DUP3 ADD MLOAD DUP2 DUP5 ADD MSTORE PUSH1 0x20 DUP2 ADD SWAP1 POP PUSH2 0x528 JUMP JUMPDEST PUSH1 0x0 DUP5 DUP5 ADD MSTORE POP POP POP POP JUMP JUMPDEST PUSH1 0x0 PUSH2 0x55A DUP3 PUSH2 0x509 JUMP JUMPDEST PUSH2 0x564 DUP2 DUP6 PUSH2 0x514 JUMP JUMPDEST SWAP4 POP PUSH2 0x574 DUP2 DUP6 PUSH1 0x20 DUP7 ADD PUSH2 0x525 JUMP JUMPDEST PUSH2 0x57D DUP2 PUSH2 0x35E JUMP JUMPDEST DUP5 ADD SWAP2 POP POP SWAP3 SWAP2 POP POP JUMP JUMPDEST PUSH1 0x0 PUSH1 0x20 DUP3 ADD SWAP1 POP DUP2 DUP2 SUB PUSH1 0x0 DUP4 ADD MSTORE PUSH2 0x5A2 DUP2 DUP5 PUSH2 0x54F JUMP JUMPDEST SWAP1 POP SWAP3 SWAP2 POP POP JUMP JUMPDEST PUSH1 0x0 DUP3 DUP3 MSTORE PUSH1 0x20 DUP3 ADD SWAP1 POP SWAP3 SWAP2 POP POP JUMP JUMPDEST PUSH32 0x596F7520617265206E6F7420746865206F776E65722C2061626F7274696E672E PUSH1 0x0 DUP3 ADD MSTORE POP JUMP JUMPDEST PUSH1 0x0 PUSH2 0x5F1 PUSH1 0x20 DUP4 PUSH2 0x5AA JUMP JUMPDEST SWAP2 POP PUSH2 0x5FC DUP3 PUSH2 0x5BB JUMP JUMPDEST PUSH1 0x20 DUP3 ADD SWAP1 POP SWAP2 SWAP1 POP JUMP JUMPDEST PUSH1 0x0 PUSH1 0x20 DUP3 ADD SWAP1 POP DUP2 DUP2 SUB PUSH1 0x0 DUP4 ADD MSTORE PUSH2 0x620 DUP2 PUSH2 0x5E4 JUMP JUMPDEST SWAP1 POP SWAP2 SWAP1 POP JUMP JUMPDEST PUSH1 0x0 DUP2 SWAP1 POP SWAP3 SWAP2 POP POP JUMP JUMPDEST PUSH1 0x0 PUSH2 0x63D DUP3 PUSH2 0x509 JUMP JUMPDEST PUSH2 0x647 DUP2 DUP6 PUSH2 0x627 JUMP JUMPDEST SWAP4 POP PUSH2 0x657 DUP2 DUP6 PUSH1 0x20 DUP7 ADD PUSH2 0x525 JUMP JUMPDEST DUP1 DUP5 ADD SWAP2 POP POP SWAP3 SWAP2 POP POP JUMP JUMPDEST PUSH1 0x0 PUSH2 0x66F DUP3 DUP5 PUSH2 0x632 JUMP JUMPDEST SWAP2 POP DUP2 SWAP1 POP SWAP3 SWAP2 POP POP JUMP JUMPDEST PUSH32 0x41626F7274696E672063616C6C20776173206E6F74207375636365737366756C PUSH1 0x0 DUP3 ADD MSTORE PUSH32 0x2E00000000000000000000000000000000000000000000000000000000000000 PUSH1 0x20 DUP3 ADD MSTORE POP JUMP JUMPDEST PUSH1 0x0 PUSH2 0x6D6 PUSH1 0x21 DUP4 PUSH2 0x5AA JUMP JUMPDEST SWAP2 POP PUSH2 0x6E1 DUP3 PUSH2 0x67A JUMP JUMPDEST PUSH1 0x40 DUP3 ADD SWAP1 POP SWAP2 SWAP1 POP JUMP JUMPDEST PUSH1 0x0 PUSH1 0x20 DUP3 ADD SWAP1 POP DUP2 DUP2 SUB PUSH1 0x0 DUP4 ADD MSTORE PUSH2 0x705 DUP2 PUSH2 0x6C9 JUMP JUMPDEST SWAP1 POP SWAP2 SWAP1 POP JUMP INVALID LOG2 PUSH5 0x6970667358 0x22 SLT KECCAK256 0xF REVERT PUSH30 0x8123BB48083B7F87B28029F7A5EC02AE6ECF278033299D62890C402D1764 PUSH20 0x6F6C634300081100330000000000000000000000 "
				},
				"gasEstimates": {
					"creation": {
						"codeDepositCost": "371600",
						"executionCost": "24677",
						"totalCost": "396277"
					},
					"external": {
						"allowance(address)": "2792",
						"transfer(address,uint256,bytes)": "infinite"
					}
				},
				"methodIdentifiers": {
					"allowance(address)": "3e5beab9",
					"transfer(address,uint256,bytes)": "be45fd62"
				}
			},
			"storageLayout": {
				"storage": [
					{
						"astId": 3,
						"contract": "contracts/SmartContractWallet.sol:SmartContractWallet",
						"label": "owner",
						"offset": 0,
						"slot": "0",
						"type": "t_address_payable"
					},
					{
						"astId": 7,
						"contract": "contracts/SmartContractWallet.sol:SmartContractWallet",
						"label": "allowance",
						"offset": 0,
						"slot": "1",
						"type": "t_mapping(t_address,t_uint256)"
					}
				],
				"types": {
					"t_address": {
						"encoding": "inplace",
						"label": "address",
						"numberOfBytes": "20"
					},
					"t_address_payable": {
						"encoding": "inplace",
						"label": "address payable",
						"numberOfBytes": "20"
					},
					"t_mapping(t_address,t_uint256)": {
						"encoding": "mapping",
						"key": "t_address",
						"label": "mapping(address => uint256)",
						"numberOfBytes": "32",
						"value": "t_uint256"
					},
					"t_uint256": {
						"encoding": "inplace",
						"label": "uint256",
						"numberOfBytes": "32"
					}
				}
			},
			"userdoc": {
				"kind": "user",
				"methods": {},
				"version": 1
			}
		}
	}
}