{
	"contracts/SmartContractWallet.sol": {
		"SmartContractWallet": {
			"abi": [
				{
					"inputs": [],
					"stateMutability": "nonpayable",
					"type": "constructor"
				},
				{
					"inputs": [
						{
							"internalType": "address",
							"name": "",
							"type": "address"
						}
					],
					"name": "allowance",
					"outputs": [
						{
							"internalType": "uint256",
							"name": "",
							"type": "uint256"
						}
					],
					"stateMutability": "view",
					"type": "function"
				},
				{
					"inputs": [
						{
							"internalType": "address payable",
							"name": "_to",
							"type": "address"
						},
						{
							"internalType": "uint256",
							"name": "_amount",
							"type": "uint256"
						},
						{
							"internalType": "bytes",
							"name": "_payload",
							"type": "bytes"
						}
					],
					"name": "transfer",
					"outputs": [
						{
							"internalType": "bytes",
							"name": "",
							"type": "bytes"
						}
					],
					"stateMutability": "nonpayable",
					"type": "function"
				},
				{
					"stateMutability": "payable",
					"type": "receive"
				}
			],
			"devdoc": {
				"kind": "dev",
				"methods": {},
				"version": 1
			},
			"evm": {
				"assembly": "    /* \"contracts/SmartContractWallet.sol\":109:803  contract SmartContractWallet {... */\n  mstore(0x40, 0x80)\n    /* \"contracts/SmartContractWallet.sol\":231:291  constructor() {... */\n  callvalue\n  dup1\n  iszero\n  tag_1\n  jumpi\n  0x00\n  dup1\n  revert\ntag_1:\n  pop\n    /* \"contracts/SmartContractWallet.sol\":272:282  msg.sender */\n  caller\n    /* \"contracts/SmartContractWallet.sol\":256:261  owner */\n  0x00\n  dup1\n    /* \"contracts/SmartContractWallet.sol\":256:283  owner = payable(msg.sender) */\n  0x0100\n  exp\n  dup2\n  sload\n  dup2\n  0xffffffffffffffffffffffffffffffffffffffff\n  mul\n  not\n  and\n  swap1\n  dup4\n  0xffffffffffffffffffffffffffffffffffffffff\n  and\n  mul\n  or\n  swap1\n  sstore\n  pop\n    /* \"contracts/SmartContractWallet.sol\":109:803  contract SmartContractWallet {... */\n  dataSize(sub_0)\n  dup1\n  dataOffset(sub_0)\n  0x00\n  codecopy\n  0x00\n  return\nstop\n\nsub_0: assembly {\n        /* \"contracts/SmartContractWallet.sol\":109:803  contract SmartContractWallet {... */\n      mstore(0x40, 0x80)\n      jumpi(tag_1, lt(calldatasize, 0x04))\n      shr(0xe0, calldataload(0x00))\n      dup1\n      0x3e5beab9\n      eq\n      tag_3\n      jumpi\n      dup1\n      0xbe45fd62\n      eq\n      tag_4\n      jumpi\n      jump(tag_2)\n    tag_1:\n      jumpi(tag_2, calldatasize)\n      stop\n    tag_2:\n      0x00\n      dup1\n      revert\n        /* \"contracts/SmartContractWallet.sol\":175:216  mapping(address => uint) public allowance */\n    tag_3:\n      callvalue\n      dup1\n      iszero\n      tag_7\n      jumpi\n      0x00\n      dup1\n      revert\n    tag_7:\n      pop\n      tag_8\n      0x04\n      dup1\n      calldatasize\n      sub\n      dup2\n      add\n      swap1\n      tag_9\n      swap2\n      swap1\n      tag_10\n      jump\t// in\n    tag_9:\n      tag_11\n      jump\t// in\n    tag_8:\n      mload(0x40)\n      tag_12\n      swap2\n      swap1\n      tag_13\n      jump\t// in\n    tag_12:\n      mload(0x40)\n      dup1\n      swap2\n      sub\n      swap1\n      return\n        /* \"contracts/SmartContractWallet.sol\":299:763  function transfer(address payable _to, uint _amount, bytes memory _payload) public returns(bytes memory) {... */\n    tag_4:\n      callvalue\n      dup1\n      iszero\n      tag_14\n      jumpi\n      0x00\n      dup1\n      revert\n    tag_14:\n      pop\n      tag_15\n      0x04\n      dup1\n      calldatasize\n      sub\n      dup2\n      add\n      swap1\n      tag_16\n      swap2\n      swap1\n      tag_17\n      jump\t// in\n    tag_16:\n      tag_18\n      jump\t// in\n    tag_15:\n      mload(0x40)\n      tag_19\n      swap2\n      swap1\n      tag_20\n      jump\t// in\n    tag_19:\n      mload(0x40)\n      dup1\n      swap2\n      sub\n      swap1\n      return\n        /* \"contracts/SmartContractWallet.sol\":175:216  mapping(address => uint) public allowance */\n    tag_11:\n      mstore(0x20, 0x01)\n      dup1\n      0x00\n      mstore\n      keccak256(0x00, 0x40)\n      0x00\n      swap2\n      pop\n      swap1\n      pop\n      sload\n      dup2\n      jump\t// out\n        /* \"contracts/SmartContractWallet.sol\":299:763  function transfer(address payable _to, uint _amount, bytes memory _payload) public returns(bytes memory) {... */\n    tag_18:\n        /* \"contracts/SmartContractWallet.sol\":390:402  bytes memory */\n      0x60\n        /* \"contracts/SmartContractWallet.sol\":433:438  owner */\n      0x00\n      dup1\n      sload\n      swap1\n      0x0100\n      exp\n      swap1\n      div\n      0xffffffffffffffffffffffffffffffffffffffff\n      and\n        /* \"contracts/SmartContractWallet.sol\":419:438  msg.sender != owner */\n      0xffffffffffffffffffffffffffffffffffffffff\n      and\n        /* \"contracts/SmartContractWallet.sol\":419:429  msg.sender */\n      caller\n        /* \"contracts/SmartContractWallet.sol\":419:438  msg.sender != owner */\n      0xffffffffffffffffffffffffffffffffffffffff\n      and\n      eq\n        /* \"contracts/SmartContractWallet.sol\":415:574  if (msg.sender != owner) {... */\n      tag_22\n      jumpi\n        /* \"contracts/SmartContractWallet.sol\":488:495  _amount */\n      dup3\n        /* \"contracts/SmartContractWallet.sol\":463:472  allowance */\n      0x01\n        /* \"contracts/SmartContractWallet.sol\":463:484  allowance[msg.sender] */\n      0x00\n        /* \"contracts/SmartContractWallet.sol\":473:483  msg.sender */\n      caller\n        /* \"contracts/SmartContractWallet.sol\":463:484  allowance[msg.sender] */\n      0xffffffffffffffffffffffffffffffffffffffff\n      and\n      0xffffffffffffffffffffffffffffffffffffffff\n      and\n      dup2\n      mstore\n      0x20\n      add\n      swap1\n      dup2\n      mstore\n      0x20\n      add\n      0x00\n      keccak256\n      sload\n        /* \"contracts/SmartContractWallet.sol\":463:495  allowance[msg.sender] >= _amount */\n      lt\n      iszero\n        /* \"contracts/SmartContractWallet.sol\":455:562  require(allowance[msg.sender] >= _amount, \"You are tyring to send more than you are allowed to, aborting.\") */\n      tag_23\n      jumpi\n      mload(0x40)\n      0x08c379a000000000000000000000000000000000000000000000000000000000\n      dup2\n      mstore\n      0x04\n      add\n      tag_24\n      swap1\n      tag_25\n      jump\t// in\n    tag_24:\n      mload(0x40)\n      dup1\n      swap2\n      sub\n      swap1\n      revert\n    tag_23:\n        /* \"contracts/SmartContractWallet.sol\":415:574  if (msg.sender != owner) {... */\n    tag_22:\n        /* \"contracts/SmartContractWallet.sol\":586:598  bool success */\n      0x00\n        /* \"contracts/SmartContractWallet.sol\":600:623  bytes memory returnData */\n      dup1\n        /* \"contracts/SmartContractWallet.sol\":627:630  _to */\n      dup6\n        /* \"contracts/SmartContractWallet.sol\":627:635  _to.call */\n      0xffffffffffffffffffffffffffffffffffffffff\n      and\n        /* \"contracts/SmartContractWallet.sol\":643:650  _amount */\n      dup6\n        /* \"contracts/SmartContractWallet.sol\":652:660  _payload */\n      dup6\n        /* \"contracts/SmartContractWallet.sol\":627:661  _to.call{value: _amount}(_payload) */\n      mload(0x40)\n      tag_26\n      swap2\n      swap1\n      tag_27\n      jump\t// in\n    tag_26:\n      0x00\n      mload(0x40)\n      dup1\n      dup4\n      sub\n      dup2\n      dup6\n      dup8\n      gas\n      call\n      swap3\n      pop\n      pop\n      pop\n      returndatasize\n      dup1\n      0x00\n      dup2\n      eq\n      tag_30\n      jumpi\n      mload(0x40)\n      swap2\n      pop\n      and(add(returndatasize, 0x3f), not(0x1f))\n      dup3\n      add\n      0x40\n      mstore\n      returndatasize\n      dup3\n      mstore\n      returndatasize\n      0x00\n      0x20\n      dup5\n      add\n      returndatacopy\n      jump(tag_29)\n    tag_30:\n      0x60\n      swap2\n      pop\n    tag_29:\n      pop\n        /* \"contracts/SmartContractWallet.sol\":585:661  (bool success, bytes memory returnData) = _to.call{value: _amount}(_payload) */\n      swap2\n      pop\n      swap2\n      pop\n        /* \"contracts/SmartContractWallet.sol\":681:688  success */\n      dup2\n        /* \"contracts/SmartContractWallet.sol\":673:726  require(success, \"Aborting call was not successful.\") */\n      tag_31\n      jumpi\n      mload(0x40)\n      0x08c379a000000000000000000000000000000000000000000000000000000000\n      dup2\n      mstore\n      0x04\n      add\n      tag_32\n      swap1\n      tag_33\n      jump\t// in\n    tag_32:\n      mload(0x40)\n      dup1\n      swap2\n      sub\n      swap1\n      revert\n    tag_31:\n        /* \"contracts/SmartContractWallet.sol\":745:755  returnData */\n      dup1\n        /* \"contracts/SmartContractWallet.sol\":738:755  return returnData */\n      swap3\n      pop\n      pop\n      pop\n        /* \"contracts/SmartContractWallet.sol\":299:763  function transfer(address payable _to, uint _amount, bytes memory _payload) public returns(bytes memory) {... */\n      swap4\n      swap3\n      pop\n      pop\n      pop\n      jump\t// out\n        /* \"#utility.yul\":7:82   */\n    tag_34:\n        /* \"#utility.yul\":40:46   */\n      0x00\n        /* \"#utility.yul\":73:75   */\n      0x40\n        /* \"#utility.yul\":67:76   */\n      mload\n        /* \"#utility.yul\":57:76   */\n      swap1\n      pop\n        /* \"#utility.yul\":7:82   */\n      swap1\n      jump\t// out\n        /* \"#utility.yul\":88:205   */\n    tag_35:\n        /* \"#utility.yul\":197:198   */\n      0x00\n        /* \"#utility.yul\":194:195   */\n      dup1\n        /* \"#utility.yul\":187:199   */\n      revert\n        /* \"#utility.yul\":211:328   */\n    tag_36:\n        /* \"#utility.yul\":320:321   */\n      0x00\n        /* \"#utility.yul\":317:318   */\n      dup1\n        /* \"#utility.yul\":310:322   */\n      revert\n        /* \"#utility.yul\":334:460   */\n    tag_37:\n        /* \"#utility.yul\":371:378   */\n      0x00\n        /* \"#utility.yul\":411:453   */\n      0xffffffffffffffffffffffffffffffffffffffff\n        /* \"#utility.yul\":404:409   */\n      dup3\n        /* \"#utility.yul\":400:454   */\n      and\n        /* \"#utility.yul\":389:454   */\n      swap1\n      pop\n        /* \"#utility.yul\":334:460   */\n      swap2\n      swap1\n      pop\n      jump\t// out\n        /* \"#utility.yul\":466:562   */\n    tag_38:\n        /* \"#utility.yul\":503:510   */\n      0x00\n        /* \"#utility.yul\":532:556   */\n      tag_75\n        /* \"#utility.yul\":550:555   */\n      dup3\n        /* \"#utility.yul\":532:556   */\n      tag_37\n      jump\t// in\n    tag_75:\n        /* \"#utility.yul\":521:556   */\n      swap1\n      pop\n        /* \"#utility.yul\":466:562   */\n      swap2\n      swap1\n      pop\n      jump\t// out\n        /* \"#utility.yul\":568:690   */\n    tag_39:\n        /* \"#utility.yul\":641:665   */\n      tag_77\n        /* \"#utility.yul\":659:664   */\n      dup2\n        /* \"#utility.yul\":641:665   */\n      tag_38\n      jump\t// in\n    tag_77:\n        /* \"#utility.yul\":634:639   */\n      dup2\n        /* \"#utility.yul\":631:666   */\n      eq\n        /* \"#utility.yul\":621:684   */\n      tag_78\n      jumpi\n        /* \"#utility.yul\":680:681   */\n      0x00\n        /* \"#utility.yul\":677:678   */\n      dup1\n        /* \"#utility.yul\":670:682   */\n      revert\n        /* \"#utility.yul\":621:684   */\n    tag_78:\n        /* \"#utility.yul\":568:690   */\n      pop\n      jump\t// out\n        /* \"#utility.yul\":696:835   */\n    tag_40:\n        /* \"#utility.yul\":742:747   */\n      0x00\n        /* \"#utility.yul\":780:786   */\n      dup2\n        /* \"#utility.yul\":767:787   */\n      calldataload\n        /* \"#utility.yul\":758:787   */\n      swap1\n      pop\n        /* \"#utility.yul\":796:829   */\n      tag_80\n        /* \"#utility.yul\":823:828   */\n      dup2\n        /* \"#utility.yul\":796:829   */\n      tag_39\n      jump\t// in\n    tag_80:\n        /* \"#utility.yul\":696:835   */\n      swap3\n      swap2\n      pop\n      pop\n      jump\t// out\n        /* \"#utility.yul\":841:1170   */\n    tag_10:\n        /* \"#utility.yul\":900:906   */\n      0x00\n        /* \"#utility.yul\":949:951   */\n      0x20\n        /* \"#utility.yul\":937:946   */\n      dup3\n        /* \"#utility.yul\":928:935   */\n      dup5\n        /* \"#utility.yul\":924:947   */\n      sub\n        /* \"#utility.yul\":920:952   */\n      slt\n        /* \"#utility.yul\":917:1036   */\n      iszero\n      tag_82\n      jumpi\n        /* \"#utility.yul\":955:1034   */\n      tag_83\n      tag_35\n      jump\t// in\n    tag_83:\n        /* \"#utility.yul\":917:1036   */\n    tag_82:\n        /* \"#utility.yul\":1075:1076   */\n      0x00\n        /* \"#utility.yul\":1100:1153   */\n      tag_84\n        /* \"#utility.yul\":1145:1152   */\n      dup5\n        /* \"#utility.yul\":1136:1142   */\n      dup3\n        /* \"#utility.yul\":1125:1134   */\n      dup6\n        /* \"#utility.yul\":1121:1143   */\n      add\n        /* \"#utility.yul\":1100:1153   */\n      tag_40\n      jump\t// in\n    tag_84:\n        /* \"#utility.yul\":1090:1153   */\n      swap2\n      pop\n        /* \"#utility.yul\":1046:1163   */\n      pop\n        /* \"#utility.yul\":841:1170   */\n      swap3\n      swap2\n      pop\n      pop\n      jump\t// out\n        /* \"#utility.yul\":1176:1253   */\n    tag_41:\n        /* \"#utility.yul\":1213:1220   */\n      0x00\n        /* \"#utility.yul\":1242:1247   */\n      dup2\n        /* \"#utility.yul\":1231:1247   */\n      swap1\n      pop\n        /* \"#utility.yul\":1176:1253   */\n      swap2\n      swap1\n      pop\n      jump\t// out\n        /* \"#utility.yul\":1259:1377   */\n    tag_42:\n        /* \"#utility.yul\":1346:1370   */\n      tag_87\n        /* \"#utility.yul\":1364:1369   */\n      dup2\n        /* \"#utility.yul\":1346:1370   */\n      tag_41\n      jump\t// in\n    tag_87:\n        /* \"#utility.yul\":1341:1344   */\n      dup3\n        /* \"#utility.yul\":1334:1371   */\n      mstore\n        /* \"#utility.yul\":1259:1377   */\n      pop\n      pop\n      jump\t// out\n        /* \"#utility.yul\":1383:1605   */\n    tag_13:\n        /* \"#utility.yul\":1476:1480   */\n      0x00\n        /* \"#utility.yul\":1514:1516   */\n      0x20\n        /* \"#utility.yul\":1503:1512   */\n      dup3\n        /* \"#utility.yul\":1499:1517   */\n      add\n        /* \"#utility.yul\":1491:1517   */\n      swap1\n      pop\n        /* \"#utility.yul\":1527:1598   */\n      tag_89\n        /* \"#utility.yul\":1595:1596   */\n      0x00\n        /* \"#utility.yul\":1584:1593   */\n      dup4\n        /* \"#utility.yul\":1580:1597   */\n      add\n        /* \"#utility.yul\":1571:1577   */\n      dup5\n        /* \"#utility.yul\":1527:1598   */\n      tag_42\n      jump\t// in\n    tag_89:\n        /* \"#utility.yul\":1383:1605   */\n      swap3\n      swap2\n      pop\n      pop\n      jump\t// out\n        /* \"#utility.yul\":1611:1715   */\n    tag_43:\n        /* \"#utility.yul\":1656:1663   */\n      0x00\n        /* \"#utility.yul\":1685:1709   */\n      tag_91\n        /* \"#utility.yul\":1703:1708   */\n      dup3\n        /* \"#utility.yul\":1685:1709   */\n      tag_37\n      jump\t// in\n    tag_91:\n        /* \"#utility.yul\":1674:1709   */\n      swap1\n      pop\n        /* \"#utility.yul\":1611:1715   */\n      swap2\n      swap1\n      pop\n      jump\t// out\n        /* \"#utility.yul\":1721:1859   */\n    tag_44:\n        /* \"#utility.yul\":1802:1834   */\n      tag_93\n        /* \"#utility.yul\":1828:1833   */\n      dup2\n        /* \"#utility.yul\":1802:1834   */\n      tag_43\n      jump\t// in\n    tag_93:\n        /* \"#utility.yul\":1795:1800   */\n      dup2\n        /* \"#utility.yul\":1792:1835   */\n      eq\n        /* \"#utility.yul\":1782:1853   */\n      tag_94\n      jumpi\n        /* \"#utility.yul\":1849:1850   */\n      0x00\n        /* \"#utility.yul\":1846:1847   */\n      dup1\n        /* \"#utility.yul\":1839:1851   */\n      revert\n        /* \"#utility.yul\":1782:1853   */\n    tag_94:\n        /* \"#utility.yul\":1721:1859   */\n      pop\n      jump\t// out\n        /* \"#utility.yul\":1865:2020   */\n    tag_45:\n        /* \"#utility.yul\":1919:1924   */\n      0x00\n        /* \"#utility.yul\":1957:1963   */\n      dup2\n        /* \"#utility.yul\":1944:1964   */\n      calldataload\n        /* \"#utility.yul\":1935:1964   */\n      swap1\n      pop\n        /* \"#utility.yul\":1973:2014   */\n      tag_96\n        /* \"#utility.yul\":2008:2013   */\n      dup2\n        /* \"#utility.yul\":1973:2014   */\n      tag_44\n      jump\t// in\n    tag_96:\n        /* \"#utility.yul\":1865:2020   */\n      swap3\n      swap2\n      pop\n      pop\n      jump\t// out\n        /* \"#utility.yul\":2026:2148   */\n    tag_46:\n        /* \"#utility.yul\":2099:2123   */\n      tag_98\n        /* \"#utility.yul\":2117:2122   */\n      dup2\n        /* \"#utility.yul\":2099:2123   */\n      tag_41\n      jump\t// in\n    tag_98:\n        /* \"#utility.yul\":2092:2097   */\n      dup2\n        /* \"#utility.yul\":2089:2124   */\n      eq\n        /* \"#utility.yul\":2079:2142   */\n      tag_99\n      jumpi\n        /* \"#utility.yul\":2138:2139   */\n      0x00\n        /* \"#utility.yul\":2135:2136   */\n      dup1\n        /* \"#utility.yul\":2128:2140   */\n      revert\n        /* \"#utility.yul\":2079:2142   */\n    tag_99:\n        /* \"#utility.yul\":2026:2148   */\n      pop\n      jump\t// out\n        /* \"#utility.yul\":2154:2293   */\n    tag_47:\n        /* \"#utility.yul\":2200:2205   */\n      0x00\n        /* \"#utility.yul\":2238:2244   */\n      dup2\n        /* \"#utility.yul\":2225:2245   */\n      calldataload\n        /* \"#utility.yul\":2216:2245   */\n      swap1\n      pop\n        /* \"#utility.yul\":2254:2287   */\n      tag_101\n        /* \"#utility.yul\":2281:2286   */\n      dup2\n        /* \"#utility.yul\":2254:2287   */\n      tag_46\n      jump\t// in\n    tag_101:\n        /* \"#utility.yul\":2154:2293   */\n      swap3\n      swap2\n      pop\n      pop\n      jump\t// out\n        /* \"#utility.yul\":2299:2416   */\n    tag_48:\n        /* \"#utility.yul\":2408:2409   */\n      0x00\n        /* \"#utility.yul\":2405:2406   */\n      dup1\n        /* \"#utility.yul\":2398:2410   */\n      revert\n        /* \"#utility.yul\":2422:2539   */\n    tag_49:\n        /* \"#utility.yul\":2531:2532   */\n      0x00\n        /* \"#utility.yul\":2528:2529   */\n      dup1\n        /* \"#utility.yul\":2521:2533   */\n      revert\n        /* \"#utility.yul\":2545:2647   */\n    tag_50:\n        /* \"#utility.yul\":2586:2592   */\n      0x00\n        /* \"#utility.yul\":2637:2639   */\n      0x1f\n        /* \"#utility.yul\":2633:2640   */\n      not\n        /* \"#utility.yul\":2628:2630   */\n      0x1f\n        /* \"#utility.yul\":2621:2626   */\n      dup4\n        /* \"#utility.yul\":2617:2631   */\n      add\n        /* \"#utility.yul\":2613:2641   */\n      and\n        /* \"#utility.yul\":2603:2641   */\n      swap1\n      pop\n        /* \"#utility.yul\":2545:2647   */\n      swap2\n      swap1\n      pop\n      jump\t// out\n        /* \"#utility.yul\":2653:2833   */\n    tag_51:\n        /* \"#utility.yul\":2701:2778   */\n      0x4e487b7100000000000000000000000000000000000000000000000000000000\n        /* \"#utility.yul\":2698:2699   */\n      0x00\n        /* \"#utility.yul\":2691:2779   */\n      mstore\n        /* \"#utility.yul\":2798:2802   */\n      0x41\n        /* \"#utility.yul\":2795:2796   */\n      0x04\n        /* \"#utility.yul\":2788:2803   */\n      mstore\n        /* \"#utility.yul\":2822:2826   */\n      0x24\n        /* \"#utility.yul\":2819:2820   */\n      0x00\n        /* \"#utility.yul\":2812:2827   */\n      revert\n        /* \"#utility.yul\":2839:3120   */\n    tag_52:\n        /* \"#utility.yul\":2922:2949   */\n      tag_107\n        /* \"#utility.yul\":2944:2948   */\n      dup3\n        /* \"#utility.yul\":2922:2949   */\n      tag_50\n      jump\t// in\n    tag_107:\n        /* \"#utility.yul\":2914:2920   */\n      dup2\n        /* \"#utility.yul\":2910:2950   */\n      add\n        /* \"#utility.yul\":3052:3058   */\n      dup2\n        /* \"#utility.yul\":3040:3050   */\n      dup2\n        /* \"#utility.yul\":3037:3059   */\n      lt\n        /* \"#utility.yul\":3016:3034   */\n      0xffffffffffffffff\n        /* \"#utility.yul\":3004:3014   */\n      dup3\n        /* \"#utility.yul\":3001:3035   */\n      gt\n        /* \"#utility.yul\":2998:3060   */\n      or\n        /* \"#utility.yul\":2995:3083   */\n      iszero\n      tag_108\n      jumpi\n        /* \"#utility.yul\":3063:3081   */\n      tag_109\n      tag_51\n      jump\t// in\n    tag_109:\n        /* \"#utility.yul\":2995:3083   */\n    tag_108:\n        /* \"#utility.yul\":3103:3113   */\n      dup1\n        /* \"#utility.yul\":3099:3101   */\n      0x40\n        /* \"#utility.yul\":3092:3114   */\n      mstore\n        /* \"#utility.yul\":2882:3120   */\n      pop\n        /* \"#utility.yul\":2839:3120   */\n      pop\n      pop\n      jump\t// out\n        /* \"#utility.yul\":3126:3255   */\n    tag_53:\n        /* \"#utility.yul\":3160:3166   */\n      0x00\n        /* \"#utility.yul\":3187:3207   */\n      tag_111\n      tag_34\n      jump\t// in\n    tag_111:\n        /* \"#utility.yul\":3177:3207   */\n      swap1\n      pop\n        /* \"#utility.yul\":3216:3249   */\n      tag_112\n        /* \"#utility.yul\":3244:3248   */\n      dup3\n        /* \"#utility.yul\":3236:3242   */\n      dup3\n        /* \"#utility.yul\":3216:3249   */\n      tag_52\n      jump\t// in\n    tag_112:\n        /* \"#utility.yul\":3126:3255   */\n      swap2\n      swap1\n      pop\n      jump\t// out\n        /* \"#utility.yul\":3261:3568   */\n    tag_54:\n        /* \"#utility.yul\":3322:3326   */\n      0x00\n        /* \"#utility.yul\":3412:3430   */\n      0xffffffffffffffff\n        /* \"#utility.yul\":3404:3410   */\n      dup3\n        /* \"#utility.yul\":3401:3431   */\n      gt\n        /* \"#utility.yul\":3398:3454   */\n      iszero\n      tag_114\n      jumpi\n        /* \"#utility.yul\":3434:3452   */\n      tag_115\n      tag_51\n      jump\t// in\n    tag_115:\n        /* \"#utility.yul\":3398:3454   */\n    tag_114:\n        /* \"#utility.yul\":3472:3501   */\n      tag_116\n        /* \"#utility.yul\":3494:3500   */\n      dup3\n        /* \"#utility.yul\":3472:3501   */\n      tag_50\n      jump\t// in\n    tag_116:\n        /* \"#utility.yul\":3464:3501   */\n      swap1\n      pop\n        /* \"#utility.yul\":3556:3560   */\n      0x20\n        /* \"#utility.yul\":3550:3554   */\n      dup2\n        /* \"#utility.yul\":3546:3561   */\n      add\n        /* \"#utility.yul\":3538:3561   */\n      swap1\n      pop\n        /* \"#utility.yul\":3261:3568   */\n      swap2\n      swap1\n      pop\n      jump\t// out\n        /* \"#utility.yul\":3574:3720   */\n    tag_55:\n        /* \"#utility.yul\":3671:3677   */\n      dup3\n        /* \"#utility.yul\":3666:3669   */\n      dup2\n        /* \"#utility.yul\":3661:3664   */\n      dup4\n        /* \"#utility.yul\":3648:3678   */\n      calldatacopy\n        /* \"#utility.yul\":3712:3713   */\n      0x00\n        /* \"#utility.yul\":3703:3709   */\n      dup4\n        /* \"#utility.yul\":3698:3701   */\n      dup4\n        /* \"#utility.yul\":3694:3710   */\n      add\n        /* \"#utility.yul\":3687:3714   */\n      mstore\n        /* \"#utility.yul\":3574:3720   */\n      pop\n      pop\n      pop\n      jump\t// out\n        /* \"#utility.yul\":3726:4149   */\n    tag_56:\n        /* \"#utility.yul\":3803:3808   */\n      0x00\n        /* \"#utility.yul\":3828:3893   */\n      tag_119\n        /* \"#utility.yul\":3844:3892   */\n      tag_120\n        /* \"#utility.yul\":3885:3891   */\n      dup5\n        /* \"#utility.yul\":3844:3892   */\n      tag_54\n      jump\t// in\n    tag_120:\n        /* \"#utility.yul\":3828:3893   */\n      tag_53\n      jump\t// in\n    tag_119:\n        /* \"#utility.yul\":3819:3893   */\n      swap1\n      pop\n        /* \"#utility.yul\":3916:3922   */\n      dup3\n        /* \"#utility.yul\":3909:3914   */\n      dup2\n        /* \"#utility.yul\":3902:3923   */\n      mstore\n        /* \"#utility.yul\":3954:3958   */\n      0x20\n        /* \"#utility.yul\":3947:3952   */\n      dup2\n        /* \"#utility.yul\":3943:3959   */\n      add\n        /* \"#utility.yul\":3992:3995   */\n      dup5\n        /* \"#utility.yul\":3983:3989   */\n      dup5\n        /* \"#utility.yul\":3978:3981   */\n      dup5\n        /* \"#utility.yul\":3974:3990   */\n      add\n        /* \"#utility.yul\":3971:3996   */\n      gt\n        /* \"#utility.yul\":3968:4080   */\n      iszero\n      tag_121\n      jumpi\n        /* \"#utility.yul\":3999:4078   */\n      tag_122\n      tag_49\n      jump\t// in\n    tag_122:\n        /* \"#utility.yul\":3968:4080   */\n    tag_121:\n        /* \"#utility.yul\":4089:4143   */\n      tag_123\n        /* \"#utility.yul\":4136:4142   */\n      dup5\n        /* \"#utility.yul\":4131:4134   */\n      dup3\n        /* \"#utility.yul\":4126:4129   */\n      dup6\n        /* \"#utility.yul\":4089:4143   */\n      tag_55\n      jump\t// in\n    tag_123:\n        /* \"#utility.yul\":3809:4149   */\n      pop\n        /* \"#utility.yul\":3726:4149   */\n      swap4\n      swap3\n      pop\n      pop\n      pop\n      jump\t// out\n        /* \"#utility.yul\":4168:4506   */\n    tag_57:\n        /* \"#utility.yul\":4223:4228   */\n      0x00\n        /* \"#utility.yul\":4272:4275   */\n      dup3\n        /* \"#utility.yul\":4265:4269   */\n      0x1f\n        /* \"#utility.yul\":4257:4263   */\n      dup4\n        /* \"#utility.yul\":4253:4270   */\n      add\n        /* \"#utility.yul\":4249:4276   */\n      slt\n        /* \"#utility.yul\":4239:4361   */\n      tag_125\n      jumpi\n        /* \"#utility.yul\":4280:4359   */\n      tag_126\n      tag_48\n      jump\t// in\n    tag_126:\n        /* \"#utility.yul\":4239:4361   */\n    tag_125:\n        /* \"#utility.yul\":4397:4403   */\n      dup2\n        /* \"#utility.yul\":4384:4404   */\n      calldataload\n        /* \"#utility.yul\":4422:4500   */\n      tag_127\n        /* \"#utility.yul\":4496:4499   */\n      dup5\n        /* \"#utility.yul\":4488:4494   */\n      dup3\n        /* \"#utility.yul\":4481:4485   */\n      0x20\n        /* \"#utility.yul\":4473:4479   */\n      dup7\n        /* \"#utility.yul\":4469:4486   */\n      add\n        /* \"#utility.yul\":4422:4500   */\n      tag_56\n      jump\t// in\n    tag_127:\n        /* \"#utility.yul\":4413:4500   */\n      swap2\n      pop\n        /* \"#utility.yul\":4229:4506   */\n      pop\n        /* \"#utility.yul\":4168:4506   */\n      swap3\n      swap2\n      pop\n      pop\n      jump\t// out\n        /* \"#utility.yul\":4512:5325   */\n    tag_17:\n        /* \"#utility.yul\":4606:4612   */\n      0x00\n        /* \"#utility.yul\":4614:4620   */\n      dup1\n        /* \"#utility.yul\":4622:4628   */\n      0x00\n        /* \"#utility.yul\":4671:4673   */\n      0x60\n        /* \"#utility.yul\":4659:4668   */\n      dup5\n        /* \"#utility.yul\":4650:4657   */\n      dup7\n        /* \"#utility.yul\":4646:4669   */\n      sub\n        /* \"#utility.yul\":4642:4674   */\n      slt\n        /* \"#utility.yul\":4639:4758   */\n      iszero\n      tag_129\n      jumpi\n        /* \"#utility.yul\":4677:4756   */\n      tag_130\n      tag_35\n      jump\t// in\n    tag_130:\n        /* \"#utility.yul\":4639:4758   */\n    tag_129:\n        /* \"#utility.yul\":4797:4798   */\n      0x00\n        /* \"#utility.yul\":4822:4883   */\n      tag_131\n        /* \"#utility.yul\":4875:4882   */\n      dup7\n        /* \"#utility.yul\":4866:4872   */\n      dup3\n        /* \"#utility.yul\":4855:4864   */\n      dup8\n        /* \"#utility.yul\":4851:4873   */\n      add\n        /* \"#utility.yul\":4822:4883   */\n      tag_45\n      jump\t// in\n    tag_131:\n        /* \"#utility.yul\":4812:4883   */\n      swap4\n      pop\n        /* \"#utility.yul\":4768:4893   */\n      pop\n        /* \"#utility.yul\":4932:4934   */\n      0x20\n        /* \"#utility.yul\":4958:5011   */\n      tag_132\n        /* \"#utility.yul\":5003:5010   */\n      dup7\n        /* \"#utility.yul\":4994:5000   */\n      dup3\n        /* \"#utility.yul\":4983:4992   */\n      dup8\n        /* \"#utility.yul\":4979:5001   */\n      add\n        /* \"#utility.yul\":4958:5011   */\n      tag_47\n      jump\t// in\n    tag_132:\n        /* \"#utility.yul\":4948:5011   */\n      swap3\n      pop\n        /* \"#utility.yul\":4903:5021   */\n      pop\n        /* \"#utility.yul\":5088:5090   */\n      0x40\n        /* \"#utility.yul\":5077:5086   */\n      dup5\n        /* \"#utility.yul\":5073:5091   */\n      add\n        /* \"#utility.yul\":5060:5092   */\n      calldataload\n        /* \"#utility.yul\":5119:5137   */\n      0xffffffffffffffff\n        /* \"#utility.yul\":5111:5117   */\n      dup2\n        /* \"#utility.yul\":5108:5138   */\n      gt\n        /* \"#utility.yul\":5105:5222   */\n      iszero\n      tag_133\n      jumpi\n        /* \"#utility.yul\":5141:5220   */\n      tag_134\n      tag_36\n      jump\t// in\n    tag_134:\n        /* \"#utility.yul\":5105:5222   */\n    tag_133:\n        /* \"#utility.yul\":5246:5308   */\n      tag_135\n        /* \"#utility.yul\":5300:5307   */\n      dup7\n        /* \"#utility.yul\":5291:5297   */\n      dup3\n        /* \"#utility.yul\":5280:5289   */\n      dup8\n        /* \"#utility.yul\":5276:5298   */\n      add\n        /* \"#utility.yul\":5246:5308   */\n      tag_57\n      jump\t// in\n    tag_135:\n        /* \"#utility.yul\":5236:5308   */\n      swap2\n      pop\n        /* \"#utility.yul\":5031:5318   */\n      pop\n        /* \"#utility.yul\":4512:5325   */\n      swap3\n      pop\n      swap3\n      pop\n      swap3\n      jump\t// out\n        /* \"#utility.yul\":5331:5429   */\n    tag_58:\n        /* \"#utility.yul\":5382:5388   */\n      0x00\n        /* \"#utility.yul\":5416:5421   */\n      dup2\n        /* \"#utility.yul\":5410:5422   */\n      mload\n        /* \"#utility.yul\":5400:5422   */\n      swap1\n      pop\n        /* \"#utility.yul\":5331:5429   */\n      swap2\n      swap1\n      pop\n      jump\t// out\n        /* \"#utility.yul\":5435:5603   */\n    tag_59:\n        /* \"#utility.yul\":5518:5529   */\n      0x00\n        /* \"#utility.yul\":5552:5558   */\n      dup3\n        /* \"#utility.yul\":5547:5550   */\n      dup3\n        /* \"#utility.yul\":5540:5559   */\n      mstore\n        /* \"#utility.yul\":5592:5596   */\n      0x20\n        /* \"#utility.yul\":5587:5590   */\n      dup3\n        /* \"#utility.yul\":5583:5597   */\n      add\n        /* \"#utility.yul\":5568:5597   */\n      swap1\n      pop\n        /* \"#utility.yul\":5435:5603   */\n      swap3\n      swap2\n      pop\n      pop\n      jump\t// out\n        /* \"#utility.yul\":5609:5855   */\n    tag_60:\n        /* \"#utility.yul\":5690:5691   */\n      0x00\n        /* \"#utility.yul\":5700:5813   */\n    tag_139:\n        /* \"#utility.yul\":5714:5720   */\n      dup4\n        /* \"#utility.yul\":5711:5712   */\n      dup2\n        /* \"#utility.yul\":5708:5721   */\n      lt\n        /* \"#utility.yul\":5700:5813   */\n      iszero\n      tag_141\n      jumpi\n        /* \"#utility.yul\":5799:5800   */\n      dup1\n        /* \"#utility.yul\":5794:5797   */\n      dup3\n        /* \"#utility.yul\":5790:5801   */\n      add\n        /* \"#utility.yul\":5784:5802   */\n      mload\n        /* \"#utility.yul\":5780:5781   */\n      dup2\n        /* \"#utility.yul\":5775:5778   */\n      dup5\n        /* \"#utility.yul\":5771:5782   */\n      add\n        /* \"#utility.yul\":5764:5803   */\n      mstore\n        /* \"#utility.yul\":5736:5738   */\n      0x20\n        /* \"#utility.yul\":5733:5734   */\n      dup2\n        /* \"#utility.yul\":5729:5739   */\n      add\n        /* \"#utility.yul\":5724:5739   */\n      swap1\n      pop\n        /* \"#utility.yul\":5700:5813   */\n      jump(tag_139)\n    tag_141:\n        /* \"#utility.yul\":5847:5848   */\n      0x00\n        /* \"#utility.yul\":5838:5844   */\n      dup5\n        /* \"#utility.yul\":5833:5836   */\n      dup5\n        /* \"#utility.yul\":5829:5845   */\n      add\n        /* \"#utility.yul\":5822:5849   */\n      mstore\n        /* \"#utility.yul\":5671:5855   */\n      pop\n        /* \"#utility.yul\":5609:5855   */\n      pop\n      pop\n      pop\n      jump\t// out\n        /* \"#utility.yul\":5861:6234   */\n    tag_61:\n        /* \"#utility.yul\":5947:5950   */\n      0x00\n        /* \"#utility.yul\":5975:6013   */\n      tag_143\n        /* \"#utility.yul\":6007:6012   */\n      dup3\n        /* \"#utility.yul\":5975:6013   */\n      tag_58\n      jump\t// in\n    tag_143:\n        /* \"#utility.yul\":6029:6099   */\n      tag_144\n        /* \"#utility.yul\":6092:6098   */\n      dup2\n        /* \"#utility.yul\":6087:6090   */\n      dup6\n        /* \"#utility.yul\":6029:6099   */\n      tag_59\n      jump\t// in\n    tag_144:\n        /* \"#utility.yul\":6022:6099   */\n      swap4\n      pop\n        /* \"#utility.yul\":6108:6173   */\n      tag_145\n        /* \"#utility.yul\":6166:6172   */\n      dup2\n        /* \"#utility.yul\":6161:6164   */\n      dup6\n        /* \"#utility.yul\":6154:6158   */\n      0x20\n        /* \"#utility.yul\":6147:6152   */\n      dup7\n        /* \"#utility.yul\":6143:6159   */\n      add\n        /* \"#utility.yul\":6108:6173   */\n      tag_60\n      jump\t// in\n    tag_145:\n        /* \"#utility.yul\":6198:6227   */\n      tag_146\n        /* \"#utility.yul\":6220:6226   */\n      dup2\n        /* \"#utility.yul\":6198:6227   */\n      tag_50\n      jump\t// in\n    tag_146:\n        /* \"#utility.yul\":6193:6196   */\n      dup5\n        /* \"#utility.yul\":6189:6228   */\n      add\n        /* \"#utility.yul\":6182:6228   */\n      swap2\n      pop\n        /* \"#utility.yul\":5951:6234   */\n      pop\n        /* \"#utility.yul\":5861:6234   */\n      swap3\n      swap2\n      pop\n      pop\n      jump\t// out\n        /* \"#utility.yul\":6240:6549   */\n    tag_20:\n        /* \"#utility.yul\":6351:6355   */\n      0x00\n        /* \"#utility.yul\":6389:6391   */\n      0x20\n        /* \"#utility.yul\":6378:6387   */\n      dup3\n        /* \"#utility.yul\":6374:6392   */\n      add\n        /* \"#utility.yul\":6366:6392   */\n      swap1\n      pop\n        /* \"#utility.yul\":6438:6447   */\n      dup2\n        /* \"#utility.yul\":6432:6436   */\n      dup2\n        /* \"#utility.yul\":6428:6448   */\n      sub\n        /* \"#utility.yul\":6424:6425   */\n      0x00\n        /* \"#utility.yul\":6413:6422   */\n      dup4\n        /* \"#utility.yul\":6409:6426   */\n      add\n        /* \"#utility.yul\":6402:6449   */\n      mstore\n        /* \"#utility.yul\":6466:6542   */\n      tag_148\n        /* \"#utility.yul\":6537:6541   */\n      dup2\n        /* \"#utility.yul\":6528:6534   */\n      dup5\n        /* \"#utility.yul\":6466:6542   */\n      tag_61\n      jump\t// in\n    tag_148:\n        /* \"#utility.yul\":6458:6542   */\n      swap1\n      pop\n        /* \"#utility.yul\":6240:6549   */\n      swap3\n      swap2\n      pop\n      pop\n      jump\t// out\n        /* \"#utility.yul\":6555:6724   */\n    tag_62:\n        /* \"#utility.yul\":6639:6650   */\n      0x00\n        /* \"#utility.yul\":6673:6679   */\n      dup3\n        /* \"#utility.yul\":6668:6671   */\n      dup3\n        /* \"#utility.yul\":6661:6680   */\n      mstore\n        /* \"#utility.yul\":6713:6717   */\n      0x20\n        /* \"#utility.yul\":6708:6711   */\n      dup3\n        /* \"#utility.yul\":6704:6718   */\n      add\n        /* \"#utility.yul\":6689:6718   */\n      swap1\n      pop\n        /* \"#utility.yul\":6555:6724   */\n      swap3\n      swap2\n      pop\n      pop\n      jump\t// out\n        /* \"#utility.yul\":6730:6979   */\n    tag_63:\n        /* \"#utility.yul\":6870:6904   */\n      0x596f752061726520747972696e6720746f2073656e64206d6f7265207468616e\n        /* \"#utility.yul\":6866:6867   */\n      0x00\n        /* \"#utility.yul\":6858:6864   */\n      dup3\n        /* \"#utility.yul\":6854:6868   */\n      add\n        /* \"#utility.yul\":6847:6905   */\n      mstore\n        /* \"#utility.yul\":6939:6971   */\n      0x20796f752061726520616c6c6f77656420746f2c2061626f7274696e672e0000\n        /* \"#utility.yul\":6934:6936   */\n      0x20\n        /* \"#utility.yul\":6926:6932   */\n      dup3\n        /* \"#utility.yul\":6922:6937   */\n      add\n        /* \"#utility.yul\":6915:6972   */\n      mstore\n        /* \"#utility.yul\":6730:6979   */\n      pop\n      jump\t// out\n        /* \"#utility.yul\":6985:7351   */\n    tag_64:\n        /* \"#utility.yul\":7127:7130   */\n      0x00\n        /* \"#utility.yul\":7148:7215   */\n      tag_152\n        /* \"#utility.yul\":7212:7214   */\n      0x3e\n        /* \"#utility.yul\":7207:7210   */\n      dup4\n        /* \"#utility.yul\":7148:7215   */\n      tag_62\n      jump\t// in\n    tag_152:\n        /* \"#utility.yul\":7141:7215   */\n      swap2\n      pop\n        /* \"#utility.yul\":7224:7317   */\n      tag_153\n        /* \"#utility.yul\":7313:7316   */\n      dup3\n        /* \"#utility.yul\":7224:7317   */\n      tag_63\n      jump\t// in\n    tag_153:\n        /* \"#utility.yul\":7342:7344   */\n      0x40\n        /* \"#utility.yul\":7337:7340   */\n      dup3\n        /* \"#utility.yul\":7333:7345   */\n      add\n        /* \"#utility.yul\":7326:7345   */\n      swap1\n      pop\n        /* \"#utility.yul\":6985:7351   */\n      swap2\n      swap1\n      pop\n      jump\t// out\n        /* \"#utility.yul\":7357:7776   */\n    tag_25:\n        /* \"#utility.yul\":7523:7527   */\n      0x00\n        /* \"#utility.yul\":7561:7563   */\n      0x20\n        /* \"#utility.yul\":7550:7559   */\n      dup3\n        /* \"#utility.yul\":7546:7564   */\n      add\n        /* \"#utility.yul\":7538:7564   */\n      swap1\n      pop\n        /* \"#utility.yul\":7610:7619   */\n      dup2\n        /* \"#utility.yul\":7604:7608   */\n      dup2\n        /* \"#utility.yul\":7600:7620   */\n      sub\n        /* \"#utility.yul\":7596:7597   */\n      0x00\n        /* \"#utility.yul\":7585:7594   */\n      dup4\n        /* \"#utility.yul\":7581:7598   */\n      add\n        /* \"#utility.yul\":7574:7621   */\n      mstore\n        /* \"#utility.yul\":7638:7769   */\n      tag_155\n        /* \"#utility.yul\":7764:7768   */\n      dup2\n        /* \"#utility.yul\":7638:7769   */\n      tag_64\n      jump\t// in\n    tag_155:\n        /* \"#utility.yul\":7630:7769   */\n      swap1\n      pop\n        /* \"#utility.yul\":7357:7776   */\n      swap2\n      swap1\n      pop\n      jump\t// out\n        /* \"#utility.yul\":7782:7929   */\n    tag_65:\n        /* \"#utility.yul\":7883:7894   */\n      0x00\n        /* \"#utility.yul\":7920:7923   */\n      dup2\n        /* \"#utility.yul\":7905:7923   */\n      swap1\n      pop\n        /* \"#utility.yul\":7782:7929   */\n      swap3\n      swap2\n      pop\n      pop\n      jump\t// out\n        /* \"#utility.yul\":7935:8321   */\n    tag_66:\n        /* \"#utility.yul\":8039:8042   */\n      0x00\n        /* \"#utility.yul\":8067:8105   */\n      tag_158\n        /* \"#utility.yul\":8099:8104   */\n      dup3\n        /* \"#utility.yul\":8067:8105   */\n      tag_58\n      jump\t// in\n    tag_158:\n        /* \"#utility.yul\":8121:8209   */\n      tag_159\n        /* \"#utility.yul\":8202:8208   */\n      dup2\n        /* \"#utility.yul\":8197:8200   */\n      dup6\n        /* \"#utility.yul\":8121:8209   */\n      tag_65\n      jump\t// in\n    tag_159:\n        /* \"#utility.yul\":8114:8209   */\n      swap4\n      pop\n        /* \"#utility.yul\":8218:8283   */\n      tag_160\n        /* \"#utility.yul\":8276:8282   */\n      dup2\n        /* \"#utility.yul\":8271:8274   */\n      dup6\n        /* \"#utility.yul\":8264:8268   */\n      0x20\n        /* \"#utility.yul\":8257:8262   */\n      dup7\n        /* \"#utility.yul\":8253:8269   */\n      add\n        /* \"#utility.yul\":8218:8283   */\n      tag_60\n      jump\t// in\n    tag_160:\n        /* \"#utility.yul\":8308:8314   */\n      dup1\n        /* \"#utility.yul\":8303:8306   */\n      dup5\n        /* \"#utility.yul\":8299:8315   */\n      add\n        /* \"#utility.yul\":8292:8315   */\n      swap2\n      pop\n        /* \"#utility.yul\":8043:8321   */\n      pop\n        /* \"#utility.yul\":7935:8321   */\n      swap3\n      swap2\n      pop\n      pop\n      jump\t// out\n        /* \"#utility.yul\":8327:8598   */\n    tag_27:\n        /* \"#utility.yul\":8457:8460   */\n      0x00\n        /* \"#utility.yul\":8479:8572   */\n      tag_162\n        /* \"#utility.yul\":8568:8571   */\n      dup3\n        /* \"#utility.yul\":8559:8565   */\n      dup5\n        /* \"#utility.yul\":8479:8572   */\n      tag_66\n      jump\t// in\n    tag_162:\n        /* \"#utility.yul\":8472:8572   */\n      swap2\n      pop\n        /* \"#utility.yul\":8589:8592   */\n      dup2\n        /* \"#utility.yul\":8582:8592   */\n      swap1\n      pop\n        /* \"#utility.yul\":8327:8598   */\n      swap3\n      swap2\n      pop\n      pop\n      jump\t// out\n        /* \"#utility.yul\":8604:8824   */\n    tag_67:\n        /* \"#utility.yul\":8744:8778   */\n      0x41626f7274696e672063616c6c20776173206e6f74207375636365737366756c\n        /* \"#utility.yul\":8740:8741   */\n      0x00\n        /* \"#utility.yul\":8732:8738   */\n      dup3\n        /* \"#utility.yul\":8728:8742   */\n      add\n        /* \"#utility.yul\":8721:8779   */\n      mstore\n        /* \"#utility.yul\":8813:8816   */\n      0x2e00000000000000000000000000000000000000000000000000000000000000\n        /* \"#utility.yul\":8808:8810   */\n      0x20\n        /* \"#utility.yul\":8800:8806   */\n      dup3\n        /* \"#utility.yul\":8796:8811   */\n      add\n        /* \"#utility.yul\":8789:8817   */\n      mstore\n        /* \"#utility.yul\":8604:8824   */\n      pop\n      jump\t// out\n        /* \"#utility.yul\":8830:9196   */\n    tag_68:\n        /* \"#utility.yul\":8972:8975   */\n      0x00\n        /* \"#utility.yul\":8993:9060   */\n      tag_165\n        /* \"#utility.yul\":9057:9059   */\n      0x21\n        /* \"#utility.yul\":9052:9055   */\n      dup4\n        /* \"#utility.yul\":8993:9060   */\n      tag_62\n      jump\t// in\n    tag_165:\n        /* \"#utility.yul\":8986:9060   */\n      swap2\n      pop\n        /* \"#utility.yul\":9069:9162   */\n      tag_166\n        /* \"#utility.yul\":9158:9161   */\n      dup3\n        /* \"#utility.yul\":9069:9162   */\n      tag_67\n      jump\t// in\n    tag_166:\n        /* \"#utility.yul\":9187:9189   */\n      0x40\n        /* \"#utility.yul\":9182:9185   */\n      dup3\n        /* \"#utility.yul\":9178:9190   */\n      add\n        /* \"#utility.yul\":9171:9190   */\n      swap1\n      pop\n        /* \"#utility.yul\":8830:9196   */\n      swap2\n      swap1\n      pop\n      jump\t// out\n        /* \"#utility.yul\":9202:9621   */\n    tag_33:\n        /* \"#utility.yul\":9368:9372   */\n      0x00\n        /* \"#utility.yul\":9406:9408   */\n      0x20\n        /* \"#utility.yul\":9395:9404   */\n      dup3\n        /* \"#utility.yul\":9391:9409   */\n      add\n        /* \"#utility.yul\":9383:9409   */\n      swap1\n      pop\n        /* \"#utility.yul\":9455:9464   */\n      dup2\n        /* \"#utility.yul\":9449:9453   */\n      dup2\n        /* \"#utility.yul\":9445:9465   */\n      sub\n        /* \"#utility.yul\":9441:9442   */\n      0x00\n        /* \"#utility.yul\":9430:9439   */\n      dup4\n        /* \"#utility.yul\":9426:9443   */\n      add\n        /* \"#utility.yul\":9419:9466   */\n      mstore\n        /* \"#utility.yul\":9483:9614   */\n      tag_168\n        /* \"#utility.yul\":9609:9613   */\n      dup2\n        /* \"#utility.yul\":9483:9614   */\n      tag_68\n      jump\t// in\n    tag_168:\n        /* \"#utility.yul\":9475:9614   */\n      swap1\n      pop\n        /* \"#utility.yul\":9202:9621   */\n      swap2\n      swap1\n      pop\n      jump\t// out\n\n    auxdata: 0xa2646970667358221220bb7353c2c4345f1659c146a1ce4158947ca6eb9a44157bb7babdc14bbcc4919764736f6c63430008110033\n}\n",
				"bytecode": {
					"linkReferences": {},
					"object": "608060405234801561001057600080fd5b50336000806101000a81548173ffffffffffffffffffffffffffffffffffffffff021916908373ffffffffffffffffffffffffffffffffffffffff1602179055506107b0806100606000396000f3fe60806040526004361061002d5760003560e01c80633e5beab914610039578063be45fd621461007657610034565b3661003457005b600080fd5b34801561004557600080fd5b50610060600480360381019061005b91906102d1565b6100b3565b60405161006d9190610317565b60405180910390f35b34801561008257600080fd5b5061009d600480360381019061009891906104e2565b6100cb565b6040516100aa91906105d0565b60405180910390f35b60016020528060005260406000206000915090505481565b606060008054906101000a900473ffffffffffffffffffffffffffffffffffffffff1673ffffffffffffffffffffffffffffffffffffffff163373ffffffffffffffffffffffffffffffffffffffff16146101a35782600160003373ffffffffffffffffffffffffffffffffffffffff1673ffffffffffffffffffffffffffffffffffffffff1681526020019081526020016000205410156101a2576040517f08c379a000000000000000000000000000000000000000000000000000000000815260040161019990610675565b60405180910390fd5b5b6000808573ffffffffffffffffffffffffffffffffffffffff1685856040516101cc91906106d1565b60006040518083038185875af1925050503d8060008114610209576040519150601f19603f3d011682016040523d82523d6000602084013e61020e565b606091505b509150915081610253576040517f08c379a000000000000000000000000000000000000000000000000000000000815260040161024a9061075a565b60405180910390fd5b80925050509392505050565b6000604051905090565b600080fd5b600080fd5b600073ffffffffffffffffffffffffffffffffffffffff82169050919050565b600061029e82610273565b9050919050565b6102ae81610293565b81146102b957600080fd5b50565b6000813590506102cb816102a5565b92915050565b6000602082840312156102e7576102e6610269565b5b60006102f5848285016102bc565b91505092915050565b6000819050919050565b610311816102fe565b82525050565b600060208201905061032c6000830184610308565b92915050565b600061033d82610273565b9050919050565b61034d81610332565b811461035857600080fd5b50565b60008135905061036a81610344565b92915050565b610379816102fe565b811461038457600080fd5b50565b60008135905061039681610370565b92915050565b600080fd5b600080fd5b6000601f19601f8301169050919050565b7f4e487b7100000000000000000000000000000000000000000000000000000000600052604160045260246000fd5b6103ef826103a6565b810181811067ffffffffffffffff8211171561040e5761040d6103b7565b5b80604052505050565b600061042161025f565b905061042d82826103e6565b919050565b600067ffffffffffffffff82111561044d5761044c6103b7565b5b610456826103a6565b9050602081019050919050565b82818337600083830152505050565b600061048561048084610432565b610417565b9050828152602081018484840111156104a1576104a06103a1565b5b6104ac848285610463565b509392505050565b600082601f8301126104c9576104c861039c565b5b81356104d9848260208601610472565b91505092915050565b6000806000606084860312156104fb576104fa610269565b5b60006105098682870161035b565b935050602061051a86828701610387565b925050604084013567ffffffffffffffff81111561053b5761053a61026e565b5b610547868287016104b4565b9150509250925092565b600081519050919050565b600082825260208201905092915050565b60005b8381101561058b578082015181840152602081019050610570565b60008484015250505050565b60006105a282610551565b6105ac818561055c565b93506105bc81856020860161056d565b6105c5816103a6565b840191505092915050565b600060208201905081810360008301526105ea8184610597565b905092915050565b600082825260208201905092915050565b7f596f752061726520747972696e6720746f2073656e64206d6f7265207468616e60008201527f20796f752061726520616c6c6f77656420746f2c2061626f7274696e672e0000602082015250565b600061065f603e836105f2565b915061066a82610603565b604082019050919050565b6000602082019050818103600083015261068e81610652565b9050919050565b600081905092915050565b60006106ab82610551565b6106b58185610695565b93506106c581856020860161056d565b80840191505092915050565b60006106dd82846106a0565b915081905092915050565b7f41626f7274696e672063616c6c20776173206e6f74207375636365737366756c60008201527f2e00000000000000000000000000000000000000000000000000000000000000602082015250565b60006107446021836105f2565b915061074f826106e8565b604082019050919050565b6000602082019050818103600083015261077381610737565b905091905056fea2646970667358221220bb7353c2c4345f1659c146a1ce4158947ca6eb9a44157bb7babdc14bbcc4919764736f6c63430008110033",
					"opcodes": "PUSH1 0x80 PUSH1 0x40 MSTORE CALLVALUE DUP1 ISZERO PUSH2 0x10 JUMPI PUSH1 0x0 DUP1 REVERT JUMPDEST POP CALLER PUSH1 0x0 DUP1 PUSH2 0x100 EXP DUP2 SLOAD DUP2 PUSH20 0xFFFFFFFFFFFFFFFFFFFFFFFFFFFFFFFFFFFFFFFF MUL NOT AND SWAP1 DUP4 PUSH20 0xFFFFFFFFFFFFFFFFFFFFFFFFFFFFFFFFFFFFFFFF AND MUL OR SWAP1 SSTORE POP PUSH2 0x7B0 DUP1 PUSH2 0x60 PUSH1 0x0 CODECOPY PUSH1 0x0 RETURN INVALID PUSH1 0x80 PUSH1 0x40 MSTORE PUSH1 0x4 CALLDATASIZE LT PUSH2 0x2D JUMPI PUSH1 0x0 CALLDATALOAD PUSH1 0xE0 SHR DUP1 PUSH4 0x3E5BEAB9 EQ PUSH2 0x39 JUMPI DUP1 PUSH4 0xBE45FD62 EQ PUSH2 0x76 JUMPI PUSH2 0x34 JUMP JUMPDEST CALLDATASIZE PUSH2 0x34 JUMPI STOP JUMPDEST PUSH1 0x0 DUP1 REVERT JUMPDEST CALLVALUE DUP1 ISZERO PUSH2 0x45 JUMPI PUSH1 0x0 DUP1 REVERT JUMPDEST POP PUSH2 0x60 PUSH1 0x4 DUP1 CALLDATASIZE SUB DUP2 ADD SWAP1 PUSH2 0x5B SWAP2 SWAP1 PUSH2 0x2D1 JUMP JUMPDEST PUSH2 0xB3 JUMP JUMPDEST PUSH1 0x40 MLOAD PUSH2 0x6D SWAP2 SWAP1 PUSH2 0x317 JUMP JUMPDEST PUSH1 0x40 MLOAD DUP1 SWAP2 SUB SWAP1 RETURN JUMPDEST CALLVALUE DUP1 ISZERO PUSH2 0x82 JUMPI PUSH1 0x0 DUP1 REVERT JUMPDEST POP PUSH2 0x9D PUSH1 0x4 DUP1 CALLDATASIZE SUB DUP2 ADD SWAP1 PUSH2 0x98 SWAP2 SWAP1 PUSH2 0x4E2 JUMP JUMPDEST PUSH2 0xCB JUMP JUMPDEST PUSH1 0x40 MLOAD PUSH2 0xAA SWAP2 SWAP1 PUSH2 0x5D0 JUMP JUMPDEST PUSH1 0x40 MLOAD DUP1 SWAP2 SUB SWAP1 RETURN JUMPDEST PUSH1 0x1 PUSH1 0x20 MSTORE DUP1 PUSH1 0x0 MSTORE PUSH1 0x40 PUSH1 0x0 KECCAK256 PUSH1 0x0 SWAP2 POP SWAP1 POP SLOAD DUP2 JUMP JUMPDEST PUSH1 0x60 PUSH1 0x0 DUP1 SLOAD SWAP1 PUSH2 0x100 EXP SWAP1 DIV PUSH20 0xFFFFFFFFFFFFFFFFFFFFFFFFFFFFFFFFFFFFFFFF AND PUSH20 0xFFFFFFFFFFFFFFFFFFFFFFFFFFFFFFFFFFFFFFFF AND CALLER PUSH20 0xFFFFFFFFFFFFFFFFFFFFFFFFFFFFFFFFFFFFFFFF AND EQ PUSH2 0x1A3 JUMPI DUP3 PUSH1 0x1 PUSH1 0x0 CALLER PUSH20 0xFFFFFFFFFFFFFFFFFFFFFFFFFFFFFFFFFFFFFFFF AND PUSH20 0xFFFFFFFFFFFFFFFFFFFFFFFFFFFFFFFFFFFFFFFF AND DUP2 MSTORE PUSH1 0x20 ADD SWAP1 DUP2 MSTORE PUSH1 0x20 ADD PUSH1 0x0 KECCAK256 SLOAD LT ISZERO PUSH2 0x1A2 JUMPI PUSH1 0x40 MLOAD PUSH32 0x8C379A000000000000000000000000000000000000000000000000000000000 DUP2 MSTORE PUSH1 0x4 ADD PUSH2 0x199 SWAP1 PUSH2 0x675 JUMP JUMPDEST PUSH1 0x40 MLOAD DUP1 SWAP2 SUB SWAP1 REVERT JUMPDEST JUMPDEST PUSH1 0x0 DUP1 DUP6 PUSH20 0xFFFFFFFFFFFFFFFFFFFFFFFFFFFFFFFFFFFFFFFF AND DUP6 DUP6 PUSH1 0x40 MLOAD PUSH2 0x1CC SWAP2 SWAP1 PUSH2 0x6D1 JUMP JUMPDEST PUSH1 0x0 PUSH1 0x40 MLOAD DUP1 DUP4 SUB DUP2 DUP6 DUP8 GAS CALL SWAP3 POP POP POP RETURNDATASIZE DUP1 PUSH1 0x0 DUP2 EQ PUSH2 0x209 JUMPI PUSH1 0x40 MLOAD SWAP2 POP PUSH1 0x1F NOT PUSH1 0x3F RETURNDATASIZE ADD AND DUP3 ADD PUSH1 0x40 MSTORE RETURNDATASIZE DUP3 MSTORE RETURNDATASIZE PUSH1 0x0 PUSH1 0x20 DUP5 ADD RETURNDATACOPY PUSH2 0x20E JUMP JUMPDEST PUSH1 0x60 SWAP2 POP JUMPDEST POP SWAP2 POP SWAP2 POP DUP2 PUSH2 0x253 JUMPI PUSH1 0x40 MLOAD PUSH32 0x8C379A000000000000000000000000000000000000000000000000000000000 DUP2 MSTORE PUSH1 0x4 ADD PUSH2 0x24A SWAP1 PUSH2 0x75A JUMP JUMPDEST PUSH1 0x40 MLOAD DUP1 SWAP2 SUB SWAP1 REVERT JUMPDEST DUP1 SWAP3 POP POP POP SWAP4 SWAP3 POP POP POP JUMP JUMPDEST PUSH1 0x0 PUSH1 0x40 MLOAD SWAP1 POP SWAP1 JUMP JUMPDEST PUSH1 0x0 DUP1 REVERT JUMPDEST PUSH1 0x0 DUP1 REVERT JUMPDEST PUSH1 0x0 PUSH20 0xFFFFFFFFFFFFFFFFFFFFFFFFFFFFFFFFFFFFFFFF DUP3 AND SWAP1 POP SWAP2 SWAP1 POP JUMP JUMPDEST PUSH1 0x0 PUSH2 0x29E DUP3 PUSH2 0x273 JUMP JUMPDEST SWAP1 POP SWAP2 SWAP1 POP JUMP JUMPDEST PUSH2 0x2AE DUP2 PUSH2 0x293 JUMP JUMPDEST DUP2 EQ PUSH2 0x2B9 JUMPI PUSH1 0x0 DUP1 REVERT JUMPDEST POP JUMP JUMPDEST PUSH1 0x0 DUP2 CALLDATALOAD SWAP1 POP PUSH2 0x2CB DUP2 PUSH2 0x2A5 JUMP JUMPDEST SWAP3 SWAP2 POP POP JUMP JUMPDEST PUSH1 0x0 PUSH1 0x20 DUP3 DUP5 SUB SLT ISZERO PUSH2 0x2E7 JUMPI PUSH2 0x2E6 PUSH2 0x269 JUMP JUMPDEST JUMPDEST PUSH1 0x0 PUSH2 0x2F5 DUP5 DUP3 DUP6 ADD PUSH2 0x2BC JUMP JUMPDEST SWAP2 POP POP SWAP3 SWAP2 POP POP JUMP JUMPDEST PUSH1 0x0 DUP2 SWAP1 POP SWAP2 SWAP1 POP JUMP JUMPDEST PUSH2 0x311 DUP2 PUSH2 0x2FE JUMP JUMPDEST DUP3 MSTORE POP POP JUMP JUMPDEST PUSH1 0x0 PUSH1 0x20 DUP3 ADD SWAP1 POP PUSH2 0x32C PUSH1 0x0 DUP4 ADD DUP5 PUSH2 0x308 JUMP JUMPDEST SWAP3 SWAP2 POP POP JUMP JUMPDEST PUSH1 0x0 PUSH2 0x33D DUP3 PUSH2 0x273 JUMP JUMPDEST SWAP1 POP SWAP2 SWAP1 POP JUMP JUMPDEST PUSH2 0x34D DUP2 PUSH2 0x332 JUMP JUMPDEST DUP2 EQ PUSH2 0x358 JUMPI PUSH1 0x0 DUP1 REVERT JUMPDEST POP JUMP JUMPDEST PUSH1 0x0 DUP2 CALLDATALOAD SWAP1 POP PUSH2 0x36A DUP2 PUSH2 0x344 JUMP JUMPDEST SWAP3 SWAP2 POP POP JUMP JUMPDEST PUSH2 0x379 DUP2 PUSH2 0x2FE JUMP JUMPDEST DUP2 EQ PUSH2 0x384 JUMPI PUSH1 0x0 DUP1 REVERT JUMPDEST POP JUMP JUMPDEST PUSH1 0x0 DUP2 CALLDATALOAD SWAP1 POP PUSH2 0x396 DUP2 PUSH2 0x370 JUMP JUMPDEST SWAP3 SWAP2 POP POP JUMP JUMPDEST PUSH1 0x0 DUP1 REVERT JUMPDEST PUSH1 0x0 DUP1 REVERT JUMPDEST PUSH1 0x0 PUSH1 0x1F NOT PUSH1 0x1F DUP4 ADD AND SWAP1 POP SWAP2 SWAP1 POP JUMP JUMPDEST PUSH32 0x4E487B7100000000000000000000000000000000000000000000000000000000 PUSH1 0x0 MSTORE PUSH1 0x41 PUSH1 0x4 MSTORE PUSH1 0x24 PUSH1 0x0 REVERT JUMPDEST PUSH2 0x3EF DUP3 PUSH2 0x3A6 JUMP JUMPDEST DUP2 ADD DUP2 DUP2 LT PUSH8 0xFFFFFFFFFFFFFFFF DUP3 GT OR ISZERO PUSH2 0x40E JUMPI PUSH2 0x40D PUSH2 0x3B7 JUMP JUMPDEST JUMPDEST DUP1 PUSH1 0x40 MSTORE POP POP POP JUMP JUMPDEST PUSH1 0x0 PUSH2 0x421 PUSH2 0x25F JUMP JUMPDEST SWAP1 POP PUSH2 0x42D DUP3 DUP3 PUSH2 0x3E6 JUMP JUMPDEST SWAP2 SWAP1 POP JUMP JUMPDEST PUSH1 0x0 PUSH8 0xFFFFFFFFFFFFFFFF DUP3 GT ISZERO PUSH2 0x44D JUMPI PUSH2 0x44C PUSH2 0x3B7 JUMP JUMPDEST JUMPDEST PUSH2 0x456 DUP3 PUSH2 0x3A6 JUMP JUMPDEST SWAP1 POP PUSH1 0x20 DUP2 ADD SWAP1 POP SWAP2 SWAP1 POP JUMP JUMPDEST DUP3 DUP2 DUP4 CALLDATACOPY PUSH1 0x0 DUP4 DUP4 ADD MSTORE POP POP POP JUMP JUMPDEST PUSH1 0x0 PUSH2 0x485 PUSH2 0x480 DUP5 PUSH2 0x432 JUMP JUMPDEST PUSH2 0x417 JUMP JUMPDEST SWAP1 POP DUP3 DUP2 MSTORE PUSH1 0x20 DUP2 ADD DUP5 DUP5 DUP5 ADD GT ISZERO PUSH2 0x4A1 JUMPI PUSH2 0x4A0 PUSH2 0x3A1 JUMP JUMPDEST JUMPDEST PUSH2 0x4AC DUP5 DUP3 DUP6 PUSH2 0x463 JUMP JUMPDEST POP SWAP4 SWAP3 POP POP POP JUMP JUMPDEST PUSH1 0x0 DUP3 PUSH1 0x1F DUP4 ADD SLT PUSH2 0x4C9 JUMPI PUSH2 0x4C8 PUSH2 0x39C JUMP JUMPDEST JUMPDEST DUP2 CALLDATALOAD PUSH2 0x4D9 DUP5 DUP3 PUSH1 0x20 DUP7 ADD PUSH2 0x472 JUMP JUMPDEST SWAP2 POP POP SWAP3 SWAP2 POP POP JUMP JUMPDEST PUSH1 0x0 DUP1 PUSH1 0x0 PUSH1 0x60 DUP5 DUP7 SUB SLT ISZERO PUSH2 0x4FB JUMPI PUSH2 0x4FA PUSH2 0x269 JUMP JUMPDEST JUMPDEST PUSH1 0x0 PUSH2 0x509 DUP7 DUP3 DUP8 ADD PUSH2 0x35B JUMP JUMPDEST SWAP4 POP POP PUSH1 0x20 PUSH2 0x51A DUP7 DUP3 DUP8 ADD PUSH2 0x387 JUMP JUMPDEST SWAP3 POP POP PUSH1 0x40 DUP5 ADD CALLDATALOAD PUSH8 0xFFFFFFFFFFFFFFFF DUP2 GT ISZERO PUSH2 0x53B JUMPI PUSH2 0x53A PUSH2 0x26E JUMP JUMPDEST JUMPDEST PUSH2 0x547 DUP7 DUP3 DUP8 ADD PUSH2 0x4B4 JUMP JUMPDEST SWAP2 POP POP SWAP3 POP SWAP3 POP SWAP3 JUMP JUMPDEST PUSH1 0x0 DUP2 MLOAD SWAP1 POP SWAP2 SWAP1 POP JUMP JUMPDEST PUSH1 0x0 DUP3 DUP3 MSTORE PUSH1 0x20 DUP3 ADD SWAP1 POP SWAP3 SWAP2 POP POP JUMP JUMPDEST PUSH1 0x0 JUMPDEST DUP4 DUP2 LT ISZERO PUSH2 0x58B JUMPI DUP1 DUP3 ADD MLOAD DUP2 DUP5 ADD MSTORE PUSH1 0x20 DUP2 ADD SWAP1 POP PUSH2 0x570 JUMP JUMPDEST PUSH1 0x0 DUP5 DUP5 ADD MSTORE POP POP POP POP JUMP JUMPDEST PUSH1 0x0 PUSH2 0x5A2 DUP3 PUSH2 0x551 JUMP JUMPDEST PUSH2 0x5AC DUP2 DUP6 PUSH2 0x55C JUMP JUMPDEST SWAP4 POP PUSH2 0x5BC DUP2 DUP6 PUSH1 0x20 DUP7 ADD PUSH2 0x56D JUMP JUMPDEST PUSH2 0x5C5 DUP2 PUSH2 0x3A6 JUMP JUMPDEST DUP5 ADD SWAP2 POP POP SWAP3 SWAP2 POP POP JUMP JUMPDEST PUSH1 0x0 PUSH1 0x20 DUP3 ADD SWAP1 POP DUP2 DUP2 SUB PUSH1 0x0 DUP4 ADD MSTORE PUSH2 0x5EA DUP2 DUP5 PUSH2 0x597 JUMP JUMPDEST SWAP1 POP SWAP3 SWAP2 POP POP JUMP JUMPDEST PUSH1 0x0 DUP3 DUP3 MSTORE PUSH1 0x20 DUP3 ADD SWAP1 POP SWAP3 SWAP2 POP POP JUMP JUMPDEST PUSH32 0x596F752061726520747972696E6720746F2073656E64206D6F7265207468616E PUSH1 0x0 DUP3 ADD MSTORE PUSH32 0x20796F752061726520616C6C6F77656420746F2C2061626F7274696E672E0000 PUSH1 0x20 DUP3 ADD MSTORE POP JUMP JUMPDEST PUSH1 0x0 PUSH2 0x65F PUSH1 0x3E DUP4 PUSH2 0x5F2 JUMP JUMPDEST SWAP2 POP PUSH2 0x66A DUP3 PUSH2 0x603 JUMP JUMPDEST PUSH1 0x40 DUP3 ADD SWAP1 POP SWAP2 SWAP1 POP JUMP JUMPDEST PUSH1 0x0 PUSH1 0x20 DUP3 ADD SWAP1 POP DUP2 DUP2 SUB PUSH1 0x0 DUP4 ADD MSTORE PUSH2 0x68E DUP2 PUSH2 0x652 JUMP JUMPDEST SWAP1 POP SWAP2 SWAP1 POP JUMP JUMPDEST PUSH1 0x0 DUP2 SWAP1 POP SWAP3 SWAP2 POP POP JUMP JUMPDEST PUSH1 0x0 PUSH2 0x6AB DUP3 PUSH2 0x551 JUMP JUMPDEST PUSH2 0x6B5 DUP2 DUP6 PUSH2 0x695 JUMP JUMPDEST SWAP4 POP PUSH2 0x6C5 DUP2 DUP6 PUSH1 0x20 DUP7 ADD PUSH2 0x56D JUMP JUMPDEST DUP1 DUP5 ADD SWAP2 POP POP SWAP3 SWAP2 POP POP JUMP JUMPDEST PUSH1 0x0 PUSH2 0x6DD DUP3 DUP5 PUSH2 0x6A0 JUMP JUMPDEST SWAP2 POP DUP2 SWAP1 POP SWAP3 SWAP2 POP POP JUMP JUMPDEST PUSH32 0x41626F7274696E672063616C6C20776173206E6F74207375636365737366756C PUSH1 0x0 DUP3 ADD MSTORE PUSH32 0x2E00000000000000000000000000000000000000000000000000000000000000 PUSH1 0x20 DUP3 ADD MSTORE POP JUMP JUMPDEST PUSH1 0x0 PUSH2 0x744 PUSH1 0x21 DUP4 PUSH2 0x5F2 JUMP JUMPDEST SWAP2 POP PUSH2 0x74F DUP3 PUSH2 0x6E8 JUMP JUMPDEST PUSH1 0x40 DUP3 ADD SWAP1 POP SWAP2 SWAP1 POP JUMP JUMPDEST PUSH1 0x0 PUSH1 0x20 DUP3 ADD SWAP1 POP DUP2 DUP2 SUB PUSH1 0x0 DUP4 ADD MSTORE PUSH2 0x773 DUP2 PUSH2 0x737 JUMP JUMPDEST SWAP1 POP SWAP2 SWAP1 POP JUMP INVALID LOG2 PUSH5 0x6970667358 0x22 SLT KECCAK256 0xBB PUSH20 0x53C2C4345F1659C146A1CE4158947CA6EB9A4415 PUSH28 0xB7BABDC14BBCC4919764736F6C634300081100330000000000000000 "
				},
				"gasEstimates": {
					"creation": {
						"codeDepositCost": "393600",
						"executionCost": "24696",
						"totalCost": "418296"
					},
					"external": {
						"allowance(address)": "2792",
						"transfer(address,uint256,bytes)": "infinite"
					}
				},
				"methodIdentifiers": {
					"allowance(address)": "3e5beab9",
					"transfer(address,uint256,bytes)": "be45fd62"
				}
			},
			"storageLayout": {
				"storage": [
					{
						"astId": 3,
						"contract": "contracts/SmartContractWallet.sol:SmartContractWallet",
						"label": "owner",
						"offset": 0,
						"slot": "0",
						"type": "t_address_payable"
					},
					{
						"astId": 7,
						"contract": "contracts/SmartContractWallet.sol:SmartContractWallet",
						"label": "allowance",
						"offset": 0,
						"slot": "1",
						"type": "t_mapping(t_address,t_uint256)"
					}
				],
				"types": {
					"t_address": {
						"encoding": "inplace",
						"label": "address",
						"numberOfBytes": "20"
					},
					"t_address_payable": {
						"encoding": "inplace",
						"label": "address payable",
						"numberOfBytes": "20"
					},
					"t_mapping(t_address,t_uint256)": {
						"encoding": "mapping",
						"key": "t_address",
						"label": "mapping(address => uint256)",
						"numberOfBytes": "32",
						"value": "t_uint256"
					},
					"t_uint256": {
						"encoding": "inplace",
						"label": "uint256",
						"numberOfBytes": "32"
					}
				}
			},
			"userdoc": {
				"kind": "user",
				"methods": {},
				"version": 1
			}
		}
	}
}