{
	"contracts/SmartContractWallet.sol": {
		"SmartContractWallet": {
			"abi": [
				{
					"inputs": [],
					"stateMutability": "nonpayable",
					"type": "constructor"
				},
				{
					"inputs": [
						{
							"internalType": "address",
							"name": "_guardian",
							"type": "address"
						}
					],
					"name": "addGuardian",
					"outputs": [],
					"stateMutability": "nonpayable",
					"type": "function"
				},
				{
					"inputs": [
						{
							"internalType": "address",
							"name": "",
							"type": "address"
						}
					],
					"name": "allowance",
					"outputs": [
						{
							"internalType": "uint256",
							"name": "",
							"type": "uint256"
						}
					],
					"stateMutability": "view",
					"type": "function"
				},
				{
					"inputs": [
						{
							"internalType": "address",
							"name": "",
							"type": "address"
						}
					],
					"name": "guardians",
					"outputs": [
						{
							"internalType": "bool",
							"name": "",
							"type": "bool"
						}
					],
					"stateMutability": "view",
					"type": "function"
				},
				{
					"inputs": [
						{
							"internalType": "address",
							"name": "",
							"type": "address"
						}
					],
					"name": "isAllowedToSend",
					"outputs": [
						{
							"internalType": "bool",
							"name": "",
							"type": "bool"
						}
					],
					"stateMutability": "view",
					"type": "function"
				},
				{
					"inputs": [
						{
							"internalType": "address",
							"name": "_for",
							"type": "address"
						},
						{
							"internalType": "uint256",
							"name": "_amount",
							"type": "uint256"
						}
					],
					"name": "setAllowance",
					"outputs": [],
					"stateMutability": "nonpayable",
					"type": "function"
				},
				{
					"inputs": [
						{
							"internalType": "address payable",
							"name": "_to",
							"type": "address"
						},
						{
							"internalType": "uint256",
							"name": "_amount",
							"type": "uint256"
						},
						{
							"internalType": "bytes",
							"name": "_payload",
							"type": "bytes"
						}
					],
					"name": "transfer",
					"outputs": [
						{
							"internalType": "bytes",
							"name": "",
							"type": "bytes"
						}
					],
					"stateMutability": "nonpayable",
					"type": "function"
				},
				{
					"stateMutability": "payable",
					"type": "receive"
				}
			],
			"devdoc": {
				"kind": "dev",
				"methods": {},
				"version": 1
			},
			"evm": {
				"assembly": "    /* \"contracts/SmartContractWallet.sol\":109:1478  contract SmartContractWallet {... */\n  mstore(0x40, 0x80)\n    /* \"contracts/SmartContractWallet.sol\":327:387  constructor() {... */\n  callvalue\n  dup1\n  iszero\n  tag_1\n  jumpi\n  0x00\n  dup1\n  revert\ntag_1:\n  pop\n    /* \"contracts/SmartContractWallet.sol\":368:378  msg.sender */\n  caller\n    /* \"contracts/SmartContractWallet.sol\":352:357  owner */\n  0x00\n  dup1\n    /* \"contracts/SmartContractWallet.sol\":352:379  owner = payable(msg.sender) */\n  0x0100\n  exp\n  dup2\n  sload\n  dup2\n  0xffffffffffffffffffffffffffffffffffffffff\n  mul\n  not\n  and\n  swap1\n  dup4\n  0xffffffffffffffffffffffffffffffffffffffff\n  and\n  mul\n  or\n  swap1\n  sstore\n  pop\n    /* \"contracts/SmartContractWallet.sol\":109:1478  contract SmartContractWallet {... */\n  dataSize(sub_0)\n  dup1\n  dataOffset(sub_0)\n  0x00\n  codecopy\n  0x00\n  return\nstop\n\nsub_0: assembly {\n        /* \"contracts/SmartContractWallet.sol\":109:1478  contract SmartContractWallet {... */\n      mstore(0x40, 0x80)\n      jumpi(tag_1, lt(calldatasize, 0x04))\n      shr(0xe0, calldataload(0x00))\n      dup1\n      0x0633b14a\n      eq\n      tag_3\n      jumpi\n      dup1\n      0x0bc605ad\n      eq\n      tag_4\n      jumpi\n      dup1\n      0x310ec4a7\n      eq\n      tag_5\n      jumpi\n      dup1\n      0x3e5beab9\n      eq\n      tag_6\n      jumpi\n      dup1\n      0xa526d83b\n      eq\n      tag_7\n      jumpi\n      dup1\n      0xbe45fd62\n      eq\n      tag_8\n      jumpi\n      jump(tag_2)\n    tag_1:\n      jumpi(tag_2, calldatasize)\n      stop\n    tag_2:\n      0x00\n      dup1\n      revert\n        /* \"contracts/SmartContractWallet.sol\":277:318  mapping(address => bool) public guardians */\n    tag_3:\n      callvalue\n      dup1\n      iszero\n      tag_11\n      jumpi\n      0x00\n      dup1\n      revert\n    tag_11:\n      pop\n      tag_12\n      0x04\n      dup1\n      calldatasize\n      sub\n      dup2\n      add\n      swap1\n      tag_13\n      swap2\n      swap1\n      tag_14\n      jump\t// in\n    tag_13:\n      tag_15\n      jump\t// in\n    tag_12:\n      mload(0x40)\n      tag_16\n      swap2\n      swap1\n      tag_17\n      jump\t// in\n    tag_16:\n      mload(0x40)\n      dup1\n      swap2\n      sub\n      swap1\n      return\n        /* \"contracts/SmartContractWallet.sol\":223:270  mapping(address => bool) public isAllowedToSend */\n    tag_4:\n      callvalue\n      dup1\n      iszero\n      tag_18\n      jumpi\n      0x00\n      dup1\n      revert\n    tag_18:\n      pop\n      tag_19\n      0x04\n      dup1\n      calldatasize\n      sub\n      dup2\n      add\n      swap1\n      tag_20\n      swap2\n      swap1\n      tag_14\n      jump\t// in\n    tag_20:\n      tag_21\n      jump\t// in\n    tag_19:\n      mload(0x40)\n      tag_22\n      swap2\n      swap1\n      tag_17\n      jump\t// in\n    tag_22:\n      mload(0x40)\n      dup1\n      swap2\n      sub\n      swap1\n      return\n        /* \"contracts/SmartContractWallet.sol\":468:797  function setAllowance(address _for, uint _amount) public {... */\n    tag_5:\n      callvalue\n      dup1\n      iszero\n      tag_23\n      jumpi\n      0x00\n      dup1\n      revert\n    tag_23:\n      pop\n      tag_24\n      0x04\n      dup1\n      calldatasize\n      sub\n      dup2\n      add\n      swap1\n      tag_25\n      swap2\n      swap1\n      tag_26\n      jump\t// in\n    tag_25:\n      tag_27\n      jump\t// in\n    tag_24:\n      stop\n        /* \"contracts/SmartContractWallet.sol\":175:216  mapping(address => uint) public allowance */\n    tag_6:\n      callvalue\n      dup1\n      iszero\n      tag_28\n      jumpi\n      0x00\n      dup1\n      revert\n    tag_28:\n      pop\n      tag_29\n      0x04\n      dup1\n      calldatasize\n      sub\n      dup2\n      add\n      swap1\n      tag_30\n      swap2\n      swap1\n      tag_14\n      jump\t// in\n    tag_30:\n      tag_31\n      jump\t// in\n    tag_29:\n      mload(0x40)\n      tag_32\n      swap2\n      swap1\n      tag_33\n      jump\t// in\n    tag_32:\n      mload(0x40)\n      dup1\n      swap2\n      sub\n      swap1\n      return\n        /* \"contracts/SmartContractWallet.sol\":395:460  function addGuardian(address _guardian) public {... */\n    tag_7:\n      callvalue\n      dup1\n      iszero\n      tag_34\n      jumpi\n      0x00\n      dup1\n      revert\n    tag_34:\n      pop\n      tag_35\n      0x04\n      dup1\n      calldatasize\n      sub\n      dup2\n      add\n      swap1\n      tag_36\n      swap2\n      swap1\n      tag_14\n      jump\t// in\n    tag_36:\n      tag_37\n      jump\t// in\n    tag_35:\n      stop\n        /* \"contracts/SmartContractWallet.sol\":805:1438  function transfer(address payable _to, uint _amount, bytes memory _payload) public returns(bytes memory) {... */\n    tag_8:\n      callvalue\n      dup1\n      iszero\n      tag_38\n      jumpi\n      0x00\n      dup1\n      revert\n    tag_38:\n      pop\n      tag_39\n      0x04\n      dup1\n      calldatasize\n      sub\n      dup2\n      add\n      swap1\n      tag_40\n      swap2\n      swap1\n      tag_41\n      jump\t// in\n    tag_40:\n      tag_42\n      jump\t// in\n    tag_39:\n      mload(0x40)\n      tag_43\n      swap2\n      swap1\n      tag_44\n      jump\t// in\n    tag_43:\n      mload(0x40)\n      dup1\n      swap2\n      sub\n      swap1\n      return\n        /* \"contracts/SmartContractWallet.sol\":277:318  mapping(address => bool) public guardians */\n    tag_15:\n      mstore(0x20, 0x03)\n      dup1\n      0x00\n      mstore\n      keccak256(0x00, 0x40)\n      0x00\n      swap2\n      pop\n      sload\n      swap1\n      0x0100\n      exp\n      swap1\n      div\n      0xff\n      and\n      dup2\n      jump\t// out\n        /* \"contracts/SmartContractWallet.sol\":223:270  mapping(address => bool) public isAllowedToSend */\n    tag_21:\n      mstore(0x20, 0x02)\n      dup1\n      0x00\n      mstore\n      keccak256(0x00, 0x40)\n      0x00\n      swap2\n      pop\n      sload\n      swap1\n      0x0100\n      exp\n      swap1\n      div\n      0xff\n      and\n      dup2\n      jump\t// out\n        /* \"contracts/SmartContractWallet.sol\":468:797  function setAllowance(address _for, uint _amount) public {... */\n    tag_27:\n        /* \"contracts/SmartContractWallet.sol\":558:563  owner */\n      0x00\n      dup1\n      sload\n      swap1\n      0x0100\n      exp\n      swap1\n      div\n      0xffffffffffffffffffffffffffffffffffffffff\n      and\n        /* \"contracts/SmartContractWallet.sol\":544:563  msg.sender == owner */\n      0xffffffffffffffffffffffffffffffffffffffff\n      and\n        /* \"contracts/SmartContractWallet.sol\":544:554  msg.sender */\n      caller\n        /* \"contracts/SmartContractWallet.sol\":544:563  msg.sender == owner */\n      0xffffffffffffffffffffffffffffffffffffffff\n      and\n      eq\n        /* \"contracts/SmartContractWallet.sol\":536:600  require(msg.sender == owner, \"You are not the owner, aborting.\") */\n      tag_46\n      jumpi\n      mload(0x40)\n      0x08c379a000000000000000000000000000000000000000000000000000000000\n      dup2\n      mstore\n      0x04\n      add\n      tag_47\n      swap1\n      tag_48\n      jump\t// in\n    tag_47:\n      mload(0x40)\n      dup1\n      swap2\n      sub\n      swap1\n      revert\n    tag_46:\n        /* \"contracts/SmartContractWallet.sol\":635:642  _amount */\n      dup1\n        /* \"contracts/SmartContractWallet.sol\":611:620  allowance */\n      0x01\n        /* \"contracts/SmartContractWallet.sol\":611:632  allowance[msg.sender] */\n      0x00\n        /* \"contracts/SmartContractWallet.sol\":621:631  msg.sender */\n      caller\n        /* \"contracts/SmartContractWallet.sol\":611:632  allowance[msg.sender] */\n      0xffffffffffffffffffffffffffffffffffffffff\n      and\n      0xffffffffffffffffffffffffffffffffffffffff\n      and\n      dup2\n      mstore\n      0x20\n      add\n      swap1\n      dup2\n      mstore\n      0x20\n      add\n      0x00\n      keccak256\n        /* \"contracts/SmartContractWallet.sol\":611:642  allowance[msg.sender] = _amount */\n      dup2\n      swap1\n      sstore\n      pop\n        /* \"contracts/SmartContractWallet.sol\":669:670  0 */\n      0x00\n        /* \"contracts/SmartContractWallet.sol\":659:666  _amount */\n      dup2\n        /* \"contracts/SmartContractWallet.sol\":659:670  _amount > 0 */\n      gt\n        /* \"contracts/SmartContractWallet.sol\":655:790  if (_amount > 0) {... */\n      iszero\n      tag_49\n      jumpi\n        /* \"contracts/SmartContractWallet.sol\":712:716  true */\n      0x01\n        /* \"contracts/SmartContractWallet.sol\":687:702  isAllowedToSend */\n      0x02\n        /* \"contracts/SmartContractWallet.sol\":687:708  isAllowedToSend[_for] */\n      0x00\n        /* \"contracts/SmartContractWallet.sol\":703:707  _for */\n      dup5\n        /* \"contracts/SmartContractWallet.sol\":687:708  isAllowedToSend[_for] */\n      0xffffffffffffffffffffffffffffffffffffffff\n      and\n      0xffffffffffffffffffffffffffffffffffffffff\n      and\n      dup2\n      mstore\n      0x20\n      add\n      swap1\n      dup2\n      mstore\n      0x20\n      add\n      0x00\n      keccak256\n      0x00\n        /* \"contracts/SmartContractWallet.sol\":687:716  isAllowedToSend[_for]  = true */\n      0x0100\n      exp\n      dup2\n      sload\n      dup2\n      0xff\n      mul\n      not\n      and\n      swap1\n      dup4\n      iszero\n      iszero\n      mul\n      or\n      swap1\n      sstore\n      pop\n        /* \"contracts/SmartContractWallet.sol\":655:790  if (_amount > 0) {... */\n      jump(tag_50)\n    tag_49:\n        /* \"contracts/SmartContractWallet.sol\":773:778  false */\n      0x00\n        /* \"contracts/SmartContractWallet.sol\":749:764  isAllowedToSend */\n      0x02\n        /* \"contracts/SmartContractWallet.sol\":749:770  isAllowedToSend[_for] */\n      0x00\n        /* \"contracts/SmartContractWallet.sol\":765:769  _for */\n      dup5\n        /* \"contracts/SmartContractWallet.sol\":749:770  isAllowedToSend[_for] */\n      0xffffffffffffffffffffffffffffffffffffffff\n      and\n      0xffffffffffffffffffffffffffffffffffffffff\n      and\n      dup2\n      mstore\n      0x20\n      add\n      swap1\n      dup2\n      mstore\n      0x20\n      add\n      0x00\n      keccak256\n      0x00\n        /* \"contracts/SmartContractWallet.sol\":749:778  isAllowedToSend[_for] = false */\n      0x0100\n      exp\n      dup2\n      sload\n      dup2\n      0xff\n      mul\n      not\n      and\n      swap1\n      dup4\n      iszero\n      iszero\n      mul\n      or\n      swap1\n      sstore\n      pop\n        /* \"contracts/SmartContractWallet.sol\":655:790  if (_amount > 0) {... */\n    tag_50:\n        /* \"contracts/SmartContractWallet.sol\":468:797  function setAllowance(address _for, uint _amount) public {... */\n      pop\n      pop\n      jump\t// out\n        /* \"contracts/SmartContractWallet.sol\":175:216  mapping(address => uint) public allowance */\n    tag_31:\n      mstore(0x20, 0x01)\n      dup1\n      0x00\n      mstore\n      keccak256(0x00, 0x40)\n      0x00\n      swap2\n      pop\n      swap1\n      pop\n      sload\n      dup2\n      jump\t// out\n        /* \"contracts/SmartContractWallet.sol\":395:460  function addGuardian(address _guardian) public {... */\n    tag_37:\n      pop\n      jump\t// out\n        /* \"contracts/SmartContractWallet.sol\":805:1438  function transfer(address payable _to, uint _amount, bytes memory _payload) public returns(bytes memory) {... */\n    tag_42:\n        /* \"contracts/SmartContractWallet.sol\":896:908  bytes memory */\n      0x60\n        /* \"contracts/SmartContractWallet.sol\":939:944  owner */\n      0x00\n      dup1\n      sload\n      swap1\n      0x0100\n      exp\n      swap1\n      div\n      0xffffffffffffffffffffffffffffffffffffffff\n      and\n        /* \"contracts/SmartContractWallet.sol\":925:944  msg.sender != owner */\n      0xffffffffffffffffffffffffffffffffffffffff\n      and\n        /* \"contracts/SmartContractWallet.sol\":925:935  msg.sender */\n      caller\n        /* \"contracts/SmartContractWallet.sol\":925:944  msg.sender != owner */\n      0xffffffffffffffffffffffffffffffffffffffff\n      and\n      eq\n        /* \"contracts/SmartContractWallet.sol\":921:1249  if (msg.sender != owner) {... */\n      tag_53\n      jumpi\n        /* \"contracts/SmartContractWallet.sol\":969:984  isAllowedToSend */\n      0x02\n        /* \"contracts/SmartContractWallet.sol\":969:996  isAllowedToSend[msg.sender] */\n      0x00\n        /* \"contracts/SmartContractWallet.sol\":985:995  msg.sender */\n      caller\n        /* \"contracts/SmartContractWallet.sol\":969:996  isAllowedToSend[msg.sender] */\n      0xffffffffffffffffffffffffffffffffffffffff\n      and\n      0xffffffffffffffffffffffffffffffffffffffff\n      and\n      dup2\n      mstore\n      0x20\n      add\n      swap1\n      dup2\n      mstore\n      0x20\n      add\n      0x00\n      keccak256\n      0x00\n      swap1\n      sload\n      swap1\n      0x0100\n      exp\n      swap1\n      div\n      0xff\n      and\n        /* \"contracts/SmartContractWallet.sol\":961:1066  require(isAllowedToSend[msg.sender], \"You are not permitted to process transactions from this contract.\") */\n      tag_54\n      jumpi\n      mload(0x40)\n      0x08c379a000000000000000000000000000000000000000000000000000000000\n      dup2\n      mstore\n      0x04\n      add\n      tag_55\n      swap1\n      tag_56\n      jump\t// in\n    tag_55:\n      mload(0x40)\n      dup1\n      swap2\n      sub\n      swap1\n      revert\n    tag_54:\n        /* \"contracts/SmartContractWallet.sol\":1114:1121  _amount */\n      dup3\n        /* \"contracts/SmartContractWallet.sol\":1089:1098  allowance */\n      0x01\n        /* \"contracts/SmartContractWallet.sol\":1089:1110  allowance[msg.sender] */\n      0x00\n        /* \"contracts/SmartContractWallet.sol\":1099:1109  msg.sender */\n      caller\n        /* \"contracts/SmartContractWallet.sol\":1089:1110  allowance[msg.sender] */\n      0xffffffffffffffffffffffffffffffffffffffff\n      and\n      0xffffffffffffffffffffffffffffffffffffffff\n      and\n      dup2\n      mstore\n      0x20\n      add\n      swap1\n      dup2\n      mstore\n      0x20\n      add\n      0x00\n      keccak256\n      sload\n        /* \"contracts/SmartContractWallet.sol\":1089:1121  allowance[msg.sender] >= _amount */\n      lt\n      iszero\n        /* \"contracts/SmartContractWallet.sol\":1081:1188  require(allowance[msg.sender] >= _amount, \"You are tyring to send more than you are allowed to, aborting.\") */\n      tag_57\n      jumpi\n      mload(0x40)\n      0x08c379a000000000000000000000000000000000000000000000000000000000\n      dup2\n      mstore\n      0x04\n      add\n      tag_58\n      swap1\n      tag_59\n      jump\t// in\n    tag_58:\n      mload(0x40)\n      dup1\n      swap2\n      sub\n      swap1\n      revert\n    tag_57:\n        /* \"contracts/SmartContractWallet.sol\":1230:1237  _amount */\n      dup3\n        /* \"contracts/SmartContractWallet.sol\":1205:1214  allowance */\n      0x01\n        /* \"contracts/SmartContractWallet.sol\":1205:1226  allowance[msg.sender] */\n      0x00\n        /* \"contracts/SmartContractWallet.sol\":1215:1225  msg.sender */\n      caller\n        /* \"contracts/SmartContractWallet.sol\":1205:1226  allowance[msg.sender] */\n      0xffffffffffffffffffffffffffffffffffffffff\n      and\n      0xffffffffffffffffffffffffffffffffffffffff\n      and\n      dup2\n      mstore\n      0x20\n      add\n      swap1\n      dup2\n      mstore\n      0x20\n      add\n      0x00\n      keccak256\n      0x00\n        /* \"contracts/SmartContractWallet.sol\":1205:1237  allowance[msg.sender] -= _amount */\n      dup3\n      dup3\n      sload\n      tag_60\n      swap2\n      swap1\n      tag_61\n      jump\t// in\n    tag_60:\n      swap3\n      pop\n      pop\n      dup2\n      swap1\n      sstore\n      pop\n        /* \"contracts/SmartContractWallet.sol\":921:1249  if (msg.sender != owner) {... */\n    tag_53:\n        /* \"contracts/SmartContractWallet.sol\":1261:1273  bool success */\n      0x00\n        /* \"contracts/SmartContractWallet.sol\":1275:1298  bytes memory returnData */\n      dup1\n        /* \"contracts/SmartContractWallet.sol\":1302:1305  _to */\n      dup6\n        /* \"contracts/SmartContractWallet.sol\":1302:1310  _to.call */\n      0xffffffffffffffffffffffffffffffffffffffff\n      and\n        /* \"contracts/SmartContractWallet.sol\":1318:1325  _amount */\n      dup6\n        /* \"contracts/SmartContractWallet.sol\":1327:1335  _payload */\n      dup6\n        /* \"contracts/SmartContractWallet.sol\":1302:1336  _to.call{value: _amount}(_payload) */\n      mload(0x40)\n      tag_62\n      swap2\n      swap1\n      tag_63\n      jump\t// in\n    tag_62:\n      0x00\n      mload(0x40)\n      dup1\n      dup4\n      sub\n      dup2\n      dup6\n      dup8\n      gas\n      call\n      swap3\n      pop\n      pop\n      pop\n      returndatasize\n      dup1\n      0x00\n      dup2\n      eq\n      tag_66\n      jumpi\n      mload(0x40)\n      swap2\n      pop\n      and(add(returndatasize, 0x3f), not(0x1f))\n      dup3\n      add\n      0x40\n      mstore\n      returndatasize\n      dup3\n      mstore\n      returndatasize\n      0x00\n      0x20\n      dup5\n      add\n      returndatacopy\n      jump(tag_65)\n    tag_66:\n      0x60\n      swap2\n      pop\n    tag_65:\n      pop\n        /* \"contracts/SmartContractWallet.sol\":1260:1336  (bool success, bytes memory returnData) = _to.call{value: _amount}(_payload) */\n      swap2\n      pop\n      swap2\n      pop\n        /* \"contracts/SmartContractWallet.sol\":1356:1363  success */\n      dup2\n        /* \"contracts/SmartContractWallet.sol\":1348:1401  require(success, \"Aborting call was not successful.\") */\n      tag_67\n      jumpi\n      mload(0x40)\n      0x08c379a000000000000000000000000000000000000000000000000000000000\n      dup2\n      mstore\n      0x04\n      add\n      tag_68\n      swap1\n      tag_69\n      jump\t// in\n    tag_68:\n      mload(0x40)\n      dup1\n      swap2\n      sub\n      swap1\n      revert\n    tag_67:\n        /* \"contracts/SmartContractWallet.sol\":1420:1430  returnData */\n      dup1\n        /* \"contracts/SmartContractWallet.sol\":1413:1430  return returnData */\n      swap3\n      pop\n      pop\n      pop\n        /* \"contracts/SmartContractWallet.sol\":805:1438  function transfer(address payable _to, uint _amount, bytes memory _payload) public returns(bytes memory) {... */\n      swap4\n      swap3\n      pop\n      pop\n      pop\n      jump\t// out\n        /* \"#utility.yul\":7:82   */\n    tag_70:\n        /* \"#utility.yul\":40:46   */\n      0x00\n        /* \"#utility.yul\":73:75   */\n      0x40\n        /* \"#utility.yul\":67:76   */\n      mload\n        /* \"#utility.yul\":57:76   */\n      swap1\n      pop\n        /* \"#utility.yul\":7:82   */\n      swap1\n      jump\t// out\n        /* \"#utility.yul\":88:205   */\n    tag_71:\n        /* \"#utility.yul\":197:198   */\n      0x00\n        /* \"#utility.yul\":194:195   */\n      dup1\n        /* \"#utility.yul\":187:199   */\n      revert\n        /* \"#utility.yul\":211:328   */\n    tag_72:\n        /* \"#utility.yul\":320:321   */\n      0x00\n        /* \"#utility.yul\":317:318   */\n      dup1\n        /* \"#utility.yul\":310:322   */\n      revert\n        /* \"#utility.yul\":334:460   */\n    tag_73:\n        /* \"#utility.yul\":371:378   */\n      0x00\n        /* \"#utility.yul\":411:453   */\n      0xffffffffffffffffffffffffffffffffffffffff\n        /* \"#utility.yul\":404:409   */\n      dup3\n        /* \"#utility.yul\":400:454   */\n      and\n        /* \"#utility.yul\":389:454   */\n      swap1\n      pop\n        /* \"#utility.yul\":334:460   */\n      swap2\n      swap1\n      pop\n      jump\t// out\n        /* \"#utility.yul\":466:562   */\n    tag_74:\n        /* \"#utility.yul\":503:510   */\n      0x00\n        /* \"#utility.yul\":532:556   */\n      tag_118\n        /* \"#utility.yul\":550:555   */\n      dup3\n        /* \"#utility.yul\":532:556   */\n      tag_73\n      jump\t// in\n    tag_118:\n        /* \"#utility.yul\":521:556   */\n      swap1\n      pop\n        /* \"#utility.yul\":466:562   */\n      swap2\n      swap1\n      pop\n      jump\t// out\n        /* \"#utility.yul\":568:690   */\n    tag_75:\n        /* \"#utility.yul\":641:665   */\n      tag_120\n        /* \"#utility.yul\":659:664   */\n      dup2\n        /* \"#utility.yul\":641:665   */\n      tag_74\n      jump\t// in\n    tag_120:\n        /* \"#utility.yul\":634:639   */\n      dup2\n        /* \"#utility.yul\":631:666   */\n      eq\n        /* \"#utility.yul\":621:684   */\n      tag_121\n      jumpi\n        /* \"#utility.yul\":680:681   */\n      0x00\n        /* \"#utility.yul\":677:678   */\n      dup1\n        /* \"#utility.yul\":670:682   */\n      revert\n        /* \"#utility.yul\":621:684   */\n    tag_121:\n        /* \"#utility.yul\":568:690   */\n      pop\n      jump\t// out\n        /* \"#utility.yul\":696:835   */\n    tag_76:\n        /* \"#utility.yul\":742:747   */\n      0x00\n        /* \"#utility.yul\":780:786   */\n      dup2\n        /* \"#utility.yul\":767:787   */\n      calldataload\n        /* \"#utility.yul\":758:787   */\n      swap1\n      pop\n        /* \"#utility.yul\":796:829   */\n      tag_123\n        /* \"#utility.yul\":823:828   */\n      dup2\n        /* \"#utility.yul\":796:829   */\n      tag_75\n      jump\t// in\n    tag_123:\n        /* \"#utility.yul\":696:835   */\n      swap3\n      swap2\n      pop\n      pop\n      jump\t// out\n        /* \"#utility.yul\":841:1170   */\n    tag_14:\n        /* \"#utility.yul\":900:906   */\n      0x00\n        /* \"#utility.yul\":949:951   */\n      0x20\n        /* \"#utility.yul\":937:946   */\n      dup3\n        /* \"#utility.yul\":928:935   */\n      dup5\n        /* \"#utility.yul\":924:947   */\n      sub\n        /* \"#utility.yul\":920:952   */\n      slt\n        /* \"#utility.yul\":917:1036   */\n      iszero\n      tag_125\n      jumpi\n        /* \"#utility.yul\":955:1034   */\n      tag_126\n      tag_71\n      jump\t// in\n    tag_126:\n        /* \"#utility.yul\":917:1036   */\n    tag_125:\n        /* \"#utility.yul\":1075:1076   */\n      0x00\n        /* \"#utility.yul\":1100:1153   */\n      tag_127\n        /* \"#utility.yul\":1145:1152   */\n      dup5\n        /* \"#utility.yul\":1136:1142   */\n      dup3\n        /* \"#utility.yul\":1125:1134   */\n      dup6\n        /* \"#utility.yul\":1121:1143   */\n      add\n        /* \"#utility.yul\":1100:1153   */\n      tag_76\n      jump\t// in\n    tag_127:\n        /* \"#utility.yul\":1090:1153   */\n      swap2\n      pop\n        /* \"#utility.yul\":1046:1163   */\n      pop\n        /* \"#utility.yul\":841:1170   */\n      swap3\n      swap2\n      pop\n      pop\n      jump\t// out\n        /* \"#utility.yul\":1176:1266   */\n    tag_77:\n        /* \"#utility.yul\":1210:1217   */\n      0x00\n        /* \"#utility.yul\":1253:1258   */\n      dup2\n        /* \"#utility.yul\":1246:1259   */\n      iszero\n        /* \"#utility.yul\":1239:1260   */\n      iszero\n        /* \"#utility.yul\":1228:1260   */\n      swap1\n      pop\n        /* \"#utility.yul\":1176:1266   */\n      swap2\n      swap1\n      pop\n      jump\t// out\n        /* \"#utility.yul\":1272:1381   */\n    tag_78:\n        /* \"#utility.yul\":1353:1374   */\n      tag_130\n        /* \"#utility.yul\":1368:1373   */\n      dup2\n        /* \"#utility.yul\":1353:1374   */\n      tag_77\n      jump\t// in\n    tag_130:\n        /* \"#utility.yul\":1348:1351   */\n      dup3\n        /* \"#utility.yul\":1341:1375   */\n      mstore\n        /* \"#utility.yul\":1272:1381   */\n      pop\n      pop\n      jump\t// out\n        /* \"#utility.yul\":1387:1597   */\n    tag_17:\n        /* \"#utility.yul\":1474:1478   */\n      0x00\n        /* \"#utility.yul\":1512:1514   */\n      0x20\n        /* \"#utility.yul\":1501:1510   */\n      dup3\n        /* \"#utility.yul\":1497:1515   */\n      add\n        /* \"#utility.yul\":1489:1515   */\n      swap1\n      pop\n        /* \"#utility.yul\":1525:1590   */\n      tag_132\n        /* \"#utility.yul\":1587:1588   */\n      0x00\n        /* \"#utility.yul\":1576:1585   */\n      dup4\n        /* \"#utility.yul\":1572:1589   */\n      add\n        /* \"#utility.yul\":1563:1569   */\n      dup5\n        /* \"#utility.yul\":1525:1590   */\n      tag_78\n      jump\t// in\n    tag_132:\n        /* \"#utility.yul\":1387:1597   */\n      swap3\n      swap2\n      pop\n      pop\n      jump\t// out\n        /* \"#utility.yul\":1603:1680   */\n    tag_79:\n        /* \"#utility.yul\":1640:1647   */\n      0x00\n        /* \"#utility.yul\":1669:1674   */\n      dup2\n        /* \"#utility.yul\":1658:1674   */\n      swap1\n      pop\n        /* \"#utility.yul\":1603:1680   */\n      swap2\n      swap1\n      pop\n      jump\t// out\n        /* \"#utility.yul\":1686:1808   */\n    tag_80:\n        /* \"#utility.yul\":1759:1783   */\n      tag_135\n        /* \"#utility.yul\":1777:1782   */\n      dup2\n        /* \"#utility.yul\":1759:1783   */\n      tag_79\n      jump\t// in\n    tag_135:\n        /* \"#utility.yul\":1752:1757   */\n      dup2\n        /* \"#utility.yul\":1749:1784   */\n      eq\n        /* \"#utility.yul\":1739:1802   */\n      tag_136\n      jumpi\n        /* \"#utility.yul\":1798:1799   */\n      0x00\n        /* \"#utility.yul\":1795:1796   */\n      dup1\n        /* \"#utility.yul\":1788:1800   */\n      revert\n        /* \"#utility.yul\":1739:1802   */\n    tag_136:\n        /* \"#utility.yul\":1686:1808   */\n      pop\n      jump\t// out\n        /* \"#utility.yul\":1814:1953   */\n    tag_81:\n        /* \"#utility.yul\":1860:1865   */\n      0x00\n        /* \"#utility.yul\":1898:1904   */\n      dup2\n        /* \"#utility.yul\":1885:1905   */\n      calldataload\n        /* \"#utility.yul\":1876:1905   */\n      swap1\n      pop\n        /* \"#utility.yul\":1914:1947   */\n      tag_138\n        /* \"#utility.yul\":1941:1946   */\n      dup2\n        /* \"#utility.yul\":1914:1947   */\n      tag_80\n      jump\t// in\n    tag_138:\n        /* \"#utility.yul\":1814:1953   */\n      swap3\n      swap2\n      pop\n      pop\n      jump\t// out\n        /* \"#utility.yul\":1959:2433   */\n    tag_26:\n        /* \"#utility.yul\":2027:2033   */\n      0x00\n        /* \"#utility.yul\":2035:2041   */\n      dup1\n        /* \"#utility.yul\":2084:2086   */\n      0x40\n        /* \"#utility.yul\":2072:2081   */\n      dup4\n        /* \"#utility.yul\":2063:2070   */\n      dup6\n        /* \"#utility.yul\":2059:2082   */\n      sub\n        /* \"#utility.yul\":2055:2087   */\n      slt\n        /* \"#utility.yul\":2052:2171   */\n      iszero\n      tag_140\n      jumpi\n        /* \"#utility.yul\":2090:2169   */\n      tag_141\n      tag_71\n      jump\t// in\n    tag_141:\n        /* \"#utility.yul\":2052:2171   */\n    tag_140:\n        /* \"#utility.yul\":2210:2211   */\n      0x00\n        /* \"#utility.yul\":2235:2288   */\n      tag_142\n        /* \"#utility.yul\":2280:2287   */\n      dup6\n        /* \"#utility.yul\":2271:2277   */\n      dup3\n        /* \"#utility.yul\":2260:2269   */\n      dup7\n        /* \"#utility.yul\":2256:2278   */\n      add\n        /* \"#utility.yul\":2235:2288   */\n      tag_76\n      jump\t// in\n    tag_142:\n        /* \"#utility.yul\":2225:2288   */\n      swap3\n      pop\n        /* \"#utility.yul\":2181:2298   */\n      pop\n        /* \"#utility.yul\":2337:2339   */\n      0x20\n        /* \"#utility.yul\":2363:2416   */\n      tag_143\n        /* \"#utility.yul\":2408:2415   */\n      dup6\n        /* \"#utility.yul\":2399:2405   */\n      dup3\n        /* \"#utility.yul\":2388:2397   */\n      dup7\n        /* \"#utility.yul\":2384:2406   */\n      add\n        /* \"#utility.yul\":2363:2416   */\n      tag_81\n      jump\t// in\n    tag_143:\n        /* \"#utility.yul\":2353:2416   */\n      swap2\n      pop\n        /* \"#utility.yul\":2308:2426   */\n      pop\n        /* \"#utility.yul\":1959:2433   */\n      swap3\n      pop\n      swap3\n      swap1\n      pop\n      jump\t// out\n        /* \"#utility.yul\":2439:2557   */\n    tag_82:\n        /* \"#utility.yul\":2526:2550   */\n      tag_145\n        /* \"#utility.yul\":2544:2549   */\n      dup2\n        /* \"#utility.yul\":2526:2550   */\n      tag_79\n      jump\t// in\n    tag_145:\n        /* \"#utility.yul\":2521:2524   */\n      dup3\n        /* \"#utility.yul\":2514:2551   */\n      mstore\n        /* \"#utility.yul\":2439:2557   */\n      pop\n      pop\n      jump\t// out\n        /* \"#utility.yul\":2563:2785   */\n    tag_33:\n        /* \"#utility.yul\":2656:2660   */\n      0x00\n        /* \"#utility.yul\":2694:2696   */\n      0x20\n        /* \"#utility.yul\":2683:2692   */\n      dup3\n        /* \"#utility.yul\":2679:2697   */\n      add\n        /* \"#utility.yul\":2671:2697   */\n      swap1\n      pop\n        /* \"#utility.yul\":2707:2778   */\n      tag_147\n        /* \"#utility.yul\":2775:2776   */\n      0x00\n        /* \"#utility.yul\":2764:2773   */\n      dup4\n        /* \"#utility.yul\":2760:2777   */\n      add\n        /* \"#utility.yul\":2751:2757   */\n      dup5\n        /* \"#utility.yul\":2707:2778   */\n      tag_82\n      jump\t// in\n    tag_147:\n        /* \"#utility.yul\":2563:2785   */\n      swap3\n      swap2\n      pop\n      pop\n      jump\t// out\n        /* \"#utility.yul\":2791:2895   */\n    tag_83:\n        /* \"#utility.yul\":2836:2843   */\n      0x00\n        /* \"#utility.yul\":2865:2889   */\n      tag_149\n        /* \"#utility.yul\":2883:2888   */\n      dup3\n        /* \"#utility.yul\":2865:2889   */\n      tag_73\n      jump\t// in\n    tag_149:\n        /* \"#utility.yul\":2854:2889   */\n      swap1\n      pop\n        /* \"#utility.yul\":2791:2895   */\n      swap2\n      swap1\n      pop\n      jump\t// out\n        /* \"#utility.yul\":2901:3039   */\n    tag_84:\n        /* \"#utility.yul\":2982:3014   */\n      tag_151\n        /* \"#utility.yul\":3008:3013   */\n      dup2\n        /* \"#utility.yul\":2982:3014   */\n      tag_83\n      jump\t// in\n    tag_151:\n        /* \"#utility.yul\":2975:2980   */\n      dup2\n        /* \"#utility.yul\":2972:3015   */\n      eq\n        /* \"#utility.yul\":2962:3033   */\n      tag_152\n      jumpi\n        /* \"#utility.yul\":3029:3030   */\n      0x00\n        /* \"#utility.yul\":3026:3027   */\n      dup1\n        /* \"#utility.yul\":3019:3031   */\n      revert\n        /* \"#utility.yul\":2962:3033   */\n    tag_152:\n        /* \"#utility.yul\":2901:3039   */\n      pop\n      jump\t// out\n        /* \"#utility.yul\":3045:3200   */\n    tag_85:\n        /* \"#utility.yul\":3099:3104   */\n      0x00\n        /* \"#utility.yul\":3137:3143   */\n      dup2\n        /* \"#utility.yul\":3124:3144   */\n      calldataload\n        /* \"#utility.yul\":3115:3144   */\n      swap1\n      pop\n        /* \"#utility.yul\":3153:3194   */\n      tag_154\n        /* \"#utility.yul\":3188:3193   */\n      dup2\n        /* \"#utility.yul\":3153:3194   */\n      tag_84\n      jump\t// in\n    tag_154:\n        /* \"#utility.yul\":3045:3200   */\n      swap3\n      swap2\n      pop\n      pop\n      jump\t// out\n        /* \"#utility.yul\":3206:3323   */\n    tag_86:\n        /* \"#utility.yul\":3315:3316   */\n      0x00\n        /* \"#utility.yul\":3312:3313   */\n      dup1\n        /* \"#utility.yul\":3305:3317   */\n      revert\n        /* \"#utility.yul\":3329:3446   */\n    tag_87:\n        /* \"#utility.yul\":3438:3439   */\n      0x00\n        /* \"#utility.yul\":3435:3436   */\n      dup1\n        /* \"#utility.yul\":3428:3440   */\n      revert\n        /* \"#utility.yul\":3452:3554   */\n    tag_88:\n        /* \"#utility.yul\":3493:3499   */\n      0x00\n        /* \"#utility.yul\":3544:3546   */\n      0x1f\n        /* \"#utility.yul\":3540:3547   */\n      not\n        /* \"#utility.yul\":3535:3537   */\n      0x1f\n        /* \"#utility.yul\":3528:3533   */\n      dup4\n        /* \"#utility.yul\":3524:3538   */\n      add\n        /* \"#utility.yul\":3520:3548   */\n      and\n        /* \"#utility.yul\":3510:3548   */\n      swap1\n      pop\n        /* \"#utility.yul\":3452:3554   */\n      swap2\n      swap1\n      pop\n      jump\t// out\n        /* \"#utility.yul\":3560:3740   */\n    tag_89:\n        /* \"#utility.yul\":3608:3685   */\n      0x4e487b7100000000000000000000000000000000000000000000000000000000\n        /* \"#utility.yul\":3605:3606   */\n      0x00\n        /* \"#utility.yul\":3598:3686   */\n      mstore\n        /* \"#utility.yul\":3705:3709   */\n      0x41\n        /* \"#utility.yul\":3702:3703   */\n      0x04\n        /* \"#utility.yul\":3695:3710   */\n      mstore\n        /* \"#utility.yul\":3729:3733   */\n      0x24\n        /* \"#utility.yul\":3726:3727   */\n      0x00\n        /* \"#utility.yul\":3719:3734   */\n      revert\n        /* \"#utility.yul\":3746:4027   */\n    tag_90:\n        /* \"#utility.yul\":3829:3856   */\n      tag_160\n        /* \"#utility.yul\":3851:3855   */\n      dup3\n        /* \"#utility.yul\":3829:3856   */\n      tag_88\n      jump\t// in\n    tag_160:\n        /* \"#utility.yul\":3821:3827   */\n      dup2\n        /* \"#utility.yul\":3817:3857   */\n      add\n        /* \"#utility.yul\":3959:3965   */\n      dup2\n        /* \"#utility.yul\":3947:3957   */\n      dup2\n        /* \"#utility.yul\":3944:3966   */\n      lt\n        /* \"#utility.yul\":3923:3941   */\n      0xffffffffffffffff\n        /* \"#utility.yul\":3911:3921   */\n      dup3\n        /* \"#utility.yul\":3908:3942   */\n      gt\n        /* \"#utility.yul\":3905:3967   */\n      or\n        /* \"#utility.yul\":3902:3990   */\n      iszero\n      tag_161\n      jumpi\n        /* \"#utility.yul\":3970:3988   */\n      tag_162\n      tag_89\n      jump\t// in\n    tag_162:\n        /* \"#utility.yul\":3902:3990   */\n    tag_161:\n        /* \"#utility.yul\":4010:4020   */\n      dup1\n        /* \"#utility.yul\":4006:4008   */\n      0x40\n        /* \"#utility.yul\":3999:4021   */\n      mstore\n        /* \"#utility.yul\":3789:4027   */\n      pop\n        /* \"#utility.yul\":3746:4027   */\n      pop\n      pop\n      jump\t// out\n        /* \"#utility.yul\":4033:4162   */\n    tag_91:\n        /* \"#utility.yul\":4067:4073   */\n      0x00\n        /* \"#utility.yul\":4094:4114   */\n      tag_164\n      tag_70\n      jump\t// in\n    tag_164:\n        /* \"#utility.yul\":4084:4114   */\n      swap1\n      pop\n        /* \"#utility.yul\":4123:4156   */\n      tag_165\n        /* \"#utility.yul\":4151:4155   */\n      dup3\n        /* \"#utility.yul\":4143:4149   */\n      dup3\n        /* \"#utility.yul\":4123:4156   */\n      tag_90\n      jump\t// in\n    tag_165:\n        /* \"#utility.yul\":4033:4162   */\n      swap2\n      swap1\n      pop\n      jump\t// out\n        /* \"#utility.yul\":4168:4475   */\n    tag_92:\n        /* \"#utility.yul\":4229:4233   */\n      0x00\n        /* \"#utility.yul\":4319:4337   */\n      0xffffffffffffffff\n        /* \"#utility.yul\":4311:4317   */\n      dup3\n        /* \"#utility.yul\":4308:4338   */\n      gt\n        /* \"#utility.yul\":4305:4361   */\n      iszero\n      tag_167\n      jumpi\n        /* \"#utility.yul\":4341:4359   */\n      tag_168\n      tag_89\n      jump\t// in\n    tag_168:\n        /* \"#utility.yul\":4305:4361   */\n    tag_167:\n        /* \"#utility.yul\":4379:4408   */\n      tag_169\n        /* \"#utility.yul\":4401:4407   */\n      dup3\n        /* \"#utility.yul\":4379:4408   */\n      tag_88\n      jump\t// in\n    tag_169:\n        /* \"#utility.yul\":4371:4408   */\n      swap1\n      pop\n        /* \"#utility.yul\":4463:4467   */\n      0x20\n        /* \"#utility.yul\":4457:4461   */\n      dup2\n        /* \"#utility.yul\":4453:4468   */\n      add\n        /* \"#utility.yul\":4445:4468   */\n      swap1\n      pop\n        /* \"#utility.yul\":4168:4475   */\n      swap2\n      swap1\n      pop\n      jump\t// out\n        /* \"#utility.yul\":4481:4627   */\n    tag_93:\n        /* \"#utility.yul\":4578:4584   */\n      dup3\n        /* \"#utility.yul\":4573:4576   */\n      dup2\n        /* \"#utility.yul\":4568:4571   */\n      dup4\n        /* \"#utility.yul\":4555:4585   */\n      calldatacopy\n        /* \"#utility.yul\":4619:4620   */\n      0x00\n        /* \"#utility.yul\":4610:4616   */\n      dup4\n        /* \"#utility.yul\":4605:4608   */\n      dup4\n        /* \"#utility.yul\":4601:4617   */\n      add\n        /* \"#utility.yul\":4594:4621   */\n      mstore\n        /* \"#utility.yul\":4481:4627   */\n      pop\n      pop\n      pop\n      jump\t// out\n        /* \"#utility.yul\":4633:5056   */\n    tag_94:\n        /* \"#utility.yul\":4710:4715   */\n      0x00\n        /* \"#utility.yul\":4735:4800   */\n      tag_172\n        /* \"#utility.yul\":4751:4799   */\n      tag_173\n        /* \"#utility.yul\":4792:4798   */\n      dup5\n        /* \"#utility.yul\":4751:4799   */\n      tag_92\n      jump\t// in\n    tag_173:\n        /* \"#utility.yul\":4735:4800   */\n      tag_91\n      jump\t// in\n    tag_172:\n        /* \"#utility.yul\":4726:4800   */\n      swap1\n      pop\n        /* \"#utility.yul\":4823:4829   */\n      dup3\n        /* \"#utility.yul\":4816:4821   */\n      dup2\n        /* \"#utility.yul\":4809:4830   */\n      mstore\n        /* \"#utility.yul\":4861:4865   */\n      0x20\n        /* \"#utility.yul\":4854:4859   */\n      dup2\n        /* \"#utility.yul\":4850:4866   */\n      add\n        /* \"#utility.yul\":4899:4902   */\n      dup5\n        /* \"#utility.yul\":4890:4896   */\n      dup5\n        /* \"#utility.yul\":4885:4888   */\n      dup5\n        /* \"#utility.yul\":4881:4897   */\n      add\n        /* \"#utility.yul\":4878:4903   */\n      gt\n        /* \"#utility.yul\":4875:4987   */\n      iszero\n      tag_174\n      jumpi\n        /* \"#utility.yul\":4906:4985   */\n      tag_175\n      tag_87\n      jump\t// in\n    tag_175:\n        /* \"#utility.yul\":4875:4987   */\n    tag_174:\n        /* \"#utility.yul\":4996:5050   */\n      tag_176\n        /* \"#utility.yul\":5043:5049   */\n      dup5\n        /* \"#utility.yul\":5038:5041   */\n      dup3\n        /* \"#utility.yul\":5033:5036   */\n      dup6\n        /* \"#utility.yul\":4996:5050   */\n      tag_93\n      jump\t// in\n    tag_176:\n        /* \"#utility.yul\":4716:5056   */\n      pop\n        /* \"#utility.yul\":4633:5056   */\n      swap4\n      swap3\n      pop\n      pop\n      pop\n      jump\t// out\n        /* \"#utility.yul\":5075:5413   */\n    tag_95:\n        /* \"#utility.yul\":5130:5135   */\n      0x00\n        /* \"#utility.yul\":5179:5182   */\n      dup3\n        /* \"#utility.yul\":5172:5176   */\n      0x1f\n        /* \"#utility.yul\":5164:5170   */\n      dup4\n        /* \"#utility.yul\":5160:5177   */\n      add\n        /* \"#utility.yul\":5156:5183   */\n      slt\n        /* \"#utility.yul\":5146:5268   */\n      tag_178\n      jumpi\n        /* \"#utility.yul\":5187:5266   */\n      tag_179\n      tag_86\n      jump\t// in\n    tag_179:\n        /* \"#utility.yul\":5146:5268   */\n    tag_178:\n        /* \"#utility.yul\":5304:5310   */\n      dup2\n        /* \"#utility.yul\":5291:5311   */\n      calldataload\n        /* \"#utility.yul\":5329:5407   */\n      tag_180\n        /* \"#utility.yul\":5403:5406   */\n      dup5\n        /* \"#utility.yul\":5395:5401   */\n      dup3\n        /* \"#utility.yul\":5388:5392   */\n      0x20\n        /* \"#utility.yul\":5380:5386   */\n      dup7\n        /* \"#utility.yul\":5376:5393   */\n      add\n        /* \"#utility.yul\":5329:5407   */\n      tag_94\n      jump\t// in\n    tag_180:\n        /* \"#utility.yul\":5320:5407   */\n      swap2\n      pop\n        /* \"#utility.yul\":5136:5413   */\n      pop\n        /* \"#utility.yul\":5075:5413   */\n      swap3\n      swap2\n      pop\n      pop\n      jump\t// out\n        /* \"#utility.yul\":5419:6232   */\n    tag_41:\n        /* \"#utility.yul\":5513:5519   */\n      0x00\n        /* \"#utility.yul\":5521:5527   */\n      dup1\n        /* \"#utility.yul\":5529:5535   */\n      0x00\n        /* \"#utility.yul\":5578:5580   */\n      0x60\n        /* \"#utility.yul\":5566:5575   */\n      dup5\n        /* \"#utility.yul\":5557:5564   */\n      dup7\n        /* \"#utility.yul\":5553:5576   */\n      sub\n        /* \"#utility.yul\":5549:5581   */\n      slt\n        /* \"#utility.yul\":5546:5665   */\n      iszero\n      tag_182\n      jumpi\n        /* \"#utility.yul\":5584:5663   */\n      tag_183\n      tag_71\n      jump\t// in\n    tag_183:\n        /* \"#utility.yul\":5546:5665   */\n    tag_182:\n        /* \"#utility.yul\":5704:5705   */\n      0x00\n        /* \"#utility.yul\":5729:5790   */\n      tag_184\n        /* \"#utility.yul\":5782:5789   */\n      dup7\n        /* \"#utility.yul\":5773:5779   */\n      dup3\n        /* \"#utility.yul\":5762:5771   */\n      dup8\n        /* \"#utility.yul\":5758:5780   */\n      add\n        /* \"#utility.yul\":5729:5790   */\n      tag_85\n      jump\t// in\n    tag_184:\n        /* \"#utility.yul\":5719:5790   */\n      swap4\n      pop\n        /* \"#utility.yul\":5675:5800   */\n      pop\n        /* \"#utility.yul\":5839:5841   */\n      0x20\n        /* \"#utility.yul\":5865:5918   */\n      tag_185\n        /* \"#utility.yul\":5910:5917   */\n      dup7\n        /* \"#utility.yul\":5901:5907   */\n      dup3\n        /* \"#utility.yul\":5890:5899   */\n      dup8\n        /* \"#utility.yul\":5886:5908   */\n      add\n        /* \"#utility.yul\":5865:5918   */\n      tag_81\n      jump\t// in\n    tag_185:\n        /* \"#utility.yul\":5855:5918   */\n      swap3\n      pop\n        /* \"#utility.yul\":5810:5928   */\n      pop\n        /* \"#utility.yul\":5995:5997   */\n      0x40\n        /* \"#utility.yul\":5984:5993   */\n      dup5\n        /* \"#utility.yul\":5980:5998   */\n      add\n        /* \"#utility.yul\":5967:5999   */\n      calldataload\n        /* \"#utility.yul\":6026:6044   */\n      0xffffffffffffffff\n        /* \"#utility.yul\":6018:6024   */\n      dup2\n        /* \"#utility.yul\":6015:6045   */\n      gt\n        /* \"#utility.yul\":6012:6129   */\n      iszero\n      tag_186\n      jumpi\n        /* \"#utility.yul\":6048:6127   */\n      tag_187\n      tag_72\n      jump\t// in\n    tag_187:\n        /* \"#utility.yul\":6012:6129   */\n    tag_186:\n        /* \"#utility.yul\":6153:6215   */\n      tag_188\n        /* \"#utility.yul\":6207:6214   */\n      dup7\n        /* \"#utility.yul\":6198:6204   */\n      dup3\n        /* \"#utility.yul\":6187:6196   */\n      dup8\n        /* \"#utility.yul\":6183:6205   */\n      add\n        /* \"#utility.yul\":6153:6215   */\n      tag_95\n      jump\t// in\n    tag_188:\n        /* \"#utility.yul\":6143:6215   */\n      swap2\n      pop\n        /* \"#utility.yul\":5938:6225   */\n      pop\n        /* \"#utility.yul\":5419:6232   */\n      swap3\n      pop\n      swap3\n      pop\n      swap3\n      jump\t// out\n        /* \"#utility.yul\":6238:6336   */\n    tag_96:\n        /* \"#utility.yul\":6289:6295   */\n      0x00\n        /* \"#utility.yul\":6323:6328   */\n      dup2\n        /* \"#utility.yul\":6317:6329   */\n      mload\n        /* \"#utility.yul\":6307:6329   */\n      swap1\n      pop\n        /* \"#utility.yul\":6238:6336   */\n      swap2\n      swap1\n      pop\n      jump\t// out\n        /* \"#utility.yul\":6342:6510   */\n    tag_97:\n        /* \"#utility.yul\":6425:6436   */\n      0x00\n        /* \"#utility.yul\":6459:6465   */\n      dup3\n        /* \"#utility.yul\":6454:6457   */\n      dup3\n        /* \"#utility.yul\":6447:6466   */\n      mstore\n        /* \"#utility.yul\":6499:6503   */\n      0x20\n        /* \"#utility.yul\":6494:6497   */\n      dup3\n        /* \"#utility.yul\":6490:6504   */\n      add\n        /* \"#utility.yul\":6475:6504   */\n      swap1\n      pop\n        /* \"#utility.yul\":6342:6510   */\n      swap3\n      swap2\n      pop\n      pop\n      jump\t// out\n        /* \"#utility.yul\":6516:6762   */\n    tag_98:\n        /* \"#utility.yul\":6597:6598   */\n      0x00\n        /* \"#utility.yul\":6607:6720   */\n    tag_192:\n        /* \"#utility.yul\":6621:6627   */\n      dup4\n        /* \"#utility.yul\":6618:6619   */\n      dup2\n        /* \"#utility.yul\":6615:6628   */\n      lt\n        /* \"#utility.yul\":6607:6720   */\n      iszero\n      tag_194\n      jumpi\n        /* \"#utility.yul\":6706:6707   */\n      dup1\n        /* \"#utility.yul\":6701:6704   */\n      dup3\n        /* \"#utility.yul\":6697:6708   */\n      add\n        /* \"#utility.yul\":6691:6709   */\n      mload\n        /* \"#utility.yul\":6687:6688   */\n      dup2\n        /* \"#utility.yul\":6682:6685   */\n      dup5\n        /* \"#utility.yul\":6678:6689   */\n      add\n        /* \"#utility.yul\":6671:6710   */\n      mstore\n        /* \"#utility.yul\":6643:6645   */\n      0x20\n        /* \"#utility.yul\":6640:6641   */\n      dup2\n        /* \"#utility.yul\":6636:6646   */\n      add\n        /* \"#utility.yul\":6631:6646   */\n      swap1\n      pop\n        /* \"#utility.yul\":6607:6720   */\n      jump(tag_192)\n    tag_194:\n        /* \"#utility.yul\":6754:6755   */\n      0x00\n        /* \"#utility.yul\":6745:6751   */\n      dup5\n        /* \"#utility.yul\":6740:6743   */\n      dup5\n        /* \"#utility.yul\":6736:6752   */\n      add\n        /* \"#utility.yul\":6729:6756   */\n      mstore\n        /* \"#utility.yul\":6578:6762   */\n      pop\n        /* \"#utility.yul\":6516:6762   */\n      pop\n      pop\n      pop\n      jump\t// out\n        /* \"#utility.yul\":6768:7141   */\n    tag_99:\n        /* \"#utility.yul\":6854:6857   */\n      0x00\n        /* \"#utility.yul\":6882:6920   */\n      tag_196\n        /* \"#utility.yul\":6914:6919   */\n      dup3\n        /* \"#utility.yul\":6882:6920   */\n      tag_96\n      jump\t// in\n    tag_196:\n        /* \"#utility.yul\":6936:7006   */\n      tag_197\n        /* \"#utility.yul\":6999:7005   */\n      dup2\n        /* \"#utility.yul\":6994:6997   */\n      dup6\n        /* \"#utility.yul\":6936:7006   */\n      tag_97\n      jump\t// in\n    tag_197:\n        /* \"#utility.yul\":6929:7006   */\n      swap4\n      pop\n        /* \"#utility.yul\":7015:7080   */\n      tag_198\n        /* \"#utility.yul\":7073:7079   */\n      dup2\n        /* \"#utility.yul\":7068:7071   */\n      dup6\n        /* \"#utility.yul\":7061:7065   */\n      0x20\n        /* \"#utility.yul\":7054:7059   */\n      dup7\n        /* \"#utility.yul\":7050:7066   */\n      add\n        /* \"#utility.yul\":7015:7080   */\n      tag_98\n      jump\t// in\n    tag_198:\n        /* \"#utility.yul\":7105:7134   */\n      tag_199\n        /* \"#utility.yul\":7127:7133   */\n      dup2\n        /* \"#utility.yul\":7105:7134   */\n      tag_88\n      jump\t// in\n    tag_199:\n        /* \"#utility.yul\":7100:7103   */\n      dup5\n        /* \"#utility.yul\":7096:7135   */\n      add\n        /* \"#utility.yul\":7089:7135   */\n      swap2\n      pop\n        /* \"#utility.yul\":6858:7141   */\n      pop\n        /* \"#utility.yul\":6768:7141   */\n      swap3\n      swap2\n      pop\n      pop\n      jump\t// out\n        /* \"#utility.yul\":7147:7456   */\n    tag_44:\n        /* \"#utility.yul\":7258:7262   */\n      0x00\n        /* \"#utility.yul\":7296:7298   */\n      0x20\n        /* \"#utility.yul\":7285:7294   */\n      dup3\n        /* \"#utility.yul\":7281:7299   */\n      add\n        /* \"#utility.yul\":7273:7299   */\n      swap1\n      pop\n        /* \"#utility.yul\":7345:7354   */\n      dup2\n        /* \"#utility.yul\":7339:7343   */\n      dup2\n        /* \"#utility.yul\":7335:7355   */\n      sub\n        /* \"#utility.yul\":7331:7332   */\n      0x00\n        /* \"#utility.yul\":7320:7329   */\n      dup4\n        /* \"#utility.yul\":7316:7333   */\n      add\n        /* \"#utility.yul\":7309:7356   */\n      mstore\n        /* \"#utility.yul\":7373:7449   */\n      tag_201\n        /* \"#utility.yul\":7444:7448   */\n      dup2\n        /* \"#utility.yul\":7435:7441   */\n      dup5\n        /* \"#utility.yul\":7373:7449   */\n      tag_99\n      jump\t// in\n    tag_201:\n        /* \"#utility.yul\":7365:7449   */\n      swap1\n      pop\n        /* \"#utility.yul\":7147:7456   */\n      swap3\n      swap2\n      pop\n      pop\n      jump\t// out\n        /* \"#utility.yul\":7462:7631   */\n    tag_100:\n        /* \"#utility.yul\":7546:7557   */\n      0x00\n        /* \"#utility.yul\":7580:7586   */\n      dup3\n        /* \"#utility.yul\":7575:7578   */\n      dup3\n        /* \"#utility.yul\":7568:7587   */\n      mstore\n        /* \"#utility.yul\":7620:7624   */\n      0x20\n        /* \"#utility.yul\":7615:7618   */\n      dup3\n        /* \"#utility.yul\":7611:7625   */\n      add\n        /* \"#utility.yul\":7596:7625   */\n      swap1\n      pop\n        /* \"#utility.yul\":7462:7631   */\n      swap3\n      swap2\n      pop\n      pop\n      jump\t// out\n        /* \"#utility.yul\":7637:7819   */\n    tag_101:\n        /* \"#utility.yul\":7777:7811   */\n      0x596f7520617265206e6f7420746865206f776e65722c2061626f7274696e672e\n        /* \"#utility.yul\":7773:7774   */\n      0x00\n        /* \"#utility.yul\":7765:7771   */\n      dup3\n        /* \"#utility.yul\":7761:7775   */\n      add\n        /* \"#utility.yul\":7754:7812   */\n      mstore\n        /* \"#utility.yul\":7637:7819   */\n      pop\n      jump\t// out\n        /* \"#utility.yul\":7825:8191   */\n    tag_102:\n        /* \"#utility.yul\":7967:7970   */\n      0x00\n        /* \"#utility.yul\":7988:8055   */\n      tag_205\n        /* \"#utility.yul\":8052:8054   */\n      0x20\n        /* \"#utility.yul\":8047:8050   */\n      dup4\n        /* \"#utility.yul\":7988:8055   */\n      tag_100\n      jump\t// in\n    tag_205:\n        /* \"#utility.yul\":7981:8055   */\n      swap2\n      pop\n        /* \"#utility.yul\":8064:8157   */\n      tag_206\n        /* \"#utility.yul\":8153:8156   */\n      dup3\n        /* \"#utility.yul\":8064:8157   */\n      tag_101\n      jump\t// in\n    tag_206:\n        /* \"#utility.yul\":8182:8184   */\n      0x20\n        /* \"#utility.yul\":8177:8180   */\n      dup3\n        /* \"#utility.yul\":8173:8185   */\n      add\n        /* \"#utility.yul\":8166:8185   */\n      swap1\n      pop\n        /* \"#utility.yul\":7825:8191   */\n      swap2\n      swap1\n      pop\n      jump\t// out\n        /* \"#utility.yul\":8197:8616   */\n    tag_48:\n        /* \"#utility.yul\":8363:8367   */\n      0x00\n        /* \"#utility.yul\":8401:8403   */\n      0x20\n        /* \"#utility.yul\":8390:8399   */\n      dup3\n        /* \"#utility.yul\":8386:8404   */\n      add\n        /* \"#utility.yul\":8378:8404   */\n      swap1\n      pop\n        /* \"#utility.yul\":8450:8459   */\n      dup2\n        /* \"#utility.yul\":8444:8448   */\n      dup2\n        /* \"#utility.yul\":8440:8460   */\n      sub\n        /* \"#utility.yul\":8436:8437   */\n      0x00\n        /* \"#utility.yul\":8425:8434   */\n      dup4\n        /* \"#utility.yul\":8421:8438   */\n      add\n        /* \"#utility.yul\":8414:8461   */\n      mstore\n        /* \"#utility.yul\":8478:8609   */\n      tag_208\n        /* \"#utility.yul\":8604:8608   */\n      dup2\n        /* \"#utility.yul\":8478:8609   */\n      tag_102\n      jump\t// in\n    tag_208:\n        /* \"#utility.yul\":8470:8609   */\n      swap1\n      pop\n        /* \"#utility.yul\":8197:8616   */\n      swap2\n      swap1\n      pop\n      jump\t// out\n        /* \"#utility.yul\":8622:8911   */\n    tag_103:\n        /* \"#utility.yul\":8762:8796   */\n      0x596f7520617265206e6f74207065726d697474656420746f2070726f63657373\n        /* \"#utility.yul\":8758:8759   */\n      0x00\n        /* \"#utility.yul\":8750:8756   */\n      dup3\n        /* \"#utility.yul\":8746:8760   */\n      add\n        /* \"#utility.yul\":8739:8797   */\n      mstore\n        /* \"#utility.yul\":8831:8865   */\n      0x207472616e73616374696f6e732066726f6d207468697320636f6e7472616374\n        /* \"#utility.yul\":8826:8828   */\n      0x20\n        /* \"#utility.yul\":8818:8824   */\n      dup3\n        /* \"#utility.yul\":8814:8829   */\n      add\n        /* \"#utility.yul\":8807:8866   */\n      mstore\n        /* \"#utility.yul\":8900:8903   */\n      0x2e00000000000000000000000000000000000000000000000000000000000000\n        /* \"#utility.yul\":8895:8897   */\n      0x40\n        /* \"#utility.yul\":8887:8893   */\n      dup3\n        /* \"#utility.yul\":8883:8898   */\n      add\n        /* \"#utility.yul\":8876:8904   */\n      mstore\n        /* \"#utility.yul\":8622:8911   */\n      pop\n      jump\t// out\n        /* \"#utility.yul\":8917:9283   */\n    tag_104:\n        /* \"#utility.yul\":9059:9062   */\n      0x00\n        /* \"#utility.yul\":9080:9147   */\n      tag_211\n        /* \"#utility.yul\":9144:9146   */\n      0x41\n        /* \"#utility.yul\":9139:9142   */\n      dup4\n        /* \"#utility.yul\":9080:9147   */\n      tag_100\n      jump\t// in\n    tag_211:\n        /* \"#utility.yul\":9073:9147   */\n      swap2\n      pop\n        /* \"#utility.yul\":9156:9249   */\n      tag_212\n        /* \"#utility.yul\":9245:9248   */\n      dup3\n        /* \"#utility.yul\":9156:9249   */\n      tag_103\n      jump\t// in\n    tag_212:\n        /* \"#utility.yul\":9274:9276   */\n      0x60\n        /* \"#utility.yul\":9269:9272   */\n      dup3\n        /* \"#utility.yul\":9265:9277   */\n      add\n        /* \"#utility.yul\":9258:9277   */\n      swap1\n      pop\n        /* \"#utility.yul\":8917:9283   */\n      swap2\n      swap1\n      pop\n      jump\t// out\n        /* \"#utility.yul\":9289:9708   */\n    tag_56:\n        /* \"#utility.yul\":9455:9459   */\n      0x00\n        /* \"#utility.yul\":9493:9495   */\n      0x20\n        /* \"#utility.yul\":9482:9491   */\n      dup3\n        /* \"#utility.yul\":9478:9496   */\n      add\n        /* \"#utility.yul\":9470:9496   */\n      swap1\n      pop\n        /* \"#utility.yul\":9542:9551   */\n      dup2\n        /* \"#utility.yul\":9536:9540   */\n      dup2\n        /* \"#utility.yul\":9532:9552   */\n      sub\n        /* \"#utility.yul\":9528:9529   */\n      0x00\n        /* \"#utility.yul\":9517:9526   */\n      dup4\n        /* \"#utility.yul\":9513:9530   */\n      add\n        /* \"#utility.yul\":9506:9553   */\n      mstore\n        /* \"#utility.yul\":9570:9701   */\n      tag_214\n        /* \"#utility.yul\":9696:9700   */\n      dup2\n        /* \"#utility.yul\":9570:9701   */\n      tag_104\n      jump\t// in\n    tag_214:\n        /* \"#utility.yul\":9562:9701   */\n      swap1\n      pop\n        /* \"#utility.yul\":9289:9708   */\n      swap2\n      swap1\n      pop\n      jump\t// out\n        /* \"#utility.yul\":9714:9963   */\n    tag_105:\n        /* \"#utility.yul\":9854:9888   */\n      0x596f752061726520747972696e6720746f2073656e64206d6f7265207468616e\n        /* \"#utility.yul\":9850:9851   */\n      0x00\n        /* \"#utility.yul\":9842:9848   */\n      dup3\n        /* \"#utility.yul\":9838:9852   */\n      add\n        /* \"#utility.yul\":9831:9889   */\n      mstore\n        /* \"#utility.yul\":9923:9955   */\n      0x20796f752061726520616c6c6f77656420746f2c2061626f7274696e672e0000\n        /* \"#utility.yul\":9918:9920   */\n      0x20\n        /* \"#utility.yul\":9910:9916   */\n      dup3\n        /* \"#utility.yul\":9906:9921   */\n      add\n        /* \"#utility.yul\":9899:9956   */\n      mstore\n        /* \"#utility.yul\":9714:9963   */\n      pop\n      jump\t// out\n        /* \"#utility.yul\":9969:10335   */\n    tag_106:\n        /* \"#utility.yul\":10111:10114   */\n      0x00\n        /* \"#utility.yul\":10132:10199   */\n      tag_217\n        /* \"#utility.yul\":10196:10198   */\n      0x3e\n        /* \"#utility.yul\":10191:10194   */\n      dup4\n        /* \"#utility.yul\":10132:10199   */\n      tag_100\n      jump\t// in\n    tag_217:\n        /* \"#utility.yul\":10125:10199   */\n      swap2\n      pop\n        /* \"#utility.yul\":10208:10301   */\n      tag_218\n        /* \"#utility.yul\":10297:10300   */\n      dup3\n        /* \"#utility.yul\":10208:10301   */\n      tag_105\n      jump\t// in\n    tag_218:\n        /* \"#utility.yul\":10326:10328   */\n      0x40\n        /* \"#utility.yul\":10321:10324   */\n      dup3\n        /* \"#utility.yul\":10317:10329   */\n      add\n        /* \"#utility.yul\":10310:10329   */\n      swap1\n      pop\n        /* \"#utility.yul\":9969:10335   */\n      swap2\n      swap1\n      pop\n      jump\t// out\n        /* \"#utility.yul\":10341:10760   */\n    tag_59:\n        /* \"#utility.yul\":10507:10511   */\n      0x00\n        /* \"#utility.yul\":10545:10547   */\n      0x20\n        /* \"#utility.yul\":10534:10543   */\n      dup3\n        /* \"#utility.yul\":10530:10548   */\n      add\n        /* \"#utility.yul\":10522:10548   */\n      swap1\n      pop\n        /* \"#utility.yul\":10594:10603   */\n      dup2\n        /* \"#utility.yul\":10588:10592   */\n      dup2\n        /* \"#utility.yul\":10584:10604   */\n      sub\n        /* \"#utility.yul\":10580:10581   */\n      0x00\n        /* \"#utility.yul\":10569:10578   */\n      dup4\n        /* \"#utility.yul\":10565:10582   */\n      add\n        /* \"#utility.yul\":10558:10605   */\n      mstore\n        /* \"#utility.yul\":10622:10753   */\n      tag_220\n        /* \"#utility.yul\":10748:10752   */\n      dup2\n        /* \"#utility.yul\":10622:10753   */\n      tag_106\n      jump\t// in\n    tag_220:\n        /* \"#utility.yul\":10614:10753   */\n      swap1\n      pop\n        /* \"#utility.yul\":10341:10760   */\n      swap2\n      swap1\n      pop\n      jump\t// out\n        /* \"#utility.yul\":10766:10946   */\n    tag_107:\n        /* \"#utility.yul\":10814:10891   */\n      0x4e487b7100000000000000000000000000000000000000000000000000000000\n        /* \"#utility.yul\":10811:10812   */\n      0x00\n        /* \"#utility.yul\":10804:10892   */\n      mstore\n        /* \"#utility.yul\":10911:10915   */\n      0x11\n        /* \"#utility.yul\":10908:10909   */\n      0x04\n        /* \"#utility.yul\":10901:10916   */\n      mstore\n        /* \"#utility.yul\":10935:10939   */\n      0x24\n        /* \"#utility.yul\":10932:10933   */\n      0x00\n        /* \"#utility.yul\":10925:10940   */\n      revert\n        /* \"#utility.yul\":10952:11146   */\n    tag_61:\n        /* \"#utility.yul\":10992:10996   */\n      0x00\n        /* \"#utility.yul\":11012:11032   */\n      tag_223\n        /* \"#utility.yul\":11030:11031   */\n      dup3\n        /* \"#utility.yul\":11012:11032   */\n      tag_79\n      jump\t// in\n    tag_223:\n        /* \"#utility.yul\":11007:11032   */\n      swap2\n      pop\n        /* \"#utility.yul\":11046:11066   */\n      tag_224\n        /* \"#utility.yul\":11064:11065   */\n      dup4\n        /* \"#utility.yul\":11046:11066   */\n      tag_79\n      jump\t// in\n    tag_224:\n        /* \"#utility.yul\":11041:11066   */\n      swap3\n      pop\n        /* \"#utility.yul\":11090:11091   */\n      dup3\n        /* \"#utility.yul\":11087:11088   */\n      dup3\n        /* \"#utility.yul\":11083:11092   */\n      sub\n        /* \"#utility.yul\":11075:11092   */\n      swap1\n      pop\n        /* \"#utility.yul\":11114:11115   */\n      dup2\n        /* \"#utility.yul\":11108:11112   */\n      dup2\n        /* \"#utility.yul\":11105:11116   */\n      gt\n        /* \"#utility.yul\":11102:11139   */\n      iszero\n      tag_225\n      jumpi\n        /* \"#utility.yul\":11119:11137   */\n      tag_226\n      tag_107\n      jump\t// in\n    tag_226:\n        /* \"#utility.yul\":11102:11139   */\n    tag_225:\n        /* \"#utility.yul\":10952:11146   */\n      swap3\n      swap2\n      pop\n      pop\n      jump\t// out\n        /* \"#utility.yul\":11152:11299   */\n    tag_108:\n        /* \"#utility.yul\":11253:11264   */\n      0x00\n        /* \"#utility.yul\":11290:11293   */\n      dup2\n        /* \"#utility.yul\":11275:11293   */\n      swap1\n      pop\n        /* \"#utility.yul\":11152:11299   */\n      swap3\n      swap2\n      pop\n      pop\n      jump\t// out\n        /* \"#utility.yul\":11305:11691   */\n    tag_109:\n        /* \"#utility.yul\":11409:11412   */\n      0x00\n        /* \"#utility.yul\":11437:11475   */\n      tag_229\n        /* \"#utility.yul\":11469:11474   */\n      dup3\n        /* \"#utility.yul\":11437:11475   */\n      tag_96\n      jump\t// in\n    tag_229:\n        /* \"#utility.yul\":11491:11579   */\n      tag_230\n        /* \"#utility.yul\":11572:11578   */\n      dup2\n        /* \"#utility.yul\":11567:11570   */\n      dup6\n        /* \"#utility.yul\":11491:11579   */\n      tag_108\n      jump\t// in\n    tag_230:\n        /* \"#utility.yul\":11484:11579   */\n      swap4\n      pop\n        /* \"#utility.yul\":11588:11653   */\n      tag_231\n        /* \"#utility.yul\":11646:11652   */\n      dup2\n        /* \"#utility.yul\":11641:11644   */\n      dup6\n        /* \"#utility.yul\":11634:11638   */\n      0x20\n        /* \"#utility.yul\":11627:11632   */\n      dup7\n        /* \"#utility.yul\":11623:11639   */\n      add\n        /* \"#utility.yul\":11588:11653   */\n      tag_98\n      jump\t// in\n    tag_231:\n        /* \"#utility.yul\":11678:11684   */\n      dup1\n        /* \"#utility.yul\":11673:11676   */\n      dup5\n        /* \"#utility.yul\":11669:11685   */\n      add\n        /* \"#utility.yul\":11662:11685   */\n      swap2\n      pop\n        /* \"#utility.yul\":11413:11691   */\n      pop\n        /* \"#utility.yul\":11305:11691   */\n      swap3\n      swap2\n      pop\n      pop\n      jump\t// out\n        /* \"#utility.yul\":11697:11968   */\n    tag_63:\n        /* \"#utility.yul\":11827:11830   */\n      0x00\n        /* \"#utility.yul\":11849:11942   */\n      tag_233\n        /* \"#utility.yul\":11938:11941   */\n      dup3\n        /* \"#utility.yul\":11929:11935   */\n      dup5\n        /* \"#utility.yul\":11849:11942   */\n      tag_109\n      jump\t// in\n    tag_233:\n        /* \"#utility.yul\":11842:11942   */\n      swap2\n      pop\n        /* \"#utility.yul\":11959:11962   */\n      dup2\n        /* \"#utility.yul\":11952:11962   */\n      swap1\n      pop\n        /* \"#utility.yul\":11697:11968   */\n      swap3\n      swap2\n      pop\n      pop\n      jump\t// out\n        /* \"#utility.yul\":11974:12194   */\n    tag_110:\n        /* \"#utility.yul\":12114:12148   */\n      0x41626f7274696e672063616c6c20776173206e6f74207375636365737366756c\n        /* \"#utility.yul\":12110:12111   */\n      0x00\n        /* \"#utility.yul\":12102:12108   */\n      dup3\n        /* \"#utility.yul\":12098:12112   */\n      add\n        /* \"#utility.yul\":12091:12149   */\n      mstore\n        /* \"#utility.yul\":12183:12186   */\n      0x2e00000000000000000000000000000000000000000000000000000000000000\n        /* \"#utility.yul\":12178:12180   */\n      0x20\n        /* \"#utility.yul\":12170:12176   */\n      dup3\n        /* \"#utility.yul\":12166:12181   */\n      add\n        /* \"#utility.yul\":12159:12187   */\n      mstore\n        /* \"#utility.yul\":11974:12194   */\n      pop\n      jump\t// out\n        /* \"#utility.yul\":12200:12566   */\n    tag_111:\n        /* \"#utility.yul\":12342:12345   */\n      0x00\n        /* \"#utility.yul\":12363:12430   */\n      tag_236\n        /* \"#utility.yul\":12427:12429   */\n      0x21\n        /* \"#utility.yul\":12422:12425   */\n      dup4\n        /* \"#utility.yul\":12363:12430   */\n      tag_100\n      jump\t// in\n    tag_236:\n        /* \"#utility.yul\":12356:12430   */\n      swap2\n      pop\n        /* \"#utility.yul\":12439:12532   */\n      tag_237\n        /* \"#utility.yul\":12528:12531   */\n      dup3\n        /* \"#utility.yul\":12439:12532   */\n      tag_110\n      jump\t// in\n    tag_237:\n        /* \"#utility.yul\":12557:12559   */\n      0x40\n        /* \"#utility.yul\":12552:12555   */\n      dup3\n        /* \"#utility.yul\":12548:12560   */\n      add\n        /* \"#utility.yul\":12541:12560   */\n      swap1\n      pop\n        /* \"#utility.yul\":12200:12566   */\n      swap2\n      swap1\n      pop\n      jump\t// out\n        /* \"#utility.yul\":12572:12991   */\n    tag_69:\n        /* \"#utility.yul\":12738:12742   */\n      0x00\n        /* \"#utility.yul\":12776:12778   */\n      0x20\n        /* \"#utility.yul\":12765:12774   */\n      dup3\n        /* \"#utility.yul\":12761:12779   */\n      add\n        /* \"#utility.yul\":12753:12779   */\n      swap1\n      pop\n        /* \"#utility.yul\":12825:12834   */\n      dup2\n        /* \"#utility.yul\":12819:12823   */\n      dup2\n        /* \"#utility.yul\":12815:12835   */\n      sub\n        /* \"#utility.yul\":12811:12812   */\n      0x00\n        /* \"#utility.yul\":12800:12809   */\n      dup4\n        /* \"#utility.yul\":12796:12813   */\n      add\n        /* \"#utility.yul\":12789:12836   */\n      mstore\n        /* \"#utility.yul\":12853:12984   */\n      tag_239\n        /* \"#utility.yul\":12979:12983   */\n      dup2\n        /* \"#utility.yul\":12853:12984   */\n      tag_111\n      jump\t// in\n    tag_239:\n        /* \"#utility.yul\":12845:12984   */\n      swap1\n      pop\n        /* \"#utility.yul\":12572:12991   */\n      swap2\n      swap1\n      pop\n      jump\t// out\n\n    auxdata: 0xa264697066735822122062f1240f842ae7c2906fc516c645465d1413fb1fb47596e56a716ad59380120664736f6c63430008110033\n}\n",
				"bytecode": {
					"linkReferences": {},
					"object": "608060405234801561001057600080fd5b50336000806101000a81548173ffffffffffffffffffffffffffffffffffffffff021916908373ffffffffffffffffffffffffffffffffffffffff160217905550610d5f806100606000396000f3fe6080604052600436106100595760003560e01c80630633b14a146100655780630bc605ad146100a2578063310ec4a7146100df5780633e5beab914610108578063a526d83b14610145578063be45fd621461016e57610060565b3661006057005b600080fd5b34801561007157600080fd5b5061008c60048036038101906100879190610683565b6101ab565b60405161009991906106cb565b60405180910390f35b3480156100ae57600080fd5b506100c960048036038101906100c49190610683565b6101cb565b6040516100d691906106cb565b60405180910390f35b3480156100eb57600080fd5b506101066004803603810190610101919061071c565b6101eb565b005b34801561011457600080fd5b5061012f600480360381019061012a9190610683565b610380565b60405161013c919061076b565b60405180910390f35b34801561015157600080fd5b5061016c60048036038101906101679190610683565b610398565b005b34801561017a57600080fd5b506101956004803603810190610190919061090a565b61039b565b6040516101a291906109f8565b60405180910390f35b60036020528060005260406000206000915054906101000a900460ff1681565b60026020528060005260406000206000915054906101000a900460ff1681565b60008054906101000a900473ffffffffffffffffffffffffffffffffffffffff1673ffffffffffffffffffffffffffffffffffffffff163373ffffffffffffffffffffffffffffffffffffffff1614610279576040517f08c379a000000000000000000000000000000000000000000000000000000000815260040161027090610a77565b60405180910390fd5b80600160003373ffffffffffffffffffffffffffffffffffffffff1673ffffffffffffffffffffffffffffffffffffffff168152602001908152602001600020819055506000811115610323576001600260008473ffffffffffffffffffffffffffffffffffffffff1673ffffffffffffffffffffffffffffffffffffffff16815260200190815260200160002060006101000a81548160ff02191690831515021790555061037c565b6000600260008473ffffffffffffffffffffffffffffffffffffffff1673ffffffffffffffffffffffffffffffffffffffff16815260200190815260200160002060006101000a81548160ff0219169083151502179055505b5050565b60016020528060005260406000206000915090505481565b50565b606060008054906101000a900473ffffffffffffffffffffffffffffffffffffffff1673ffffffffffffffffffffffffffffffffffffffff163373ffffffffffffffffffffffffffffffffffffffff161461055557600260003373ffffffffffffffffffffffffffffffffffffffff1673ffffffffffffffffffffffffffffffffffffffff16815260200190815260200160002060009054906101000a900460ff1661047c576040517f08c379a000000000000000000000000000000000000000000000000000000000815260040161047390610b2f565b60405180910390fd5b82600160003373ffffffffffffffffffffffffffffffffffffffff1673ffffffffffffffffffffffffffffffffffffffff1681526020019081526020016000205410156104fe576040517f08c379a00000000000000000000000000000000000000000000000000000000081526004016104f590610bc1565b60405180910390fd5b82600160003373ffffffffffffffffffffffffffffffffffffffff1673ffffffffffffffffffffffffffffffffffffffff168152602001908152602001600020600082825461054d9190610c10565b925050819055505b6000808573ffffffffffffffffffffffffffffffffffffffff16858560405161057e9190610c80565b60006040518083038185875af1925050503d80600081146105bb576040519150601f19603f3d011682016040523d82523d6000602084013e6105c0565b606091505b509150915081610605576040517f08c379a00000000000000000000000000000000000000000000000000000000081526004016105fc90610d09565b60405180910390fd5b80925050509392505050565b6000604051905090565b600080fd5b600080fd5b600073ffffffffffffffffffffffffffffffffffffffff82169050919050565b600061065082610625565b9050919050565b61066081610645565b811461066b57600080fd5b50565b60008135905061067d81610657565b92915050565b6000602082840312156106995761069861061b565b5b60006106a78482850161066e565b91505092915050565b60008115159050919050565b6106c5816106b0565b82525050565b60006020820190506106e060008301846106bc565b92915050565b6000819050919050565b6106f9816106e6565b811461070457600080fd5b50565b600081359050610716816106f0565b92915050565b600080604083850312156107335761073261061b565b5b60006107418582860161066e565b925050602061075285828601610707565b9150509250929050565b610765816106e6565b82525050565b6000602082019050610780600083018461075c565b92915050565b600061079182610625565b9050919050565b6107a181610786565b81146107ac57600080fd5b50565b6000813590506107be81610798565b92915050565b600080fd5b600080fd5b6000601f19601f8301169050919050565b7f4e487b7100000000000000000000000000000000000000000000000000000000600052604160045260246000fd5b610817826107ce565b810181811067ffffffffffffffff82111715610836576108356107df565b5b80604052505050565b6000610849610611565b9050610855828261080e565b919050565b600067ffffffffffffffff821115610875576108746107df565b5b61087e826107ce565b9050602081019050919050565b82818337600083830152505050565b60006108ad6108a88461085a565b61083f565b9050828152602081018484840111156108c9576108c86107c9565b5b6108d484828561088b565b509392505050565b600082601f8301126108f1576108f06107c4565b5b813561090184826020860161089a565b91505092915050565b6000806000606084860312156109235761092261061b565b5b6000610931868287016107af565b935050602061094286828701610707565b925050604084013567ffffffffffffffff81111561096357610962610620565b5b61096f868287016108dc565b9150509250925092565b600081519050919050565b600082825260208201905092915050565b60005b838110156109b3578082015181840152602081019050610998565b60008484015250505050565b60006109ca82610979565b6109d48185610984565b93506109e4818560208601610995565b6109ed816107ce565b840191505092915050565b60006020820190508181036000830152610a1281846109bf565b905092915050565b600082825260208201905092915050565b7f596f7520617265206e6f7420746865206f776e65722c2061626f7274696e672e600082015250565b6000610a61602083610a1a565b9150610a6c82610a2b565b602082019050919050565b60006020820190508181036000830152610a9081610a54565b9050919050565b7f596f7520617265206e6f74207065726d697474656420746f2070726f6365737360008201527f207472616e73616374696f6e732066726f6d207468697320636f6e747261637460208201527f2e00000000000000000000000000000000000000000000000000000000000000604082015250565b6000610b19604183610a1a565b9150610b2482610a97565b606082019050919050565b60006020820190508181036000830152610b4881610b0c565b9050919050565b7f596f752061726520747972696e6720746f2073656e64206d6f7265207468616e60008201527f20796f752061726520616c6c6f77656420746f2c2061626f7274696e672e0000602082015250565b6000610bab603e83610a1a565b9150610bb682610b4f565b604082019050919050565b60006020820190508181036000830152610bda81610b9e565b9050919050565b7f4e487b7100000000000000000000000000000000000000000000000000000000600052601160045260246000fd5b6000610c1b826106e6565b9150610c26836106e6565b9250828203905081811115610c3e57610c3d610be1565b5b92915050565b600081905092915050565b6000610c5a82610979565b610c648185610c44565b9350610c74818560208601610995565b80840191505092915050565b6000610c8c8284610c4f565b915081905092915050565b7f41626f7274696e672063616c6c20776173206e6f74207375636365737366756c60008201527f2e00000000000000000000000000000000000000000000000000000000000000602082015250565b6000610cf3602183610a1a565b9150610cfe82610c97565b604082019050919050565b60006020820190508181036000830152610d2281610ce6565b905091905056fea264697066735822122062f1240f842ae7c2906fc516c645465d1413fb1fb47596e56a716ad59380120664736f6c63430008110033",
					"opcodes": "PUSH1 0x80 PUSH1 0x40 MSTORE CALLVALUE DUP1 ISZERO PUSH2 0x10 JUMPI PUSH1 0x0 DUP1 REVERT JUMPDEST POP CALLER PUSH1 0x0 DUP1 PUSH2 0x100 EXP DUP2 SLOAD DUP2 PUSH20 0xFFFFFFFFFFFFFFFFFFFFFFFFFFFFFFFFFFFFFFFF MUL NOT AND SWAP1 DUP4 PUSH20 0xFFFFFFFFFFFFFFFFFFFFFFFFFFFFFFFFFFFFFFFF AND MUL OR SWAP1 SSTORE POP PUSH2 0xD5F DUP1 PUSH2 0x60 PUSH1 0x0 CODECOPY PUSH1 0x0 RETURN INVALID PUSH1 0x80 PUSH1 0x40 MSTORE PUSH1 0x4 CALLDATASIZE LT PUSH2 0x59 JUMPI PUSH1 0x0 CALLDATALOAD PUSH1 0xE0 SHR DUP1 PUSH4 0x633B14A EQ PUSH2 0x65 JUMPI DUP1 PUSH4 0xBC605AD EQ PUSH2 0xA2 JUMPI DUP1 PUSH4 0x310EC4A7 EQ PUSH2 0xDF JUMPI DUP1 PUSH4 0x3E5BEAB9 EQ PUSH2 0x108 JUMPI DUP1 PUSH4 0xA526D83B EQ PUSH2 0x145 JUMPI DUP1 PUSH4 0xBE45FD62 EQ PUSH2 0x16E JUMPI PUSH2 0x60 JUMP JUMPDEST CALLDATASIZE PUSH2 0x60 JUMPI STOP JUMPDEST PUSH1 0x0 DUP1 REVERT JUMPDEST CALLVALUE DUP1 ISZERO PUSH2 0x71 JUMPI PUSH1 0x0 DUP1 REVERT JUMPDEST POP PUSH2 0x8C PUSH1 0x4 DUP1 CALLDATASIZE SUB DUP2 ADD SWAP1 PUSH2 0x87 SWAP2 SWAP1 PUSH2 0x683 JUMP JUMPDEST PUSH2 0x1AB JUMP JUMPDEST PUSH1 0x40 MLOAD PUSH2 0x99 SWAP2 SWAP1 PUSH2 0x6CB JUMP JUMPDEST PUSH1 0x40 MLOAD DUP1 SWAP2 SUB SWAP1 RETURN JUMPDEST CALLVALUE DUP1 ISZERO PUSH2 0xAE JUMPI PUSH1 0x0 DUP1 REVERT JUMPDEST POP PUSH2 0xC9 PUSH1 0x4 DUP1 CALLDATASIZE SUB DUP2 ADD SWAP1 PUSH2 0xC4 SWAP2 SWAP1 PUSH2 0x683 JUMP JUMPDEST PUSH2 0x1CB JUMP JUMPDEST PUSH1 0x40 MLOAD PUSH2 0xD6 SWAP2 SWAP1 PUSH2 0x6CB JUMP JUMPDEST PUSH1 0x40 MLOAD DUP1 SWAP2 SUB SWAP1 RETURN JUMPDEST CALLVALUE DUP1 ISZERO PUSH2 0xEB JUMPI PUSH1 0x0 DUP1 REVERT JUMPDEST POP PUSH2 0x106 PUSH1 0x4 DUP1 CALLDATASIZE SUB DUP2 ADD SWAP1 PUSH2 0x101 SWAP2 SWAP1 PUSH2 0x71C JUMP JUMPDEST PUSH2 0x1EB JUMP JUMPDEST STOP JUMPDEST CALLVALUE DUP1 ISZERO PUSH2 0x114 JUMPI PUSH1 0x0 DUP1 REVERT JUMPDEST POP PUSH2 0x12F PUSH1 0x4 DUP1 CALLDATASIZE SUB DUP2 ADD SWAP1 PUSH2 0x12A SWAP2 SWAP1 PUSH2 0x683 JUMP JUMPDEST PUSH2 0x380 JUMP JUMPDEST PUSH1 0x40 MLOAD PUSH2 0x13C SWAP2 SWAP1 PUSH2 0x76B JUMP JUMPDEST PUSH1 0x40 MLOAD DUP1 SWAP2 SUB SWAP1 RETURN JUMPDEST CALLVALUE DUP1 ISZERO PUSH2 0x151 JUMPI PUSH1 0x0 DUP1 REVERT JUMPDEST POP PUSH2 0x16C PUSH1 0x4 DUP1 CALLDATASIZE SUB DUP2 ADD SWAP1 PUSH2 0x167 SWAP2 SWAP1 PUSH2 0x683 JUMP JUMPDEST PUSH2 0x398 JUMP JUMPDEST STOP JUMPDEST CALLVALUE DUP1 ISZERO PUSH2 0x17A JUMPI PUSH1 0x0 DUP1 REVERT JUMPDEST POP PUSH2 0x195 PUSH1 0x4 DUP1 CALLDATASIZE SUB DUP2 ADD SWAP1 PUSH2 0x190 SWAP2 SWAP1 PUSH2 0x90A JUMP JUMPDEST PUSH2 0x39B JUMP JUMPDEST PUSH1 0x40 MLOAD PUSH2 0x1A2 SWAP2 SWAP1 PUSH2 0x9F8 JUMP JUMPDEST PUSH1 0x40 MLOAD DUP1 SWAP2 SUB SWAP1 RETURN JUMPDEST PUSH1 0x3 PUSH1 0x20 MSTORE DUP1 PUSH1 0x0 MSTORE PUSH1 0x40 PUSH1 0x0 KECCAK256 PUSH1 0x0 SWAP2 POP SLOAD SWAP1 PUSH2 0x100 EXP SWAP1 DIV PUSH1 0xFF AND DUP2 JUMP JUMPDEST PUSH1 0x2 PUSH1 0x20 MSTORE DUP1 PUSH1 0x0 MSTORE PUSH1 0x40 PUSH1 0x0 KECCAK256 PUSH1 0x0 SWAP2 POP SLOAD SWAP1 PUSH2 0x100 EXP SWAP1 DIV PUSH1 0xFF AND DUP2 JUMP JUMPDEST PUSH1 0x0 DUP1 SLOAD SWAP1 PUSH2 0x100 EXP SWAP1 DIV PUSH20 0xFFFFFFFFFFFFFFFFFFFFFFFFFFFFFFFFFFFFFFFF AND PUSH20 0xFFFFFFFFFFFFFFFFFFFFFFFFFFFFFFFFFFFFFFFF AND CALLER PUSH20 0xFFFFFFFFFFFFFFFFFFFFFFFFFFFFFFFFFFFFFFFF AND EQ PUSH2 0x279 JUMPI PUSH1 0x40 MLOAD PUSH32 0x8C379A000000000000000000000000000000000000000000000000000000000 DUP2 MSTORE PUSH1 0x4 ADD PUSH2 0x270 SWAP1 PUSH2 0xA77 JUMP JUMPDEST PUSH1 0x40 MLOAD DUP1 SWAP2 SUB SWAP1 REVERT JUMPDEST DUP1 PUSH1 0x1 PUSH1 0x0 CALLER PUSH20 0xFFFFFFFFFFFFFFFFFFFFFFFFFFFFFFFFFFFFFFFF AND PUSH20 0xFFFFFFFFFFFFFFFFFFFFFFFFFFFFFFFFFFFFFFFF AND DUP2 MSTORE PUSH1 0x20 ADD SWAP1 DUP2 MSTORE PUSH1 0x20 ADD PUSH1 0x0 KECCAK256 DUP2 SWAP1 SSTORE POP PUSH1 0x0 DUP2 GT ISZERO PUSH2 0x323 JUMPI PUSH1 0x1 PUSH1 0x2 PUSH1 0x0 DUP5 PUSH20 0xFFFFFFFFFFFFFFFFFFFFFFFFFFFFFFFFFFFFFFFF AND PUSH20 0xFFFFFFFFFFFFFFFFFFFFFFFFFFFFFFFFFFFFFFFF AND DUP2 MSTORE PUSH1 0x20 ADD SWAP1 DUP2 MSTORE PUSH1 0x20 ADD PUSH1 0x0 KECCAK256 PUSH1 0x0 PUSH2 0x100 EXP DUP2 SLOAD DUP2 PUSH1 0xFF MUL NOT AND SWAP1 DUP4 ISZERO ISZERO MUL OR SWAP1 SSTORE POP PUSH2 0x37C JUMP JUMPDEST PUSH1 0x0 PUSH1 0x2 PUSH1 0x0 DUP5 PUSH20 0xFFFFFFFFFFFFFFFFFFFFFFFFFFFFFFFFFFFFFFFF AND PUSH20 0xFFFFFFFFFFFFFFFFFFFFFFFFFFFFFFFFFFFFFFFF AND DUP2 MSTORE PUSH1 0x20 ADD SWAP1 DUP2 MSTORE PUSH1 0x20 ADD PUSH1 0x0 KECCAK256 PUSH1 0x0 PUSH2 0x100 EXP DUP2 SLOAD DUP2 PUSH1 0xFF MUL NOT AND SWAP1 DUP4 ISZERO ISZERO MUL OR SWAP1 SSTORE POP JUMPDEST POP POP JUMP JUMPDEST PUSH1 0x1 PUSH1 0x20 MSTORE DUP1 PUSH1 0x0 MSTORE PUSH1 0x40 PUSH1 0x0 KECCAK256 PUSH1 0x0 SWAP2 POP SWAP1 POP SLOAD DUP2 JUMP JUMPDEST POP JUMP JUMPDEST PUSH1 0x60 PUSH1 0x0 DUP1 SLOAD SWAP1 PUSH2 0x100 EXP SWAP1 DIV PUSH20 0xFFFFFFFFFFFFFFFFFFFFFFFFFFFFFFFFFFFFFFFF AND PUSH20 0xFFFFFFFFFFFFFFFFFFFFFFFFFFFFFFFFFFFFFFFF AND CALLER PUSH20 0xFFFFFFFFFFFFFFFFFFFFFFFFFFFFFFFFFFFFFFFF AND EQ PUSH2 0x555 JUMPI PUSH1 0x2 PUSH1 0x0 CALLER PUSH20 0xFFFFFFFFFFFFFFFFFFFFFFFFFFFFFFFFFFFFFFFF AND PUSH20 0xFFFFFFFFFFFFFFFFFFFFFFFFFFFFFFFFFFFFFFFF AND DUP2 MSTORE PUSH1 0x20 ADD SWAP1 DUP2 MSTORE PUSH1 0x20 ADD PUSH1 0x0 KECCAK256 PUSH1 0x0 SWAP1 SLOAD SWAP1 PUSH2 0x100 EXP SWAP1 DIV PUSH1 0xFF AND PUSH2 0x47C JUMPI PUSH1 0x40 MLOAD PUSH32 0x8C379A000000000000000000000000000000000000000000000000000000000 DUP2 MSTORE PUSH1 0x4 ADD PUSH2 0x473 SWAP1 PUSH2 0xB2F JUMP JUMPDEST PUSH1 0x40 MLOAD DUP1 SWAP2 SUB SWAP1 REVERT JUMPDEST DUP3 PUSH1 0x1 PUSH1 0x0 CALLER PUSH20 0xFFFFFFFFFFFFFFFFFFFFFFFFFFFFFFFFFFFFFFFF AND PUSH20 0xFFFFFFFFFFFFFFFFFFFFFFFFFFFFFFFFFFFFFFFF AND DUP2 MSTORE PUSH1 0x20 ADD SWAP1 DUP2 MSTORE PUSH1 0x20 ADD PUSH1 0x0 KECCAK256 SLOAD LT ISZERO PUSH2 0x4FE JUMPI PUSH1 0x40 MLOAD PUSH32 0x8C379A000000000000000000000000000000000000000000000000000000000 DUP2 MSTORE PUSH1 0x4 ADD PUSH2 0x4F5 SWAP1 PUSH2 0xBC1 JUMP JUMPDEST PUSH1 0x40 MLOAD DUP1 SWAP2 SUB SWAP1 REVERT JUMPDEST DUP3 PUSH1 0x1 PUSH1 0x0 CALLER PUSH20 0xFFFFFFFFFFFFFFFFFFFFFFFFFFFFFFFFFFFFFFFF AND PUSH20 0xFFFFFFFFFFFFFFFFFFFFFFFFFFFFFFFFFFFFFFFF AND DUP2 MSTORE PUSH1 0x20 ADD SWAP1 DUP2 MSTORE PUSH1 0x20 ADD PUSH1 0x0 KECCAK256 PUSH1 0x0 DUP3 DUP3 SLOAD PUSH2 0x54D SWAP2 SWAP1 PUSH2 0xC10 JUMP JUMPDEST SWAP3 POP POP DUP2 SWAP1 SSTORE POP JUMPDEST PUSH1 0x0 DUP1 DUP6 PUSH20 0xFFFFFFFFFFFFFFFFFFFFFFFFFFFFFFFFFFFFFFFF AND DUP6 DUP6 PUSH1 0x40 MLOAD PUSH2 0x57E SWAP2 SWAP1 PUSH2 0xC80 JUMP JUMPDEST PUSH1 0x0 PUSH1 0x40 MLOAD DUP1 DUP4 SUB DUP2 DUP6 DUP8 GAS CALL SWAP3 POP POP POP RETURNDATASIZE DUP1 PUSH1 0x0 DUP2 EQ PUSH2 0x5BB JUMPI PUSH1 0x40 MLOAD SWAP2 POP PUSH1 0x1F NOT PUSH1 0x3F RETURNDATASIZE ADD AND DUP3 ADD PUSH1 0x40 MSTORE RETURNDATASIZE DUP3 MSTORE RETURNDATASIZE PUSH1 0x0 PUSH1 0x20 DUP5 ADD RETURNDATACOPY PUSH2 0x5C0 JUMP JUMPDEST PUSH1 0x60 SWAP2 POP JUMPDEST POP SWAP2 POP SWAP2 POP DUP2 PUSH2 0x605 JUMPI PUSH1 0x40 MLOAD PUSH32 0x8C379A000000000000000000000000000000000000000000000000000000000 DUP2 MSTORE PUSH1 0x4 ADD PUSH2 0x5FC SWAP1 PUSH2 0xD09 JUMP JUMPDEST PUSH1 0x40 MLOAD DUP1 SWAP2 SUB SWAP1 REVERT JUMPDEST DUP1 SWAP3 POP POP POP SWAP4 SWAP3 POP POP POP JUMP JUMPDEST PUSH1 0x0 PUSH1 0x40 MLOAD SWAP1 POP SWAP1 JUMP JUMPDEST PUSH1 0x0 DUP1 REVERT JUMPDEST PUSH1 0x0 DUP1 REVERT JUMPDEST PUSH1 0x0 PUSH20 0xFFFFFFFFFFFFFFFFFFFFFFFFFFFFFFFFFFFFFFFF DUP3 AND SWAP1 POP SWAP2 SWAP1 POP JUMP JUMPDEST PUSH1 0x0 PUSH2 0x650 DUP3 PUSH2 0x625 JUMP JUMPDEST SWAP1 POP SWAP2 SWAP1 POP JUMP JUMPDEST PUSH2 0x660 DUP2 PUSH2 0x645 JUMP JUMPDEST DUP2 EQ PUSH2 0x66B JUMPI PUSH1 0x0 DUP1 REVERT JUMPDEST POP JUMP JUMPDEST PUSH1 0x0 DUP2 CALLDATALOAD SWAP1 POP PUSH2 0x67D DUP2 PUSH2 0x657 JUMP JUMPDEST SWAP3 SWAP2 POP POP JUMP JUMPDEST PUSH1 0x0 PUSH1 0x20 DUP3 DUP5 SUB SLT ISZERO PUSH2 0x699 JUMPI PUSH2 0x698 PUSH2 0x61B JUMP JUMPDEST JUMPDEST PUSH1 0x0 PUSH2 0x6A7 DUP5 DUP3 DUP6 ADD PUSH2 0x66E JUMP JUMPDEST SWAP2 POP POP SWAP3 SWAP2 POP POP JUMP JUMPDEST PUSH1 0x0 DUP2 ISZERO ISZERO SWAP1 POP SWAP2 SWAP1 POP JUMP JUMPDEST PUSH2 0x6C5 DUP2 PUSH2 0x6B0 JUMP JUMPDEST DUP3 MSTORE POP POP JUMP JUMPDEST PUSH1 0x0 PUSH1 0x20 DUP3 ADD SWAP1 POP PUSH2 0x6E0 PUSH1 0x0 DUP4 ADD DUP5 PUSH2 0x6BC JUMP JUMPDEST SWAP3 SWAP2 POP POP JUMP JUMPDEST PUSH1 0x0 DUP2 SWAP1 POP SWAP2 SWAP1 POP JUMP JUMPDEST PUSH2 0x6F9 DUP2 PUSH2 0x6E6 JUMP JUMPDEST DUP2 EQ PUSH2 0x704 JUMPI PUSH1 0x0 DUP1 REVERT JUMPDEST POP JUMP JUMPDEST PUSH1 0x0 DUP2 CALLDATALOAD SWAP1 POP PUSH2 0x716 DUP2 PUSH2 0x6F0 JUMP JUMPDEST SWAP3 SWAP2 POP POP JUMP JUMPDEST PUSH1 0x0 DUP1 PUSH1 0x40 DUP4 DUP6 SUB SLT ISZERO PUSH2 0x733 JUMPI PUSH2 0x732 PUSH2 0x61B JUMP JUMPDEST JUMPDEST PUSH1 0x0 PUSH2 0x741 DUP6 DUP3 DUP7 ADD PUSH2 0x66E JUMP JUMPDEST SWAP3 POP POP PUSH1 0x20 PUSH2 0x752 DUP6 DUP3 DUP7 ADD PUSH2 0x707 JUMP JUMPDEST SWAP2 POP POP SWAP3 POP SWAP3 SWAP1 POP JUMP JUMPDEST PUSH2 0x765 DUP2 PUSH2 0x6E6 JUMP JUMPDEST DUP3 MSTORE POP POP JUMP JUMPDEST PUSH1 0x0 PUSH1 0x20 DUP3 ADD SWAP1 POP PUSH2 0x780 PUSH1 0x0 DUP4 ADD DUP5 PUSH2 0x75C JUMP JUMPDEST SWAP3 SWAP2 POP POP JUMP JUMPDEST PUSH1 0x0 PUSH2 0x791 DUP3 PUSH2 0x625 JUMP JUMPDEST SWAP1 POP SWAP2 SWAP1 POP JUMP JUMPDEST PUSH2 0x7A1 DUP2 PUSH2 0x786 JUMP JUMPDEST DUP2 EQ PUSH2 0x7AC JUMPI PUSH1 0x0 DUP1 REVERT JUMPDEST POP JUMP JUMPDEST PUSH1 0x0 DUP2 CALLDATALOAD SWAP1 POP PUSH2 0x7BE DUP2 PUSH2 0x798 JUMP JUMPDEST SWAP3 SWAP2 POP POP JUMP JUMPDEST PUSH1 0x0 DUP1 REVERT JUMPDEST PUSH1 0x0 DUP1 REVERT JUMPDEST PUSH1 0x0 PUSH1 0x1F NOT PUSH1 0x1F DUP4 ADD AND SWAP1 POP SWAP2 SWAP1 POP JUMP JUMPDEST PUSH32 0x4E487B7100000000000000000000000000000000000000000000000000000000 PUSH1 0x0 MSTORE PUSH1 0x41 PUSH1 0x4 MSTORE PUSH1 0x24 PUSH1 0x0 REVERT JUMPDEST PUSH2 0x817 DUP3 PUSH2 0x7CE JUMP JUMPDEST DUP2 ADD DUP2 DUP2 LT PUSH8 0xFFFFFFFFFFFFFFFF DUP3 GT OR ISZERO PUSH2 0x836 JUMPI PUSH2 0x835 PUSH2 0x7DF JUMP JUMPDEST JUMPDEST DUP1 PUSH1 0x40 MSTORE POP POP POP JUMP JUMPDEST PUSH1 0x0 PUSH2 0x849 PUSH2 0x611 JUMP JUMPDEST SWAP1 POP PUSH2 0x855 DUP3 DUP3 PUSH2 0x80E JUMP JUMPDEST SWAP2 SWAP1 POP JUMP JUMPDEST PUSH1 0x0 PUSH8 0xFFFFFFFFFFFFFFFF DUP3 GT ISZERO PUSH2 0x875 JUMPI PUSH2 0x874 PUSH2 0x7DF JUMP JUMPDEST JUMPDEST PUSH2 0x87E DUP3 PUSH2 0x7CE JUMP JUMPDEST SWAP1 POP PUSH1 0x20 DUP2 ADD SWAP1 POP SWAP2 SWAP1 POP JUMP JUMPDEST DUP3 DUP2 DUP4 CALLDATACOPY PUSH1 0x0 DUP4 DUP4 ADD MSTORE POP POP POP JUMP JUMPDEST PUSH1 0x0 PUSH2 0x8AD PUSH2 0x8A8 DUP5 PUSH2 0x85A JUMP JUMPDEST PUSH2 0x83F JUMP JUMPDEST SWAP1 POP DUP3 DUP2 MSTORE PUSH1 0x20 DUP2 ADD DUP5 DUP5 DUP5 ADD GT ISZERO PUSH2 0x8C9 JUMPI PUSH2 0x8C8 PUSH2 0x7C9 JUMP JUMPDEST JUMPDEST PUSH2 0x8D4 DUP5 DUP3 DUP6 PUSH2 0x88B JUMP JUMPDEST POP SWAP4 SWAP3 POP POP POP JUMP JUMPDEST PUSH1 0x0 DUP3 PUSH1 0x1F DUP4 ADD SLT PUSH2 0x8F1 JUMPI PUSH2 0x8F0 PUSH2 0x7C4 JUMP JUMPDEST JUMPDEST DUP2 CALLDATALOAD PUSH2 0x901 DUP5 DUP3 PUSH1 0x20 DUP7 ADD PUSH2 0x89A JUMP JUMPDEST SWAP2 POP POP SWAP3 SWAP2 POP POP JUMP JUMPDEST PUSH1 0x0 DUP1 PUSH1 0x0 PUSH1 0x60 DUP5 DUP7 SUB SLT ISZERO PUSH2 0x923 JUMPI PUSH2 0x922 PUSH2 0x61B JUMP JUMPDEST JUMPDEST PUSH1 0x0 PUSH2 0x931 DUP7 DUP3 DUP8 ADD PUSH2 0x7AF JUMP JUMPDEST SWAP4 POP POP PUSH1 0x20 PUSH2 0x942 DUP7 DUP3 DUP8 ADD PUSH2 0x707 JUMP JUMPDEST SWAP3 POP POP PUSH1 0x40 DUP5 ADD CALLDATALOAD PUSH8 0xFFFFFFFFFFFFFFFF DUP2 GT ISZERO PUSH2 0x963 JUMPI PUSH2 0x962 PUSH2 0x620 JUMP JUMPDEST JUMPDEST PUSH2 0x96F DUP7 DUP3 DUP8 ADD PUSH2 0x8DC JUMP JUMPDEST SWAP2 POP POP SWAP3 POP SWAP3 POP SWAP3 JUMP JUMPDEST PUSH1 0x0 DUP2 MLOAD SWAP1 POP SWAP2 SWAP1 POP JUMP JUMPDEST PUSH1 0x0 DUP3 DUP3 MSTORE PUSH1 0x20 DUP3 ADD SWAP1 POP SWAP3 SWAP2 POP POP JUMP JUMPDEST PUSH1 0x0 JUMPDEST DUP4 DUP2 LT ISZERO PUSH2 0x9B3 JUMPI DUP1 DUP3 ADD MLOAD DUP2 DUP5 ADD MSTORE PUSH1 0x20 DUP2 ADD SWAP1 POP PUSH2 0x998 JUMP JUMPDEST PUSH1 0x0 DUP5 DUP5 ADD MSTORE POP POP POP POP JUMP JUMPDEST PUSH1 0x0 PUSH2 0x9CA DUP3 PUSH2 0x979 JUMP JUMPDEST PUSH2 0x9D4 DUP2 DUP6 PUSH2 0x984 JUMP JUMPDEST SWAP4 POP PUSH2 0x9E4 DUP2 DUP6 PUSH1 0x20 DUP7 ADD PUSH2 0x995 JUMP JUMPDEST PUSH2 0x9ED DUP2 PUSH2 0x7CE JUMP JUMPDEST DUP5 ADD SWAP2 POP POP SWAP3 SWAP2 POP POP JUMP JUMPDEST PUSH1 0x0 PUSH1 0x20 DUP3 ADD SWAP1 POP DUP2 DUP2 SUB PUSH1 0x0 DUP4 ADD MSTORE PUSH2 0xA12 DUP2 DUP5 PUSH2 0x9BF JUMP JUMPDEST SWAP1 POP SWAP3 SWAP2 POP POP JUMP JUMPDEST PUSH1 0x0 DUP3 DUP3 MSTORE PUSH1 0x20 DUP3 ADD SWAP1 POP SWAP3 SWAP2 POP POP JUMP JUMPDEST PUSH32 0x596F7520617265206E6F7420746865206F776E65722C2061626F7274696E672E PUSH1 0x0 DUP3 ADD MSTORE POP JUMP JUMPDEST PUSH1 0x0 PUSH2 0xA61 PUSH1 0x20 DUP4 PUSH2 0xA1A JUMP JUMPDEST SWAP2 POP PUSH2 0xA6C DUP3 PUSH2 0xA2B JUMP JUMPDEST PUSH1 0x20 DUP3 ADD SWAP1 POP SWAP2 SWAP1 POP JUMP JUMPDEST PUSH1 0x0 PUSH1 0x20 DUP3 ADD SWAP1 POP DUP2 DUP2 SUB PUSH1 0x0 DUP4 ADD MSTORE PUSH2 0xA90 DUP2 PUSH2 0xA54 JUMP JUMPDEST SWAP1 POP SWAP2 SWAP1 POP JUMP JUMPDEST PUSH32 0x596F7520617265206E6F74207065726D697474656420746F2070726F63657373 PUSH1 0x0 DUP3 ADD MSTORE PUSH32 0x207472616E73616374696F6E732066726F6D207468697320636F6E7472616374 PUSH1 0x20 DUP3 ADD MSTORE PUSH32 0x2E00000000000000000000000000000000000000000000000000000000000000 PUSH1 0x40 DUP3 ADD MSTORE POP JUMP JUMPDEST PUSH1 0x0 PUSH2 0xB19 PUSH1 0x41 DUP4 PUSH2 0xA1A JUMP JUMPDEST SWAP2 POP PUSH2 0xB24 DUP3 PUSH2 0xA97 JUMP JUMPDEST PUSH1 0x60 DUP3 ADD SWAP1 POP SWAP2 SWAP1 POP JUMP JUMPDEST PUSH1 0x0 PUSH1 0x20 DUP3 ADD SWAP1 POP DUP2 DUP2 SUB PUSH1 0x0 DUP4 ADD MSTORE PUSH2 0xB48 DUP2 PUSH2 0xB0C JUMP JUMPDEST SWAP1 POP SWAP2 SWAP1 POP JUMP JUMPDEST PUSH32 0x596F752061726520747972696E6720746F2073656E64206D6F7265207468616E PUSH1 0x0 DUP3 ADD MSTORE PUSH32 0x20796F752061726520616C6C6F77656420746F2C2061626F7274696E672E0000 PUSH1 0x20 DUP3 ADD MSTORE POP JUMP JUMPDEST PUSH1 0x0 PUSH2 0xBAB PUSH1 0x3E DUP4 PUSH2 0xA1A JUMP JUMPDEST SWAP2 POP PUSH2 0xBB6 DUP3 PUSH2 0xB4F JUMP JUMPDEST PUSH1 0x40 DUP3 ADD SWAP1 POP SWAP2 SWAP1 POP JUMP JUMPDEST PUSH1 0x0 PUSH1 0x20 DUP3 ADD SWAP1 POP DUP2 DUP2 SUB PUSH1 0x0 DUP4 ADD MSTORE PUSH2 0xBDA DUP2 PUSH2 0xB9E JUMP JUMPDEST SWAP1 POP SWAP2 SWAP1 POP JUMP JUMPDEST PUSH32 0x4E487B7100000000000000000000000000000000000000000000000000000000 PUSH1 0x0 MSTORE PUSH1 0x11 PUSH1 0x4 MSTORE PUSH1 0x24 PUSH1 0x0 REVERT JUMPDEST PUSH1 0x0 PUSH2 0xC1B DUP3 PUSH2 0x6E6 JUMP JUMPDEST SWAP2 POP PUSH2 0xC26 DUP4 PUSH2 0x6E6 JUMP JUMPDEST SWAP3 POP DUP3 DUP3 SUB SWAP1 POP DUP2 DUP2 GT ISZERO PUSH2 0xC3E JUMPI PUSH2 0xC3D PUSH2 0xBE1 JUMP JUMPDEST JUMPDEST SWAP3 SWAP2 POP POP JUMP JUMPDEST PUSH1 0x0 DUP2 SWAP1 POP SWAP3 SWAP2 POP POP JUMP JUMPDEST PUSH1 0x0 PUSH2 0xC5A DUP3 PUSH2 0x979 JUMP JUMPDEST PUSH2 0xC64 DUP2 DUP6 PUSH2 0xC44 JUMP JUMPDEST SWAP4 POP PUSH2 0xC74 DUP2 DUP6 PUSH1 0x20 DUP7 ADD PUSH2 0x995 JUMP JUMPDEST DUP1 DUP5 ADD SWAP2 POP POP SWAP3 SWAP2 POP POP JUMP JUMPDEST PUSH1 0x0 PUSH2 0xC8C DUP3 DUP5 PUSH2 0xC4F JUMP JUMPDEST SWAP2 POP DUP2 SWAP1 POP SWAP3 SWAP2 POP POP JUMP JUMPDEST PUSH32 0x41626F7274696E672063616C6C20776173206E6F74207375636365737366756C PUSH1 0x0 DUP3 ADD MSTORE PUSH32 0x2E00000000000000000000000000000000000000000000000000000000000000 PUSH1 0x20 DUP3 ADD MSTORE POP JUMP JUMPDEST PUSH1 0x0 PUSH2 0xCF3 PUSH1 0x21 DUP4 PUSH2 0xA1A JUMP JUMPDEST SWAP2 POP PUSH2 0xCFE DUP3 PUSH2 0xC97 JUMP JUMPDEST PUSH1 0x40 DUP3 ADD SWAP1 POP SWAP2 SWAP1 POP JUMP JUMPDEST PUSH1 0x0 PUSH1 0x20 DUP3 ADD SWAP1 POP DUP2 DUP2 SUB PUSH1 0x0 DUP4 ADD MSTORE PUSH2 0xD22 DUP2 PUSH2 0xCE6 JUMP JUMPDEST SWAP1 POP SWAP2 SWAP1 POP JUMP INVALID LOG2 PUSH5 0x6970667358 0x22 SLT KECCAK256 PUSH3 0xF1240F DUP5 0x2A 0xE7 0xC2 SWAP1 PUSH16 0xC516C645465D1413FB1FB47596E56A71 PUSH11 0xD59380120664736F6C6343 STOP ADDMOD GT STOP CALLER "
				},
				"gasEstimates": {
					"creation": {
						"codeDepositCost": "684600",
						"executionCost": "24981",
						"totalCost": "709581"
					},
					"external": {
						"addGuardian(address)": "521",
						"allowance(address)": "2858",
						"guardians(address)": "2823",
						"isAllowedToSend(address)": "2845",
						"setAllowance(address,uint256)": "49414",
						"transfer(address,uint256,bytes)": "infinite"
					}
				},
				"methodIdentifiers": {
					"addGuardian(address)": "a526d83b",
					"allowance(address)": "3e5beab9",
					"guardians(address)": "0633b14a",
					"isAllowedToSend(address)": "0bc605ad",
					"setAllowance(address,uint256)": "310ec4a7",
					"transfer(address,uint256,bytes)": "be45fd62"
				}
			},
			"storageLayout": {
				"storage": [
					{
						"astId": 3,
						"contract": "contracts/SmartContractWallet.sol:SmartContractWallet",
						"label": "owner",
						"offset": 0,
						"slot": "0",
						"type": "t_address_payable"
					},
					{
						"astId": 7,
						"contract": "contracts/SmartContractWallet.sol:SmartContractWallet",
						"label": "allowance",
						"offset": 0,
						"slot": "1",
						"type": "t_mapping(t_address,t_uint256)"
					},
					{
						"astId": 11,
						"contract": "contracts/SmartContractWallet.sol:SmartContractWallet",
						"label": "isAllowedToSend",
						"offset": 0,
						"slot": "2",
						"type": "t_mapping(t_address,t_bool)"
					},
					{
						"astId": 15,
						"contract": "contracts/SmartContractWallet.sol:SmartContractWallet",
						"label": "guardians",
						"offset": 0,
						"slot": "3",
						"type": "t_mapping(t_address,t_bool)"
					}
				],
				"types": {
					"t_address": {
						"encoding": "inplace",
						"label": "address",
						"numberOfBytes": "20"
					},
					"t_address_payable": {
						"encoding": "inplace",
						"label": "address payable",
						"numberOfBytes": "20"
					},
					"t_bool": {
						"encoding": "inplace",
						"label": "bool",
						"numberOfBytes": "1"
					},
					"t_mapping(t_address,t_bool)": {
						"encoding": "mapping",
						"key": "t_address",
						"label": "mapping(address => bool)",
						"numberOfBytes": "32",
						"value": "t_bool"
					},
					"t_mapping(t_address,t_uint256)": {
						"encoding": "mapping",
						"key": "t_address",
						"label": "mapping(address => uint256)",
						"numberOfBytes": "32",
						"value": "t_uint256"
					},
					"t_uint256": {
						"encoding": "inplace",
						"label": "uint256",
						"numberOfBytes": "32"
					}
				}
			},
			"userdoc": {
				"kind": "user",
				"methods": {},
				"version": 1
			}
		}
	}
}