{
	"contracts/SmartContractWallet.sol": {
		"SmartContractWallet": {
			"abi": [
				{
					"inputs": [],
					"stateMutability": "nonpayable",
					"type": "constructor"
				},
				{
					"inputs": [
						{
							"internalType": "address payable",
							"name": "_to",
							"type": "address"
						},
						{
							"internalType": "uint256",
							"name": "_amount",
							"type": "uint256"
						},
						{
							"internalType": "bytes",
							"name": "_payload",
							"type": "bytes"
						}
					],
					"name": "transfer",
					"outputs": [],
					"stateMutability": "nonpayable",
					"type": "function"
				},
				{
					"stateMutability": "payable",
					"type": "receive"
				}
			],
			"devdoc": {
				"kind": "dev",
				"methods": {},
				"version": 1
			},
			"evm": {
				"assembly": "    /* \"contracts/SmartContractWallet.sol\":109:602  contract SmartContractWallet {... */\n  mstore(0x40, 0x80)\n    /* \"contracts/SmartContractWallet.sol\":175:235  constructor() {... */\n  callvalue\n  dup1\n  iszero\n  tag_1\n  jumpi\n  0x00\n  dup1\n  revert\ntag_1:\n  pop\n    /* \"contracts/SmartContractWallet.sol\":216:226  msg.sender */\n  caller\n    /* \"contracts/SmartContractWallet.sol\":200:205  owner */\n  0x00\n  dup1\n    /* \"contracts/SmartContractWallet.sol\":200:227  owner = payable(msg.sender) */\n  0x0100\n  exp\n  dup2\n  sload\n  dup2\n  0xffffffffffffffffffffffffffffffffffffffff\n  mul\n  not\n  and\n  swap1\n  dup4\n  0xffffffffffffffffffffffffffffffffffffffff\n  and\n  mul\n  or\n  swap1\n  sstore\n  pop\n    /* \"contracts/SmartContractWallet.sol\":109:602  contract SmartContractWallet {... */\n  dataSize(sub_0)\n  dup1\n  dataOffset(sub_0)\n  0x00\n  codecopy\n  0x00\n  return\nstop\n\nsub_0: assembly {\n        /* \"contracts/SmartContractWallet.sol\":109:602  contract SmartContractWallet {... */\n      mstore(0x40, 0x80)\n      jumpi(tag_1, lt(calldatasize, 0x04))\n      shr(0xe0, calldataload(0x00))\n      dup1\n      0xbe45fd62\n      eq\n      tag_3\n      jumpi\n      jump(tag_2)\n    tag_1:\n      jumpi(tag_2, calldatasize)\n      stop\n    tag_2:\n      0x00\n      dup1\n      revert\n        /* \"contracts/SmartContractWallet.sol\":243:562  function transfer(address payable _to, uint _amount, bytes memory _payload) public {... */\n    tag_3:\n      callvalue\n      dup1\n      iszero\n      tag_6\n      jumpi\n      0x00\n      dup1\n      revert\n    tag_6:\n      pop\n      tag_7\n      0x04\n      dup1\n      calldatasize\n      sub\n      dup2\n      add\n      swap1\n      tag_8\n      swap2\n      swap1\n      tag_9\n      jump\t// in\n    tag_8:\n      tag_10\n      jump\t// in\n    tag_7:\n      stop\n    tag_10:\n        /* \"contracts/SmartContractWallet.sol\":359:364  owner */\n      0x00\n      dup1\n      sload\n      swap1\n      0x0100\n      exp\n      swap1\n      div\n      0xffffffffffffffffffffffffffffffffffffffff\n      and\n        /* \"contracts/SmartContractWallet.sol\":345:364  msg.sender == owner */\n      0xffffffffffffffffffffffffffffffffffffffff\n      and\n        /* \"contracts/SmartContractWallet.sol\":345:355  msg.sender */\n      caller\n        /* \"contracts/SmartContractWallet.sol\":345:364  msg.sender == owner */\n      0xffffffffffffffffffffffffffffffffffffffff\n      and\n      eq\n        /* \"contracts/SmartContractWallet.sol\":337:401  require(msg.sender == owner, \"You are not the owner, aborting.\") */\n      tag_12\n      jumpi\n      mload(0x40)\n      0x08c379a000000000000000000000000000000000000000000000000000000000\n      dup2\n      mstore\n      0x04\n      add\n      tag_13\n      swap1\n      tag_14\n      jump\t// in\n    tag_13:\n      mload(0x40)\n      dup1\n      swap2\n      sub\n      swap1\n      revert\n    tag_12:\n        /* \"contracts/SmartContractWallet.sol\":414:426  bool success */\n      0x00\n        /* \"contracts/SmartContractWallet.sol\":428:451  bytes memory returnData */\n      dup1\n        /* \"contracts/SmartContractWallet.sol\":455:458  _to */\n      dup5\n        /* \"contracts/SmartContractWallet.sol\":455:463  _to.call */\n      0xffffffffffffffffffffffffffffffffffffffff\n      and\n        /* \"contracts/SmartContractWallet.sol\":471:478  _amount */\n      dup5\n        /* \"contracts/SmartContractWallet.sol\":480:488  _payload */\n      dup5\n        /* \"contracts/SmartContractWallet.sol\":455:489  _to.call{value: _amount}(_payload) */\n      mload(0x40)\n      tag_15\n      swap2\n      swap1\n      tag_16\n      jump\t// in\n    tag_15:\n      0x00\n      mload(0x40)\n      dup1\n      dup4\n      sub\n      dup2\n      dup6\n      dup8\n      gas\n      call\n      swap3\n      pop\n      pop\n      pop\n      returndatasize\n      dup1\n      0x00\n      dup2\n      eq\n      tag_19\n      jumpi\n      mload(0x40)\n      swap2\n      pop\n      and(add(returndatasize, 0x3f), not(0x1f))\n      dup3\n      add\n      0x40\n      mstore\n      returndatasize\n      dup3\n      mstore\n      returndatasize\n      0x00\n      0x20\n      dup5\n      add\n      returndatacopy\n      jump(tag_18)\n    tag_19:\n      0x60\n      swap2\n      pop\n    tag_18:\n      pop\n        /* \"contracts/SmartContractWallet.sol\":413:489  (bool success, bytes memory returnData) = _to.call{value: _amount}(_payload) */\n      swap2\n      pop\n      swap2\n      pop\n        /* \"contracts/SmartContractWallet.sol\":509:516  success */\n      dup2\n        /* \"contracts/SmartContractWallet.sol\":501:554  require(success, \"Aborting call was not successful.\") */\n      tag_20\n      jumpi\n      mload(0x40)\n      0x08c379a000000000000000000000000000000000000000000000000000000000\n      dup2\n      mstore\n      0x04\n      add\n      tag_21\n      swap1\n      tag_22\n      jump\t// in\n    tag_21:\n      mload(0x40)\n      dup1\n      swap2\n      sub\n      swap1\n      revert\n    tag_20:\n        /* \"contracts/SmartContractWallet.sol\":326:562  {... */\n      pop\n      pop\n        /* \"contracts/SmartContractWallet.sol\":243:562  function transfer(address payable _to, uint _amount, bytes memory _payload) public {... */\n      pop\n      pop\n      pop\n      jump\t// out\n        /* \"#utility.yul\":7:82   */\n    tag_23:\n        /* \"#utility.yul\":40:46   */\n      0x00\n        /* \"#utility.yul\":73:75   */\n      0x40\n        /* \"#utility.yul\":67:76   */\n      mload\n        /* \"#utility.yul\":57:76   */\n      swap1\n      pop\n        /* \"#utility.yul\":7:82   */\n      swap1\n      jump\t// out\n        /* \"#utility.yul\":88:205   */\n    tag_24:\n        /* \"#utility.yul\":197:198   */\n      0x00\n        /* \"#utility.yul\":194:195   */\n      dup1\n        /* \"#utility.yul\":187:199   */\n      revert\n        /* \"#utility.yul\":211:328   */\n    tag_25:\n        /* \"#utility.yul\":320:321   */\n      0x00\n        /* \"#utility.yul\":317:318   */\n      dup1\n        /* \"#utility.yul\":310:322   */\n      revert\n        /* \"#utility.yul\":334:460   */\n    tag_26:\n        /* \"#utility.yul\":371:378   */\n      0x00\n        /* \"#utility.yul\":411:453   */\n      0xffffffffffffffffffffffffffffffffffffffff\n        /* \"#utility.yul\":404:409   */\n      dup3\n        /* \"#utility.yul\":400:454   */\n      and\n        /* \"#utility.yul\":389:454   */\n      swap1\n      pop\n        /* \"#utility.yul\":334:460   */\n      swap2\n      swap1\n      pop\n      jump\t// out\n        /* \"#utility.yul\":466:570   */\n    tag_27:\n        /* \"#utility.yul\":511:518   */\n      0x00\n        /* \"#utility.yul\":540:564   */\n      tag_58\n        /* \"#utility.yul\":558:563   */\n      dup3\n        /* \"#utility.yul\":540:564   */\n      tag_26\n      jump\t// in\n    tag_58:\n        /* \"#utility.yul\":529:564   */\n      swap1\n      pop\n        /* \"#utility.yul\":466:570   */\n      swap2\n      swap1\n      pop\n      jump\t// out\n        /* \"#utility.yul\":576:714   */\n    tag_28:\n        /* \"#utility.yul\":657:689   */\n      tag_60\n        /* \"#utility.yul\":683:688   */\n      dup2\n        /* \"#utility.yul\":657:689   */\n      tag_27\n      jump\t// in\n    tag_60:\n        /* \"#utility.yul\":650:655   */\n      dup2\n        /* \"#utility.yul\":647:690   */\n      eq\n        /* \"#utility.yul\":637:708   */\n      tag_61\n      jumpi\n        /* \"#utility.yul\":704:705   */\n      0x00\n        /* \"#utility.yul\":701:702   */\n      dup1\n        /* \"#utility.yul\":694:706   */\n      revert\n        /* \"#utility.yul\":637:708   */\n    tag_61:\n        /* \"#utility.yul\":576:714   */\n      pop\n      jump\t// out\n        /* \"#utility.yul\":720:875   */\n    tag_29:\n        /* \"#utility.yul\":774:779   */\n      0x00\n        /* \"#utility.yul\":812:818   */\n      dup2\n        /* \"#utility.yul\":799:819   */\n      calldataload\n        /* \"#utility.yul\":790:819   */\n      swap1\n      pop\n        /* \"#utility.yul\":828:869   */\n      tag_63\n        /* \"#utility.yul\":863:868   */\n      dup2\n        /* \"#utility.yul\":828:869   */\n      tag_28\n      jump\t// in\n    tag_63:\n        /* \"#utility.yul\":720:875   */\n      swap3\n      swap2\n      pop\n      pop\n      jump\t// out\n        /* \"#utility.yul\":881:958   */\n    tag_30:\n        /* \"#utility.yul\":918:925   */\n      0x00\n        /* \"#utility.yul\":947:952   */\n      dup2\n        /* \"#utility.yul\":936:952   */\n      swap1\n      pop\n        /* \"#utility.yul\":881:958   */\n      swap2\n      swap1\n      pop\n      jump\t// out\n        /* \"#utility.yul\":964:1086   */\n    tag_31:\n        /* \"#utility.yul\":1037:1061   */\n      tag_66\n        /* \"#utility.yul\":1055:1060   */\n      dup2\n        /* \"#utility.yul\":1037:1061   */\n      tag_30\n      jump\t// in\n    tag_66:\n        /* \"#utility.yul\":1030:1035   */\n      dup2\n        /* \"#utility.yul\":1027:1062   */\n      eq\n        /* \"#utility.yul\":1017:1080   */\n      tag_67\n      jumpi\n        /* \"#utility.yul\":1076:1077   */\n      0x00\n        /* \"#utility.yul\":1073:1074   */\n      dup1\n        /* \"#utility.yul\":1066:1078   */\n      revert\n        /* \"#utility.yul\":1017:1080   */\n    tag_67:\n        /* \"#utility.yul\":964:1086   */\n      pop\n      jump\t// out\n        /* \"#utility.yul\":1092:1231   */\n    tag_32:\n        /* \"#utility.yul\":1138:1143   */\n      0x00\n        /* \"#utility.yul\":1176:1182   */\n      dup2\n        /* \"#utility.yul\":1163:1183   */\n      calldataload\n        /* \"#utility.yul\":1154:1183   */\n      swap1\n      pop\n        /* \"#utility.yul\":1192:1225   */\n      tag_69\n        /* \"#utility.yul\":1219:1224   */\n      dup2\n        /* \"#utility.yul\":1192:1225   */\n      tag_31\n      jump\t// in\n    tag_69:\n        /* \"#utility.yul\":1092:1231   */\n      swap3\n      swap2\n      pop\n      pop\n      jump\t// out\n        /* \"#utility.yul\":1237:1354   */\n    tag_33:\n        /* \"#utility.yul\":1346:1347   */\n      0x00\n        /* \"#utility.yul\":1343:1344   */\n      dup1\n        /* \"#utility.yul\":1336:1348   */\n      revert\n        /* \"#utility.yul\":1360:1477   */\n    tag_34:\n        /* \"#utility.yul\":1469:1470   */\n      0x00\n        /* \"#utility.yul\":1466:1467   */\n      dup1\n        /* \"#utility.yul\":1459:1471   */\n      revert\n        /* \"#utility.yul\":1483:1585   */\n    tag_35:\n        /* \"#utility.yul\":1524:1530   */\n      0x00\n        /* \"#utility.yul\":1575:1577   */\n      0x1f\n        /* \"#utility.yul\":1571:1578   */\n      not\n        /* \"#utility.yul\":1566:1568   */\n      0x1f\n        /* \"#utility.yul\":1559:1564   */\n      dup4\n        /* \"#utility.yul\":1555:1569   */\n      add\n        /* \"#utility.yul\":1551:1579   */\n      and\n        /* \"#utility.yul\":1541:1579   */\n      swap1\n      pop\n        /* \"#utility.yul\":1483:1585   */\n      swap2\n      swap1\n      pop\n      jump\t// out\n        /* \"#utility.yul\":1591:1771   */\n    tag_36:\n        /* \"#utility.yul\":1639:1716   */\n      0x4e487b7100000000000000000000000000000000000000000000000000000000\n        /* \"#utility.yul\":1636:1637   */\n      0x00\n        /* \"#utility.yul\":1629:1717   */\n      mstore\n        /* \"#utility.yul\":1736:1740   */\n      0x41\n        /* \"#utility.yul\":1733:1734   */\n      0x04\n        /* \"#utility.yul\":1726:1741   */\n      mstore\n        /* \"#utility.yul\":1760:1764   */\n      0x24\n        /* \"#utility.yul\":1757:1758   */\n      0x00\n        /* \"#utility.yul\":1750:1765   */\n      revert\n        /* \"#utility.yul\":1777:2058   */\n    tag_37:\n        /* \"#utility.yul\":1860:1887   */\n      tag_75\n        /* \"#utility.yul\":1882:1886   */\n      dup3\n        /* \"#utility.yul\":1860:1887   */\n      tag_35\n      jump\t// in\n    tag_75:\n        /* \"#utility.yul\":1852:1858   */\n      dup2\n        /* \"#utility.yul\":1848:1888   */\n      add\n        /* \"#utility.yul\":1990:1996   */\n      dup2\n        /* \"#utility.yul\":1978:1988   */\n      dup2\n        /* \"#utility.yul\":1975:1997   */\n      lt\n        /* \"#utility.yul\":1954:1972   */\n      0xffffffffffffffff\n        /* \"#utility.yul\":1942:1952   */\n      dup3\n        /* \"#utility.yul\":1939:1973   */\n      gt\n        /* \"#utility.yul\":1936:1998   */\n      or\n        /* \"#utility.yul\":1933:2021   */\n      iszero\n      tag_76\n      jumpi\n        /* \"#utility.yul\":2001:2019   */\n      tag_77\n      tag_36\n      jump\t// in\n    tag_77:\n        /* \"#utility.yul\":1933:2021   */\n    tag_76:\n        /* \"#utility.yul\":2041:2051   */\n      dup1\n        /* \"#utility.yul\":2037:2039   */\n      0x40\n        /* \"#utility.yul\":2030:2052   */\n      mstore\n        /* \"#utility.yul\":1820:2058   */\n      pop\n        /* \"#utility.yul\":1777:2058   */\n      pop\n      pop\n      jump\t// out\n        /* \"#utility.yul\":2064:2193   */\n    tag_38:\n        /* \"#utility.yul\":2098:2104   */\n      0x00\n        /* \"#utility.yul\":2125:2145   */\n      tag_79\n      tag_23\n      jump\t// in\n    tag_79:\n        /* \"#utility.yul\":2115:2145   */\n      swap1\n      pop\n        /* \"#utility.yul\":2154:2187   */\n      tag_80\n        /* \"#utility.yul\":2182:2186   */\n      dup3\n        /* \"#utility.yul\":2174:2180   */\n      dup3\n        /* \"#utility.yul\":2154:2187   */\n      tag_37\n      jump\t// in\n    tag_80:\n        /* \"#utility.yul\":2064:2193   */\n      swap2\n      swap1\n      pop\n      jump\t// out\n        /* \"#utility.yul\":2199:2506   */\n    tag_39:\n        /* \"#utility.yul\":2260:2264   */\n      0x00\n        /* \"#utility.yul\":2350:2368   */\n      0xffffffffffffffff\n        /* \"#utility.yul\":2342:2348   */\n      dup3\n        /* \"#utility.yul\":2339:2369   */\n      gt\n        /* \"#utility.yul\":2336:2392   */\n      iszero\n      tag_82\n      jumpi\n        /* \"#utility.yul\":2372:2390   */\n      tag_83\n      tag_36\n      jump\t// in\n    tag_83:\n        /* \"#utility.yul\":2336:2392   */\n    tag_82:\n        /* \"#utility.yul\":2410:2439   */\n      tag_84\n        /* \"#utility.yul\":2432:2438   */\n      dup3\n        /* \"#utility.yul\":2410:2439   */\n      tag_35\n      jump\t// in\n    tag_84:\n        /* \"#utility.yul\":2402:2439   */\n      swap1\n      pop\n        /* \"#utility.yul\":2494:2498   */\n      0x20\n        /* \"#utility.yul\":2488:2492   */\n      dup2\n        /* \"#utility.yul\":2484:2499   */\n      add\n        /* \"#utility.yul\":2476:2499   */\n      swap1\n      pop\n        /* \"#utility.yul\":2199:2506   */\n      swap2\n      swap1\n      pop\n      jump\t// out\n        /* \"#utility.yul\":2512:2658   */\n    tag_40:\n        /* \"#utility.yul\":2609:2615   */\n      dup3\n        /* \"#utility.yul\":2604:2607   */\n      dup2\n        /* \"#utility.yul\":2599:2602   */\n      dup4\n        /* \"#utility.yul\":2586:2616   */\n      calldatacopy\n        /* \"#utility.yul\":2650:2651   */\n      0x00\n        /* \"#utility.yul\":2641:2647   */\n      dup4\n        /* \"#utility.yul\":2636:2639   */\n      dup4\n        /* \"#utility.yul\":2632:2648   */\n      add\n        /* \"#utility.yul\":2625:2652   */\n      mstore\n        /* \"#utility.yul\":2512:2658   */\n      pop\n      pop\n      pop\n      jump\t// out\n        /* \"#utility.yul\":2664:3087   */\n    tag_41:\n        /* \"#utility.yul\":2741:2746   */\n      0x00\n        /* \"#utility.yul\":2766:2831   */\n      tag_87\n        /* \"#utility.yul\":2782:2830   */\n      tag_88\n        /* \"#utility.yul\":2823:2829   */\n      dup5\n        /* \"#utility.yul\":2782:2830   */\n      tag_39\n      jump\t// in\n    tag_88:\n        /* \"#utility.yul\":2766:2831   */\n      tag_38\n      jump\t// in\n    tag_87:\n        /* \"#utility.yul\":2757:2831   */\n      swap1\n      pop\n        /* \"#utility.yul\":2854:2860   */\n      dup3\n        /* \"#utility.yul\":2847:2852   */\n      dup2\n        /* \"#utility.yul\":2840:2861   */\n      mstore\n        /* \"#utility.yul\":2892:2896   */\n      0x20\n        /* \"#utility.yul\":2885:2890   */\n      dup2\n        /* \"#utility.yul\":2881:2897   */\n      add\n        /* \"#utility.yul\":2930:2933   */\n      dup5\n        /* \"#utility.yul\":2921:2927   */\n      dup5\n        /* \"#utility.yul\":2916:2919   */\n      dup5\n        /* \"#utility.yul\":2912:2928   */\n      add\n        /* \"#utility.yul\":2909:2934   */\n      gt\n        /* \"#utility.yul\":2906:3018   */\n      iszero\n      tag_89\n      jumpi\n        /* \"#utility.yul\":2937:3016   */\n      tag_90\n      tag_34\n      jump\t// in\n    tag_90:\n        /* \"#utility.yul\":2906:3018   */\n    tag_89:\n        /* \"#utility.yul\":3027:3081   */\n      tag_91\n        /* \"#utility.yul\":3074:3080   */\n      dup5\n        /* \"#utility.yul\":3069:3072   */\n      dup3\n        /* \"#utility.yul\":3064:3067   */\n      dup6\n        /* \"#utility.yul\":3027:3081   */\n      tag_40\n      jump\t// in\n    tag_91:\n        /* \"#utility.yul\":2747:3087   */\n      pop\n        /* \"#utility.yul\":2664:3087   */\n      swap4\n      swap3\n      pop\n      pop\n      pop\n      jump\t// out\n        /* \"#utility.yul\":3106:3444   */\n    tag_42:\n        /* \"#utility.yul\":3161:3166   */\n      0x00\n        /* \"#utility.yul\":3210:3213   */\n      dup3\n        /* \"#utility.yul\":3203:3207   */\n      0x1f\n        /* \"#utility.yul\":3195:3201   */\n      dup4\n        /* \"#utility.yul\":3191:3208   */\n      add\n        /* \"#utility.yul\":3187:3214   */\n      slt\n        /* \"#utility.yul\":3177:3299   */\n      tag_93\n      jumpi\n        /* \"#utility.yul\":3218:3297   */\n      tag_94\n      tag_33\n      jump\t// in\n    tag_94:\n        /* \"#utility.yul\":3177:3299   */\n    tag_93:\n        /* \"#utility.yul\":3335:3341   */\n      dup2\n        /* \"#utility.yul\":3322:3342   */\n      calldataload\n        /* \"#utility.yul\":3360:3438   */\n      tag_95\n        /* \"#utility.yul\":3434:3437   */\n      dup5\n        /* \"#utility.yul\":3426:3432   */\n      dup3\n        /* \"#utility.yul\":3419:3423   */\n      0x20\n        /* \"#utility.yul\":3411:3417   */\n      dup7\n        /* \"#utility.yul\":3407:3424   */\n      add\n        /* \"#utility.yul\":3360:3438   */\n      tag_41\n      jump\t// in\n    tag_95:\n        /* \"#utility.yul\":3351:3438   */\n      swap2\n      pop\n        /* \"#utility.yul\":3167:3444   */\n      pop\n        /* \"#utility.yul\":3106:3444   */\n      swap3\n      swap2\n      pop\n      pop\n      jump\t// out\n        /* \"#utility.yul\":3450:4263   */\n    tag_9:\n        /* \"#utility.yul\":3544:3550   */\n      0x00\n        /* \"#utility.yul\":3552:3558   */\n      dup1\n        /* \"#utility.yul\":3560:3566   */\n      0x00\n        /* \"#utility.yul\":3609:3611   */\n      0x60\n        /* \"#utility.yul\":3597:3606   */\n      dup5\n        /* \"#utility.yul\":3588:3595   */\n      dup7\n        /* \"#utility.yul\":3584:3607   */\n      sub\n        /* \"#utility.yul\":3580:3612   */\n      slt\n        /* \"#utility.yul\":3577:3696   */\n      iszero\n      tag_97\n      jumpi\n        /* \"#utility.yul\":3615:3694   */\n      tag_98\n      tag_24\n      jump\t// in\n    tag_98:\n        /* \"#utility.yul\":3577:3696   */\n    tag_97:\n        /* \"#utility.yul\":3735:3736   */\n      0x00\n        /* \"#utility.yul\":3760:3821   */\n      tag_99\n        /* \"#utility.yul\":3813:3820   */\n      dup7\n        /* \"#utility.yul\":3804:3810   */\n      dup3\n        /* \"#utility.yul\":3793:3802   */\n      dup8\n        /* \"#utility.yul\":3789:3811   */\n      add\n        /* \"#utility.yul\":3760:3821   */\n      tag_29\n      jump\t// in\n    tag_99:\n        /* \"#utility.yul\":3750:3821   */\n      swap4\n      pop\n        /* \"#utility.yul\":3706:3831   */\n      pop\n        /* \"#utility.yul\":3870:3872   */\n      0x20\n        /* \"#utility.yul\":3896:3949   */\n      tag_100\n        /* \"#utility.yul\":3941:3948   */\n      dup7\n        /* \"#utility.yul\":3932:3938   */\n      dup3\n        /* \"#utility.yul\":3921:3930   */\n      dup8\n        /* \"#utility.yul\":3917:3939   */\n      add\n        /* \"#utility.yul\":3896:3949   */\n      tag_32\n      jump\t// in\n    tag_100:\n        /* \"#utility.yul\":3886:3949   */\n      swap3\n      pop\n        /* \"#utility.yul\":3841:3959   */\n      pop\n        /* \"#utility.yul\":4026:4028   */\n      0x40\n        /* \"#utility.yul\":4015:4024   */\n      dup5\n        /* \"#utility.yul\":4011:4029   */\n      add\n        /* \"#utility.yul\":3998:4030   */\n      calldataload\n        /* \"#utility.yul\":4057:4075   */\n      0xffffffffffffffff\n        /* \"#utility.yul\":4049:4055   */\n      dup2\n        /* \"#utility.yul\":4046:4076   */\n      gt\n        /* \"#utility.yul\":4043:4160   */\n      iszero\n      tag_101\n      jumpi\n        /* \"#utility.yul\":4079:4158   */\n      tag_102\n      tag_25\n      jump\t// in\n    tag_102:\n        /* \"#utility.yul\":4043:4160   */\n    tag_101:\n        /* \"#utility.yul\":4184:4246   */\n      tag_103\n        /* \"#utility.yul\":4238:4245   */\n      dup7\n        /* \"#utility.yul\":4229:4235   */\n      dup3\n        /* \"#utility.yul\":4218:4227   */\n      dup8\n        /* \"#utility.yul\":4214:4236   */\n      add\n        /* \"#utility.yul\":4184:4246   */\n      tag_42\n      jump\t// in\n    tag_103:\n        /* \"#utility.yul\":4174:4246   */\n      swap2\n      pop\n        /* \"#utility.yul\":3969:4256   */\n      pop\n        /* \"#utility.yul\":3450:4263   */\n      swap3\n      pop\n      swap3\n      pop\n      swap3\n      jump\t// out\n        /* \"#utility.yul\":4269:4438   */\n    tag_43:\n        /* \"#utility.yul\":4353:4364   */\n      0x00\n        /* \"#utility.yul\":4387:4393   */\n      dup3\n        /* \"#utility.yul\":4382:4385   */\n      dup3\n        /* \"#utility.yul\":4375:4394   */\n      mstore\n        /* \"#utility.yul\":4427:4431   */\n      0x20\n        /* \"#utility.yul\":4422:4425   */\n      dup3\n        /* \"#utility.yul\":4418:4432   */\n      add\n        /* \"#utility.yul\":4403:4432   */\n      swap1\n      pop\n        /* \"#utility.yul\":4269:4438   */\n      swap3\n      swap2\n      pop\n      pop\n      jump\t// out\n        /* \"#utility.yul\":4444:4626   */\n    tag_44:\n        /* \"#utility.yul\":4584:4618   */\n      0x596f7520617265206e6f7420746865206f776e65722c2061626f7274696e672e\n        /* \"#utility.yul\":4580:4581   */\n      0x00\n        /* \"#utility.yul\":4572:4578   */\n      dup3\n        /* \"#utility.yul\":4568:4582   */\n      add\n        /* \"#utility.yul\":4561:4619   */\n      mstore\n        /* \"#utility.yul\":4444:4626   */\n      pop\n      jump\t// out\n        /* \"#utility.yul\":4632:4998   */\n    tag_45:\n        /* \"#utility.yul\":4774:4777   */\n      0x00\n        /* \"#utility.yul\":4795:4862   */\n      tag_107\n        /* \"#utility.yul\":4859:4861   */\n      0x20\n        /* \"#utility.yul\":4854:4857   */\n      dup4\n        /* \"#utility.yul\":4795:4862   */\n      tag_43\n      jump\t// in\n    tag_107:\n        /* \"#utility.yul\":4788:4862   */\n      swap2\n      pop\n        /* \"#utility.yul\":4871:4964   */\n      tag_108\n        /* \"#utility.yul\":4960:4963   */\n      dup3\n        /* \"#utility.yul\":4871:4964   */\n      tag_44\n      jump\t// in\n    tag_108:\n        /* \"#utility.yul\":4989:4991   */\n      0x20\n        /* \"#utility.yul\":4984:4987   */\n      dup3\n        /* \"#utility.yul\":4980:4992   */\n      add\n        /* \"#utility.yul\":4973:4992   */\n      swap1\n      pop\n        /* \"#utility.yul\":4632:4998   */\n      swap2\n      swap1\n      pop\n      jump\t// out\n        /* \"#utility.yul\":5004:5423   */\n    tag_14:\n        /* \"#utility.yul\":5170:5174   */\n      0x00\n        /* \"#utility.yul\":5208:5210   */\n      0x20\n        /* \"#utility.yul\":5197:5206   */\n      dup3\n        /* \"#utility.yul\":5193:5211   */\n      add\n        /* \"#utility.yul\":5185:5211   */\n      swap1\n      pop\n        /* \"#utility.yul\":5257:5266   */\n      dup2\n        /* \"#utility.yul\":5251:5255   */\n      dup2\n        /* \"#utility.yul\":5247:5267   */\n      sub\n        /* \"#utility.yul\":5243:5244   */\n      0x00\n        /* \"#utility.yul\":5232:5241   */\n      dup4\n        /* \"#utility.yul\":5228:5245   */\n      add\n        /* \"#utility.yul\":5221:5268   */\n      mstore\n        /* \"#utility.yul\":5285:5416   */\n      tag_110\n        /* \"#utility.yul\":5411:5415   */\n      dup2\n        /* \"#utility.yul\":5285:5416   */\n      tag_45\n      jump\t// in\n    tag_110:\n        /* \"#utility.yul\":5277:5416   */\n      swap1\n      pop\n        /* \"#utility.yul\":5004:5423   */\n      swap2\n      swap1\n      pop\n      jump\t// out\n        /* \"#utility.yul\":5429:5527   */\n    tag_46:\n        /* \"#utility.yul\":5480:5486   */\n      0x00\n        /* \"#utility.yul\":5514:5519   */\n      dup2\n        /* \"#utility.yul\":5508:5520   */\n      mload\n        /* \"#utility.yul\":5498:5520   */\n      swap1\n      pop\n        /* \"#utility.yul\":5429:5527   */\n      swap2\n      swap1\n      pop\n      jump\t// out\n        /* \"#utility.yul\":5533:5680   */\n    tag_47:\n        /* \"#utility.yul\":5634:5645   */\n      0x00\n        /* \"#utility.yul\":5671:5674   */\n      dup2\n        /* \"#utility.yul\":5656:5674   */\n      swap1\n      pop\n        /* \"#utility.yul\":5533:5680   */\n      swap3\n      swap2\n      pop\n      pop\n      jump\t// out\n        /* \"#utility.yul\":5686:5932   */\n    tag_48:\n        /* \"#utility.yul\":5767:5768   */\n      0x00\n        /* \"#utility.yul\":5777:5890   */\n    tag_114:\n        /* \"#utility.yul\":5791:5797   */\n      dup4\n        /* \"#utility.yul\":5788:5789   */\n      dup2\n        /* \"#utility.yul\":5785:5798   */\n      lt\n        /* \"#utility.yul\":5777:5890   */\n      iszero\n      tag_116\n      jumpi\n        /* \"#utility.yul\":5876:5877   */\n      dup1\n        /* \"#utility.yul\":5871:5874   */\n      dup3\n        /* \"#utility.yul\":5867:5878   */\n      add\n        /* \"#utility.yul\":5861:5879   */\n      mload\n        /* \"#utility.yul\":5857:5858   */\n      dup2\n        /* \"#utility.yul\":5852:5855   */\n      dup5\n        /* \"#utility.yul\":5848:5859   */\n      add\n        /* \"#utility.yul\":5841:5880   */\n      mstore\n        /* \"#utility.yul\":5813:5815   */\n      0x20\n        /* \"#utility.yul\":5810:5811   */\n      dup2\n        /* \"#utility.yul\":5806:5816   */\n      add\n        /* \"#utility.yul\":5801:5816   */\n      swap1\n      pop\n        /* \"#utility.yul\":5777:5890   */\n      jump(tag_114)\n    tag_116:\n        /* \"#utility.yul\":5924:5925   */\n      0x00\n        /* \"#utility.yul\":5915:5921   */\n      dup5\n        /* \"#utility.yul\":5910:5913   */\n      dup5\n        /* \"#utility.yul\":5906:5922   */\n      add\n        /* \"#utility.yul\":5899:5926   */\n      mstore\n        /* \"#utility.yul\":5748:5932   */\n      pop\n        /* \"#utility.yul\":5686:5932   */\n      pop\n      pop\n      pop\n      jump\t// out\n        /* \"#utility.yul\":5938:6324   */\n    tag_49:\n        /* \"#utility.yul\":6042:6045   */\n      0x00\n        /* \"#utility.yul\":6070:6108   */\n      tag_118\n        /* \"#utility.yul\":6102:6107   */\n      dup3\n        /* \"#utility.yul\":6070:6108   */\n      tag_46\n      jump\t// in\n    tag_118:\n        /* \"#utility.yul\":6124:6212   */\n      tag_119\n        /* \"#utility.yul\":6205:6211   */\n      dup2\n        /* \"#utility.yul\":6200:6203   */\n      dup6\n        /* \"#utility.yul\":6124:6212   */\n      tag_47\n      jump\t// in\n    tag_119:\n        /* \"#utility.yul\":6117:6212   */\n      swap4\n      pop\n        /* \"#utility.yul\":6221:6286   */\n      tag_120\n        /* \"#utility.yul\":6279:6285   */\n      dup2\n        /* \"#utility.yul\":6274:6277   */\n      dup6\n        /* \"#utility.yul\":6267:6271   */\n      0x20\n        /* \"#utility.yul\":6260:6265   */\n      dup7\n        /* \"#utility.yul\":6256:6272   */\n      add\n        /* \"#utility.yul\":6221:6286   */\n      tag_48\n      jump\t// in\n    tag_120:\n        /* \"#utility.yul\":6311:6317   */\n      dup1\n        /* \"#utility.yul\":6306:6309   */\n      dup5\n        /* \"#utility.yul\":6302:6318   */\n      add\n        /* \"#utility.yul\":6295:6318   */\n      swap2\n      pop\n        /* \"#utility.yul\":6046:6324   */\n      pop\n        /* \"#utility.yul\":5938:6324   */\n      swap3\n      swap2\n      pop\n      pop\n      jump\t// out\n        /* \"#utility.yul\":6330:6601   */\n    tag_16:\n        /* \"#utility.yul\":6460:6463   */\n      0x00\n        /* \"#utility.yul\":6482:6575   */\n      tag_122\n        /* \"#utility.yul\":6571:6574   */\n      dup3\n        /* \"#utility.yul\":6562:6568   */\n      dup5\n        /* \"#utility.yul\":6482:6575   */\n      tag_49\n      jump\t// in\n    tag_122:\n        /* \"#utility.yul\":6475:6575   */\n      swap2\n      pop\n        /* \"#utility.yul\":6592:6595   */\n      dup2\n        /* \"#utility.yul\":6585:6595   */\n      swap1\n      pop\n        /* \"#utility.yul\":6330:6601   */\n      swap3\n      swap2\n      pop\n      pop\n      jump\t// out\n        /* \"#utility.yul\":6607:6827   */\n    tag_50:\n        /* \"#utility.yul\":6747:6781   */\n      0x41626f7274696e672063616c6c20776173206e6f74207375636365737366756c\n        /* \"#utility.yul\":6743:6744   */\n      0x00\n        /* \"#utility.yul\":6735:6741   */\n      dup3\n        /* \"#utility.yul\":6731:6745   */\n      add\n        /* \"#utility.yul\":6724:6782   */\n      mstore\n        /* \"#utility.yul\":6816:6819   */\n      0x2e00000000000000000000000000000000000000000000000000000000000000\n        /* \"#utility.yul\":6811:6813   */\n      0x20\n        /* \"#utility.yul\":6803:6809   */\n      dup3\n        /* \"#utility.yul\":6799:6814   */\n      add\n        /* \"#utility.yul\":6792:6820   */\n      mstore\n        /* \"#utility.yul\":6607:6827   */\n      pop\n      jump\t// out\n        /* \"#utility.yul\":6833:7199   */\n    tag_51:\n        /* \"#utility.yul\":6975:6978   */\n      0x00\n        /* \"#utility.yul\":6996:7063   */\n      tag_125\n        /* \"#utility.yul\":7060:7062   */\n      0x21\n        /* \"#utility.yul\":7055:7058   */\n      dup4\n        /* \"#utility.yul\":6996:7063   */\n      tag_43\n      jump\t// in\n    tag_125:\n        /* \"#utility.yul\":6989:7063   */\n      swap2\n      pop\n        /* \"#utility.yul\":7072:7165   */\n      tag_126\n        /* \"#utility.yul\":7161:7164   */\n      dup3\n        /* \"#utility.yul\":7072:7165   */\n      tag_50\n      jump\t// in\n    tag_126:\n        /* \"#utility.yul\":7190:7192   */\n      0x40\n        /* \"#utility.yul\":7185:7188   */\n      dup3\n        /* \"#utility.yul\":7181:7193   */\n      add\n        /* \"#utility.yul\":7174:7193   */\n      swap1\n      pop\n        /* \"#utility.yul\":6833:7199   */\n      swap2\n      swap1\n      pop\n      jump\t// out\n        /* \"#utility.yul\":7205:7624   */\n    tag_22:\n        /* \"#utility.yul\":7371:7375   */\n      0x00\n        /* \"#utility.yul\":7409:7411   */\n      0x20\n        /* \"#utility.yul\":7398:7407   */\n      dup3\n        /* \"#utility.yul\":7394:7412   */\n      add\n        /* \"#utility.yul\":7386:7412   */\n      swap1\n      pop\n        /* \"#utility.yul\":7458:7467   */\n      dup2\n        /* \"#utility.yul\":7452:7456   */\n      dup2\n        /* \"#utility.yul\":7448:7468   */\n      sub\n        /* \"#utility.yul\":7444:7445   */\n      0x00\n        /* \"#utility.yul\":7433:7442   */\n      dup4\n        /* \"#utility.yul\":7429:7446   */\n      add\n        /* \"#utility.yul\":7422:7469   */\n      mstore\n        /* \"#utility.yul\":7486:7617   */\n      tag_128\n        /* \"#utility.yul\":7612:7616   */\n      dup2\n        /* \"#utility.yul\":7486:7617   */\n      tag_51\n      jump\t// in\n    tag_128:\n        /* \"#utility.yul\":7478:7617   */\n      swap1\n      pop\n        /* \"#utility.yul\":7205:7624   */\n      swap2\n      swap1\n      pop\n      jump\t// out\n\n    auxdata: 0xa2646970667358221220ebffedd88d1de9d5fa8b507c5c2f4cba99a85b3cce5685b6e928737b9479a03664736f6c63430008110033\n}\n",
				"bytecode": {
					"linkReferences": {},
					"object": "608060405234801561001057600080fd5b50336000806101000a81548173ffffffffffffffffffffffffffffffffffffffff021916908373ffffffffffffffffffffffffffffffffffffffff1602179055506105c6806100606000396000f3fe6080604052600436106100225760003560e01c8063be45fd621461002e57610029565b3661002957005b600080fd5b34801561003a57600080fd5b506100556004803603810190610050919061038a565b610057565b005b60008054906101000a900473ffffffffffffffffffffffffffffffffffffffff1673ffffffffffffffffffffffffffffffffffffffff163373ffffffffffffffffffffffffffffffffffffffff16146100e5576040517f08c379a00000000000000000000000000000000000000000000000000000000081526004016100dc90610456565b60405180910390fd5b6000808473ffffffffffffffffffffffffffffffffffffffff16848460405161010e91906104e7565b60006040518083038185875af1925050503d806000811461014b576040519150601f19603f3d011682016040523d82523d6000602084013e610150565b606091505b509150915081610195576040517f08c379a000000000000000000000000000000000000000000000000000000000815260040161018c90610570565b60405180910390fd5b5050505050565b6000604051905090565b600080fd5b600080fd5b600073ffffffffffffffffffffffffffffffffffffffff82169050919050565b60006101db826101b0565b9050919050565b6101eb816101d0565b81146101f657600080fd5b50565b600081359050610208816101e2565b92915050565b6000819050919050565b6102218161020e565b811461022c57600080fd5b50565b60008135905061023e81610218565b92915050565b600080fd5b600080fd5b6000601f19601f8301169050919050565b7f4e487b7100000000000000000000000000000000000000000000000000000000600052604160045260246000fd5b6102978261024e565b810181811067ffffffffffffffff821117156102b6576102b561025f565b5b80604052505050565b60006102c961019c565b90506102d5828261028e565b919050565b600067ffffffffffffffff8211156102f5576102f461025f565b5b6102fe8261024e565b9050602081019050919050565b82818337600083830152505050565b600061032d610328846102da565b6102bf565b90508281526020810184848401111561034957610348610249565b5b61035484828561030b565b509392505050565b600082601f83011261037157610370610244565b5b813561038184826020860161031a565b91505092915050565b6000806000606084860312156103a3576103a26101a6565b5b60006103b1868287016101f9565b93505060206103c28682870161022f565b925050604084013567ffffffffffffffff8111156103e3576103e26101ab565b5b6103ef8682870161035c565b9150509250925092565b600082825260208201905092915050565b7f596f7520617265206e6f7420746865206f776e65722c2061626f7274696e672e600082015250565b60006104406020836103f9565b915061044b8261040a565b602082019050919050565b6000602082019050818103600083015261046f81610433565b9050919050565b600081519050919050565b600081905092915050565b60005b838110156104aa57808201518184015260208101905061048f565b60008484015250505050565b60006104c182610476565b6104cb8185610481565b93506104db81856020860161048c565b80840191505092915050565b60006104f382846104b6565b915081905092915050565b7f41626f7274696e672063616c6c20776173206e6f74207375636365737366756c60008201527f2e00000000000000000000000000000000000000000000000000000000000000602082015250565b600061055a6021836103f9565b9150610565826104fe565b604082019050919050565b600060208201905081810360008301526105898161054d565b905091905056fea2646970667358221220ebffedd88d1de9d5fa8b507c5c2f4cba99a85b3cce5685b6e928737b9479a03664736f6c63430008110033",
					"opcodes": "PUSH1 0x80 PUSH1 0x40 MSTORE CALLVALUE DUP1 ISZERO PUSH2 0x10 JUMPI PUSH1 0x0 DUP1 REVERT JUMPDEST POP CALLER PUSH1 0x0 DUP1 PUSH2 0x100 EXP DUP2 SLOAD DUP2 PUSH20 0xFFFFFFFFFFFFFFFFFFFFFFFFFFFFFFFFFFFFFFFF MUL NOT AND SWAP1 DUP4 PUSH20 0xFFFFFFFFFFFFFFFFFFFFFFFFFFFFFFFFFFFFFFFF AND MUL OR SWAP1 SSTORE POP PUSH2 0x5C6 DUP1 PUSH2 0x60 PUSH1 0x0 CODECOPY PUSH1 0x0 RETURN INVALID PUSH1 0x80 PUSH1 0x40 MSTORE PUSH1 0x4 CALLDATASIZE LT PUSH2 0x22 JUMPI PUSH1 0x0 CALLDATALOAD PUSH1 0xE0 SHR DUP1 PUSH4 0xBE45FD62 EQ PUSH2 0x2E JUMPI PUSH2 0x29 JUMP JUMPDEST CALLDATASIZE PUSH2 0x29 JUMPI STOP JUMPDEST PUSH1 0x0 DUP1 REVERT JUMPDEST CALLVALUE DUP1 ISZERO PUSH2 0x3A JUMPI PUSH1 0x0 DUP1 REVERT JUMPDEST POP PUSH2 0x55 PUSH1 0x4 DUP1 CALLDATASIZE SUB DUP2 ADD SWAP1 PUSH2 0x50 SWAP2 SWAP1 PUSH2 0x38A JUMP JUMPDEST PUSH2 0x57 JUMP JUMPDEST STOP JUMPDEST PUSH1 0x0 DUP1 SLOAD SWAP1 PUSH2 0x100 EXP SWAP1 DIV PUSH20 0xFFFFFFFFFFFFFFFFFFFFFFFFFFFFFFFFFFFFFFFF AND PUSH20 0xFFFFFFFFFFFFFFFFFFFFFFFFFFFFFFFFFFFFFFFF AND CALLER PUSH20 0xFFFFFFFFFFFFFFFFFFFFFFFFFFFFFFFFFFFFFFFF AND EQ PUSH2 0xE5 JUMPI PUSH1 0x40 MLOAD PUSH32 0x8C379A000000000000000000000000000000000000000000000000000000000 DUP2 MSTORE PUSH1 0x4 ADD PUSH2 0xDC SWAP1 PUSH2 0x456 JUMP JUMPDEST PUSH1 0x40 MLOAD DUP1 SWAP2 SUB SWAP1 REVERT JUMPDEST PUSH1 0x0 DUP1 DUP5 PUSH20 0xFFFFFFFFFFFFFFFFFFFFFFFFFFFFFFFFFFFFFFFF AND DUP5 DUP5 PUSH1 0x40 MLOAD PUSH2 0x10E SWAP2 SWAP1 PUSH2 0x4E7 JUMP JUMPDEST PUSH1 0x0 PUSH1 0x40 MLOAD DUP1 DUP4 SUB DUP2 DUP6 DUP8 GAS CALL SWAP3 POP POP POP RETURNDATASIZE DUP1 PUSH1 0x0 DUP2 EQ PUSH2 0x14B JUMPI PUSH1 0x40 MLOAD SWAP2 POP PUSH1 0x1F NOT PUSH1 0x3F RETURNDATASIZE ADD AND DUP3 ADD PUSH1 0x40 MSTORE RETURNDATASIZE DUP3 MSTORE RETURNDATASIZE PUSH1 0x0 PUSH1 0x20 DUP5 ADD RETURNDATACOPY PUSH2 0x150 JUMP JUMPDEST PUSH1 0x60 SWAP2 POP JUMPDEST POP SWAP2 POP SWAP2 POP DUP2 PUSH2 0x195 JUMPI PUSH1 0x40 MLOAD PUSH32 0x8C379A000000000000000000000000000000000000000000000000000000000 DUP2 MSTORE PUSH1 0x4 ADD PUSH2 0x18C SWAP1 PUSH2 0x570 JUMP JUMPDEST PUSH1 0x40 MLOAD DUP1 SWAP2 SUB SWAP1 REVERT JUMPDEST POP POP POP POP POP JUMP JUMPDEST PUSH1 0x0 PUSH1 0x40 MLOAD SWAP1 POP SWAP1 JUMP JUMPDEST PUSH1 0x0 DUP1 REVERT JUMPDEST PUSH1 0x0 DUP1 REVERT JUMPDEST PUSH1 0x0 PUSH20 0xFFFFFFFFFFFFFFFFFFFFFFFFFFFFFFFFFFFFFFFF DUP3 AND SWAP1 POP SWAP2 SWAP1 POP JUMP JUMPDEST PUSH1 0x0 PUSH2 0x1DB DUP3 PUSH2 0x1B0 JUMP JUMPDEST SWAP1 POP SWAP2 SWAP1 POP JUMP JUMPDEST PUSH2 0x1EB DUP2 PUSH2 0x1D0 JUMP JUMPDEST DUP2 EQ PUSH2 0x1F6 JUMPI PUSH1 0x0 DUP1 REVERT JUMPDEST POP JUMP JUMPDEST PUSH1 0x0 DUP2 CALLDATALOAD SWAP1 POP PUSH2 0x208 DUP2 PUSH2 0x1E2 JUMP JUMPDEST SWAP3 SWAP2 POP POP JUMP JUMPDEST PUSH1 0x0 DUP2 SWAP1 POP SWAP2 SWAP1 POP JUMP JUMPDEST PUSH2 0x221 DUP2 PUSH2 0x20E JUMP JUMPDEST DUP2 EQ PUSH2 0x22C JUMPI PUSH1 0x0 DUP1 REVERT JUMPDEST POP JUMP JUMPDEST PUSH1 0x0 DUP2 CALLDATALOAD SWAP1 POP PUSH2 0x23E DUP2 PUSH2 0x218 JUMP JUMPDEST SWAP3 SWAP2 POP POP JUMP JUMPDEST PUSH1 0x0 DUP1 REVERT JUMPDEST PUSH1 0x0 DUP1 REVERT JUMPDEST PUSH1 0x0 PUSH1 0x1F NOT PUSH1 0x1F DUP4 ADD AND SWAP1 POP SWAP2 SWAP1 POP JUMP JUMPDEST PUSH32 0x4E487B7100000000000000000000000000000000000000000000000000000000 PUSH1 0x0 MSTORE PUSH1 0x41 PUSH1 0x4 MSTORE PUSH1 0x24 PUSH1 0x0 REVERT JUMPDEST PUSH2 0x297 DUP3 PUSH2 0x24E JUMP JUMPDEST DUP2 ADD DUP2 DUP2 LT PUSH8 0xFFFFFFFFFFFFFFFF DUP3 GT OR ISZERO PUSH2 0x2B6 JUMPI PUSH2 0x2B5 PUSH2 0x25F JUMP JUMPDEST JUMPDEST DUP1 PUSH1 0x40 MSTORE POP POP POP JUMP JUMPDEST PUSH1 0x0 PUSH2 0x2C9 PUSH2 0x19C JUMP JUMPDEST SWAP1 POP PUSH2 0x2D5 DUP3 DUP3 PUSH2 0x28E JUMP JUMPDEST SWAP2 SWAP1 POP JUMP JUMPDEST PUSH1 0x0 PUSH8 0xFFFFFFFFFFFFFFFF DUP3 GT ISZERO PUSH2 0x2F5 JUMPI PUSH2 0x2F4 PUSH2 0x25F JUMP JUMPDEST JUMPDEST PUSH2 0x2FE DUP3 PUSH2 0x24E JUMP JUMPDEST SWAP1 POP PUSH1 0x20 DUP2 ADD SWAP1 POP SWAP2 SWAP1 POP JUMP JUMPDEST DUP3 DUP2 DUP4 CALLDATACOPY PUSH1 0x0 DUP4 DUP4 ADD MSTORE POP POP POP JUMP JUMPDEST PUSH1 0x0 PUSH2 0x32D PUSH2 0x328 DUP5 PUSH2 0x2DA JUMP JUMPDEST PUSH2 0x2BF JUMP JUMPDEST SWAP1 POP DUP3 DUP2 MSTORE PUSH1 0x20 DUP2 ADD DUP5 DUP5 DUP5 ADD GT ISZERO PUSH2 0x349 JUMPI PUSH2 0x348 PUSH2 0x249 JUMP JUMPDEST JUMPDEST PUSH2 0x354 DUP5 DUP3 DUP6 PUSH2 0x30B JUMP JUMPDEST POP SWAP4 SWAP3 POP POP POP JUMP JUMPDEST PUSH1 0x0 DUP3 PUSH1 0x1F DUP4 ADD SLT PUSH2 0x371 JUMPI PUSH2 0x370 PUSH2 0x244 JUMP JUMPDEST JUMPDEST DUP2 CALLDATALOAD PUSH2 0x381 DUP5 DUP3 PUSH1 0x20 DUP7 ADD PUSH2 0x31A JUMP JUMPDEST SWAP2 POP POP SWAP3 SWAP2 POP POP JUMP JUMPDEST PUSH1 0x0 DUP1 PUSH1 0x0 PUSH1 0x60 DUP5 DUP7 SUB SLT ISZERO PUSH2 0x3A3 JUMPI PUSH2 0x3A2 PUSH2 0x1A6 JUMP JUMPDEST JUMPDEST PUSH1 0x0 PUSH2 0x3B1 DUP7 DUP3 DUP8 ADD PUSH2 0x1F9 JUMP JUMPDEST SWAP4 POP POP PUSH1 0x20 PUSH2 0x3C2 DUP7 DUP3 DUP8 ADD PUSH2 0x22F JUMP JUMPDEST SWAP3 POP POP PUSH1 0x40 DUP5 ADD CALLDATALOAD PUSH8 0xFFFFFFFFFFFFFFFF DUP2 GT ISZERO PUSH2 0x3E3 JUMPI PUSH2 0x3E2 PUSH2 0x1AB JUMP JUMPDEST JUMPDEST PUSH2 0x3EF DUP7 DUP3 DUP8 ADD PUSH2 0x35C JUMP JUMPDEST SWAP2 POP POP SWAP3 POP SWAP3 POP SWAP3 JUMP JUMPDEST PUSH1 0x0 DUP3 DUP3 MSTORE PUSH1 0x20 DUP3 ADD SWAP1 POP SWAP3 SWAP2 POP POP JUMP JUMPDEST PUSH32 0x596F7520617265206E6F7420746865206F776E65722C2061626F7274696E672E PUSH1 0x0 DUP3 ADD MSTORE POP JUMP JUMPDEST PUSH1 0x0 PUSH2 0x440 PUSH1 0x20 DUP4 PUSH2 0x3F9 JUMP JUMPDEST SWAP2 POP PUSH2 0x44B DUP3 PUSH2 0x40A JUMP JUMPDEST PUSH1 0x20 DUP3 ADD SWAP1 POP SWAP2 SWAP1 POP JUMP JUMPDEST PUSH1 0x0 PUSH1 0x20 DUP3 ADD SWAP1 POP DUP2 DUP2 SUB PUSH1 0x0 DUP4 ADD MSTORE PUSH2 0x46F DUP2 PUSH2 0x433 JUMP JUMPDEST SWAP1 POP SWAP2 SWAP1 POP JUMP JUMPDEST PUSH1 0x0 DUP2 MLOAD SWAP1 POP SWAP2 SWAP1 POP JUMP JUMPDEST PUSH1 0x0 DUP2 SWAP1 POP SWAP3 SWAP2 POP POP JUMP JUMPDEST PUSH1 0x0 JUMPDEST DUP4 DUP2 LT ISZERO PUSH2 0x4AA JUMPI DUP1 DUP3 ADD MLOAD DUP2 DUP5 ADD MSTORE PUSH1 0x20 DUP2 ADD SWAP1 POP PUSH2 0x48F JUMP JUMPDEST PUSH1 0x0 DUP5 DUP5 ADD MSTORE POP POP POP POP JUMP JUMPDEST PUSH1 0x0 PUSH2 0x4C1 DUP3 PUSH2 0x476 JUMP JUMPDEST PUSH2 0x4CB DUP2 DUP6 PUSH2 0x481 JUMP JUMPDEST SWAP4 POP PUSH2 0x4DB DUP2 DUP6 PUSH1 0x20 DUP7 ADD PUSH2 0x48C JUMP JUMPDEST DUP1 DUP5 ADD SWAP2 POP POP SWAP3 SWAP2 POP POP JUMP JUMPDEST PUSH1 0x0 PUSH2 0x4F3 DUP3 DUP5 PUSH2 0x4B6 JUMP JUMPDEST SWAP2 POP DUP2 SWAP1 POP SWAP3 SWAP2 POP POP JUMP JUMPDEST PUSH32 0x41626F7274696E672063616C6C20776173206E6F74207375636365737366756C PUSH1 0x0 DUP3 ADD MSTORE PUSH32 0x2E00000000000000000000000000000000000000000000000000000000000000 PUSH1 0x20 DUP3 ADD MSTORE POP JUMP JUMPDEST PUSH1 0x0 PUSH2 0x55A PUSH1 0x21 DUP4 PUSH2 0x3F9 JUMP JUMPDEST SWAP2 POP PUSH2 0x565 DUP3 PUSH2 0x4FE JUMP JUMPDEST PUSH1 0x40 DUP3 ADD SWAP1 POP SWAP2 SWAP1 POP JUMP JUMPDEST PUSH1 0x0 PUSH1 0x20 DUP3 ADD SWAP1 POP DUP2 DUP2 SUB PUSH1 0x0 DUP4 ADD MSTORE PUSH2 0x589 DUP2 PUSH2 0x54D JUMP JUMPDEST SWAP1 POP SWAP2 SWAP1 POP JUMP INVALID LOG2 PUSH5 0x6970667358 0x22 SLT KECCAK256 0xEB SELFDESTRUCT 0xED 0xD8 DUP14 SAR 0xE9 0xD5 STATICCALL DUP12 POP PUSH29 0x5C2F4CBA99A85B3CCE5685B6E928737B9479A03664736F6C6343000811 STOP CALLER "
				},
				"gasEstimates": {
					"creation": {
						"codeDepositCost": "295600",
						"executionCost": "24603",
						"totalCost": "320203"
					},
					"external": {
						"transfer(address,uint256,bytes)": "infinite"
					}
				},
				"methodIdentifiers": {
					"transfer(address,uint256,bytes)": "be45fd62"
				}
			},
			"storageLayout": {
				"storage": [
					{
						"astId": 3,
						"contract": "contracts/SmartContractWallet.sol:SmartContractWallet",
						"label": "owner",
						"offset": 0,
						"slot": "0",
						"type": "t_address_payable"
					}
				],
				"types": {
					"t_address_payable": {
						"encoding": "inplace",
						"label": "address payable",
						"numberOfBytes": "20"
					}
				}
			},
			"userdoc": {
				"kind": "user",
				"methods": {},
				"version": 1
			}
		}
	}
}