{
	"contracts/exceptions/TryCatchExample.sol": {
		"TryCatchExample": {
			"abi": [
				{
					"inputs": [],
					"name": "aFunction",
					"outputs": [],
					"stateMutability": "pure",
					"type": "function"
				}
			],
			"devdoc": {
				"kind": "dev",
				"methods": {},
				"version": 1
			},
			"evm": {
				"assembly": "    /* \"contracts/exceptions/TryCatchExample.sol\":208:333  contract TryCatchExample {... */\n  mstore(0x40, 0x80)\n  callvalue\n  dup1\n  iszero\n  tag_1\n  jumpi\n  0x00\n  dup1\n  revert\ntag_1:\n  pop\n  dataSize(sub_0)\n  dup1\n  dataOffset(sub_0)\n  0x00\n  codecopy\n  0x00\n  return\nstop\n\nsub_0: assembly {\n        /* \"contracts/exceptions/TryCatchExample.sol\":208:333  contract TryCatchExample {... */\n      mstore(0x40, 0x80)\n      callvalue\n      dup1\n      iszero\n      tag_1\n      jumpi\n      0x00\n      dup1\n      revert\n    tag_1:\n      pop\n      jumpi(tag_2, lt(calldatasize, 0x04))\n      shr(0xe0, calldataload(0x00))\n      dup1\n      0x39c117a4\n      eq\n      tag_3\n      jumpi\n    tag_2:\n      0x00\n      dup1\n      revert\n        /* \"contracts/exceptions/TryCatchExample.sol\":240:330  function aFunction() public pure {... */\n    tag_3:\n      tag_4\n      tag_5\n      jump\t// in\n    tag_4:\n      stop\n    tag_5:\n        /* \"contracts/exceptions/TryCatchExample.sol\":292:297  false */\n      0x00\n        /* \"contracts/exceptions/TryCatchExample.sol\":284:322  require(false, \"Throw error message.\") */\n      tag_7\n      jumpi\n      mload(0x40)\n      0x08c379a000000000000000000000000000000000000000000000000000000000\n      dup2\n      mstore\n      0x04\n      add\n      tag_8\n      swap1\n      tag_9\n      jump\t// in\n    tag_8:\n      mload(0x40)\n      dup1\n      swap2\n      sub\n      swap1\n      revert\n    tag_7:\n        /* \"contracts/exceptions/TryCatchExample.sol\":240:330  function aFunction() public pure {... */\n      jump\t// out\n        /* \"#utility.yul\":7:176   */\n    tag_10:\n        /* \"#utility.yul\":91:102   */\n      0x00\n        /* \"#utility.yul\":125:131   */\n      dup3\n        /* \"#utility.yul\":120:123   */\n      dup3\n        /* \"#utility.yul\":113:132   */\n      mstore\n        /* \"#utility.yul\":165:169   */\n      0x20\n        /* \"#utility.yul\":160:163   */\n      dup3\n        /* \"#utility.yul\":156:170   */\n      add\n        /* \"#utility.yul\":141:170   */\n      swap1\n      pop\n        /* \"#utility.yul\":7:176   */\n      swap3\n      swap2\n      pop\n      pop\n      jump\t// out\n        /* \"#utility.yul\":182:352   */\n    tag_11:\n        /* \"#utility.yul\":322:344   */\n      0x5468726f77206572726f72206d6573736167652e000000000000000000000000\n        /* \"#utility.yul\":318:319   */\n      0x00\n        /* \"#utility.yul\":310:316   */\n      dup3\n        /* \"#utility.yul\":306:320   */\n      add\n        /* \"#utility.yul\":299:345   */\n      mstore\n        /* \"#utility.yul\":182:352   */\n      pop\n      jump\t// out\n        /* \"#utility.yul\":358:724   */\n    tag_12:\n        /* \"#utility.yul\":500:503   */\n      0x00\n        /* \"#utility.yul\":521:588   */\n      tag_17\n        /* \"#utility.yul\":585:587   */\n      0x14\n        /* \"#utility.yul\":580:583   */\n      dup4\n        /* \"#utility.yul\":521:588   */\n      tag_10\n      jump\t// in\n    tag_17:\n        /* \"#utility.yul\":514:588   */\n      swap2\n      pop\n        /* \"#utility.yul\":597:690   */\n      tag_18\n        /* \"#utility.yul\":686:689   */\n      dup3\n        /* \"#utility.yul\":597:690   */\n      tag_11\n      jump\t// in\n    tag_18:\n        /* \"#utility.yul\":715:717   */\n      0x20\n        /* \"#utility.yul\":710:713   */\n      dup3\n        /* \"#utility.yul\":706:718   */\n      add\n        /* \"#utility.yul\":699:718   */\n      swap1\n      pop\n        /* \"#utility.yul\":358:724   */\n      swap2\n      swap1\n      pop\n      jump\t// out\n        /* \"#utility.yul\":730:1149   */\n    tag_9:\n        /* \"#utility.yul\":896:900   */\n      0x00\n        /* \"#utility.yul\":934:936   */\n      0x20\n        /* \"#utility.yul\":923:932   */\n      dup3\n        /* \"#utility.yul\":919:937   */\n      add\n        /* \"#utility.yul\":911:937   */\n      swap1\n      pop\n        /* \"#utility.yul\":983:992   */\n      dup2\n        /* \"#utility.yul\":977:981   */\n      dup2\n        /* \"#utility.yul\":973:993   */\n      sub\n        /* \"#utility.yul\":969:970   */\n      0x00\n        /* \"#utility.yul\":958:967   */\n      dup4\n        /* \"#utility.yul\":954:971   */\n      add\n        /* \"#utility.yul\":947:994   */\n      mstore\n        /* \"#utility.yul\":1011:1142   */\n      tag_20\n        /* \"#utility.yul\":1137:1141   */\n      dup2\n        /* \"#utility.yul\":1011:1142   */\n      tag_12\n      jump\t// in\n    tag_20:\n        /* \"#utility.yul\":1003:1142   */\n      swap1\n      pop\n        /* \"#utility.yul\":730:1149   */\n      swap2\n      swap1\n      pop\n      jump\t// out\n\n    auxdata: 0xa2646970667358221220441e6293af2ab7bb7e95408d7171732bd79586c3371668cd1ed0b4328279323064736f6c63430008110033\n}\n",
				"bytecode": {
					"linkReferences": {},
					"object": "608060405234801561001057600080fd5b50610122806100206000396000f3fe6080604052348015600f57600080fd5b506004361060285760003560e01c806339c117a414602d575b600080fd5b60336035565b005b60006073576040517f08c379a0000000000000000000000000000000000000000000000000000000008152600401606a9060ce565b60405180910390fd5b565b600082825260208201905092915050565b7f5468726f77206572726f72206d6573736167652e000000000000000000000000600082015250565b600060ba6014836075565b915060c3826086565b602082019050919050565b6000602082019050818103600083015260e58160af565b905091905056fea2646970667358221220441e6293af2ab7bb7e95408d7171732bd79586c3371668cd1ed0b4328279323064736f6c63430008110033",
					"opcodes": "PUSH1 0x80 PUSH1 0x40 MSTORE CALLVALUE DUP1 ISZERO PUSH2 0x10 JUMPI PUSH1 0x0 DUP1 REVERT JUMPDEST POP PUSH2 0x122 DUP1 PUSH2 0x20 PUSH1 0x0 CODECOPY PUSH1 0x0 RETURN INVALID PUSH1 0x80 PUSH1 0x40 MSTORE CALLVALUE DUP1 ISZERO PUSH1 0xF JUMPI PUSH1 0x0 DUP1 REVERT JUMPDEST POP PUSH1 0x4 CALLDATASIZE LT PUSH1 0x28 JUMPI PUSH1 0x0 CALLDATALOAD PUSH1 0xE0 SHR DUP1 PUSH4 0x39C117A4 EQ PUSH1 0x2D JUMPI JUMPDEST PUSH1 0x0 DUP1 REVERT JUMPDEST PUSH1 0x33 PUSH1 0x35 JUMP JUMPDEST STOP JUMPDEST PUSH1 0x0 PUSH1 0x73 JUMPI PUSH1 0x40 MLOAD PUSH32 0x8C379A000000000000000000000000000000000000000000000000000000000 DUP2 MSTORE PUSH1 0x4 ADD PUSH1 0x6A SWAP1 PUSH1 0xCE JUMP JUMPDEST PUSH1 0x40 MLOAD DUP1 SWAP2 SUB SWAP1 REVERT JUMPDEST JUMP JUMPDEST PUSH1 0x0 DUP3 DUP3 MSTORE PUSH1 0x20 DUP3 ADD SWAP1 POP SWAP3 SWAP2 POP POP JUMP JUMPDEST PUSH32 0x5468726F77206572726F72206D6573736167652E000000000000000000000000 PUSH1 0x0 DUP3 ADD MSTORE POP JUMP JUMPDEST PUSH1 0x0 PUSH1 0xBA PUSH1 0x14 DUP4 PUSH1 0x75 JUMP JUMPDEST SWAP2 POP PUSH1 0xC3 DUP3 PUSH1 0x86 JUMP JUMPDEST PUSH1 0x20 DUP3 ADD SWAP1 POP SWAP2 SWAP1 POP JUMP JUMPDEST PUSH1 0x0 PUSH1 0x20 DUP3 ADD SWAP1 POP DUP2 DUP2 SUB PUSH1 0x0 DUP4 ADD MSTORE PUSH1 0xE5 DUP2 PUSH1 0xAF JUMP JUMPDEST SWAP1 POP SWAP2 SWAP1 POP JUMP INVALID LOG2 PUSH5 0x6970667358 0x22 SLT KECCAK256 DIFFICULTY 0x1E PUSH3 0x93AF2A 0xB7 0xBB PUSH31 0x95408D7171732BD79586C3371668CD1ED0B4328279323064736F6C63430008 GT STOP CALLER "
				},
				"gasEstimates": {
					"creation": {
						"codeDepositCost": "58000",
						"executionCost": "111",
						"totalCost": "58111"
					},
					"external": {
						"aFunction()": "428"
					}
				},
				"methodIdentifiers": {
					"aFunction()": "39c117a4"
				}
			},
			"storageLayout": {
				"storage": [],
				"types": null
			},
			"userdoc": {
				"kind": "user",
				"methods": {},
				"version": 1
			}
		}
	}
}