{
	"contracts/exceptions/TryCatchExample.sol": {
		"errorHandling": {
			"abi": [
				{
					"anonymous": false,
					"inputs": [
						{
							"indexed": false,
							"internalType": "string",
							"name": "reason",
							"type": "string"
						}
					],
					"name": "ErrorLogging",
					"type": "event"
				},
				{
					"inputs": [],
					"name": "catchError",
					"outputs": [],
					"stateMutability": "nonpayable",
					"type": "function"
				}
			],
			"devdoc": {
				"kind": "dev",
				"methods": {},
				"version": 1
			},
			"evm": {
				"assembly": "    /* \"contracts/exceptions/TryCatchExample.sol\":337:666  contract errorHandling {... */\n  mstore(0x40, 0x80)\n  callvalue\n  dup1\n  iszero\n  tag_1\n  jumpi\n  0x00\n  dup1\n  revert\ntag_1:\n  pop\n  dataSize(sub_0)\n  dup1\n  dataOffset(sub_0)\n  0x00\n  codecopy\n  0x00\n  return\nstop\n\nsub_0: assembly {\n        /* \"contracts/exceptions/TryCatchExample.sol\":337:666  contract errorHandling {... */\n      mstore(0x40, 0x80)\n      callvalue\n      dup1\n      iszero\n      tag_1\n      jumpi\n      0x00\n      dup1\n      revert\n    tag_1:\n      pop\n      jumpi(tag_2, lt(calldatasize, 0x04))\n      shr(0xe0, calldataload(0x00))\n      dup1\n      0x8b188516\n      eq\n      tag_3\n      jumpi\n    tag_2:\n      0x00\n      dup1\n      revert\n        /* \"contracts/exceptions/TryCatchExample.sol\":409:663  function catchError() public {... */\n    tag_3:\n      tag_4\n      tag_5\n      jump\t// in\n    tag_4:\n      stop\n    tag_5:\n        /* \"contracts/exceptions/TryCatchExample.sol\":449:466  TryCatchExample e */\n      0x00\n        /* \"contracts/exceptions/TryCatchExample.sol\":469:490  new TryCatchExample() */\n      mload(0x40)\n      tag_7\n      swap1\n      tag_8\n      jump\t// in\n    tag_7:\n      mload(0x40)\n      dup1\n      swap2\n      sub\n      swap1\n      0x00\n      create\n      dup1\n      iszero\n      dup1\n      iszero\n      tag_9\n      jumpi\n      returndatasize\n      0x00\n      dup1\n      returndatacopy\n      revert(0x00, returndatasize)\n    tag_9:\n      pop\n        /* \"contracts/exceptions/TryCatchExample.sol\":449:490  TryCatchExample e = new TryCatchExample() */\n      swap1\n      pop\n        /* \"contracts/exceptions/TryCatchExample.sol\":505:506  e */\n      dup1\n        /* \"contracts/exceptions/TryCatchExample.sol\":505:516  e.aFunction */\n      0xffffffffffffffffffffffffffffffffffffffff\n      and\n      0x39c117a4\n        /* \"contracts/exceptions/TryCatchExample.sol\":505:518  e.aFunction() */\n      mload(0x40)\n      dup2\n      0xffffffff\n      and\n      0xe0\n      shl\n      dup2\n      mstore\n      0x04\n      add\n      0x00\n      mload(0x40)\n      dup1\n      dup4\n      sub\n      dup2\n      dup7\n      dup1\n      extcodesize\n      iszero\n      dup1\n      iszero\n      tag_10\n      jumpi\n      0x00\n      dup1\n      revert\n    tag_10:\n      pop\n      gas\n      staticcall\n      swap3\n      pop\n      pop\n      pop\n      dup1\n      iszero\n      tag_11\n      jumpi\n      pop\n      0x01\n    tag_11:\n        /* \"contracts/exceptions/TryCatchExample.sol\":501:656  try e.aFunction() {... */\n      tag_12\n      jumpi\n      tag_16\n      tag_17\n      jump\t// in\n    tag_16:\n      dup1\n      0x08c379a0\n      sub\n      tag_15\n      jumpi\n      pop\n      tag_18\n      tag_19\n      jump\t// in\n    tag_18:\n      dup1\n      tag_20\n      jumpi\n      pop\n      jump(tag_14)\n    tag_20:\n        /* \"contracts/exceptions/TryCatchExample.sol\":624:644  ErrorLogging(reason) */\n      0xdcbe72357183be3854887085e70fd914c4c1733a94106878f48e8ba069d8fabc\n        /* \"contracts/exceptions/TryCatchExample.sol\":637:643  reason */\n      dup2\n        /* \"contracts/exceptions/TryCatchExample.sol\":624:644  ErrorLogging(reason) */\n      mload(0x40)\n      tag_21\n      swap2\n      swap1\n      tag_22\n      jump\t// in\n    tag_21:\n      mload(0x40)\n      dup1\n      swap2\n      sub\n      swap1\n      log1\n        /* \"contracts/exceptions/TryCatchExample.sol\":570:656  catch Error(string memory reason) {... */\n      pop\n        /* \"contracts/exceptions/TryCatchExample.sol\":501:656  try e.aFunction() {... */\n      jump(tag_13)\n    tag_15:\n      pop\n    tag_14:\n      returndatasize\n      0x00\n      dup1\n      returndatacopy\n      revert(0x00, returndatasize)\n    tag_13:\n      jump(tag_23)\n    tag_12:\n    tag_23:\n        /* \"contracts/exceptions/TryCatchExample.sol\":438:663  {... */\n      pop\n        /* \"contracts/exceptions/TryCatchExample.sol\":409:663  function catchError() public {... */\n      jump\t// out\n    tag_8:\n      dataSize(sub_0)\n      dup1\n      dataOffset(sub_0)\n      dup4\n      codecopy\n      add\n      swap1\n      jump\t// out\n        /* \"#utility.yul\":7:113   */\n    tag_24:\n        /* \"#utility.yul\":51:59   */\n      0x00\n        /* \"#utility.yul\":100:105   */\n      dup2\n        /* \"#utility.yul\":95:98   */\n      0xe0\n        /* \"#utility.yul\":91:106   */\n      shr\n        /* \"#utility.yul\":70:106   */\n      swap1\n      pop\n        /* \"#utility.yul\":7:113   */\n      swap2\n      swap1\n      pop\n      jump\t// out\n        /* \"#utility.yul\":119:302   */\n    tag_17:\n        /* \"#utility.yul\":154:157   */\n      0x00\n        /* \"#utility.yul\":192:193   */\n      0x03\n        /* \"#utility.yul\":174:190   */\n      returndatasize\n        /* \"#utility.yul\":171:194   */\n      gt\n        /* \"#utility.yul\":168:296   */\n      iszero\n      tag_36\n      jumpi\n        /* \"#utility.yul\":230:231   */\n      0x04\n        /* \"#utility.yul\":227:228   */\n      0x00\n        /* \"#utility.yul\":224:225   */\n      dup1\n        /* \"#utility.yul\":209:232   */\n      returndatacopy\n        /* \"#utility.yul\":252:286   */\n      tag_37\n        /* \"#utility.yul\":283:284   */\n      0x00\n        /* \"#utility.yul\":277:285   */\n      mload\n        /* \"#utility.yul\":252:286   */\n      tag_24\n      jump\t// in\n    tag_37:\n        /* \"#utility.yul\":245:286   */\n      swap1\n      pop\n        /* \"#utility.yul\":168:296   */\n    tag_36:\n        /* \"#utility.yul\":119:302   */\n      swap1\n      jump\t// out\n        /* \"#utility.yul\":308:383   */\n    tag_25:\n        /* \"#utility.yul\":341:347   */\n      0x00\n        /* \"#utility.yul\":374:376   */\n      0x40\n        /* \"#utility.yul\":368:377   */\n      mload\n        /* \"#utility.yul\":358:377   */\n      swap1\n      pop\n        /* \"#utility.yul\":308:383   */\n      swap1\n      jump\t// out\n        /* \"#utility.yul\":389:491   */\n    tag_26:\n        /* \"#utility.yul\":430:436   */\n      0x00\n        /* \"#utility.yul\":481:483   */\n      0x1f\n        /* \"#utility.yul\":477:484   */\n      not\n        /* \"#utility.yul\":472:474   */\n      0x1f\n        /* \"#utility.yul\":465:470   */\n      dup4\n        /* \"#utility.yul\":461:475   */\n      add\n        /* \"#utility.yul\":457:485   */\n      and\n        /* \"#utility.yul\":447:485   */\n      swap1\n      pop\n        /* \"#utility.yul\":389:491   */\n      swap2\n      swap1\n      pop\n      jump\t// out\n        /* \"#utility.yul\":497:677   */\n    tag_27:\n        /* \"#utility.yul\":545:622   */\n      0x4e487b7100000000000000000000000000000000000000000000000000000000\n        /* \"#utility.yul\":542:543   */\n      0x00\n        /* \"#utility.yul\":535:623   */\n      mstore\n        /* \"#utility.yul\":642:646   */\n      0x41\n        /* \"#utility.yul\":639:640   */\n      0x04\n        /* \"#utility.yul\":632:647   */\n      mstore\n        /* \"#utility.yul\":666:670   */\n      0x24\n        /* \"#utility.yul\":663:664   */\n      0x00\n        /* \"#utility.yul\":656:671   */\n      revert\n        /* \"#utility.yul\":683:964   */\n    tag_28:\n        /* \"#utility.yul\":766:793   */\n      tag_42\n        /* \"#utility.yul\":788:792   */\n      dup3\n        /* \"#utility.yul\":766:793   */\n      tag_26\n      jump\t// in\n    tag_42:\n        /* \"#utility.yul\":758:764   */\n      dup2\n        /* \"#utility.yul\":754:794   */\n      add\n        /* \"#utility.yul\":896:902   */\n      dup2\n        /* \"#utility.yul\":884:894   */\n      dup2\n        /* \"#utility.yul\":881:903   */\n      lt\n        /* \"#utility.yul\":860:878   */\n      0xffffffffffffffff\n        /* \"#utility.yul\":848:858   */\n      dup3\n        /* \"#utility.yul\":845:879   */\n      gt\n        /* \"#utility.yul\":842:904   */\n      or\n        /* \"#utility.yul\":839:927   */\n      iszero\n      tag_43\n      jumpi\n        /* \"#utility.yul\":907:925   */\n      tag_44\n      tag_27\n      jump\t// in\n    tag_44:\n        /* \"#utility.yul\":839:927   */\n    tag_43:\n        /* \"#utility.yul\":947:957   */\n      dup1\n        /* \"#utility.yul\":943:945   */\n      0x40\n        /* \"#utility.yul\":936:958   */\n      mstore\n        /* \"#utility.yul\":726:964   */\n      pop\n        /* \"#utility.yul\":683:964   */\n      pop\n      pop\n      jump\t// out\n        /* \"#utility.yul\":970:1681   */\n    tag_19:\n        /* \"#utility.yul\":1009:1012   */\n      0x00\n        /* \"#utility.yul\":1047:1051   */\n      0x44\n        /* \"#utility.yul\":1029:1045   */\n      returndatasize\n        /* \"#utility.yul\":1026:1052   */\n      lt\n        /* \"#utility.yul\":1055:1060   */\n      tag_45\n        /* \"#utility.yul\":1023:1062   */\n      jumpi\n        /* \"#utility.yul\":1084:1104   */\n      tag_47\n      tag_25\n      jump\t// in\n    tag_47:\n        /* \"#utility.yul\":1159:1160   */\n      0x04\n        /* \"#utility.yul\":1141:1157   */\n      returndatasize\n        /* \"#utility.yul\":1137:1161   */\n      sub\n        /* \"#utility.yul\":1134:1135   */\n      0x04\n        /* \"#utility.yul\":1128:1132   */\n      dup3\n        /* \"#utility.yul\":1113:1162   */\n      returndatacopy\n        /* \"#utility.yul\":1192:1196   */\n      dup1\n        /* \"#utility.yul\":1186:1197   */\n      mload\n        /* \"#utility.yul\":1291:1307   */\n      returndatasize\n        /* \"#utility.yul\":1284:1288   */\n      0x24\n        /* \"#utility.yul\":1276:1282   */\n      dup3\n        /* \"#utility.yul\":1272:1289   */\n      add\n        /* \"#utility.yul\":1269:1308   */\n      gt\n        /* \"#utility.yul\":1236:1254   */\n      0xffffffffffffffff\n        /* \"#utility.yul\":1228:1234   */\n      dup3\n        /* \"#utility.yul\":1225:1255   */\n      gt\n        /* \"#utility.yul\":1209:1322   */\n      or\n        /* \"#utility.yul\":1206:1352   */\n      iszero\n      tag_48\n      jumpi\n        /* \"#utility.yul\":1337:1342   */\n      pop\n      pop\n      jump(tag_45)\n        /* \"#utility.yul\":1206:1352   */\n    tag_48:\n        /* \"#utility.yul\":1383:1389   */\n      dup1\n        /* \"#utility.yul\":1377:1381   */\n      dup3\n        /* \"#utility.yul\":1373:1390   */\n      add\n        /* \"#utility.yul\":1419:1422   */\n      dup1\n        /* \"#utility.yul\":1413:1423   */\n      mload\n        /* \"#utility.yul\":1446:1464   */\n      0xffffffffffffffff\n        /* \"#utility.yul\":1438:1444   */\n      dup2\n        /* \"#utility.yul\":1435:1465   */\n      gt\n        /* \"#utility.yul\":1432:1475   */\n      iszero\n      tag_49\n      jumpi\n        /* \"#utility.yul\":1468:1473   */\n      pop\n      pop\n      pop\n      pop\n      jump(tag_45)\n        /* \"#utility.yul\":1432:1475   */\n    tag_49:\n        /* \"#utility.yul\":1516:1522   */\n      dup1\n        /* \"#utility.yul\":1509:1513   */\n      0x20\n        /* \"#utility.yul\":1504:1507   */\n      dup4\n        /* \"#utility.yul\":1500:1514   */\n      add\n        /* \"#utility.yul\":1496:1523   */\n      add\n        /* \"#utility.yul\":1575:1576   */\n      0x04\n        /* \"#utility.yul\":1557:1573   */\n      returndatasize\n        /* \"#utility.yul\":1553:1577   */\n      sub\n        /* \"#utility.yul\":1547:1551   */\n      dup6\n        /* \"#utility.yul\":1543:1578   */\n      add\n        /* \"#utility.yul\":1538:1541   */\n      dup2\n        /* \"#utility.yul\":1535:1579   */\n      gt\n        /* \"#utility.yul\":1532:1589   */\n      iszero\n      tag_50\n      jumpi\n        /* \"#utility.yul\":1582:1587   */\n      pop\n      pop\n      pop\n      pop\n      pop\n      jump(tag_45)\n        /* \"#utility.yul\":1532:1589   */\n    tag_50:\n        /* \"#utility.yul\":1599:1656   */\n      tag_51\n        /* \"#utility.yul\":1647:1653   */\n      dup3\n        /* \"#utility.yul\":1641:1645   */\n      0x20\n        /* \"#utility.yul\":1637:1654   */\n      add\n        /* \"#utility.yul\":1629:1635   */\n      dup6\n        /* \"#utility.yul\":1625:1655   */\n      add\n        /* \"#utility.yul\":1619:1623   */\n      dup7\n        /* \"#utility.yul\":1599:1656   */\n      tag_28\n      jump\t// in\n    tag_51:\n        /* \"#utility.yul\":1672:1675   */\n      dup3\n        /* \"#utility.yul\":1665:1675   */\n      swap6\n      pop\n        /* \"#utility.yul\":1013:1681   */\n      pop\n      pop\n      pop\n      pop\n      pop\n        /* \"#utility.yul\":970:1681   */\n    tag_45:\n      swap1\n      jump\t// out\n        /* \"#utility.yul\":1687:1786   */\n    tag_29:\n        /* \"#utility.yul\":1739:1745   */\n      0x00\n        /* \"#utility.yul\":1773:1778   */\n      dup2\n        /* \"#utility.yul\":1767:1779   */\n      mload\n        /* \"#utility.yul\":1757:1779   */\n      swap1\n      pop\n        /* \"#utility.yul\":1687:1786   */\n      swap2\n      swap1\n      pop\n      jump\t// out\n        /* \"#utility.yul\":1792:1961   */\n    tag_30:\n        /* \"#utility.yul\":1876:1887   */\n      0x00\n        /* \"#utility.yul\":1910:1916   */\n      dup3\n        /* \"#utility.yul\":1905:1908   */\n      dup3\n        /* \"#utility.yul\":1898:1917   */\n      mstore\n        /* \"#utility.yul\":1950:1954   */\n      0x20\n        /* \"#utility.yul\":1945:1948   */\n      dup3\n        /* \"#utility.yul\":1941:1955   */\n      add\n        /* \"#utility.yul\":1926:1955   */\n      swap1\n      pop\n        /* \"#utility.yul\":1792:1961   */\n      swap3\n      swap2\n      pop\n      pop\n      jump\t// out\n        /* \"#utility.yul\":1967:2213   */\n    tag_31:\n        /* \"#utility.yul\":2048:2049   */\n      0x00\n        /* \"#utility.yul\":2058:2171   */\n    tag_55:\n        /* \"#utility.yul\":2072:2078   */\n      dup4\n        /* \"#utility.yul\":2069:2070   */\n      dup2\n        /* \"#utility.yul\":2066:2079   */\n      lt\n        /* \"#utility.yul\":2058:2171   */\n      iszero\n      tag_57\n      jumpi\n        /* \"#utility.yul\":2157:2158   */\n      dup1\n        /* \"#utility.yul\":2152:2155   */\n      dup3\n        /* \"#utility.yul\":2148:2159   */\n      add\n        /* \"#utility.yul\":2142:2160   */\n      mload\n        /* \"#utility.yul\":2138:2139   */\n      dup2\n        /* \"#utility.yul\":2133:2136   */\n      dup5\n        /* \"#utility.yul\":2129:2140   */\n      add\n        /* \"#utility.yul\":2122:2161   */\n      mstore\n        /* \"#utility.yul\":2094:2096   */\n      0x20\n        /* \"#utility.yul\":2091:2092   */\n      dup2\n        /* \"#utility.yul\":2087:2097   */\n      add\n        /* \"#utility.yul\":2082:2097   */\n      swap1\n      pop\n        /* \"#utility.yul\":2058:2171   */\n      jump(tag_55)\n    tag_57:\n        /* \"#utility.yul\":2205:2206   */\n      0x00\n        /* \"#utility.yul\":2196:2202   */\n      dup5\n        /* \"#utility.yul\":2191:2194   */\n      dup5\n        /* \"#utility.yul\":2187:2203   */\n      add\n        /* \"#utility.yul\":2180:2207   */\n      mstore\n        /* \"#utility.yul\":2029:2213   */\n      pop\n        /* \"#utility.yul\":1967:2213   */\n      pop\n      pop\n      pop\n      jump\t// out\n        /* \"#utility.yul\":2219:2596   */\n    tag_32:\n        /* \"#utility.yul\":2307:2310   */\n      0x00\n        /* \"#utility.yul\":2335:2374   */\n      tag_59\n        /* \"#utility.yul\":2368:2373   */\n      dup3\n        /* \"#utility.yul\":2335:2374   */\n      tag_29\n      jump\t// in\n    tag_59:\n        /* \"#utility.yul\":2390:2461   */\n      tag_60\n        /* \"#utility.yul\":2454:2460   */\n      dup2\n        /* \"#utility.yul\":2449:2452   */\n      dup6\n        /* \"#utility.yul\":2390:2461   */\n      tag_30\n      jump\t// in\n    tag_60:\n        /* \"#utility.yul\":2383:2461   */\n      swap4\n      pop\n        /* \"#utility.yul\":2470:2535   */\n      tag_61\n        /* \"#utility.yul\":2528:2534   */\n      dup2\n        /* \"#utility.yul\":2523:2526   */\n      dup6\n        /* \"#utility.yul\":2516:2520   */\n      0x20\n        /* \"#utility.yul\":2509:2514   */\n      dup7\n        /* \"#utility.yul\":2505:2521   */\n      add\n        /* \"#utility.yul\":2470:2535   */\n      tag_31\n      jump\t// in\n    tag_61:\n        /* \"#utility.yul\":2560:2589   */\n      tag_62\n        /* \"#utility.yul\":2582:2588   */\n      dup2\n        /* \"#utility.yul\":2560:2589   */\n      tag_26\n      jump\t// in\n    tag_62:\n        /* \"#utility.yul\":2555:2558   */\n      dup5\n        /* \"#utility.yul\":2551:2590   */\n      add\n        /* \"#utility.yul\":2544:2590   */\n      swap2\n      pop\n        /* \"#utility.yul\":2311:2596   */\n      pop\n        /* \"#utility.yul\":2219:2596   */\n      swap3\n      swap2\n      pop\n      pop\n      jump\t// out\n        /* \"#utility.yul\":2602:2915   */\n    tag_22:\n        /* \"#utility.yul\":2715:2719   */\n      0x00\n        /* \"#utility.yul\":2753:2755   */\n      0x20\n        /* \"#utility.yul\":2742:2751   */\n      dup3\n        /* \"#utility.yul\":2738:2756   */\n      add\n        /* \"#utility.yul\":2730:2756   */\n      swap1\n      pop\n        /* \"#utility.yul\":2802:2811   */\n      dup2\n        /* \"#utility.yul\":2796:2800   */\n      dup2\n        /* \"#utility.yul\":2792:2812   */\n      sub\n        /* \"#utility.yul\":2788:2789   */\n      0x00\n        /* \"#utility.yul\":2777:2786   */\n      dup4\n        /* \"#utility.yul\":2773:2790   */\n      add\n        /* \"#utility.yul\":2766:2813   */\n      mstore\n        /* \"#utility.yul\":2830:2908   */\n      tag_64\n        /* \"#utility.yul\":2903:2907   */\n      dup2\n        /* \"#utility.yul\":2894:2900   */\n      dup5\n        /* \"#utility.yul\":2830:2908   */\n      tag_32\n      jump\t// in\n    tag_64:\n        /* \"#utility.yul\":2822:2908   */\n      swap1\n      pop\n        /* \"#utility.yul\":2602:2915   */\n      swap3\n      swap2\n      pop\n      pop\n      jump\t// out\n    stop\n\n    sub_0: assembly {\n            /* \"contracts/exceptions/TryCatchExample.sol\":208:333  contract TryCatchExample {... */\n          mstore(0x40, 0x80)\n          callvalue\n          dup1\n          iszero\n          tag_1\n          jumpi\n          0x00\n          dup1\n          revert\n        tag_1:\n          pop\n          dataSize(sub_0)\n          dup1\n          dataOffset(sub_0)\n          0x00\n          codecopy\n          0x00\n          return\n        stop\n\n        sub_0: assembly {\n                /* \"contracts/exceptions/TryCatchExample.sol\":208:333  contract TryCatchExample {... */\n              mstore(0x40, 0x80)\n              callvalue\n              dup1\n              iszero\n              tag_1\n              jumpi\n              0x00\n              dup1\n              revert\n            tag_1:\n              pop\n              jumpi(tag_2, lt(calldatasize, 0x04))\n              shr(0xe0, calldataload(0x00))\n              dup1\n              0x39c117a4\n              eq\n              tag_3\n              jumpi\n            tag_2:\n              0x00\n              dup1\n              revert\n                /* \"contracts/exceptions/TryCatchExample.sol\":240:330  function aFunction() public pure {... */\n            tag_3:\n              tag_4\n              tag_5\n              jump\t// in\n            tag_4:\n              stop\n            tag_5:\n                /* \"contracts/exceptions/TryCatchExample.sol\":292:297  false */\n              0x00\n                /* \"contracts/exceptions/TryCatchExample.sol\":284:322  require(false, \"Throw error message.\") */\n              tag_7\n              jumpi\n              mload(0x40)\n              0x08c379a000000000000000000000000000000000000000000000000000000000\n              dup2\n              mstore\n              0x04\n              add\n              tag_8\n              swap1\n              tag_9\n              jump\t// in\n            tag_8:\n              mload(0x40)\n              dup1\n              swap2\n              sub\n              swap1\n              revert\n            tag_7:\n                /* \"contracts/exceptions/TryCatchExample.sol\":240:330  function aFunction() public pure {... */\n              jump\t// out\n                /* \"#utility.yul\":7:176   */\n            tag_10:\n                /* \"#utility.yul\":91:102   */\n              0x00\n                /* \"#utility.yul\":125:131   */\n              dup3\n                /* \"#utility.yul\":120:123   */\n              dup3\n                /* \"#utility.yul\":113:132   */\n              mstore\n                /* \"#utility.yul\":165:169   */\n              0x20\n                /* \"#utility.yul\":160:163   */\n              dup3\n                /* \"#utility.yul\":156:170   */\n              add\n                /* \"#utility.yul\":141:170   */\n              swap1\n              pop\n                /* \"#utility.yul\":7:176   */\n              swap3\n              swap2\n              pop\n              pop\n              jump\t// out\n                /* \"#utility.yul\":182:352   */\n            tag_11:\n                /* \"#utility.yul\":322:344   */\n              0x5468726f77206572726f72206d6573736167652e000000000000000000000000\n                /* \"#utility.yul\":318:319   */\n              0x00\n                /* \"#utility.yul\":310:316   */\n              dup3\n                /* \"#utility.yul\":306:320   */\n              add\n                /* \"#utility.yul\":299:345   */\n              mstore\n                /* \"#utility.yul\":182:352   */\n              pop\n              jump\t// out\n                /* \"#utility.yul\":358:724   */\n            tag_12:\n                /* \"#utility.yul\":500:503   */\n              0x00\n                /* \"#utility.yul\":521:588   */\n              tag_17\n                /* \"#utility.yul\":585:587   */\n              0x14\n                /* \"#utility.yul\":580:583   */\n              dup4\n                /* \"#utility.yul\":521:588   */\n              tag_10\n              jump\t// in\n            tag_17:\n                /* \"#utility.yul\":514:588   */\n              swap2\n              pop\n                /* \"#utility.yul\":597:690   */\n              tag_18\n                /* \"#utility.yul\":686:689   */\n              dup3\n                /* \"#utility.yul\":597:690   */\n              tag_11\n              jump\t// in\n            tag_18:\n                /* \"#utility.yul\":715:717   */\n              0x20\n                /* \"#utility.yul\":710:713   */\n              dup3\n                /* \"#utility.yul\":706:718   */\n              add\n                /* \"#utility.yul\":699:718   */\n              swap1\n              pop\n                /* \"#utility.yul\":358:724   */\n              swap2\n              swap1\n              pop\n              jump\t// out\n                /* \"#utility.yul\":730:1149   */\n            tag_9:\n                /* \"#utility.yul\":896:900   */\n              0x00\n                /* \"#utility.yul\":934:936   */\n              0x20\n                /* \"#utility.yul\":923:932   */\n              dup3\n                /* \"#utility.yul\":919:937   */\n              add\n                /* \"#utility.yul\":911:937   */\n              swap1\n              pop\n                /* \"#utility.yul\":983:992   */\n              dup2\n                /* \"#utility.yul\":977:981   */\n              dup2\n                /* \"#utility.yul\":973:993   */\n              sub\n                /* \"#utility.yul\":969:970   */\n              0x00\n                /* \"#utility.yul\":958:967   */\n              dup4\n                /* \"#utility.yul\":954:971   */\n              add\n                /* \"#utility.yul\":947:994   */\n              mstore\n                /* \"#utility.yul\":1011:1142   */\n              tag_20\n                /* \"#utility.yul\":1137:1141   */\n              dup2\n                /* \"#utility.yul\":1011:1142   */\n              tag_12\n              jump\t// in\n            tag_20:\n                /* \"#utility.yul\":1003:1142   */\n              swap1\n              pop\n                /* \"#utility.yul\":730:1149   */\n              swap2\n              swap1\n              pop\n              jump\t// out\n\n            auxdata: 0xa2646970667358221220441e6293af2ab7bb7e95408d7171732bd79586c3371668cd1ed0b4328279323064736f6c63430008110033\n        }\n    }\n\n    auxdata: 0xa264697066735822122024990f3ac867491e1c32f02a06d2c3be8bd28f17b5666a78a3b01e2caebd872764736f6c63430008110033\n}\n",
				"bytecode": {
					"linkReferences": {},
					"object": "608060405234801561001057600080fd5b5061049b806100206000396000f3fe608060405234801561001057600080fd5b506004361061002b5760003560e01c80638b18851614610030575b600080fd5b61003861003a565b005b60006040516100489061013b565b604051809103906000f080158015610064573d6000803e3d6000fd5b5090508073ffffffffffffffffffffffffffffffffffffffff166339c117a46040518163ffffffff1660e01b815260040160006040518083038186803b1580156100ad57600080fd5b505afa9250505080156100be575060015b610137576100ca610155565b806308c379a00361012657506100de6101f2565b806100e95750610128565b7fdcbe72357183be3854887085e70fd914c4c1733a94106878f48e8ba069d8fabc816040516101189190610301565b60405180910390a150610132565b505b3d6000803e3d6000fd5b610138565b5b50565b6101428061032483390190565b60008160e01c9050919050565b600060033d11156101745760046000803e610171600051610148565b90505b90565b6000604051905090565b6000601f19601f8301169050919050565b7f4e487b7100000000000000000000000000000000000000000000000000000000600052604160045260246000fd5b6101ca82610181565b810181811067ffffffffffffffff821117156101e9576101e8610192565b5b80604052505050565b600060443d1061027f57610204610177565b60043d036004823e80513d602482011167ffffffffffffffff8211171561022c57505061027f565b808201805167ffffffffffffffff81111561024a575050505061027f565b80602083010160043d03850181111561026757505050505061027f565b610276826020018501866101c1565b82955050505050505b90565b600081519050919050565b600082825260208201905092915050565b60005b838110156102bc5780820151818401526020810190506102a1565b60008484015250505050565b60006102d382610282565b6102dd818561028d565b93506102ed81856020860161029e565b6102f681610181565b840191505092915050565b6000602082019050818103600083015261031b81846102c8565b90509291505056fe608060405234801561001057600080fd5b50610122806100206000396000f3fe6080604052348015600f57600080fd5b506004361060285760003560e01c806339c117a414602d575b600080fd5b60336035565b005b60006073576040517f08c379a0000000000000000000000000000000000000000000000000000000008152600401606a9060ce565b60405180910390fd5b565b600082825260208201905092915050565b7f5468726f77206572726f72206d6573736167652e000000000000000000000000600082015250565b600060ba6014836075565b915060c3826086565b602082019050919050565b6000602082019050818103600083015260e58160af565b905091905056fea2646970667358221220441e6293af2ab7bb7e95408d7171732bd79586c3371668cd1ed0b4328279323064736f6c63430008110033a264697066735822122024990f3ac867491e1c32f02a06d2c3be8bd28f17b5666a78a3b01e2caebd872764736f6c63430008110033",
					"opcodes": "PUSH1 0x80 PUSH1 0x40 MSTORE CALLVALUE DUP1 ISZERO PUSH2 0x10 JUMPI PUSH1 0x0 DUP1 REVERT JUMPDEST POP PUSH2 0x49B DUP1 PUSH2 0x20 PUSH1 0x0 CODECOPY PUSH1 0x0 RETURN INVALID PUSH1 0x80 PUSH1 0x40 MSTORE CALLVALUE DUP1 ISZERO PUSH2 0x10 JUMPI PUSH1 0x0 DUP1 REVERT JUMPDEST POP PUSH1 0x4 CALLDATASIZE LT PUSH2 0x2B JUMPI PUSH1 0x0 CALLDATALOAD PUSH1 0xE0 SHR DUP1 PUSH4 0x8B188516 EQ PUSH2 0x30 JUMPI JUMPDEST PUSH1 0x0 DUP1 REVERT JUMPDEST PUSH2 0x38 PUSH2 0x3A JUMP JUMPDEST STOP JUMPDEST PUSH1 0x0 PUSH1 0x40 MLOAD PUSH2 0x48 SWAP1 PUSH2 0x13B JUMP JUMPDEST PUSH1 0x40 MLOAD DUP1 SWAP2 SUB SWAP1 PUSH1 0x0 CREATE DUP1 ISZERO DUP1 ISZERO PUSH2 0x64 JUMPI RETURNDATASIZE PUSH1 0x0 DUP1 RETURNDATACOPY RETURNDATASIZE PUSH1 0x0 REVERT JUMPDEST POP SWAP1 POP DUP1 PUSH20 0xFFFFFFFFFFFFFFFFFFFFFFFFFFFFFFFFFFFFFFFF AND PUSH4 0x39C117A4 PUSH1 0x40 MLOAD DUP2 PUSH4 0xFFFFFFFF AND PUSH1 0xE0 SHL DUP2 MSTORE PUSH1 0x4 ADD PUSH1 0x0 PUSH1 0x40 MLOAD DUP1 DUP4 SUB DUP2 DUP7 DUP1 EXTCODESIZE ISZERO DUP1 ISZERO PUSH2 0xAD JUMPI PUSH1 0x0 DUP1 REVERT JUMPDEST POP GAS STATICCALL SWAP3 POP POP POP DUP1 ISZERO PUSH2 0xBE JUMPI POP PUSH1 0x1 JUMPDEST PUSH2 0x137 JUMPI PUSH2 0xCA PUSH2 0x155 JUMP JUMPDEST DUP1 PUSH4 0x8C379A0 SUB PUSH2 0x126 JUMPI POP PUSH2 0xDE PUSH2 0x1F2 JUMP JUMPDEST DUP1 PUSH2 0xE9 JUMPI POP PUSH2 0x128 JUMP JUMPDEST PUSH32 0xDCBE72357183BE3854887085E70FD914C4C1733A94106878F48E8BA069D8FABC DUP2 PUSH1 0x40 MLOAD PUSH2 0x118 SWAP2 SWAP1 PUSH2 0x301 JUMP JUMPDEST PUSH1 0x40 MLOAD DUP1 SWAP2 SUB SWAP1 LOG1 POP PUSH2 0x132 JUMP JUMPDEST POP JUMPDEST RETURNDATASIZE PUSH1 0x0 DUP1 RETURNDATACOPY RETURNDATASIZE PUSH1 0x0 REVERT JUMPDEST PUSH2 0x138 JUMP JUMPDEST JUMPDEST POP JUMP JUMPDEST PUSH2 0x142 DUP1 PUSH2 0x324 DUP4 CODECOPY ADD SWAP1 JUMP JUMPDEST PUSH1 0x0 DUP2 PUSH1 0xE0 SHR SWAP1 POP SWAP2 SWAP1 POP JUMP JUMPDEST PUSH1 0x0 PUSH1 0x3 RETURNDATASIZE GT ISZERO PUSH2 0x174 JUMPI PUSH1 0x4 PUSH1 0x0 DUP1 RETURNDATACOPY PUSH2 0x171 PUSH1 0x0 MLOAD PUSH2 0x148 JUMP JUMPDEST SWAP1 POP JUMPDEST SWAP1 JUMP JUMPDEST PUSH1 0x0 PUSH1 0x40 MLOAD SWAP1 POP SWAP1 JUMP JUMPDEST PUSH1 0x0 PUSH1 0x1F NOT PUSH1 0x1F DUP4 ADD AND SWAP1 POP SWAP2 SWAP1 POP JUMP JUMPDEST PUSH32 0x4E487B7100000000000000000000000000000000000000000000000000000000 PUSH1 0x0 MSTORE PUSH1 0x41 PUSH1 0x4 MSTORE PUSH1 0x24 PUSH1 0x0 REVERT JUMPDEST PUSH2 0x1CA DUP3 PUSH2 0x181 JUMP JUMPDEST DUP2 ADD DUP2 DUP2 LT PUSH8 0xFFFFFFFFFFFFFFFF DUP3 GT OR ISZERO PUSH2 0x1E9 JUMPI PUSH2 0x1E8 PUSH2 0x192 JUMP JUMPDEST JUMPDEST DUP1 PUSH1 0x40 MSTORE POP POP POP JUMP JUMPDEST PUSH1 0x0 PUSH1 0x44 RETURNDATASIZE LT PUSH2 0x27F JUMPI PUSH2 0x204 PUSH2 0x177 JUMP JUMPDEST PUSH1 0x4 RETURNDATASIZE SUB PUSH1 0x4 DUP3 RETURNDATACOPY DUP1 MLOAD RETURNDATASIZE PUSH1 0x24 DUP3 ADD GT PUSH8 0xFFFFFFFFFFFFFFFF DUP3 GT OR ISZERO PUSH2 0x22C JUMPI POP POP PUSH2 0x27F JUMP JUMPDEST DUP1 DUP3 ADD DUP1 MLOAD PUSH8 0xFFFFFFFFFFFFFFFF DUP2 GT ISZERO PUSH2 0x24A JUMPI POP POP POP POP PUSH2 0x27F JUMP JUMPDEST DUP1 PUSH1 0x20 DUP4 ADD ADD PUSH1 0x4 RETURNDATASIZE SUB DUP6 ADD DUP2 GT ISZERO PUSH2 0x267 JUMPI POP POP POP POP POP PUSH2 0x27F JUMP JUMPDEST PUSH2 0x276 DUP3 PUSH1 0x20 ADD DUP6 ADD DUP7 PUSH2 0x1C1 JUMP JUMPDEST DUP3 SWAP6 POP POP POP POP POP POP JUMPDEST SWAP1 JUMP JUMPDEST PUSH1 0x0 DUP2 MLOAD SWAP1 POP SWAP2 SWAP1 POP JUMP JUMPDEST PUSH1 0x0 DUP3 DUP3 MSTORE PUSH1 0x20 DUP3 ADD SWAP1 POP SWAP3 SWAP2 POP POP JUMP JUMPDEST PUSH1 0x0 JUMPDEST DUP4 DUP2 LT ISZERO PUSH2 0x2BC JUMPI DUP1 DUP3 ADD MLOAD DUP2 DUP5 ADD MSTORE PUSH1 0x20 DUP2 ADD SWAP1 POP PUSH2 0x2A1 JUMP JUMPDEST PUSH1 0x0 DUP5 DUP5 ADD MSTORE POP POP POP POP JUMP JUMPDEST PUSH1 0x0 PUSH2 0x2D3 DUP3 PUSH2 0x282 JUMP JUMPDEST PUSH2 0x2DD DUP2 DUP6 PUSH2 0x28D JUMP JUMPDEST SWAP4 POP PUSH2 0x2ED DUP2 DUP6 PUSH1 0x20 DUP7 ADD PUSH2 0x29E JUMP JUMPDEST PUSH2 0x2F6 DUP2 PUSH2 0x181 JUMP JUMPDEST DUP5 ADD SWAP2 POP POP SWAP3 SWAP2 POP POP JUMP JUMPDEST PUSH1 0x0 PUSH1 0x20 DUP3 ADD SWAP1 POP DUP2 DUP2 SUB PUSH1 0x0 DUP4 ADD MSTORE PUSH2 0x31B DUP2 DUP5 PUSH2 0x2C8 JUMP JUMPDEST SWAP1 POP SWAP3 SWAP2 POP POP JUMP INVALID PUSH1 0x80 PUSH1 0x40 MSTORE CALLVALUE DUP1 ISZERO PUSH2 0x10 JUMPI PUSH1 0x0 DUP1 REVERT JUMPDEST POP PUSH2 0x122 DUP1 PUSH2 0x20 PUSH1 0x0 CODECOPY PUSH1 0x0 RETURN INVALID PUSH1 0x80 PUSH1 0x40 MSTORE CALLVALUE DUP1 ISZERO PUSH1 0xF JUMPI PUSH1 0x0 DUP1 REVERT JUMPDEST POP PUSH1 0x4 CALLDATASIZE LT PUSH1 0x28 JUMPI PUSH1 0x0 CALLDATALOAD PUSH1 0xE0 SHR DUP1 PUSH4 0x39C117A4 EQ PUSH1 0x2D JUMPI JUMPDEST PUSH1 0x0 DUP1 REVERT JUMPDEST PUSH1 0x33 PUSH1 0x35 JUMP JUMPDEST STOP JUMPDEST PUSH1 0x0 PUSH1 0x73 JUMPI PUSH1 0x40 MLOAD PUSH32 0x8C379A000000000000000000000000000000000000000000000000000000000 DUP2 MSTORE PUSH1 0x4 ADD PUSH1 0x6A SWAP1 PUSH1 0xCE JUMP JUMPDEST PUSH1 0x40 MLOAD DUP1 SWAP2 SUB SWAP1 REVERT JUMPDEST JUMP JUMPDEST PUSH1 0x0 DUP3 DUP3 MSTORE PUSH1 0x20 DUP3 ADD SWAP1 POP SWAP3 SWAP2 POP POP JUMP JUMPDEST PUSH32 0x5468726F77206572726F72206D6573736167652E000000000000000000000000 PUSH1 0x0 DUP3 ADD MSTORE POP JUMP JUMPDEST PUSH1 0x0 PUSH1 0xBA PUSH1 0x14 DUP4 PUSH1 0x75 JUMP JUMPDEST SWAP2 POP PUSH1 0xC3 DUP3 PUSH1 0x86 JUMP JUMPDEST PUSH1 0x20 DUP3 ADD SWAP1 POP SWAP2 SWAP1 POP JUMP JUMPDEST PUSH1 0x0 PUSH1 0x20 DUP3 ADD SWAP1 POP DUP2 DUP2 SUB PUSH1 0x0 DUP4 ADD MSTORE PUSH1 0xE5 DUP2 PUSH1 0xAF JUMP JUMPDEST SWAP1 POP SWAP2 SWAP1 POP JUMP INVALID LOG2 PUSH5 0x6970667358 0x22 SLT KECCAK256 DIFFICULTY 0x1E PUSH3 0x93AF2A 0xB7 0xBB PUSH31 0x95408D7171732BD79586C3371668CD1ED0B4328279323064736F6C63430008 GT STOP CALLER LOG2 PUSH5 0x6970667358 0x22 SLT KECCAK256 0x24 SWAP10 0xF GASPRICE 0xC8 PUSH8 0x491E1C32F02A06D2 0xC3 0xBE DUP12 0xD2 DUP16 OR 0xB5 PUSH7 0x6A78A3B01E2CAE 0xBD DUP8 0x27 PUSH5 0x736F6C6343 STOP ADDMOD GT STOP CALLER "
				},
				"gasEstimates": {
					"creation": {
						"codeDepositCost": "235800",
						"executionCost": "275",
						"totalCost": "236075"
					},
					"external": {
						"catchError()": "infinite"
					}
				},
				"methodIdentifiers": {
					"catchError()": "8b188516"
				}
			},
			"storageLayout": {
				"storage": [],
				"types": null
			},
			"userdoc": {
				"kind": "user",
				"methods": {},
				"version": 1
			}
		}
	}
}