{
	"contracts/exceptions/RequireExample.sol": {
		"RequireExample": {
			"abi": [
				{
					"inputs": [],
					"name": "deposit",
					"outputs": [],
					"stateMutability": "nonpayable",
					"type": "function"
				},
				{
					"inputs": [],
					"name": "withdrawl",
					"outputs": [],
					"stateMutability": "nonpayable",
					"type": "function"
				}
			],
			"devdoc": {
				"kind": "dev",
				"methods": {},
				"version": 1
			},
			"evm": {
				"assembly": "    /* \"contracts/exceptions/RequireExample.sol\":149:255  contract RequireExample {... */\n  mstore(0x40, 0x80)\n  callvalue\n  dup1\n  iszero\n  tag_1\n  jumpi\n  0x00\n  dup1\n  revert\ntag_1:\n  pop\n  dataSize(sub_0)\n  dup1\n  dataOffset(sub_0)\n  0x00\n  codecopy\n  0x00\n  return\nstop\n\nsub_0: assembly {\n        /* \"contracts/exceptions/RequireExample.sol\":149:255  contract RequireExample {... */\n      mstore(0x40, 0x80)\n      callvalue\n      dup1\n      iszero\n      tag_1\n      jumpi\n      0x00\n      dup1\n      revert\n    tag_1:\n      pop\n      jumpi(tag_2, lt(calldatasize, 0x04))\n      shr(0xe0, calldataload(0x00))\n      dup1\n      0x3aedfb8b\n      eq\n      tag_3\n      jumpi\n      dup1\n      0xd0e30db0\n      eq\n      tag_4\n      jumpi\n    tag_2:\n      0x00\n      dup1\n      revert\n        /* \"contracts/exceptions/RequireExample.sol\":222:252  function withdrawl() public {} */\n    tag_3:\n      tag_5\n      tag_6\n      jump\t// in\n    tag_5:\n      stop\n        /* \"contracts/exceptions/RequireExample.sol\":186:214  function deposit() public {} */\n    tag_4:\n      tag_7\n      tag_8\n      jump\t// in\n    tag_7:\n      stop\n        /* \"contracts/exceptions/RequireExample.sol\":222:252  function withdrawl() public {} */\n    tag_6:\n      jump\t// out\n        /* \"contracts/exceptions/RequireExample.sol\":186:214  function deposit() public {} */\n    tag_8:\n      jump\t// out\n\n    auxdata: 0xa26469706673582212201b32c2f7b72b25d93cd39e67849e341eaf7bea2369272d8b8f5cbe2e6ee1f35a64736f6c63430008110033\n}\n",
				"bytecode": {
					"linkReferences": {},
					"object": "6080604052348015600f57600080fd5b5060818061001e6000396000f3fe6080604052348015600f57600080fd5b506004361060325760003560e01c80633aedfb8b146037578063d0e30db014603f575b600080fd5b603d6047565b005b60456049565b005b565b56fea26469706673582212201b32c2f7b72b25d93cd39e67849e341eaf7bea2369272d8b8f5cbe2e6ee1f35a64736f6c63430008110033",
					"opcodes": "PUSH1 0x80 PUSH1 0x40 MSTORE CALLVALUE DUP1 ISZERO PUSH1 0xF JUMPI PUSH1 0x0 DUP1 REVERT JUMPDEST POP PUSH1 0x81 DUP1 PUSH2 0x1E PUSH1 0x0 CODECOPY PUSH1 0x0 RETURN INVALID PUSH1 0x80 PUSH1 0x40 MSTORE CALLVALUE DUP1 ISZERO PUSH1 0xF JUMPI PUSH1 0x0 DUP1 REVERT JUMPDEST POP PUSH1 0x4 CALLDATASIZE LT PUSH1 0x32 JUMPI PUSH1 0x0 CALLDATALOAD PUSH1 0xE0 SHR DUP1 PUSH4 0x3AEDFB8B EQ PUSH1 0x37 JUMPI DUP1 PUSH4 0xD0E30DB0 EQ PUSH1 0x3F JUMPI JUMPDEST PUSH1 0x0 DUP1 REVERT JUMPDEST PUSH1 0x3D PUSH1 0x47 JUMP JUMPDEST STOP JUMPDEST PUSH1 0x45 PUSH1 0x49 JUMP JUMPDEST STOP JUMPDEST JUMP JUMPDEST JUMP INVALID LOG2 PUSH5 0x6970667358 0x22 SLT KECCAK256 SHL ORIGIN 0xC2 0xF7 0xB7 0x2B 0x25 0xD9 EXTCODECOPY 0xD3 SWAP15 PUSH8 0x849E341EAF7BEA23 PUSH10 0x272D8B8F5CBE2E6EE1F3 GAS PUSH5 0x736F6C6343 STOP ADDMOD GT STOP CALLER "
				},
				"gasEstimates": {
					"creation": {
						"codeDepositCost": "25800",
						"executionCost": "81",
						"totalCost": "25881"
					},
					"external": {
						"deposit()": "144",
						"withdrawl()": "122"
					}
				},
				"methodIdentifiers": {
					"deposit()": "d0e30db0",
					"withdrawl()": "3aedfb8b"
				}
			},
			"storageLayout": {
				"storage": [],
				"types": null
			},
			"userdoc": {
				"kind": "user",
				"methods": {},
				"version": 1
			}
		}
	}
}