{
	"data": {
		"bytecode": {
			"linkReferences": {},
			"object": "608060405234801561001057600080fd5b506103ed806100206000396000f3fe608060405234801561001057600080fd5b506004361061002b5760003560e01c80638b18851614610030575b600080fd5b61003861003a565b005b60006040516100489061013b565b604051809103906000f080158015610064573d6000803e3d6000fd5b5090508073ffffffffffffffffffffffffffffffffffffffff166339c117a46040518163ffffffff1660e01b815260040160006040518083038186803b1580156100ad57600080fd5b505afa9250505080156100be575060015b610137576100ca610154565b806308c379a00361012657506100de6101f1565b806100e95750610128565b7fdcbe72357183be3854887085e70fd914c4c1733a94106878f48e8ba069d8fabc816040516101189190610300565b60405180910390a150610132565b505b3d6000803e3d6000fd5b610138565b5b50565b60958061032383390190565b60008160e01c9050919050565b600060033d11156101735760046000803e610170600051610147565b90505b90565b6000604051905090565b6000601f19601f8301169050919050565b7f4e487b7100000000000000000000000000000000000000000000000000000000600052604160045260246000fd5b6101c982610180565b810181811067ffffffffffffffff821117156101e8576101e7610191565b5b80604052505050565b600060443d1061027e57610203610176565b60043d036004823e80513d602482011167ffffffffffffffff8211171561022b57505061027e565b808201805167ffffffffffffffff811115610249575050505061027e565b80602083010160043d03850181111561026657505050505061027e565b610275826020018501866101c0565b82955050505050505b90565b600081519050919050565b600082825260208201905092915050565b60005b838110156102bb5780820151818401526020810190506102a0565b60008484015250505050565b60006102d282610281565b6102dc818561028c565b93506102ec81856020860161029d565b6102f581610180565b840191505092915050565b6000602082019050818103600083015261031a81846102c7565b90509291505056fe6080604052348015600f57600080fd5b5060778061001e6000396000f3fe6080604052348015600f57600080fd5b506004361060285760003560e01c806339c117a414602d575b600080fd5b60336035565b005b6000603f57600080fd5b56fea2646970667358221220d5940ad2967d1f2a124debc3b1a5470411121b8d18380ee4255bb8ba0470cf7564736f6c63430008110033a2646970667358221220e405ab51801962371bd8f528045cfee1f85a3aa0ae359a65770e31ba1ba217fe64736f6c63430008110033",
			"opcodes": "PUSH1 0x80 PUSH1 0x40 MSTORE CALLVALUE DUP1 ISZERO PUSH2 0x10 JUMPI PUSH1 0x0 DUP1 REVERT JUMPDEST POP PUSH2 0x3ED DUP1 PUSH2 0x20 PUSH1 0x0 CODECOPY PUSH1 0x0 RETURN INVALID PUSH1 0x80 PUSH1 0x40 MSTORE CALLVALUE DUP1 ISZERO PUSH2 0x10 JUMPI PUSH1 0x0 DUP1 REVERT JUMPDEST POP PUSH1 0x4 CALLDATASIZE LT PUSH2 0x2B JUMPI PUSH1 0x0 CALLDATALOAD PUSH1 0xE0 SHR DUP1 PUSH4 0x8B188516 EQ PUSH2 0x30 JUMPI JUMPDEST PUSH1 0x0 DUP1 REVERT JUMPDEST PUSH2 0x38 PUSH2 0x3A JUMP JUMPDEST STOP JUMPDEST PUSH1 0x0 PUSH1 0x40 MLOAD PUSH2 0x48 SWAP1 PUSH2 0x13B JUMP JUMPDEST PUSH1 0x40 MLOAD DUP1 SWAP2 SUB SWAP1 PUSH1 0x0 CREATE DUP1 ISZERO DUP1 ISZERO PUSH2 0x64 JUMPI RETURNDATASIZE PUSH1 0x0 DUP1 RETURNDATACOPY RETURNDATASIZE PUSH1 0x0 REVERT JUMPDEST POP SWAP1 POP DUP1 PUSH20 0xFFFFFFFFFFFFFFFFFFFFFFFFFFFFFFFFFFFFFFFF AND PUSH4 0x39C117A4 PUSH1 0x40 MLOAD DUP2 PUSH4 0xFFFFFFFF AND PUSH1 0xE0 SHL DUP2 MSTORE PUSH1 0x4 ADD PUSH1 0x0 PUSH1 0x40 MLOAD DUP1 DUP4 SUB DUP2 DUP7 DUP1 EXTCODESIZE ISZERO DUP1 ISZERO PUSH2 0xAD JUMPI PUSH1 0x0 DUP1 REVERT JUMPDEST POP GAS STATICCALL SWAP3 POP POP POP DUP1 ISZERO PUSH2 0xBE JUMPI POP PUSH1 0x1 JUMPDEST PUSH2 0x137 JUMPI PUSH2 0xCA PUSH2 0x154 JUMP JUMPDEST DUP1 PUSH4 0x8C379A0 SUB PUSH2 0x126 JUMPI POP PUSH2 0xDE PUSH2 0x1F1 JUMP JUMPDEST DUP1 PUSH2 0xE9 JUMPI POP PUSH2 0x128 JUMP JUMPDEST PUSH32 0xDCBE72357183BE3854887085E70FD914C4C1733A94106878F48E8BA069D8FABC DUP2 PUSH1 0x40 MLOAD PUSH2 0x118 SWAP2 SWAP1 PUSH2 0x300 JUMP JUMPDEST PUSH1 0x40 MLOAD DUP1 SWAP2 SUB SWAP1 LOG1 POP PUSH2 0x132 JUMP JUMPDEST POP JUMPDEST RETURNDATASIZE PUSH1 0x0 DUP1 RETURNDATACOPY RETURNDATASIZE PUSH1 0x0 REVERT JUMPDEST PUSH2 0x138 JUMP JUMPDEST JUMPDEST POP JUMP JUMPDEST PUSH1 0x95 DUP1 PUSH2 0x323 DUP4 CODECOPY ADD SWAP1 JUMP JUMPDEST PUSH1 0x0 DUP2 PUSH1 0xE0 SHR SWAP1 POP SWAP2 SWAP1 POP JUMP JUMPDEST PUSH1 0x0 PUSH1 0x3 RETURNDATASIZE GT ISZERO PUSH2 0x173 JUMPI PUSH1 0x4 PUSH1 0x0 DUP1 RETURNDATACOPY PUSH2 0x170 PUSH1 0x0 MLOAD PUSH2 0x147 JUMP JUMPDEST SWAP1 POP JUMPDEST SWAP1 JUMP JUMPDEST PUSH1 0x0 PUSH1 0x40 MLOAD SWAP1 POP SWAP1 JUMP JUMPDEST PUSH1 0x0 PUSH1 0x1F NOT PUSH1 0x1F DUP4 ADD AND SWAP1 POP SWAP2 SWAP1 POP JUMP JUMPDEST PUSH32 0x4E487B7100000000000000000000000000000000000000000000000000000000 PUSH1 0x0 MSTORE PUSH1 0x41 PUSH1 0x4 MSTORE PUSH1 0x24 PUSH1 0x0 REVERT JUMPDEST PUSH2 0x1C9 DUP3 PUSH2 0x180 JUMP JUMPDEST DUP2 ADD DUP2 DUP2 LT PUSH8 0xFFFFFFFFFFFFFFFF DUP3 GT OR ISZERO PUSH2 0x1E8 JUMPI PUSH2 0x1E7 PUSH2 0x191 JUMP JUMPDEST JUMPDEST DUP1 PUSH1 0x40 MSTORE POP POP POP JUMP JUMPDEST PUSH1 0x0 PUSH1 0x44 RETURNDATASIZE LT PUSH2 0x27E JUMPI PUSH2 0x203 PUSH2 0x176 JUMP JUMPDEST PUSH1 0x4 RETURNDATASIZE SUB PUSH1 0x4 DUP3 RETURNDATACOPY DUP1 MLOAD RETURNDATASIZE PUSH1 0x24 DUP3 ADD GT PUSH8 0xFFFFFFFFFFFFFFFF DUP3 GT OR ISZERO PUSH2 0x22B JUMPI POP POP PUSH2 0x27E JUMP JUMPDEST DUP1 DUP3 ADD DUP1 MLOAD PUSH8 0xFFFFFFFFFFFFFFFF DUP2 GT ISZERO PUSH2 0x249 JUMPI POP POP POP POP PUSH2 0x27E JUMP JUMPDEST DUP1 PUSH1 0x20 DUP4 ADD ADD PUSH1 0x4 RETURNDATASIZE SUB DUP6 ADD DUP2 GT ISZERO PUSH2 0x266 JUMPI POP POP POP POP POP PUSH2 0x27E JUMP JUMPDEST PUSH2 0x275 DUP3 PUSH1 0x20 ADD DUP6 ADD DUP7 PUSH2 0x1C0 JUMP JUMPDEST DUP3 SWAP6 POP POP POP POP POP POP JUMPDEST SWAP1 JUMP JUMPDEST PUSH1 0x0 DUP2 MLOAD SWAP1 POP SWAP2 SWAP1 POP JUMP JUMPDEST PUSH1 0x0 DUP3 DUP3 MSTORE PUSH1 0x20 DUP3 ADD SWAP1 POP SWAP3 SWAP2 POP POP JUMP JUMPDEST PUSH1 0x0 JUMPDEST DUP4 DUP2 LT ISZERO PUSH2 0x2BB JUMPI DUP1 DUP3 ADD MLOAD DUP2 DUP5 ADD MSTORE PUSH1 0x20 DUP2 ADD SWAP1 POP PUSH2 0x2A0 JUMP JUMPDEST PUSH1 0x0 DUP5 DUP5 ADD MSTORE POP POP POP POP JUMP JUMPDEST PUSH1 0x0 PUSH2 0x2D2 DUP3 PUSH2 0x281 JUMP JUMPDEST PUSH2 0x2DC DUP2 DUP6 PUSH2 0x28C JUMP JUMPDEST SWAP4 POP PUSH2 0x2EC DUP2 DUP6 PUSH1 0x20 DUP7 ADD PUSH2 0x29D JUMP JUMPDEST PUSH2 0x2F5 DUP2 PUSH2 0x180 JUMP JUMPDEST DUP5 ADD SWAP2 POP POP SWAP3 SWAP2 POP POP JUMP JUMPDEST PUSH1 0x0 PUSH1 0x20 DUP3 ADD SWAP1 POP DUP2 DUP2 SUB PUSH1 0x0 DUP4 ADD MSTORE PUSH2 0x31A DUP2 DUP5 PUSH2 0x2C7 JUMP JUMPDEST SWAP1 POP SWAP3 SWAP2 POP POP JUMP INVALID PUSH1 0x80 PUSH1 0x40 MSTORE CALLVALUE DUP1 ISZERO PUSH1 0xF JUMPI PUSH1 0x0 DUP1 REVERT JUMPDEST POP PUSH1 0x77 DUP1 PUSH2 0x1E PUSH1 0x0 CODECOPY PUSH1 0x0 RETURN INVALID PUSH1 0x80 PUSH1 0x40 MSTORE CALLVALUE DUP1 ISZERO PUSH1 0xF JUMPI PUSH1 0x0 DUP1 REVERT JUMPDEST POP PUSH1 0x4 CALLDATASIZE LT PUSH1 0x28 JUMPI PUSH1 0x0 CALLDATALOAD PUSH1 0xE0 SHR DUP1 PUSH4 0x39C117A4 EQ PUSH1 0x2D JUMPI JUMPDEST PUSH1 0x0 DUP1 REVERT JUMPDEST PUSH1 0x33 PUSH1 0x35 JUMP JUMPDEST STOP JUMPDEST PUSH1 0x0 PUSH1 0x3F JUMPI PUSH1 0x0 DUP1 REVERT JUMPDEST JUMP INVALID LOG2 PUSH5 0x6970667358 0x22 SLT KECCAK256 0xD5 SWAP5 EXP 0xD2 SWAP7 PUSH30 0x1F2A124DEBC3B1A5470411121B8D18380EE4255BB8BA0470CF7564736F6C PUSH4 0x43000811 STOP CALLER LOG2 PUSH5 0x6970667358 0x22 SLT KECCAK256 0xE4 SDIV 0xAB MLOAD DUP1 NOT PUSH3 0x371BD8 CREATE2 0x28 DIV 0x5C INVALID 0xE1 0xF8 GAS GASPRICE LOG0 0xAE CALLDATALOAD SWAP11 PUSH6 0x770E31BA1BA2 OR INVALID PUSH5 0x736F6C6343 STOP ADDMOD GT STOP CALLER "
		},
		"gasEstimates": {
			"creation": {
				"codeDepositCost": "201000",
				"executionCost": "245",
				"totalCost": "201245"
			},
			"external": {
				"catchError()": "infinite"
			}
		},
		"methodIdentifiers": {
			"catchError()": "8b188516"
		}
	},
	"abi": [
		{
			"anonymous": false,
			"inputs": [
				{
					"indexed": false,
					"internalType": "string",
					"name": "reason",
					"type": "string"
				}
			],
			"name": "ErrorLogging",
			"type": "event"
		},
		{
			"inputs": [],
			"name": "catchError",
			"outputs": [],
			"stateMutability": "nonpayable",
			"type": "function"
		}
	]
}